{
  "_format": "hh-sol-artifact-1",
  "contractName": "Rps2Mock",
  "sourceName": "contracts/Mock/Rps2Mock.sol",
  "abi": [
    {
      "inputs": [
        {
          "internalType": "uint64",
          "name": "subscriptionId",
          "type": "uint64"
        },
        {
          "internalType": "address",
          "name": "_coordomator",
          "type": "address"
        },
        {
          "internalType": "bytes32",
          "name": "_keyHash",
          "type": "bytes32"
        }
      ],
      "stateMutability": "payable",
      "type": "constructor"
    },
    {
      "inputs": [
        {
          "internalType": "address",
          "name": "have",
          "type": "address"
        },
        {
          "internalType": "address",
          "name": "want",
          "type": "address"
        }
      ],
      "name": "OnlyCoordinatorCanFulfill",
      "type": "error"
    },
    {
      "anonymous": false,
      "inputs": [
        {
          "indexed": true,
          "internalType": "address",
          "name": "player",
          "type": "address"
        },
        {
          "indexed": false,
          "internalType": "enum Rps2.Moves",
          "name": "playerMove",
          "type": "uint8"
        },
        {
          "indexed": false,
          "internalType": "enum Rps2.Moves",
          "name": "hostMove",
          "type": "uint8"
        },
        {
          "indexed": false,
          "internalType": "uint256",
          "name": "bet",
          "type": "uint256"
        }
      ],
      "name": "Draw",
      "type": "event"
    },
    {
      "anonymous": false,
      "inputs": [
        {
          "indexed": true,
          "internalType": "address",
          "name": "winner",
          "type": "address"
        },
        {
          "indexed": false,
          "internalType": "uint256",
          "name": "amount",
          "type": "uint256"
        }
      ],
      "name": "FomoPayment",
      "type": "event"
    },
    {
      "anonymous": false,
      "inputs": [
        {
          "indexed": true,
          "internalType": "address",
          "name": "winner",
          "type": "address"
        },
        {
          "indexed": false,
          "internalType": "uint256",
          "name": "endTime",
          "type": "uint256"
        }
      ],
      "name": "FomoTimerIncrease",
      "type": "event"
    },
    {
      "anonymous": false,
      "inputs": [
        {
          "indexed": true,
          "internalType": "address",
          "name": "winner",
          "type": "address"
        },
        {
          "indexed": false,
          "internalType": "uint256",
          "name": "endTime",
          "type": "uint256"
        }
      ],
      "name": "FomoTimerStart",
      "type": "event"
    },
    {
      "anonymous": false,
      "inputs": [
        {
          "indexed": true,
          "internalType": "address",
          "name": "player",
          "type": "address"
        },
        {
          "indexed": false,
          "internalType": "enum Rps2.Moves",
          "name": "playerMove",
          "type": "uint8"
        },
        {
          "indexed": false,
          "internalType": "enum Rps2.Moves",
          "name": "hostMove",
          "type": "uint8"
        },
        {
          "indexed": false,
          "internalType": "uint256",
          "name": "bet",
          "type": "uint256"
        }
      ],
      "name": "Lost",
      "type": "event"
    },
    {
      "anonymous": false,
      "inputs": [
        {
          "indexed": true,
          "internalType": "address",
          "name": "sender",
          "type": "address"
        },
        {
          "indexed": false,
          "internalType": "uint256",
          "name": "amount",
          "type": "uint256"
        }
      ],
      "name": "NewFomoDeposit",
      "type": "event"
    },
    {
      "anonymous": false,
      "inputs": [
        {
          "indexed": true,
          "internalType": "address",
          "name": "from",
          "type": "address"
        },
        {
          "indexed": true,
          "internalType": "address",
          "name": "to",
          "type": "address"
        }
      ],
      "name": "OwnershipTransferRequested",
      "type": "event"
    },
    {
      "anonymous": false,
      "inputs": [
        {
          "indexed": true,
          "internalType": "address",
          "name": "from",
          "type": "address"
        },
        {
          "indexed": true,
          "internalType": "address",
          "name": "to",
          "type": "address"
        }
      ],
      "name": "OwnershipTransferred",
      "type": "event"
    },
    {
      "anonymous": false,
      "inputs": [
        {
          "indexed": false,
          "internalType": "uint256",
          "name": "requestId",
          "type": "uint256"
        },
        {
          "indexed": false,
          "internalType": "uint256[]",
          "name": "randomWords",
          "type": "uint256[]"
        }
      ],
      "name": "RequestFulfilled",
      "type": "event"
    },
    {
      "anonymous": false,
      "inputs": [
        {
          "indexed": false,
          "internalType": "uint256",
          "name": "requestId",
          "type": "uint256"
        },
        {
          "indexed": false,
          "internalType": "uint32",
          "name": "numWords",
          "type": "uint32"
        }
      ],
      "name": "RequestSent",
      "type": "event"
    },
    {
      "anonymous": false,
      "inputs": [
        {
          "indexed": true,
          "internalType": "address",
          "name": "player",
          "type": "address"
        },
        {
          "indexed": false,
          "internalType": "enum Rps2.Moves",
          "name": "playerMove",
          "type": "uint8"
        },
        {
          "indexed": false,
          "internalType": "enum Rps2.Moves",
          "name": "hostMove",
          "type": "uint8"
        },
        {
          "indexed": false,
          "internalType": "uint256",
          "name": "bet",
          "type": "uint256"
        }
      ],
      "name": "Won",
      "type": "event"
    },
    {
      "anonymous": false,
      "inputs": [
        {
          "indexed": false,
          "internalType": "enum Rps2.Moves",
          "name": "hostMove",
          "type": "uint8"
        }
      ],
      "name": "hostCommitedMove",
      "type": "event"
    },
    {
      "inputs": [],
      "name": "MIN_BET",
      "outputs": [
        {
          "internalType": "uint256",
          "name": "",
          "type": "uint256"
        }
      ],
      "stateMutability": "view",
      "type": "function"
    },
    {
      "inputs": [],
      "name": "REVEAL_TIMEOUT",
      "outputs": [
        {
          "internalType": "uint256",
          "name": "",
          "type": "uint256"
        }
      ],
      "stateMutability": "view",
      "type": "function"
    },
    {
      "inputs": [],
      "name": "acceptOwnership",
      "outputs": [],
      "stateMutability": "nonpayable",
      "type": "function"
    },
    {
      "inputs": [],
      "name": "bet",
      "outputs": [
        {
          "internalType": "uint256",
          "name": "",
          "type": "uint256"
        }
      ],
      "stateMutability": "view",
      "type": "function"
    },
    {
      "inputs": [],
      "name": "fomoEndTime",
      "outputs": [
        {
          "internalType": "uint256",
          "name": "",
          "type": "uint256"
        }
      ],
      "stateMutability": "view",
      "type": "function"
    },
    {
      "inputs": [],
      "name": "fomoPool",
      "outputs": [
        {
          "internalType": "uint256",
          "name": "",
          "type": "uint256"
        }
      ],
      "stateMutability": "view",
      "type": "function"
    },
    {
      "inputs": [],
      "name": "fomoWinner",
      "outputs": [
        {
          "internalType": "address",
          "name": "",
          "type": "address"
        }
      ],
      "stateMutability": "view",
      "type": "function"
    },
    {
      "inputs": [
        {
          "internalType": "uint256",
          "name": "_requestId",
          "type": "uint256"
        }
      ],
      "name": "getRequestStatus",
      "outputs": [
        {
          "internalType": "bool",
          "name": "fulfilled",
          "type": "bool"
        },
        {
          "internalType": "uint256[]",
          "name": "randomWords",
          "type": "uint256[]"
        }
      ],
      "stateMutability": "view",
      "type": "function"
    },
    {
      "inputs": [],
      "name": "lastRequestId",
      "outputs": [
        {
          "internalType": "uint256",
          "name": "",
          "type": "uint256"
        }
      ],
      "stateMutability": "view",
      "type": "function"
    },
    {
      "inputs": [],
      "name": "moveHost",
      "outputs": [
        {
          "internalType": "enum Rps2.Moves",
          "name": "",
          "type": "uint8"
        }
      ],
      "stateMutability": "view",
      "type": "function"
    },
    {
      "inputs": [],
      "name": "movePlayer",
      "outputs": [
        {
          "internalType": "enum Rps2.Moves",
          "name": "",
          "type": "uint8"
        }
      ],
      "stateMutability": "view",
      "type": "function"
    },
    {
      "inputs": [],
      "name": "owner",
      "outputs": [
        {
          "internalType": "address",
          "name": "",
          "type": "address"
        }
      ],
      "stateMutability": "view",
      "type": "function"
    },
    {
      "inputs": [
        {
          "internalType": "bytes32",
          "name": "_encryptedMove",
          "type": "bytes32"
        }
      ],
      "name": "playBet",
      "outputs": [],
      "stateMutability": "payable",
      "type": "function"
    },
    {
      "inputs": [],
      "name": "processFomo",
      "outputs": [],
      "stateMutability": "nonpayable",
      "type": "function"
    },
    {
      "inputs": [],
      "name": "randomWordsNum",
      "outputs": [
        {
          "internalType": "uint256",
          "name": "",
          "type": "uint256"
        }
      ],
      "stateMutability": "view",
      "type": "function"
    },
    {
      "inputs": [
        {
          "internalType": "uint256",
          "name": "requestId",
          "type": "uint256"
        },
        {
          "internalType": "uint256[]",
          "name": "randomWords",
          "type": "uint256[]"
        }
      ],
      "name": "rawFulfillRandomWords",
      "outputs": [],
      "stateMutability": "nonpayable",
      "type": "function"
    },
    {
      "inputs": [
        {
          "internalType": "uint256",
          "name": "",
          "type": "uint256"
        }
      ],
      "name": "requestIds",
      "outputs": [
        {
          "internalType": "uint256",
          "name": "",
          "type": "uint256"
        }
      ],
      "stateMutability": "view",
      "type": "function"
    },
    {
      "inputs": [],
      "name": "requestRandomWords",
      "outputs": [
        {
          "internalType": "uint256",
          "name": "requestId",
          "type": "uint256"
        }
      ],
      "stateMutability": "nonpayable",
      "type": "function"
    },
    {
      "inputs": [
        {
          "internalType": "string",
          "name": "clearMove",
          "type": "string"
        }
      ],
      "name": "reveal",
      "outputs": [
        {
          "internalType": "bool",
          "name": "",
          "type": "bool"
        }
      ],
      "stateMutability": "nonpayable",
      "type": "function"
    },
    {
      "inputs": [
        {
          "internalType": "uint256",
          "name": "",
          "type": "uint256"
        }
      ],
      "name": "s_requests",
      "outputs": [
        {
          "internalType": "bool",
          "name": "fulfilled",
          "type": "bool"
        },
        {
          "internalType": "bool",
          "name": "exists",
          "type": "bool"
        }
      ],
      "stateMutability": "view",
      "type": "function"
    },
    {
      "inputs": [
        {
          "internalType": "uint256",
          "name": "num",
          "type": "uint256"
        }
      ],
      "name": "setRandomWordsNum",
      "outputs": [],
      "stateMutability": "nonpayable",
      "type": "function"
    },
    {
      "inputs": [
        {
          "internalType": "address",
          "name": "to",
          "type": "address"
        }
      ],
      "name": "transferOwnership",
      "outputs": [],
      "stateMutability": "nonpayable",
      "type": "function"
    },
    {
      "inputs": [
        {
          "internalType": "uint256",
          "name": "amount",
          "type": "uint256"
        }
      ],
      "name": "withdraw",
      "outputs": [],
      "stateMutability": "nonpayable",
      "type": "function"
    },
    {
      "stateMutability": "payable",
      "type": "receive"
    }
  ],
  "bytecode": "0x60c0604081905260006003819055600455600f80546001600160501b03191666010003000249f017905562001cd7388190039081908339810160408190526200004891620001de565b6001600160601b0319606083901b166080528282823380600081620000b45760405162461bcd60e51b815260206004820152601860248201527f43616e6e6f7420736574206f776e657220746f207a65726f000000000000000060448201526064015b60405180910390fd5b600080546001600160a01b0319166001600160a01b0384811691909117909155811615620000e757620000e78162000132565b5050600160025550600c80546001600160401b03909416600160a01b026001600160e01b03199094166001600160a01b039093169290921792909217905560a052506200023c915050565b6001600160a01b0381163314156200018d5760405162461bcd60e51b815260206004820152601760248201527f43616e6e6f74207472616e7366657220746f2073656c660000000000000000006044820152606401620000ab565b600180546001600160a01b0319166001600160a01b0383811691821790925560008054604051929316917fed8889f560326eb138920d842192f0eb3dd22b4f139c87a2c57538e05bae12789190a350565b600080600060608486031215620001f457600080fd5b83516001600160401b03811681146200020c57600080fd5b60208501519093506001600160a01b03811681146200022a57600080fd5b80925050604084015190509250925092565b60805160601c60a051611a6b6200026c6000396000610bf901526000818161068101526106c30152611a6b6000f3fe6080604052600436106101445760003560e01c8063872175e5116100b6578063a168fa891161006f578063a168fa8914610360578063b33d5259146103b0578063d8a4676f146103c6578063e0c86289146103f4578063f2fde38b14610409578063fc2a88c31461042957600080fd5b8063872175e5146102a05780638796ba8c146102bf5780638890d757146102df5780638da5cb5b146103175780639063def5146103355780639a8ff87c1461034a57600080fd5b806341089bdf1161010857806341089bdf146101e35780634c261247146101f95780635284b1f4146102295780636540742f14610250578063654177841461026b57806379ba50971461028b57600080fd5b806311610c251461015057806312e505c9146101795780631fe543e31461018e5780632e1a7d4d146101ae5780633d6ae3a7146101ce57600080fd5b3661014b57005b600080fd5b34801561015c57600080fd5b5061016660065481565b6040519081526020015b60405180910390f35b61018c610187366004611684565b61043f565b005b34801561019a57600080fd5b5061018c6101a936600461174b565b610676565b3480156101ba57600080fd5b5061018c6101c9366004611684565b6106fe565b3480156101da57600080fd5b50610166607881565b3480156101ef57600080fd5b5061016660045481565b34801561020557600080fd5b506102196102143660046116b6565b610775565b6040519015158152602001610170565b34801561023557600080fd5b50600a546102439060ff1681565b60405161017091906118a0565b34801561025c57600080fd5b50610166662386f26fc1000081565b34801561027757600080fd5b5061018c610286366004611684565b6109ed565b34801561029757600080fd5b5061018c6109fa565b3480156102ac57600080fd5b50600a5461024390610100900460ff1681565b3480156102cb57600080fd5b506101666102da366004611684565b610aa4565b3480156102eb57600080fd5b506005546102ff906001600160a01b031681565b6040516001600160a01b039091168152602001610170565b34801561032357600080fd5b506000546001600160a01b03166102ff565b34801561034157600080fd5b5061018c610ac5565b34801561035657600080fd5b5061016660105481565b34801561036c57600080fd5b5061039961037b366004611684565b600b6020526000908152604090205460ff8082169161010090041682565b604080519215158352901515602083015201610170565b3480156103bc57600080fd5b5061016660035481565b3480156103d257600080fd5b506103e66103e1366004611684565b610ae6565b60405161017092919061187d565b34801561040057600080fd5b50610166610bda565b34801561041557600080fd5b5061018c610424366004611654565b610dcb565b34801561043557600080fd5b50610166600e5481565b60075415801561045d575060786007546104599190611921565b4211155b1561050d576008546001600160a01b0316156104b75760405162461bcd60e51b81526020600482015260146024820152732090383630bcb2b91034b990383630bcb4b7339760611b60448201526064015b60405180910390fd5b600654156105005760405162461bcd60e51b81526020600482015260166024820152752132ba1034b990383630b1b2b21030b63932b0b23c9760511b60448201526064016104ae565b6009541561050d57600080fd5b662386f26fc100003410156105645760405162461bcd60e51b815260206004820152601d60248201527f496e73756666696369656e742062616c61616e636520746f206265742e00000060448201526064016104ae565b4761057034600261194d565b11156105be5760405162461bcd60e51b815260206004820152601d60248201527f4265742065786365656465642062616c616e6365206f6620686f73742e00000060448201526064016104ae565b6007541515806105db575060786007546105d89190611921565b42115b1561064057600854600a546006546040516001600160a01b03909316927f4e975787ea7dc6679a1751654c0d39bb1f0b641921163fa3f4694d74b167caea926106309260009261010090920460ff16916118ae565b60405180910390a2610640610ddc565b610648610e08565b610650610edc565b600880546001600160a01b03191633179055346006556009819055610673610fc4565b50565b336001600160a01b037f000000000000000000000000000000000000000000000000000000000000000016146106f05760405163073e64fd60e21b81523360048201526001600160a01b037f00000000000000000000000000000000000000000000000000000000000000001660248201526044016104ae565b6106fa8282611042565b5050565b610706611129565b804710156107485760405162461bcd60e51b815260206004820152600f60248201526e42616c616e636520746f6f206c6f7760881b60448201526064016104ae565b604051339082156108fc029083906000818181858888f193505050501580156106fa573d6000803e3d6000fd5b6008546000906001600160a01b031633146107cb5760405162461bcd60e51b81526020600482015260166024820152752cb7ba9030b932903cb7ba903a343290383630bcb2b960511b60448201526064016104ae565b600954158015906107f857506000600a54610100900460ff1660038111156107f5576107f56119f3565b14155b6108545760405162461bcd60e51b815260206004820152602760248201527f4e6f7420626f746820706c617965727320636f6d6d69747465642074686569726044820152661036b7bb32b99760c91b60648201526084016104ae565b61085c61117c565b60006002836040516020016108719190611861565b60408051601f198184030181529082905261088b91611861565b602060405180830381855afa1580156108a8573d6000803e3d6000fd5b5050506040513d601f19601f820116820180604052508101906108cb919061169d565b905060006108d8846111d4565b60038111156108e9576108e96119f3565b905060008160038111156108ff576108ff6119f3565b1415610910576000925050506109de565b81600954141561094357600a805482919060ff19166001836003811115610939576109396119f3565b021790555061094e565b6000925050506109de565b600a5460009060ff166003811115610968576109686119f3565b600a54909150600090610100900460ff16600381111561098a5761098a6119f3565b905060006109988383611257565b60ff1660038111156109ac576109ac6119f3565b6008546006549192506109cc916001600160a01b039091169083906112c5565b6109d4610ddc565b6001955050505050505b6109e86001600255565b919050565b6109f5611129565b601055565b6001546001600160a01b03163314610a4d5760405162461bcd60e51b815260206004820152601660248201527526bab9ba10313290383937b837b9b2b21037bbb732b960511b60448201526064016104ae565b60008054336001600160a01b0319808316821784556001805490911690556040516001600160a01b0390921692909183917f8be0079c531659141344cd1fd0a4f28419497f9722a3daafe3b4186f6b6457e091a350565b600d8181548110610ab457600080fd5b600091825260209091200154905081565b6005546001600160a01b03163314610adc57600080fd5b610ae4610e08565b565b6000818152600b6020526040812054606090610100900460ff16610b405760405162461bcd60e51b81526020600482015260116024820152701c995c5d595cdd081b9bdd08199bdd5b99607a1b60448201526064016104ae565b6000838152600b602090815260408083208151606081018352815460ff8082161515835261010090910416151581850152600182018054845181870281018701865281815292959394860193830182828015610bbb57602002820191906000526020600020905b815481526020019060010190808311610ba7575b5050505050815250509050806000015181604001519250925050915091565b6000610be4611129565b600c54600f546040516305d3b1d360e41b81527f00000000000000000000000000000000000000000000000000000000000000006004820152600160a01b830467ffffffffffffffff166024820152640100000000820461ffff16604482015263ffffffff8083166064830152660100000000000090920490911660848201526001600160a01b0390911690635d3b1d309060a401602060405180830381600087803b158015610c9357600080fd5b505af1158015610ca7573d6000803e3d6000fd5b505050506040513d601f19601f82011682018060405250810190610ccb919061169d565b6040805160608101825260008082526001602080840182815285518481528083018752858701908152878552600b83529590932084518154945161ffff1990951690151561ff00191617610100941515949094029390931783559351805195965092949193610d4093918501929101906115f4565b5050600d80546001810182556000919091527fd7b6990105719101dabeb77144f2a3385c8033acd3af97e9423a695e81ad1eb50182905550600e819055600f5460408051838152660100000000000090920463ffffffff1660208301527fcc58b13ad3eab50626c6a6300b1d139cd6ebb1688a7cced9461c2f7e762665ee910160405180910390a190565b610dd3611129565b610673816114ac565b600060068190556007819055600880546001600160a01b0319169055600955600a805461ffff19169055565b6005546001600160a01b0316610e1a57565b426004541115610e2657565b6000600455600580546001600160a01b031981169091556003546001600160a01b0390911690610e535750565b6003805460009182905560405190916001600160a01b0384169183156108fc0291849190818181858888f19350505050158015610e94573d6000803e3d6000fd5b50816001600160a01b03167f28a45baa754d821eb63cfb5c69d4e4394742c59fee22dab38cd5c02fb2af892182604051610ed091815260200190565b60405180910390a25050565b6005546001600160a01b0316610f5257600580546001600160a01b03191633179055610f0a42610e10611921565b60048190556005546040519182526001600160a01b0316907fdfe6afd72ccc12e327008dfe046a3af52d0d4bad81ed2ba3ecd1057345bc7cd1906020015b60405180910390a2565b600a600354610f619190611939565b341015610f6a57565b600454610f7990610e10611921565b6004819055600580546001600160a01b03191633908117909155604051918252907f9d2782b57a253b4896f013de4390a302719b44805cc8978aea12e8ea976ae34390602001610f48565b610fcc611556565b600a805461ff001916610100836003811115610fea57610fea6119f3565b02179055507f50847ce5b6a91be6fb0a54f67c828ee9982f5e7b413cf5169c8352e7a0b0e070600a60019054906101000a900460ff1660405161102d91906118a0565b60405180910390a1600754610ae45742600755565b6000828152600b6020526040902054610100900460ff166110995760405162461bcd60e51b81526020600482015260116024820152701c995c5d595cdd081b9bdd08199bdd5b99607a1b60448201526064016104ae565b6000828152600b60209081526040909120805460ff19166001908117825583516110ca9392909101918401906115f4565b50806000815181106110de576110de611a09565b60200260200101516010819055507ffe2e2d779dba245964d4e3ef9b994be63856fd568bf7d3ca9e224755cb1bd54d828260405161111d9291906118d7565b60405180910390a15050565b6000546001600160a01b03163314610ae45760405162461bcd60e51b815260206004820152601660248201527527b7363c9031b0b63630b1363290313c9037bbb732b960511b60448201526064016104ae565b6002805414156111ce5760405162461bcd60e51b815260206004820152601f60248201527f5265656e7472616e637947756172643a207265656e7472616e742063616c6c0060448201526064016104ae565b60028055565b600080826000815181106111ea576111ea611a09565b01602001516001600160f81b0319169050603160f81b8114156112105750600192915050565b601960f91b6001600160f81b03198216141561122f5750600292915050565b603360f81b6001600160f81b03198216141561124e5750600392915050565b50600092915050565b600081831415611269575060036112bf565b81831115611296578160011480156112815750826003145b1561128e575060026112bf565b5060016112bf565b8282111561124e578260011480156112ae5750816003145b156112bb575060016112bf565b5060025b92915050565b60018260038111156112d9576112d96119f3565b14156113b05760006112ec82600261194d565b9050600060646112fd83600561194d565b6113079190611939565b905061131281611590565b6001600160a01b0385166108fc611329838561196c565b6040518115909202916000818181858888f19350505050158015611351573d6000803e3d6000fd5b50600854600a546040516001600160a01b03909216917f2069c251d5aacd1cedfc522a09530aa3a904c4ebba85d66ee32970ae48b21ddc916113a19160ff808316926101009004169088906118ae565b60405180910390a25050505050565b60038260038111156113c4576113c46119f3565b141561145d576040516001600160a01b0384169082156108fc029083906000818181858888f19350505050158015611400573d6000803e3d6000fd5b50600854600a546040516001600160a01b03909216917f3f9f81baa21dbabd3a70aa2d5a1d157a5731197a2816e9be79228aaf56541d43916114509160ff808316926101009004169086906118ae565b60405180910390a2505050565b600854600a546040516001600160a01b03909216917f4e975787ea7dc6679a1751654c0d39bb1f0b641921163fa3f4694d74b167caea916114509160ff808316926101009004169086906118ae565b6001600160a01b0381163314156115055760405162461bcd60e51b815260206004820152601760248201527f43616e6e6f74207472616e7366657220746f2073656c6600000000000000000060448201526064016104ae565b600180546001600160a01b0319166001600160a01b0383811691821790925560008054604051929316917fed8889f560326eb138920d842192f0eb3dd22b4f139c87a2c57538e05bae12789190a350565b600060036115626115df565b61156c91906119b3565b611577906001611921565b60ff16600381111561158b5761158b6119f3565b905090565b80600360008282546115a29190611921565b909155505060405181815233907f3bed7b1032d6facdb3ed736c642f18affa147a86c1e01f68180f740e08b980739060200160405180910390a250565b6000806115ea610bda565b5050601054919050565b82805482825590600052602060002090810192821561162f579160200282015b8281111561162f578251825591602001919060010190611614565b5061163b92915061163f565b5090565b5b8082111561163b5760008155600101611640565b60006020828403121561166657600080fd5b81356001600160a01b038116811461167d57600080fd5b9392505050565b60006020828403121561169657600080fd5b5035919050565b6000602082840312156116af57600080fd5b5051919050565b600060208083850312156116c957600080fd5b823567ffffffffffffffff808211156116e157600080fd5b818501915085601f8301126116f557600080fd5b81358181111561170757611707611a1f565b611719601f8201601f191685016118f0565b9150808252868482850101111561172f57600080fd5b8084840185840137600090820190930192909252509392505050565b6000806040838503121561175e57600080fd5b8235915060208084013567ffffffffffffffff8082111561177e57600080fd5b818601915086601f83011261179257600080fd5b8135818111156117a4576117a4611a1f565b8060051b91506117b58483016118f0565b8181528481019084860184860187018b10156117d057600080fd5b600095505b838610156117f35780358352600195909501949186019186016117d5565b508096505050505050509250929050565b600081518084526020808501945080840160005b8381101561183457815187529582019590820190600101611818565b509495945050505050565b6004811061185d57634e487b7160e01b600052602160045260246000fd5b9052565b60008251611873818460208701611983565b9190910192915050565b82151581526040602082015260006118986040830184611804565b949350505050565b602081016112bf828461183f565b606081016118bc828661183f565b6118c9602083018561183f565b826040830152949350505050565b8281526040602082015260006118986040830184611804565b604051601f8201601f1916810167ffffffffffffffff8111828210171561191957611919611a1f565b604052919050565b60008219821115611934576119346119c7565b500190565b600082611948576119486119dd565b500490565b6000816000190483118215151615611967576119676119c7565b500290565b60008282101561197e5761197e6119c7565b500390565b60005b8381101561199e578181015183820152602001611986565b838111156119ad576000848401525b50505050565b6000826119c2576119c26119dd565b500690565b634e487b7160e01b600052601160045260246000fd5b634e487b7160e01b600052601260045260246000fd5b634e487b7160e01b600052602160045260246000fd5b634e487b7160e01b600052603260045260246000fd5b634e487b7160e01b600052604160045260246000fdfea26469706673582212207e17b09e0dde26b761893b082c86163631ff8113995ad88415dc73c47b3892ba64736f6c63430008070033",
  "linkReferences": {},
  "deployedLinkReferences": {}
}