{"contracts/Rps1.sol":{"Rps1":{"abi":[{"inputs":[{"internalType":"uint64","name":"subscriptionId","type":"uint64"},{"internalType":"address","name":"_coordomator","type":"address"},{"internalType":"bytes32","name":"_keyHash","type":"bytes32"}],"stateMutability":"payable","type":"constructor"},{"inputs":[{"internalType":"address","name":"have","type":"address"},{"internalType":"address","name":"want","type":"address"}],"name":"OnlyCoordinatorCanFulfill","type":"error"},{"anonymous":false,"inputs":[{"indexed":true,"internalType":"address","name":"player","type":"address"},{"indexed":false,"internalType":"enum Rps1.Moves","name":"playerMove","type":"uint8"},{"indexed":false,"internalType":"enum Rps1.Moves","name":"hostMove","type":"uint8"},{"indexed":false,"internalType":"uint256","name":"bet","type":"uint256"}],"name":"Draw","type":"event"},{"anonymous":false,"inputs":[{"indexed":true,"internalType":"address","name":"player","type":"address"},{"indexed":false,"internalType":"enum Rps1.Moves","name":"playerMove","type":"uint8"},{"indexed":false,"internalType":"enum Rps1.Moves","name":"hostMove","type":"uint8"},{"indexed":false,"internalType":"uint256","name":"bet","type":"uint256"}],"name":"Lost","type":"event"},{"anonymous":false,"inputs":[{"indexed":true,"internalType":"address","name":"from","type":"address"},{"indexed":true,"internalType":"address","name":"to","type":"address"}],"name":"OwnershipTransferRequested","type":"event"},{"anonymous":false,"inputs":[{"indexed":true,"internalType":"address","name":"from","type":"address"},{"indexed":true,"internalType":"address","name":"to","type":"address"}],"name":"OwnershipTransferred","type":"event"},{"anonymous":false,"inputs":[{"indexed":false,"internalType":"uint256","name":"requestId","type":"uint256"},{"indexed":false,"internalType":"uint256[]","name":"randomWords","type":"uint256[]"}],"name":"RequestFulfilled","type":"event"},{"anonymous":false,"inputs":[{"indexed":false,"internalType":"uint256","name":"requestId","type":"uint256"},{"indexed":false,"internalType":"uint32","name":"numWords","type":"uint32"}],"name":"RequestSent","type":"event"},{"anonymous":false,"inputs":[{"indexed":true,"internalType":"address","name":"player","type":"address"},{"indexed":false,"internalType":"enum Rps1.Moves","name":"playerMove","type":"uint8"},{"indexed":false,"internalType":"enum Rps1.Moves","name":"hostMove","type":"uint8"},{"indexed":false,"internalType":"uint256","name":"bet","type":"uint256"}],"name":"Won","type":"event"},{"anonymous":false,"inputs":[{"indexed":false,"internalType":"enum Rps1.Moves","name":"hostMove","type":"uint8"}],"name":"hostCommitedMove","type":"event"},{"inputs":[],"name":"MIN_BET","outputs":[{"internalType":"uint256","name":"","type":"uint256"}],"stateMutability":"view","type":"function"},{"inputs":[],"name":"REVEAL_TIMEOUT","outputs":[{"internalType":"uint256","name":"","type":"uint256"}],"stateMutability":"view","type":"function"},{"inputs":[],"name":"acceptOwnership","outputs":[],"stateMutability":"nonpayable","type":"function"},{"inputs":[],"name":"bet","outputs":[{"internalType":"uint256","name":"","type":"uint256"}],"stateMutability":"view","type":"function"},{"inputs":[{"internalType":"uint256","name":"_requestId","type":"uint256"}],"name":"getRequestStatus","outputs":[{"internalType":"bool","name":"fulfilled","type":"bool"},{"internalType":"uint256[]","name":"randomWords","type":"uint256[]"}],"stateMutability":"view","type":"function"},{"inputs":[],"name":"lastRequestId","outputs":[{"internalType":"uint256","name":"","type":"uint256"}],"stateMutability":"view","type":"function"},{"inputs":[],"name":"moveHost","outputs":[{"internalType":"enum Rps1.Moves","name":"","type":"uint8"}],"stateMutability":"view","type":"function"},{"inputs":[],"name":"owner","outputs":[{"internalType":"address","name":"","type":"address"}],"stateMutability":"view","type":"function"},{"inputs":[{"internalType":"bytes32","name":"_encryptedMove","type":"bytes32"}],"name":"playBet","outputs":[],"stateMutability":"payable","type":"function"},{"inputs":[],"name":"randomWordsNum","outputs":[{"internalType":"uint256","name":"","type":"uint256"}],"stateMutability":"view","type":"function"},{"inputs":[{"internalType":"uint256","name":"requestId","type":"uint256"},{"internalType":"uint256[]","name":"randomWords","type":"uint256[]"}],"name":"rawFulfillRandomWords","outputs":[],"stateMutability":"nonpayable","type":"function"},{"inputs":[{"internalType":"uint256","name":"","type":"uint256"}],"name":"requestIds","outputs":[{"internalType":"uint256","name":"","type":"uint256"}],"stateMutability":"view","type":"function"},{"inputs":[],"name":"requestRandomWords","outputs":[{"internalType":"uint256","name":"requestId","type":"uint256"}],"stateMutability":"nonpayable","type":"function"},{"inputs":[{"internalType":"string","name":"clearMove","type":"string"}],"name":"reveal","outputs":[{"internalType":"bool","name":"","type":"bool"}],"stateMutability":"nonpayable","type":"function"},{"inputs":[{"internalType":"uint256","name":"","type":"uint256"}],"name":"s_requests","outputs":[{"internalType":"bool","name":"fulfilled","type":"bool"},{"internalType":"bool","name":"exists","type":"bool"}],"stateMutability":"view","type":"function"},{"inputs":[{"internalType":"address","name":"to","type":"address"}],"name":"transferOwnership","outputs":[],"stateMutability":"nonpayable","type":"function"},{"inputs":[{"internalType":"uint256","name":"amount","type":"uint256"}],"name":"withdraw","outputs":[],"stateMutability":"nonpayable","type":"function"},{"stateMutability":"payable","type":"receive"}],"evm":{"bytecode":{"linkReferences":{},"object":"60c06040819052600c80546001600160501b03191666010003000249f01790556200191f388190039081908339810160408190526200003e91620001cd565b6001600160601b0319606083901b166080523380600081620000a75760405162461bcd60e51b815260206004820152601860248201527f43616e6e6f7420736574206f776e657220746f207a65726f000000000000000060448201526064015b60405180910390fd5b600080546001600160a01b0319166001600160a01b0384811691909117909155811615620000da57620000da8162000121565b5050600160025550600980546001600160401b03909416600160a01b026001600160e01b03199094166001600160a01b039093169290921792909217905560a0526200022b565b6001600160a01b0381163314156200017c5760405162461bcd60e51b815260206004820152601760248201527f43616e6e6f74207472616e7366657220746f2073656c6600000000000000000060448201526064016200009e565b600180546001600160a01b0319166001600160a01b0383811691821790925560008054604051929316917fed8889f560326eb138920d842192f0eb3dd22b4f139c87a2c57538e05bae12789190a350565b600080600060608486031215620001e357600080fd5b83516001600160401b0381168114620001fb57600080fd5b60208501519093506001600160a01b03811681146200021957600080fd5b80925050604084015190509250925092565b60805160601c60a0516116c46200025b6000396000610ad001526000818161058601526105c801526116c46000f3fe6080604052600436106101025760003560e01c8063872175e511610095578063a168fa8911610064578063a168fa891461028b578063d8a4676f146102db578063e0c8628914610309578063f2fde38b1461031e578063fc2a88c31461033e57600080fd5b8063872175e5146102015780638796ba8c1461022d5780638da5cb5b1461024d5780639a8ff87c1461027557600080fd5b80633d6ae3a7116100d15780633d6ae3a71461018c5780634c261247146101a15780636540742f146101d157806379ba5097146101ec57600080fd5b806311610c251461010e57806312e505c9146101375780631fe543e31461014c5780632e1a7d4d1461016c57600080fd5b3661010957005b600080fd5b34801561011a57600080fd5b5061012460035481565b6040519081526020015b60405180910390f35b61014a610145366004611310565b610354565b005b34801561015857600080fd5b5061014a6101673660046113d7565b61057b565b34801561017857600080fd5b5061014a610187366004611310565b610603565b34801561019857600080fd5b50610124607881565b3480156101ad57600080fd5b506101c16101bc366004611342565b61067a565b604051901515815260200161012e565b3480156101dd57600080fd5b50610124662386f26fc1000081565b3480156101f857600080fd5b5061014a6108f2565b34801561020d57600080fd5b5060075461022090610100900460ff1681565b60405161012e919061152c565b34801561023957600080fd5b50610124610248366004611310565b61099c565b34801561025957600080fd5b506000546040516001600160a01b03909116815260200161012e565b34801561028157600080fd5b50610124600d5481565b34801561029757600080fd5b506102c46102a6366004611310565b60086020526000908152604090205460ff8082169161010090041682565b60408051921515835290151560208301520161012e565b3480156102e757600080fd5b506102fb6102f6366004611310565b6109bd565b60405161012e929190611509565b34801561031557600080fd5b50610124610ab1565b34801561032a57600080fd5b5061014a6103393660046112e0565b610ca2565b34801561034a57600080fd5b50610124600b5481565b60045415806103715750607860045461036d91906115ad565b4211155b15610421576005546001600160a01b0316156103cb5760405162461bcd60e51b81526020600482015260146024820152732090383630bcb2b91034b990383630bcb4b7339760611b60448201526064015b60405180910390fd5b600354156104145760405162461bcd60e51b81526020600482015260166024820152752132ba1034b990383630b1b2b21030b63932b0b23c9760511b60448201526064016103c2565b6006541561042157600080fd5b662386f26fc100003410156104785760405162461bcd60e51b815260206004820152601d60248201527f496e73756666696369656e742062616c61616e636520746f206265742e00000060448201526064016103c2565b476104843460026115c5565b11156104d25760405162461bcd60e51b815260206004820152601d60248201527f4265742065786365656465642062616c616e6365206f6620686f73742e00000060448201526064016103c2565b600454158015906104f0575060786004546104ed91906115ad565b42115b15610555576005546007546003546040516001600160a01b03909316927f4e975787ea7dc6679a1751654c0d39bb1f0b641921163fa3f4694d74b167caea926105459260009261010090920460ff169161153a565b60405180910390a2610555610cb3565b600580546001600160a01b03191633179055346003556006819055610578610cdf565b50565b336001600160a01b037f000000000000000000000000000000000000000000000000000000000000000016146105f55760405163073e64fd60e21b81523360048201526001600160a01b037f00000000000000000000000000000000000000000000000000000000000000001660248201526044016103c2565b6105ff8282610d5e565b5050565b61060b610e45565b8047101561064d5760405162461bcd60e51b815260206004820152600f60248201526e42616c616e636520746f6f206c6f7760881b60448201526064016103c2565b604051339082156108fc029083906000818181858888f193505050501580156105ff573d6000803e3d6000fd5b6005546000906001600160a01b031633146106d05760405162461bcd60e51b81526020600482015260166024820152752cb7ba9030b932903cb7ba903a343290383630bcb2b960511b60448201526064016103c2565b600654158015906106fd57506000600754610100900460ff1660038111156106fa576106fa61164c565b14155b6107595760405162461bcd60e51b815260206004820152602760248201527f4e6f7420626f746820706c617965727320636f6d6d69747465642074686569726044820152661036b7bb32b99760c91b60648201526084016103c2565b610761610e98565b600060028360405160200161077691906114ed565b60408051601f1981840301815290829052610790916114ed565b602060405180830381855afa1580156107ad573d6000803e3d6000fd5b5050506040513d601f19601f820116820180604052508101906107d09190611329565b905060006107dd84610ef0565b60038111156107ee576107ee61164c565b905060008160038111156108045761080461164c565b1415610815576000925050506108e3565b816006541415610848576007805482919060ff1916600183600381111561083e5761083e61164c565b0217905550610853565b6000925050506108e3565b60075460009060ff16600381111561086d5761086d61164c565b600754909150600090610100900460ff16600381111561088f5761088f61164c565b9050600061089d8383610f73565b60ff1660038111156108b1576108b161164c565b6005546003549192506108d1916001600160a01b03909116908390610fe1565b6108d9610cb3565b6001955050505050505b6108ed6001600255565b919050565b6001546001600160a01b031633146109455760405162461bcd60e51b815260206004820152601660248201527526bab9ba10313290383937b837b9b2b21037bbb732b960511b60448201526064016103c2565b60008054336001600160a01b0319808316821784556001805490911690556040516001600160a01b0390921692909183917f8be0079c531659141344cd1fd0a4f28419497f9722a3daafe3b4186f6b6457e091a350565b600a81815481106109ac57600080fd5b600091825260209091200154905081565b600081815260086020526040812054606090610100900460ff16610a175760405162461bcd60e51b81526020600482015260116024820152701c995c5d595cdd081b9bdd08199bdd5b99607a1b60448201526064016103c2565b60008381526008602090815260408083208151606081018352815460ff8082161515835261010090910416151581850152600182018054845181870281018701865281815292959394860193830182828015610a9257602002820191906000526020600020905b815481526020019060010190808311610a7e575b5050505050815250509050806000015181604001519250925050915091565b6000610abb610e45565b600954600c546040516305d3b1d360e41b81527f00000000000000000000000000000000000000000000000000000000000000006004820152600160a01b830467ffffffffffffffff166024820152640100000000820461ffff16604482015263ffffffff8083166064830152660100000000000090920490911660848201526001600160a01b0390911690635d3b1d309060a401602060405180830381600087803b158015610b6a57600080fd5b505af1158015610b7e573d6000803e3d6000fd5b505050506040513d601f19601f82011682018060405250810190610ba29190611329565b6040805160608101825260008082526001602080840182815285518481528083018752858701908152878552600883529590932084518154945161ffff1990951690151561ff00191617610100941515949094029390931783559351805195965092949193610c179391850192910190611280565b5050600a80546001810182556000919091527fc65a7bb8d6351c1cf70c95a316cc6a92839c986682d98bc35f958f4883f9d2a80182905550600b819055600c5460408051838152660100000000000090920463ffffffff1660208301527fcc58b13ad3eab50626c6a6300b1d139cd6ebb1688a7cced9461c2f7e762665ee910160405180910390a190565b610caa610e45565b61057881611187565b600060038190556004819055600580546001600160a01b03191690556006556007805461ffff19169055565b610ce7611231565b6007805461ff001916610100836003811115610d0557610d0561164c565b02179055507f50847ce5b6a91be6fb0a54f67c828ee9982f5e7b413cf5169c8352e7a0b0e070600760019054906101000a900460ff16604051610d48919061152c565b60405180910390a1600454610d5c57426004555b565b600082815260086020526040902054610100900460ff16610db55760405162461bcd60e51b81526020600482015260116024820152701c995c5d595cdd081b9bdd08199bdd5b99607a1b60448201526064016103c2565b6000828152600860209081526040909120805460ff1916600190811782558351610de6939290910191840190611280565b5080600081518110610dfa57610dfa611662565b6020026020010151600d819055507ffe2e2d779dba245964d4e3ef9b994be63856fd568bf7d3ca9e224755cb1bd54d8282604051610e39929190611563565b60405180910390a15050565b6000546001600160a01b03163314610d5c5760405162461bcd60e51b815260206004820152601660248201527527b7363c9031b0b63630b1363290313c9037bbb732b960511b60448201526064016103c2565b600280541415610eea5760405162461bcd60e51b815260206004820152601f60248201527f5265656e7472616e637947756172643a207265656e7472616e742063616c6c0060448201526064016103c2565b60028055565b60008082600081518110610f0657610f06611662565b01602001516001600160f81b0319169050603160f81b811415610f2c5750600192915050565b601960f91b6001600160f81b031982161415610f4b5750600292915050565b603360f81b6001600160f81b031982161415610f6a5750600392915050565b50600092915050565b600081831415610f8557506003610fdb565b81831115610fb257816001148015610f9d5750826003145b15610faa57506002610fdb565b506001610fdb565b82821115610f6a57826001148015610fca5750816003145b15610fd757506001610fdb565b5060025b92915050565b6001826003811115610ff557610ff561164c565b1415611098576001600160a01b0383166108fc6110138360026115c5565b6040518115909202916000818181858888f1935050505015801561103b573d6000803e3d6000fd5b506005546007546040516001600160a01b03909216917f2069c251d5aacd1cedfc522a09530aa3a904c4ebba85d66ee32970ae48b21ddc9161108b9160ff8083169261010090041690869061153a565b60405180910390a2505050565b60038260038111156110ac576110ac61164c565b1415611138576040516001600160a01b0384169082156108fc029083906000818181858888f193505050501580156110e8573d6000803e3d6000fd5b506005546007546040516001600160a01b03909216917f3f9f81baa21dbabd3a70aa2d5a1d157a5731197a2816e9be79228aaf56541d439161108b9160ff8083169261010090041690869061153a565b6005546007546040516001600160a01b03909216917f4e975787ea7dc6679a1751654c0d39bb1f0b641921163fa3f4694d74b167caea9161108b9160ff8083169261010090041690869061153a565b6001600160a01b0381163314156111e05760405162461bcd60e51b815260206004820152601760248201527f43616e6e6f74207472616e7366657220746f2073656c6600000000000000000060448201526064016103c2565b600180546001600160a01b0319166001600160a01b0383811691821790925560008054604051929316917fed8889f560326eb138920d842192f0eb3dd22b4f139c87a2c57538e05bae12789190a350565b6000600361123d61126b565b6112479190611614565b6112529060016115ad565b60ff1660038111156112665761126661164c565b905090565b600080611276610ab1565b5050600d54919050565b8280548282559060005260206000209081019282156112bb579160200282015b828111156112bb5782518255916020019190600101906112a0565b506112c79291506112cb565b5090565b5b808211156112c757600081556001016112cc565b6000602082840312156112f257600080fd5b81356001600160a01b038116811461130957600080fd5b9392505050565b60006020828403121561132257600080fd5b5035919050565b60006020828403121561133b57600080fd5b5051919050565b6000602080838503121561135557600080fd5b823567ffffffffffffffff8082111561136d57600080fd5b818501915085601f83011261138157600080fd5b81358181111561139357611393611678565b6113a5601f8201601f1916850161157c565b915080825286848285010111156113bb57600080fd5b8084840185840137600090820190930192909252509392505050565b600080604083850312156113ea57600080fd5b8235915060208084013567ffffffffffffffff8082111561140a57600080fd5b818601915086601f83011261141e57600080fd5b81358181111561143057611430611678565b8060051b915061144184830161157c565b8181528481019084860184860187018b101561145c57600080fd5b600095505b8386101561147f578035835260019590950194918601918601611461565b508096505050505050509250929050565b600081518084526020808501945080840160005b838110156114c0578151875295820195908201906001016114a4565b509495945050505050565b600481106114e957634e487b7160e01b600052602160045260246000fd5b9052565b600082516114ff8184602087016115e4565b9190910192915050565b82151581526040602082015260006115246040830184611490565b949350505050565b60208101610fdb82846114cb565b6060810161154882866114cb565b61155560208301856114cb565b826040830152949350505050565b8281526040602082015260006115246040830184611490565b604051601f8201601f1916810167ffffffffffffffff811182821017156115a5576115a5611678565b604052919050565b600082198211156115c0576115c0611636565b500190565b60008160001904831182151516156115df576115df611636565b500290565b60005b838110156115ff5781810151838201526020016115e7565b8381111561160e576000848401525b50505050565b60008261163157634e487b7160e01b600052601260045260246000fd5b500690565b634e487b7160e01b600052601160045260246000fd5b634e487b7160e01b600052602160045260246000fd5b634e487b7160e01b600052603260045260246000fd5b634e487b7160e01b600052604160045260246000fdfea2646970667358221220588408525b28426db7221185ca01edd9398725cb0976f34c9793ce0fae4afc4f64736f6c63430008070033","opcodes":"PUSH1 0xC0 PUSH1 0x40 DUP2 SWAP1 MSTORE PUSH1 0xC DUP1 SLOAD PUSH1 0x1 PUSH1 0x1 PUSH1 0x50 SHL SUB NOT AND PUSH7 0x10003000249F0 OR SWAP1 SSTORE PUSH3 0x191F CODESIZE DUP2 SWAP1 SUB SWAP1 DUP2 SWAP1 DUP4 CODECOPY DUP2 ADD PUSH1 0x40 DUP2 SWAP1 MSTORE PUSH3 0x3E SWAP2 PUSH3 0x1CD JUMP JUMPDEST PUSH1 0x1 PUSH1 0x1 PUSH1 0x60 SHL SUB NOT PUSH1 0x60 DUP4 SWAP1 SHL AND PUSH1 0x80 MSTORE CALLER DUP1 PUSH1 0x0 DUP2 PUSH3 0xA7 JUMPI PUSH1 0x40 MLOAD PUSH3 0x461BCD PUSH1 0xE5 SHL DUP2 MSTORE PUSH1 0x20 PUSH1 0x4 DUP3 ADD MSTORE PUSH1 0x18 PUSH1 0x24 DUP3 ADD MSTORE PUSH32 0x43616E6E6F7420736574206F776E657220746F207A65726F0000000000000000 PUSH1 0x44 DUP3 ADD MSTORE PUSH1 0x64 ADD JUMPDEST PUSH1 0x40 MLOAD DUP1 SWAP2 SUB SWAP1 REVERT JUMPDEST PUSH1 0x0 DUP1 SLOAD PUSH1 0x1 PUSH1 0x1 PUSH1 0xA0 SHL SUB NOT AND PUSH1 0x1 PUSH1 0x1 PUSH1 0xA0 SHL SUB DUP5 DUP2 AND SWAP2 SWAP1 SWAP2 OR SWAP1 SWAP2 SSTORE DUP2 AND ISZERO PUSH3 0xDA JUMPI PUSH3 0xDA DUP2 PUSH3 0x121 JUMP JUMPDEST POP POP PUSH1 0x1 PUSH1 0x2 SSTORE POP PUSH1 0x9 DUP1 SLOAD PUSH1 0x1 PUSH1 0x1 PUSH1 0x40 SHL SUB SWAP1 SWAP5 AND PUSH1 0x1 PUSH1 0xA0 SHL MUL PUSH1 0x1 PUSH1 0x1 PUSH1 0xE0 SHL SUB NOT SWAP1 SWAP5 AND PUSH1 0x1 PUSH1 0x1 PUSH1 0xA0 SHL SUB SWAP1 SWAP4 AND SWAP3 SWAP1 SWAP3 OR SWAP3 SWAP1 SWAP3 OR SWAP1 SSTORE PUSH1 0xA0 MSTORE PUSH3 0x22B JUMP JUMPDEST PUSH1 0x1 PUSH1 0x1 PUSH1 0xA0 SHL SUB DUP2 AND CALLER EQ ISZERO PUSH3 0x17C JUMPI PUSH1 0x40 MLOAD PUSH3 0x461BCD PUSH1 0xE5 SHL DUP2 MSTORE PUSH1 0x20 PUSH1 0x4 DUP3 ADD MSTORE PUSH1 0x17 PUSH1 0x24 DUP3 ADD MSTORE PUSH32 0x43616E6E6F74207472616E7366657220746F2073656C66000000000000000000 PUSH1 0x44 DUP3 ADD MSTORE PUSH1 0x64 ADD PUSH3 0x9E JUMP JUMPDEST PUSH1 0x1 DUP1 SLOAD PUSH1 0x1 PUSH1 0x1 PUSH1 0xA0 SHL SUB NOT AND PUSH1 0x1 PUSH1 0x1 PUSH1 0xA0 SHL SUB DUP4 DUP2 AND SWAP2 DUP3 OR SWAP1 SWAP3 SSTORE PUSH1 0x0 DUP1 SLOAD PUSH1 0x40 MLOAD SWAP3 SWAP4 AND SWAP2 PUSH32 0xED8889F560326EB138920D842192F0EB3DD22B4F139C87A2C57538E05BAE1278 SWAP2 SWAP1 LOG3 POP JUMP JUMPDEST PUSH1 0x0 DUP1 PUSH1 0x0 PUSH1 0x60 DUP5 DUP7 SUB SLT ISZERO PUSH3 0x1E3 JUMPI PUSH1 0x0 DUP1 REVERT JUMPDEST DUP4 MLOAD PUSH1 0x1 PUSH1 0x1 PUSH1 0x40 SHL SUB DUP2 AND DUP2 EQ PUSH3 0x1FB JUMPI PUSH1 0x0 DUP1 REVERT JUMPDEST PUSH1 0x20 DUP6 ADD MLOAD SWAP1 SWAP4 POP PUSH1 0x1 PUSH1 0x1 PUSH1 0xA0 SHL SUB DUP2 AND DUP2 EQ PUSH3 0x219 JUMPI PUSH1 0x0 DUP1 REVERT JUMPDEST DUP1 SWAP3 POP POP PUSH1 0x40 DUP5 ADD MLOAD SWAP1 POP SWAP3 POP SWAP3 POP SWAP3 JUMP JUMPDEST PUSH1 0x80 MLOAD PUSH1 0x60 SHR PUSH1 0xA0 MLOAD PUSH2 0x16C4 PUSH3 0x25B PUSH1 0x0 CODECOPY PUSH1 0x0 PUSH2 0xAD0 ADD MSTORE PUSH1 0x0 DUP2 DUP2 PUSH2 0x586 ADD MSTORE PUSH2 0x5C8 ADD MSTORE PUSH2 0x16C4 PUSH1 0x0 RETURN INVALID PUSH1 0x80 PUSH1 0x40 MSTORE PUSH1 0x4 CALLDATASIZE LT PUSH2 0x102 JUMPI PUSH1 0x0 CALLDATALOAD PUSH1 0xE0 SHR DUP1 PUSH4 0x872175E5 GT PUSH2 0x95 JUMPI DUP1 PUSH4 0xA168FA89 GT PUSH2 0x64 JUMPI DUP1 PUSH4 0xA168FA89 EQ PUSH2 0x28B JUMPI DUP1 PUSH4 0xD8A4676F EQ PUSH2 0x2DB JUMPI DUP1 PUSH4 0xE0C86289 EQ PUSH2 0x309 JUMPI DUP1 PUSH4 0xF2FDE38B EQ PUSH2 0x31E JUMPI DUP1 PUSH4 0xFC2A88C3 EQ PUSH2 0x33E JUMPI PUSH1 0x0 DUP1 REVERT JUMPDEST DUP1 PUSH4 0x872175E5 EQ PUSH2 0x201 JUMPI DUP1 PUSH4 0x8796BA8C EQ PUSH2 0x22D JUMPI DUP1 PUSH4 0x8DA5CB5B EQ PUSH2 0x24D JUMPI DUP1 PUSH4 0x9A8FF87C EQ PUSH2 0x275 JUMPI PUSH1 0x0 DUP1 REVERT JUMPDEST DUP1 PUSH4 0x3D6AE3A7 GT PUSH2 0xD1 JUMPI DUP1 PUSH4 0x3D6AE3A7 EQ PUSH2 0x18C JUMPI DUP1 PUSH4 0x4C261247 EQ PUSH2 0x1A1 JUMPI DUP1 PUSH4 0x6540742F EQ PUSH2 0x1D1 JUMPI DUP1 PUSH4 0x79BA5097 EQ PUSH2 0x1EC JUMPI PUSH1 0x0 DUP1 REVERT JUMPDEST DUP1 PUSH4 0x11610C25 EQ PUSH2 0x10E JUMPI DUP1 PUSH4 0x12E505C9 EQ PUSH2 0x137 JUMPI DUP1 PUSH4 0x1FE543E3 EQ PUSH2 0x14C JUMPI DUP1 PUSH4 0x2E1A7D4D EQ PUSH2 0x16C JUMPI PUSH1 0x0 DUP1 REVERT JUMPDEST CALLDATASIZE PUSH2 0x109 JUMPI STOP JUMPDEST PUSH1 0x0 DUP1 REVERT JUMPDEST CALLVALUE DUP1 ISZERO PUSH2 0x11A JUMPI PUSH1 0x0 DUP1 REVERT JUMPDEST POP PUSH2 0x124 PUSH1 0x3 SLOAD DUP2 JUMP JUMPDEST PUSH1 0x40 MLOAD SWAP1 DUP2 MSTORE PUSH1 0x20 ADD JUMPDEST PUSH1 0x40 MLOAD DUP1 SWAP2 SUB SWAP1 RETURN JUMPDEST PUSH2 0x14A PUSH2 0x145 CALLDATASIZE PUSH1 0x4 PUSH2 0x1310 JUMP JUMPDEST PUSH2 0x354 JUMP JUMPDEST STOP JUMPDEST CALLVALUE DUP1 ISZERO PUSH2 0x158 JUMPI PUSH1 0x0 DUP1 REVERT JUMPDEST POP PUSH2 0x14A PUSH2 0x167 CALLDATASIZE PUSH1 0x4 PUSH2 0x13D7 JUMP JUMPDEST PUSH2 0x57B JUMP JUMPDEST CALLVALUE DUP1 ISZERO PUSH2 0x178 JUMPI PUSH1 0x0 DUP1 REVERT JUMPDEST POP PUSH2 0x14A PUSH2 0x187 CALLDATASIZE PUSH1 0x4 PUSH2 0x1310 JUMP JUMPDEST PUSH2 0x603 JUMP JUMPDEST CALLVALUE DUP1 ISZERO PUSH2 0x198 JUMPI PUSH1 0x0 DUP1 REVERT JUMPDEST POP PUSH2 0x124 PUSH1 0x78 DUP2 JUMP JUMPDEST CALLVALUE DUP1 ISZERO PUSH2 0x1AD JUMPI PUSH1 0x0 DUP1 REVERT JUMPDEST POP PUSH2 0x1C1 PUSH2 0x1BC CALLDATASIZE PUSH1 0x4 PUSH2 0x1342 JUMP JUMPDEST PUSH2 0x67A JUMP JUMPDEST PUSH1 0x40 MLOAD SWAP1 ISZERO ISZERO DUP2 MSTORE PUSH1 0x20 ADD PUSH2 0x12E JUMP JUMPDEST CALLVALUE DUP1 ISZERO PUSH2 0x1DD JUMPI PUSH1 0x0 DUP1 REVERT JUMPDEST POP PUSH2 0x124 PUSH7 0x2386F26FC10000 DUP2 JUMP JUMPDEST CALLVALUE DUP1 ISZERO PUSH2 0x1F8 JUMPI PUSH1 0x0 DUP1 REVERT JUMPDEST POP PUSH2 0x14A PUSH2 0x8F2 JUMP JUMPDEST CALLVALUE DUP1 ISZERO PUSH2 0x20D JUMPI PUSH1 0x0 DUP1 REVERT JUMPDEST POP PUSH1 0x7 SLOAD PUSH2 0x220 SWAP1 PUSH2 0x100 SWAP1 DIV PUSH1 0xFF AND DUP2 JUMP JUMPDEST PUSH1 0x40 MLOAD PUSH2 0x12E SWAP2 SWAP1 PUSH2 0x152C JUMP JUMPDEST CALLVALUE DUP1 ISZERO PUSH2 0x239 JUMPI PUSH1 0x0 DUP1 REVERT JUMPDEST POP PUSH2 0x124 PUSH2 0x248 CALLDATASIZE PUSH1 0x4 PUSH2 0x1310 JUMP JUMPDEST PUSH2 0x99C JUMP JUMPDEST CALLVALUE DUP1 ISZERO PUSH2 0x259 JUMPI PUSH1 0x0 DUP1 REVERT JUMPDEST POP PUSH1 0x0 SLOAD PUSH1 0x40 MLOAD PUSH1 0x1 PUSH1 0x1 PUSH1 0xA0 SHL SUB SWAP1 SWAP2 AND DUP2 MSTORE PUSH1 0x20 ADD PUSH2 0x12E JUMP JUMPDEST CALLVALUE DUP1 ISZERO PUSH2 0x281 JUMPI PUSH1 0x0 DUP1 REVERT JUMPDEST POP PUSH2 0x124 PUSH1 0xD SLOAD DUP2 JUMP JUMPDEST CALLVALUE DUP1 ISZERO PUSH2 0x297 JUMPI PUSH1 0x0 DUP1 REVERT JUMPDEST POP PUSH2 0x2C4 PUSH2 0x2A6 CALLDATASIZE PUSH1 0x4 PUSH2 0x1310 JUMP JUMPDEST PUSH1 0x8 PUSH1 0x20 MSTORE PUSH1 0x0 SWAP1 DUP2 MSTORE PUSH1 0x40 SWAP1 KECCAK256 SLOAD PUSH1 0xFF DUP1 DUP3 AND SWAP2 PUSH2 0x100 SWAP1 DIV AND DUP3 JUMP JUMPDEST PUSH1 0x40 DUP1 MLOAD SWAP3 ISZERO ISZERO DUP4 MSTORE SWAP1 ISZERO ISZERO PUSH1 0x20 DUP4 ADD MSTORE ADD PUSH2 0x12E JUMP JUMPDEST CALLVALUE DUP1 ISZERO PUSH2 0x2E7 JUMPI PUSH1 0x0 DUP1 REVERT JUMPDEST POP PUSH2 0x2FB PUSH2 0x2F6 CALLDATASIZE PUSH1 0x4 PUSH2 0x1310 JUMP JUMPDEST PUSH2 0x9BD JUMP JUMPDEST PUSH1 0x40 MLOAD PUSH2 0x12E SWAP3 SWAP2 SWAP1 PUSH2 0x1509 JUMP JUMPDEST CALLVALUE DUP1 ISZERO PUSH2 0x315 JUMPI PUSH1 0x0 DUP1 REVERT JUMPDEST POP PUSH2 0x124 PUSH2 0xAB1 JUMP JUMPDEST CALLVALUE DUP1 ISZERO PUSH2 0x32A JUMPI PUSH1 0x0 DUP1 REVERT JUMPDEST POP PUSH2 0x14A PUSH2 0x339 CALLDATASIZE PUSH1 0x4 PUSH2 0x12E0 JUMP JUMPDEST PUSH2 0xCA2 JUMP JUMPDEST CALLVALUE DUP1 ISZERO PUSH2 0x34A JUMPI PUSH1 0x0 DUP1 REVERT JUMPDEST POP PUSH2 0x124 PUSH1 0xB SLOAD DUP2 JUMP JUMPDEST PUSH1 0x4 SLOAD ISZERO DUP1 PUSH2 0x371 JUMPI POP PUSH1 0x78 PUSH1 0x4 SLOAD PUSH2 0x36D SWAP2 SWAP1 PUSH2 0x15AD JUMP JUMPDEST TIMESTAMP GT ISZERO JUMPDEST ISZERO PUSH2 0x421 JUMPI PUSH1 0x5 SLOAD PUSH1 0x1 PUSH1 0x1 PUSH1 0xA0 SHL SUB AND ISZERO PUSH2 0x3CB JUMPI PUSH1 0x40 MLOAD PUSH3 0x461BCD PUSH1 0xE5 SHL DUP2 MSTORE PUSH1 0x20 PUSH1 0x4 DUP3 ADD MSTORE PUSH1 0x14 PUSH1 0x24 DUP3 ADD MSTORE PUSH20 0x2090383630BCB2B91034B990383630BCB4B73397 PUSH1 0x61 SHL PUSH1 0x44 DUP3 ADD MSTORE PUSH1 0x64 ADD JUMPDEST PUSH1 0x40 MLOAD DUP1 SWAP2 SUB SWAP1 REVERT JUMPDEST PUSH1 0x3 SLOAD ISZERO PUSH2 0x414 JUMPI PUSH1 0x40 MLOAD PUSH3 0x461BCD PUSH1 0xE5 SHL DUP2 MSTORE PUSH1 0x20 PUSH1 0x4 DUP3 ADD MSTORE PUSH1 0x16 PUSH1 0x24 DUP3 ADD MSTORE PUSH22 0x2132BA1034B990383630B1B2B21030B63932B0B23C97 PUSH1 0x51 SHL PUSH1 0x44 DUP3 ADD MSTORE PUSH1 0x64 ADD PUSH2 0x3C2 JUMP JUMPDEST PUSH1 0x6 SLOAD ISZERO PUSH2 0x421 JUMPI PUSH1 0x0 DUP1 REVERT JUMPDEST PUSH7 0x2386F26FC10000 CALLVALUE LT ISZERO PUSH2 0x478 JUMPI PUSH1 0x40 MLOAD PUSH3 0x461BCD PUSH1 0xE5 SHL DUP2 MSTORE PUSH1 0x20 PUSH1 0x4 DUP3 ADD MSTORE PUSH1 0x1D PUSH1 0x24 DUP3 ADD MSTORE PUSH32 0x496E73756666696369656E742062616C61616E636520746F206265742E000000 PUSH1 0x44 DUP3 ADD MSTORE PUSH1 0x64 ADD PUSH2 0x3C2 JUMP JUMPDEST SELFBALANCE PUSH2 0x484 CALLVALUE PUSH1 0x2 PUSH2 0x15C5 JUMP JUMPDEST GT ISZERO PUSH2 0x4D2 JUMPI PUSH1 0x40 MLOAD PUSH3 0x461BCD PUSH1 0xE5 SHL DUP2 MSTORE PUSH1 0x20 PUSH1 0x4 DUP3 ADD MSTORE PUSH1 0x1D PUSH1 0x24 DUP3 ADD MSTORE PUSH32 0x4265742065786365656465642062616C616E6365206F6620686F73742E000000 PUSH1 0x44 DUP3 ADD MSTORE PUSH1 0x64 ADD PUSH2 0x3C2 JUMP JUMPDEST PUSH1 0x4 SLOAD ISZERO DUP1 ISZERO SWAP1 PUSH2 0x4F0 JUMPI POP PUSH1 0x78 PUSH1 0x4 SLOAD PUSH2 0x4ED SWAP2 SWAP1 PUSH2 0x15AD JUMP JUMPDEST TIMESTAMP GT JUMPDEST ISZERO PUSH2 0x555 JUMPI PUSH1 0x5 SLOAD PUSH1 0x7 SLOAD PUSH1 0x3 SLOAD PUSH1 0x40 MLOAD PUSH1 0x1 PUSH1 0x1 PUSH1 0xA0 SHL SUB SWAP1 SWAP4 AND SWAP3 PUSH32 0x4E975787EA7DC6679A1751654C0D39BB1F0B641921163FA3F4694D74B167CAEA SWAP3 PUSH2 0x545 SWAP3 PUSH1 0x0 SWAP3 PUSH2 0x100 SWAP1 SWAP3 DIV PUSH1 0xFF AND SWAP2 PUSH2 0x153A JUMP JUMPDEST PUSH1 0x40 MLOAD DUP1 SWAP2 SUB SWAP1 LOG2 PUSH2 0x555 PUSH2 0xCB3 JUMP JUMPDEST PUSH1 0x5 DUP1 SLOAD PUSH1 0x1 PUSH1 0x1 PUSH1 0xA0 SHL SUB NOT AND CALLER OR SWAP1 SSTORE CALLVALUE PUSH1 0x3 SSTORE PUSH1 0x6 DUP2 SWAP1 SSTORE PUSH2 0x578 PUSH2 0xCDF JUMP JUMPDEST POP JUMP JUMPDEST CALLER PUSH1 0x1 PUSH1 0x1 PUSH1 0xA0 SHL SUB PUSH32 0x0 AND EQ PUSH2 0x5F5 JUMPI PUSH1 0x40 MLOAD PUSH4 0x73E64FD PUSH1 0xE2 SHL DUP2 MSTORE CALLER PUSH1 0x4 DUP3 ADD MSTORE PUSH1 0x1 PUSH1 0x1 PUSH1 0xA0 SHL SUB PUSH32 0x0 AND PUSH1 0x24 DUP3 ADD MSTORE PUSH1 0x44 ADD PUSH2 0x3C2 JUMP JUMPDEST PUSH2 0x5FF DUP3 DUP3 PUSH2 0xD5E JUMP JUMPDEST POP POP JUMP JUMPDEST PUSH2 0x60B PUSH2 0xE45 JUMP JUMPDEST DUP1 SELFBALANCE LT ISZERO PUSH2 0x64D JUMPI PUSH1 0x40 MLOAD PUSH3 0x461BCD PUSH1 0xE5 SHL DUP2 MSTORE PUSH1 0x20 PUSH1 0x4 DUP3 ADD MSTORE PUSH1 0xF PUSH1 0x24 DUP3 ADD MSTORE PUSH15 0x42616C616E636520746F6F206C6F77 PUSH1 0x88 SHL PUSH1 0x44 DUP3 ADD MSTORE PUSH1 0x64 ADD PUSH2 0x3C2 JUMP JUMPDEST PUSH1 0x40 MLOAD CALLER SWAP1 DUP3 ISZERO PUSH2 0x8FC MUL SWAP1 DUP4 SWAP1 PUSH1 0x0 DUP2 DUP2 DUP2 DUP6 DUP9 DUP9 CALL SWAP4 POP POP POP POP ISZERO DUP1 ISZERO PUSH2 0x5FF JUMPI RETURNDATASIZE PUSH1 0x0 DUP1 RETURNDATACOPY RETURNDATASIZE PUSH1 0x0 REVERT JUMPDEST PUSH1 0x5 SLOAD PUSH1 0x0 SWAP1 PUSH1 0x1 PUSH1 0x1 PUSH1 0xA0 SHL SUB AND CALLER EQ PUSH2 0x6D0 JUMPI PUSH1 0x40 MLOAD PUSH3 0x461BCD PUSH1 0xE5 SHL DUP2 MSTORE PUSH1 0x20 PUSH1 0x4 DUP3 ADD MSTORE PUSH1 0x16 PUSH1 0x24 DUP3 ADD MSTORE PUSH22 0x2CB7BA9030B932903CB7BA903A343290383630BCB2B9 PUSH1 0x51 SHL PUSH1 0x44 DUP3 ADD MSTORE PUSH1 0x64 ADD PUSH2 0x3C2 JUMP JUMPDEST PUSH1 0x6 SLOAD ISZERO DUP1 ISZERO SWAP1 PUSH2 0x6FD JUMPI POP PUSH1 0x0 PUSH1 0x7 SLOAD PUSH2 0x100 SWAP1 DIV PUSH1 0xFF AND PUSH1 0x3 DUP2 GT ISZERO PUSH2 0x6FA JUMPI PUSH2 0x6FA PUSH2 0x164C JUMP JUMPDEST EQ ISZERO JUMPDEST PUSH2 0x759 JUMPI PUSH1 0x40 MLOAD PUSH3 0x461BCD PUSH1 0xE5 SHL DUP2 MSTORE PUSH1 0x20 PUSH1 0x4 DUP3 ADD MSTORE PUSH1 0x27 PUSH1 0x24 DUP3 ADD MSTORE PUSH32 0x4E6F7420626F746820706C617965727320636F6D6D6974746564207468656972 PUSH1 0x44 DUP3 ADD MSTORE PUSH7 0x1036B7BB32B997 PUSH1 0xC9 SHL PUSH1 0x64 DUP3 ADD MSTORE PUSH1 0x84 ADD PUSH2 0x3C2 JUMP JUMPDEST PUSH2 0x761 PUSH2 0xE98 JUMP JUMPDEST PUSH1 0x0 PUSH1 0x2 DUP4 PUSH1 0x40 MLOAD PUSH1 0x20 ADD PUSH2 0x776 SWAP2 SWAP1 PUSH2 0x14ED JUMP JUMPDEST PUSH1 0x40 DUP1 MLOAD PUSH1 0x1F NOT DUP2 DUP5 SUB ADD DUP2 MSTORE SWAP1 DUP3 SWAP1 MSTORE PUSH2 0x790 SWAP2 PUSH2 0x14ED JUMP JUMPDEST PUSH1 0x20 PUSH1 0x40 MLOAD DUP1 DUP4 SUB DUP2 DUP6 GAS STATICCALL ISZERO DUP1 ISZERO PUSH2 0x7AD JUMPI RETURNDATASIZE PUSH1 0x0 DUP1 RETURNDATACOPY RETURNDATASIZE PUSH1 0x0 REVERT JUMPDEST POP POP POP PUSH1 0x40 MLOAD RETURNDATASIZE PUSH1 0x1F NOT PUSH1 0x1F DUP3 ADD AND DUP3 ADD DUP1 PUSH1 0x40 MSTORE POP DUP2 ADD SWAP1 PUSH2 0x7D0 SWAP2 SWAP1 PUSH2 0x1329 JUMP JUMPDEST SWAP1 POP PUSH1 0x0 PUSH2 0x7DD DUP5 PUSH2 0xEF0 JUMP JUMPDEST PUSH1 0x3 DUP2 GT ISZERO PUSH2 0x7EE JUMPI PUSH2 0x7EE PUSH2 0x164C JUMP JUMPDEST SWAP1 POP PUSH1 0x0 DUP2 PUSH1 0x3 DUP2 GT ISZERO PUSH2 0x804 JUMPI PUSH2 0x804 PUSH2 0x164C JUMP JUMPDEST EQ ISZERO PUSH2 0x815 JUMPI PUSH1 0x0 SWAP3 POP POP POP PUSH2 0x8E3 JUMP JUMPDEST DUP2 PUSH1 0x6 SLOAD EQ ISZERO PUSH2 0x848 JUMPI PUSH1 0x7 DUP1 SLOAD DUP3 SWAP2 SWAP1 PUSH1 0xFF NOT AND PUSH1 0x1 DUP4 PUSH1 0x3 DUP2 GT ISZERO PUSH2 0x83E JUMPI PUSH2 0x83E PUSH2 0x164C JUMP JUMPDEST MUL OR SWAP1 SSTORE POP PUSH2 0x853 JUMP JUMPDEST PUSH1 0x0 SWAP3 POP POP POP PUSH2 0x8E3 JUMP JUMPDEST PUSH1 0x7 SLOAD PUSH1 0x0 SWAP1 PUSH1 0xFF AND PUSH1 0x3 DUP2 GT ISZERO PUSH2 0x86D JUMPI PUSH2 0x86D PUSH2 0x164C JUMP JUMPDEST PUSH1 0x7 SLOAD SWAP1 SWAP2 POP PUSH1 0x0 SWAP1 PUSH2 0x100 SWAP1 DIV PUSH1 0xFF AND PUSH1 0x3 DUP2 GT ISZERO PUSH2 0x88F JUMPI PUSH2 0x88F PUSH2 0x164C JUMP JUMPDEST SWAP1 POP PUSH1 0x0 PUSH2 0x89D DUP4 DUP4 PUSH2 0xF73 JUMP JUMPDEST PUSH1 0xFF AND PUSH1 0x3 DUP2 GT ISZERO PUSH2 0x8B1 JUMPI PUSH2 0x8B1 PUSH2 0x164C JUMP JUMPDEST PUSH1 0x5 SLOAD PUSH1 0x3 SLOAD SWAP2 SWAP3 POP PUSH2 0x8D1 SWAP2 PUSH1 0x1 PUSH1 0x1 PUSH1 0xA0 SHL SUB SWAP1 SWAP2 AND SWAP1 DUP4 SWAP1 PUSH2 0xFE1 JUMP JUMPDEST PUSH2 0x8D9 PUSH2 0xCB3 JUMP JUMPDEST PUSH1 0x1 SWAP6 POP POP POP POP POP POP JUMPDEST PUSH2 0x8ED PUSH1 0x1 PUSH1 0x2 SSTORE JUMP JUMPDEST SWAP2 SWAP1 POP JUMP JUMPDEST PUSH1 0x1 SLOAD PUSH1 0x1 PUSH1 0x1 PUSH1 0xA0 SHL SUB AND CALLER EQ PUSH2 0x945 JUMPI PUSH1 0x40 MLOAD PUSH3 0x461BCD PUSH1 0xE5 SHL DUP2 MSTORE PUSH1 0x20 PUSH1 0x4 DUP3 ADD MSTORE PUSH1 0x16 PUSH1 0x24 DUP3 ADD MSTORE PUSH22 0x26BAB9BA10313290383937B837B9B2B21037BBB732B9 PUSH1 0x51 SHL PUSH1 0x44 DUP3 ADD MSTORE PUSH1 0x64 ADD PUSH2 0x3C2 JUMP JUMPDEST PUSH1 0x0 DUP1 SLOAD CALLER PUSH1 0x1 PUSH1 0x1 PUSH1 0xA0 SHL SUB NOT DUP1 DUP4 AND DUP3 OR DUP5 SSTORE PUSH1 0x1 DUP1 SLOAD SWAP1 SWAP2 AND SWAP1 SSTORE PUSH1 0x40 MLOAD PUSH1 0x1 PUSH1 0x1 PUSH1 0xA0 SHL SUB SWAP1 SWAP3 AND SWAP3 SWAP1 SWAP2 DUP4 SWAP2 PUSH32 0x8BE0079C531659141344CD1FD0A4F28419497F9722A3DAAFE3B4186F6B6457E0 SWAP2 LOG3 POP JUMP JUMPDEST PUSH1 0xA DUP2 DUP2 SLOAD DUP2 LT PUSH2 0x9AC JUMPI PUSH1 0x0 DUP1 REVERT JUMPDEST PUSH1 0x0 SWAP2 DUP3 MSTORE PUSH1 0x20 SWAP1 SWAP2 KECCAK256 ADD SLOAD SWAP1 POP DUP2 JUMP JUMPDEST PUSH1 0x0 DUP2 DUP2 MSTORE PUSH1 0x8 PUSH1 0x20 MSTORE PUSH1 0x40 DUP2 KECCAK256 SLOAD PUSH1 0x60 SWAP1 PUSH2 0x100 SWAP1 DIV PUSH1 0xFF AND PUSH2 0xA17 JUMPI PUSH1 0x40 MLOAD PUSH3 0x461BCD PUSH1 0xE5 SHL DUP2 MSTORE PUSH1 0x20 PUSH1 0x4 DUP3 ADD MSTORE PUSH1 0x11 PUSH1 0x24 DUP3 ADD MSTORE PUSH17 0x1C995C5D595CDD081B9BDD08199BDD5B99 PUSH1 0x7A SHL PUSH1 0x44 DUP3 ADD MSTORE PUSH1 0x64 ADD PUSH2 0x3C2 JUMP JUMPDEST PUSH1 0x0 DUP4 DUP2 MSTORE PUSH1 0x8 PUSH1 0x20 SWAP1 DUP2 MSTORE PUSH1 0x40 DUP1 DUP4 KECCAK256 DUP2 MLOAD PUSH1 0x60 DUP2 ADD DUP4 MSTORE DUP2 SLOAD PUSH1 0xFF DUP1 DUP3 AND ISZERO ISZERO DUP4 MSTORE PUSH2 0x100 SWAP1 SWAP2 DIV AND ISZERO ISZERO DUP2 DUP6 ADD MSTORE PUSH1 0x1 DUP3 ADD DUP1 SLOAD DUP5 MLOAD DUP2 DUP8 MUL DUP2 ADD DUP8 ADD DUP7 MSTORE DUP2 DUP2 MSTORE SWAP3 SWAP6 SWAP4 SWAP5 DUP7 ADD SWAP4 DUP4 ADD DUP3 DUP3 DUP1 ISZERO PUSH2 0xA92 JUMPI PUSH1 0x20 MUL DUP3 ADD SWAP2 SWAP1 PUSH1 0x0 MSTORE PUSH1 0x20 PUSH1 0x0 KECCAK256 SWAP1 JUMPDEST DUP2 SLOAD DUP2 MSTORE PUSH1 0x20 ADD SWAP1 PUSH1 0x1 ADD SWAP1 DUP1 DUP4 GT PUSH2 0xA7E JUMPI JUMPDEST POP POP POP POP POP DUP2 MSTORE POP POP SWAP1 POP DUP1 PUSH1 0x0 ADD MLOAD DUP2 PUSH1 0x40 ADD MLOAD SWAP3 POP SWAP3 POP POP SWAP2 POP SWAP2 JUMP JUMPDEST PUSH1 0x0 PUSH2 0xABB PUSH2 0xE45 JUMP JUMPDEST PUSH1 0x9 SLOAD PUSH1 0xC SLOAD PUSH1 0x40 MLOAD PUSH4 0x5D3B1D3 PUSH1 0xE4 SHL DUP2 MSTORE PUSH32 0x0 PUSH1 0x4 DUP3 ADD MSTORE PUSH1 0x1 PUSH1 0xA0 SHL DUP4 DIV PUSH8 0xFFFFFFFFFFFFFFFF AND PUSH1 0x24 DUP3 ADD MSTORE PUSH5 0x100000000 DUP3 DIV PUSH2 0xFFFF AND PUSH1 0x44 DUP3 ADD MSTORE PUSH4 0xFFFFFFFF DUP1 DUP4 AND PUSH1 0x64 DUP4 ADD MSTORE PUSH7 0x1000000000000 SWAP1 SWAP3 DIV SWAP1 SWAP2 AND PUSH1 0x84 DUP3 ADD MSTORE PUSH1 0x1 PUSH1 0x1 PUSH1 0xA0 SHL SUB SWAP1 SWAP2 AND SWAP1 PUSH4 0x5D3B1D30 SWAP1 PUSH1 0xA4 ADD PUSH1 0x20 PUSH1 0x40 MLOAD DUP1 DUP4 SUB DUP2 PUSH1 0x0 DUP8 DUP1 EXTCODESIZE ISZERO DUP1 ISZERO PUSH2 0xB6A JUMPI PUSH1 0x0 DUP1 REVERT JUMPDEST POP GAS CALL ISZERO DUP1 ISZERO PUSH2 0xB7E JUMPI RETURNDATASIZE PUSH1 0x0 DUP1 RETURNDATACOPY RETURNDATASIZE PUSH1 0x0 REVERT JUMPDEST POP POP POP POP PUSH1 0x40 MLOAD RETURNDATASIZE PUSH1 0x1F NOT PUSH1 0x1F DUP3 ADD AND DUP3 ADD DUP1 PUSH1 0x40 MSTORE POP DUP2 ADD SWAP1 PUSH2 0xBA2 SWAP2 SWAP1 PUSH2 0x1329 JUMP JUMPDEST PUSH1 0x40 DUP1 MLOAD PUSH1 0x60 DUP2 ADD DUP3 MSTORE PUSH1 0x0 DUP1 DUP3 MSTORE PUSH1 0x1 PUSH1 0x20 DUP1 DUP5 ADD DUP3 DUP2 MSTORE DUP6 MLOAD DUP5 DUP2 MSTORE DUP1 DUP4 ADD DUP8 MSTORE DUP6 DUP8 ADD SWAP1 DUP2 MSTORE DUP8 DUP6 MSTORE PUSH1 0x8 DUP4 MSTORE SWAP6 SWAP1 SWAP4 KECCAK256 DUP5 MLOAD DUP2 SLOAD SWAP5 MLOAD PUSH2 0xFFFF NOT SWAP1 SWAP6 AND SWAP1 ISZERO ISZERO PUSH2 0xFF00 NOT AND OR PUSH2 0x100 SWAP5 ISZERO ISZERO SWAP5 SWAP1 SWAP5 MUL SWAP4 SWAP1 SWAP4 OR DUP4 SSTORE SWAP4 MLOAD DUP1 MLOAD SWAP6 SWAP7 POP SWAP3 SWAP5 SWAP2 SWAP4 PUSH2 0xC17 SWAP4 SWAP2 DUP6 ADD SWAP3 SWAP2 ADD SWAP1 PUSH2 0x1280 JUMP JUMPDEST POP POP PUSH1 0xA DUP1 SLOAD PUSH1 0x1 DUP2 ADD DUP3 SSTORE PUSH1 0x0 SWAP2 SWAP1 SWAP2 MSTORE PUSH32 0xC65A7BB8D6351C1CF70C95A316CC6A92839C986682D98BC35F958F4883F9D2A8 ADD DUP3 SWAP1 SSTORE POP PUSH1 0xB DUP2 SWAP1 SSTORE PUSH1 0xC SLOAD PUSH1 0x40 DUP1 MLOAD DUP4 DUP2 MSTORE PUSH7 0x1000000000000 SWAP1 SWAP3 DIV PUSH4 0xFFFFFFFF AND PUSH1 0x20 DUP4 ADD MSTORE PUSH32 0xCC58B13AD3EAB50626C6A6300B1D139CD6EBB1688A7CCED9461C2F7E762665EE SWAP2 ADD PUSH1 0x40 MLOAD DUP1 SWAP2 SUB SWAP1 LOG1 SWAP1 JUMP JUMPDEST PUSH2 0xCAA PUSH2 0xE45 JUMP JUMPDEST PUSH2 0x578 DUP2 PUSH2 0x1187 JUMP JUMPDEST PUSH1 0x0 PUSH1 0x3 DUP2 SWAP1 SSTORE PUSH1 0x4 DUP2 SWAP1 SSTORE PUSH1 0x5 DUP1 SLOAD PUSH1 0x1 PUSH1 0x1 PUSH1 0xA0 SHL SUB NOT AND SWAP1 SSTORE PUSH1 0x6 SSTORE PUSH1 0x7 DUP1 SLOAD PUSH2 0xFFFF NOT AND SWAP1 SSTORE JUMP JUMPDEST PUSH2 0xCE7 PUSH2 0x1231 JUMP JUMPDEST PUSH1 0x7 DUP1 SLOAD PUSH2 0xFF00 NOT AND PUSH2 0x100 DUP4 PUSH1 0x3 DUP2 GT ISZERO PUSH2 0xD05 JUMPI PUSH2 0xD05 PUSH2 0x164C JUMP JUMPDEST MUL OR SWAP1 SSTORE POP PUSH32 0x50847CE5B6A91BE6FB0A54F67C828EE9982F5E7B413CF5169C8352E7A0B0E070 PUSH1 0x7 PUSH1 0x1 SWAP1 SLOAD SWAP1 PUSH2 0x100 EXP SWAP1 DIV PUSH1 0xFF AND PUSH1 0x40 MLOAD PUSH2 0xD48 SWAP2 SWAP1 PUSH2 0x152C JUMP JUMPDEST PUSH1 0x40 MLOAD DUP1 SWAP2 SUB SWAP1 LOG1 PUSH1 0x4 SLOAD PUSH2 0xD5C JUMPI TIMESTAMP PUSH1 0x4 SSTORE JUMPDEST JUMP JUMPDEST PUSH1 0x0 DUP3 DUP2 MSTORE PUSH1 0x8 PUSH1 0x20 MSTORE PUSH1 0x40 SWAP1 KECCAK256 SLOAD PUSH2 0x100 SWAP1 DIV PUSH1 0xFF AND PUSH2 0xDB5 JUMPI PUSH1 0x40 MLOAD PUSH3 0x461BCD PUSH1 0xE5 SHL DUP2 MSTORE PUSH1 0x20 PUSH1 0x4 DUP3 ADD MSTORE PUSH1 0x11 PUSH1 0x24 DUP3 ADD MSTORE PUSH17 0x1C995C5D595CDD081B9BDD08199BDD5B99 PUSH1 0x7A SHL PUSH1 0x44 DUP3 ADD MSTORE PUSH1 0x64 ADD PUSH2 0x3C2 JUMP JUMPDEST PUSH1 0x0 DUP3 DUP2 MSTORE PUSH1 0x8 PUSH1 0x20 SWAP1 DUP2 MSTORE PUSH1 0x40 SWAP1 SWAP2 KECCAK256 DUP1 SLOAD PUSH1 0xFF NOT AND PUSH1 0x1 SWAP1 DUP2 OR DUP3 SSTORE DUP4 MLOAD PUSH2 0xDE6 SWAP4 SWAP3 SWAP1 SWAP2 ADD SWAP2 DUP5 ADD SWAP1 PUSH2 0x1280 JUMP JUMPDEST POP DUP1 PUSH1 0x0 DUP2 MLOAD DUP2 LT PUSH2 0xDFA JUMPI PUSH2 0xDFA PUSH2 0x1662 JUMP JUMPDEST PUSH1 0x20 MUL PUSH1 0x20 ADD ADD MLOAD PUSH1 0xD DUP2 SWAP1 SSTORE POP PUSH32 0xFE2E2D779DBA245964D4E3EF9B994BE63856FD568BF7D3CA9E224755CB1BD54D DUP3 DUP3 PUSH1 0x40 MLOAD PUSH2 0xE39 SWAP3 SWAP2 SWAP1 PUSH2 0x1563 JUMP JUMPDEST PUSH1 0x40 MLOAD DUP1 SWAP2 SUB SWAP1 LOG1 POP POP JUMP JUMPDEST PUSH1 0x0 SLOAD PUSH1 0x1 PUSH1 0x1 PUSH1 0xA0 SHL SUB AND CALLER EQ PUSH2 0xD5C JUMPI PUSH1 0x40 MLOAD PUSH3 0x461BCD PUSH1 0xE5 SHL DUP2 MSTORE PUSH1 0x20 PUSH1 0x4 DUP3 ADD MSTORE PUSH1 0x16 PUSH1 0x24 DUP3 ADD MSTORE PUSH22 0x27B7363C9031B0B63630B1363290313C9037BBB732B9 PUSH1 0x51 SHL PUSH1 0x44 DUP3 ADD MSTORE PUSH1 0x64 ADD PUSH2 0x3C2 JUMP JUMPDEST PUSH1 0x2 DUP1 SLOAD EQ ISZERO PUSH2 0xEEA JUMPI PUSH1 0x40 MLOAD PUSH3 0x461BCD PUSH1 0xE5 SHL DUP2 MSTORE PUSH1 0x20 PUSH1 0x4 DUP3 ADD MSTORE PUSH1 0x1F PUSH1 0x24 DUP3 ADD MSTORE PUSH32 0x5265656E7472616E637947756172643A207265656E7472616E742063616C6C00 PUSH1 0x44 DUP3 ADD MSTORE PUSH1 0x64 ADD PUSH2 0x3C2 JUMP JUMPDEST PUSH1 0x2 DUP1 SSTORE JUMP JUMPDEST PUSH1 0x0 DUP1 DUP3 PUSH1 0x0 DUP2 MLOAD DUP2 LT PUSH2 0xF06 JUMPI PUSH2 0xF06 PUSH2 0x1662 JUMP JUMPDEST ADD PUSH1 0x20 ADD MLOAD PUSH1 0x1 PUSH1 0x1 PUSH1 0xF8 SHL SUB NOT AND SWAP1 POP PUSH1 0x31 PUSH1 0xF8 SHL DUP2 EQ ISZERO PUSH2 0xF2C JUMPI POP PUSH1 0x1 SWAP3 SWAP2 POP POP JUMP JUMPDEST PUSH1 0x19 PUSH1 0xF9 SHL PUSH1 0x1 PUSH1 0x1 PUSH1 0xF8 SHL SUB NOT DUP3 AND EQ ISZERO PUSH2 0xF4B JUMPI POP PUSH1 0x2 SWAP3 SWAP2 POP POP JUMP JUMPDEST PUSH1 0x33 PUSH1 0xF8 SHL PUSH1 0x1 PUSH1 0x1 PUSH1 0xF8 SHL SUB NOT DUP3 AND EQ ISZERO PUSH2 0xF6A JUMPI POP PUSH1 0x3 SWAP3 SWAP2 POP POP JUMP JUMPDEST POP PUSH1 0x0 SWAP3 SWAP2 POP POP JUMP JUMPDEST PUSH1 0x0 DUP2 DUP4 EQ ISZERO PUSH2 0xF85 JUMPI POP PUSH1 0x3 PUSH2 0xFDB JUMP JUMPDEST DUP2 DUP4 GT ISZERO PUSH2 0xFB2 JUMPI DUP2 PUSH1 0x1 EQ DUP1 ISZERO PUSH2 0xF9D JUMPI POP DUP3 PUSH1 0x3 EQ JUMPDEST ISZERO PUSH2 0xFAA JUMPI POP PUSH1 0x2 PUSH2 0xFDB JUMP JUMPDEST POP PUSH1 0x1 PUSH2 0xFDB JUMP JUMPDEST DUP3 DUP3 GT ISZERO PUSH2 0xF6A JUMPI DUP3 PUSH1 0x1 EQ DUP1 ISZERO PUSH2 0xFCA JUMPI POP DUP2 PUSH1 0x3 EQ JUMPDEST ISZERO PUSH2 0xFD7 JUMPI POP PUSH1 0x1 PUSH2 0xFDB JUMP JUMPDEST POP PUSH1 0x2 JUMPDEST SWAP3 SWAP2 POP POP JUMP JUMPDEST PUSH1 0x1 DUP3 PUSH1 0x3 DUP2 GT ISZERO PUSH2 0xFF5 JUMPI PUSH2 0xFF5 PUSH2 0x164C JUMP JUMPDEST EQ ISZERO PUSH2 0x1098 JUMPI PUSH1 0x1 PUSH1 0x1 PUSH1 0xA0 SHL SUB DUP4 AND PUSH2 0x8FC PUSH2 0x1013 DUP4 PUSH1 0x2 PUSH2 0x15C5 JUMP JUMPDEST PUSH1 0x40 MLOAD DUP2 ISZERO SWAP1 SWAP3 MUL SWAP2 PUSH1 0x0 DUP2 DUP2 DUP2 DUP6 DUP9 DUP9 CALL SWAP4 POP POP POP POP ISZERO DUP1 ISZERO PUSH2 0x103B JUMPI RETURNDATASIZE PUSH1 0x0 DUP1 RETURNDATACOPY RETURNDATASIZE PUSH1 0x0 REVERT JUMPDEST POP PUSH1 0x5 SLOAD PUSH1 0x7 SLOAD PUSH1 0x40 MLOAD PUSH1 0x1 PUSH1 0x1 PUSH1 0xA0 SHL SUB SWAP1 SWAP3 AND SWAP2 PUSH32 0x2069C251D5AACD1CEDFC522A09530AA3A904C4EBBA85D66EE32970AE48B21DDC SWAP2 PUSH2 0x108B SWAP2 PUSH1 0xFF DUP1 DUP4 AND SWAP3 PUSH2 0x100 SWAP1 DIV AND SWAP1 DUP7 SWAP1 PUSH2 0x153A JUMP JUMPDEST PUSH1 0x40 MLOAD DUP1 SWAP2 SUB SWAP1 LOG2 POP POP POP JUMP JUMPDEST PUSH1 0x3 DUP3 PUSH1 0x3 DUP2 GT ISZERO PUSH2 0x10AC JUMPI PUSH2 0x10AC PUSH2 0x164C JUMP JUMPDEST EQ ISZERO PUSH2 0x1138 JUMPI PUSH1 0x40 MLOAD PUSH1 0x1 PUSH1 0x1 PUSH1 0xA0 SHL SUB DUP5 AND SWAP1 DUP3 ISZERO PUSH2 0x8FC MUL SWAP1 DUP4 SWAP1 PUSH1 0x0 DUP2 DUP2 DUP2 DUP6 DUP9 DUP9 CALL SWAP4 POP POP POP POP ISZERO DUP1 ISZERO PUSH2 0x10E8 JUMPI RETURNDATASIZE PUSH1 0x0 DUP1 RETURNDATACOPY RETURNDATASIZE PUSH1 0x0 REVERT JUMPDEST POP PUSH1 0x5 SLOAD PUSH1 0x7 SLOAD PUSH1 0x40 MLOAD PUSH1 0x1 PUSH1 0x1 PUSH1 0xA0 SHL SUB SWAP1 SWAP3 AND SWAP2 PUSH32 0x3F9F81BAA21DBABD3A70AA2D5A1D157A5731197A2816E9BE79228AAF56541D43 SWAP2 PUSH2 0x108B SWAP2 PUSH1 0xFF DUP1 DUP4 AND SWAP3 PUSH2 0x100 SWAP1 DIV AND SWAP1 DUP7 SWAP1 PUSH2 0x153A JUMP JUMPDEST PUSH1 0x5 SLOAD PUSH1 0x7 SLOAD PUSH1 0x40 MLOAD PUSH1 0x1 PUSH1 0x1 PUSH1 0xA0 SHL SUB SWAP1 SWAP3 AND SWAP2 PUSH32 0x4E975787EA7DC6679A1751654C0D39BB1F0B641921163FA3F4694D74B167CAEA SWAP2 PUSH2 0x108B SWAP2 PUSH1 0xFF DUP1 DUP4 AND SWAP3 PUSH2 0x100 SWAP1 DIV AND SWAP1 DUP7 SWAP1 PUSH2 0x153A JUMP JUMPDEST PUSH1 0x1 PUSH1 0x1 PUSH1 0xA0 SHL SUB DUP2 AND CALLER EQ ISZERO PUSH2 0x11E0 JUMPI PUSH1 0x40 MLOAD PUSH3 0x461BCD PUSH1 0xE5 SHL DUP2 MSTORE PUSH1 0x20 PUSH1 0x4 DUP3 ADD MSTORE PUSH1 0x17 PUSH1 0x24 DUP3 ADD MSTORE PUSH32 0x43616E6E6F74207472616E7366657220746F2073656C66000000000000000000 PUSH1 0x44 DUP3 ADD MSTORE PUSH1 0x64 ADD PUSH2 0x3C2 JUMP JUMPDEST PUSH1 0x1 DUP1 SLOAD PUSH1 0x1 PUSH1 0x1 PUSH1 0xA0 SHL SUB NOT AND PUSH1 0x1 PUSH1 0x1 PUSH1 0xA0 SHL SUB DUP4 DUP2 AND SWAP2 DUP3 OR SWAP1 SWAP3 SSTORE PUSH1 0x0 DUP1 SLOAD PUSH1 0x40 MLOAD SWAP3 SWAP4 AND SWAP2 PUSH32 0xED8889F560326EB138920D842192F0EB3DD22B4F139C87A2C57538E05BAE1278 SWAP2 SWAP1 LOG3 POP JUMP JUMPDEST PUSH1 0x0 PUSH1 0x3 PUSH2 0x123D PUSH2 0x126B JUMP JUMPDEST PUSH2 0x1247 SWAP2 SWAP1 PUSH2 0x1614 JUMP JUMPDEST PUSH2 0x1252 SWAP1 PUSH1 0x1 PUSH2 0x15AD JUMP JUMPDEST PUSH1 0xFF AND PUSH1 0x3 DUP2 GT ISZERO PUSH2 0x1266 JUMPI PUSH2 0x1266 PUSH2 0x164C JUMP JUMPDEST SWAP1 POP SWAP1 JUMP JUMPDEST PUSH1 0x0 DUP1 PUSH2 0x1276 PUSH2 0xAB1 JUMP JUMPDEST POP POP PUSH1 0xD SLOAD SWAP2 SWAP1 POP JUMP JUMPDEST DUP3 DUP1 SLOAD DUP3 DUP3 SSTORE SWAP1 PUSH1 0x0 MSTORE PUSH1 0x20 PUSH1 0x0 KECCAK256 SWAP1 DUP2 ADD SWAP3 DUP3 ISZERO PUSH2 0x12BB JUMPI SWAP2 PUSH1 0x20 MUL DUP3 ADD JUMPDEST DUP3 DUP2 GT ISZERO PUSH2 0x12BB JUMPI DUP3 MLOAD DUP3 SSTORE SWAP2 PUSH1 0x20 ADD SWAP2 SWAP1 PUSH1 0x1 ADD SWAP1 PUSH2 0x12A0 JUMP JUMPDEST POP PUSH2 0x12C7 SWAP3 SWAP2 POP PUSH2 0x12CB JUMP JUMPDEST POP SWAP1 JUMP JUMPDEST JUMPDEST DUP1 DUP3 GT ISZERO PUSH2 0x12C7 JUMPI PUSH1 0x0 DUP2 SSTORE PUSH1 0x1 ADD PUSH2 0x12CC JUMP JUMPDEST PUSH1 0x0 PUSH1 0x20 DUP3 DUP5 SUB SLT ISZERO PUSH2 0x12F2 JUMPI PUSH1 0x0 DUP1 REVERT JUMPDEST DUP2 CALLDATALOAD PUSH1 0x1 PUSH1 0x1 PUSH1 0xA0 SHL SUB DUP2 AND DUP2 EQ PUSH2 0x1309 JUMPI PUSH1 0x0 DUP1 REVERT JUMPDEST SWAP4 SWAP3 POP POP POP JUMP JUMPDEST PUSH1 0x0 PUSH1 0x20 DUP3 DUP5 SUB SLT ISZERO PUSH2 0x1322 JUMPI PUSH1 0x0 DUP1 REVERT JUMPDEST POP CALLDATALOAD SWAP2 SWAP1 POP JUMP JUMPDEST PUSH1 0x0 PUSH1 0x20 DUP3 DUP5 SUB SLT ISZERO PUSH2 0x133B JUMPI PUSH1 0x0 DUP1 REVERT JUMPDEST POP MLOAD SWAP2 SWAP1 POP JUMP JUMPDEST PUSH1 0x0 PUSH1 0x20 DUP1 DUP4 DUP6 SUB SLT ISZERO PUSH2 0x1355 JUMPI PUSH1 0x0 DUP1 REVERT JUMPDEST DUP3 CALLDATALOAD PUSH8 0xFFFFFFFFFFFFFFFF DUP1 DUP3 GT ISZERO PUSH2 0x136D JUMPI PUSH1 0x0 DUP1 REVERT JUMPDEST DUP2 DUP6 ADD SWAP2 POP DUP6 PUSH1 0x1F DUP4 ADD SLT PUSH2 0x1381 JUMPI PUSH1 0x0 DUP1 REVERT JUMPDEST DUP2 CALLDATALOAD DUP2 DUP2 GT ISZERO PUSH2 0x1393 JUMPI PUSH2 0x1393 PUSH2 0x1678 JUMP JUMPDEST PUSH2 0x13A5 PUSH1 0x1F DUP3 ADD PUSH1 0x1F NOT AND DUP6 ADD PUSH2 0x157C JUMP JUMPDEST SWAP2 POP DUP1 DUP3 MSTORE DUP7 DUP5 DUP3 DUP6 ADD ADD GT ISZERO PUSH2 0x13BB JUMPI PUSH1 0x0 DUP1 REVERT JUMPDEST DUP1 DUP5 DUP5 ADD DUP6 DUP5 ADD CALLDATACOPY PUSH1 0x0 SWAP1 DUP3 ADD SWAP1 SWAP4 ADD SWAP3 SWAP1 SWAP3 MSTORE POP SWAP4 SWAP3 POP POP POP JUMP JUMPDEST PUSH1 0x0 DUP1 PUSH1 0x40 DUP4 DUP6 SUB SLT ISZERO PUSH2 0x13EA JUMPI PUSH1 0x0 DUP1 REVERT JUMPDEST DUP3 CALLDATALOAD SWAP2 POP PUSH1 0x20 DUP1 DUP5 ADD CALLDATALOAD PUSH8 0xFFFFFFFFFFFFFFFF DUP1 DUP3 GT ISZERO PUSH2 0x140A JUMPI PUSH1 0x0 DUP1 REVERT JUMPDEST DUP2 DUP7 ADD SWAP2 POP DUP7 PUSH1 0x1F DUP4 ADD SLT PUSH2 0x141E JUMPI PUSH1 0x0 DUP1 REVERT JUMPDEST DUP2 CALLDATALOAD DUP2 DUP2 GT ISZERO PUSH2 0x1430 JUMPI PUSH2 0x1430 PUSH2 0x1678 JUMP JUMPDEST DUP1 PUSH1 0x5 SHL SWAP2 POP PUSH2 0x1441 DUP5 DUP4 ADD PUSH2 0x157C JUMP JUMPDEST DUP2 DUP2 MSTORE DUP5 DUP2 ADD SWAP1 DUP5 DUP7 ADD DUP5 DUP7 ADD DUP8 ADD DUP12 LT ISZERO PUSH2 0x145C JUMPI PUSH1 0x0 DUP1 REVERT JUMPDEST PUSH1 0x0 SWAP6 POP JUMPDEST DUP4 DUP7 LT ISZERO PUSH2 0x147F JUMPI DUP1 CALLDATALOAD DUP4 MSTORE PUSH1 0x1 SWAP6 SWAP1 SWAP6 ADD SWAP5 SWAP2 DUP7 ADD SWAP2 DUP7 ADD PUSH2 0x1461 JUMP JUMPDEST POP DUP1 SWAP7 POP POP POP POP POP POP POP SWAP3 POP SWAP3 SWAP1 POP JUMP JUMPDEST PUSH1 0x0 DUP2 MLOAD DUP1 DUP5 MSTORE PUSH1 0x20 DUP1 DUP6 ADD SWAP5 POP DUP1 DUP5 ADD PUSH1 0x0 JUMPDEST DUP4 DUP2 LT ISZERO PUSH2 0x14C0 JUMPI DUP2 MLOAD DUP8 MSTORE SWAP6 DUP3 ADD SWAP6 SWAP1 DUP3 ADD SWAP1 PUSH1 0x1 ADD PUSH2 0x14A4 JUMP JUMPDEST POP SWAP5 SWAP6 SWAP5 POP POP POP POP POP JUMP JUMPDEST PUSH1 0x4 DUP2 LT PUSH2 0x14E9 JUMPI PUSH4 0x4E487B71 PUSH1 0xE0 SHL PUSH1 0x0 MSTORE PUSH1 0x21 PUSH1 0x4 MSTORE PUSH1 0x24 PUSH1 0x0 REVERT JUMPDEST SWAP1 MSTORE JUMP JUMPDEST PUSH1 0x0 DUP3 MLOAD PUSH2 0x14FF DUP2 DUP5 PUSH1 0x20 DUP8 ADD PUSH2 0x15E4 JUMP JUMPDEST SWAP2 SWAP1 SWAP2 ADD SWAP3 SWAP2 POP POP JUMP JUMPDEST DUP3 ISZERO ISZERO DUP2 MSTORE PUSH1 0x40 PUSH1 0x20 DUP3 ADD MSTORE PUSH1 0x0 PUSH2 0x1524 PUSH1 0x40 DUP4 ADD DUP5 PUSH2 0x1490 JUMP JUMPDEST SWAP5 SWAP4 POP POP POP POP JUMP JUMPDEST PUSH1 0x20 DUP2 ADD PUSH2 0xFDB DUP3 DUP5 PUSH2 0x14CB JUMP JUMPDEST PUSH1 0x60 DUP2 ADD PUSH2 0x1548 DUP3 DUP7 PUSH2 0x14CB JUMP JUMPDEST PUSH2 0x1555 PUSH1 0x20 DUP4 ADD DUP6 PUSH2 0x14CB JUMP JUMPDEST DUP3 PUSH1 0x40 DUP4 ADD MSTORE SWAP5 SWAP4 POP POP POP POP JUMP JUMPDEST DUP3 DUP2 MSTORE PUSH1 0x40 PUSH1 0x20 DUP3 ADD MSTORE PUSH1 0x0 PUSH2 0x1524 PUSH1 0x40 DUP4 ADD DUP5 PUSH2 0x1490 JUMP JUMPDEST PUSH1 0x40 MLOAD PUSH1 0x1F DUP3 ADD PUSH1 0x1F NOT AND DUP2 ADD PUSH8 0xFFFFFFFFFFFFFFFF DUP2 GT DUP3 DUP3 LT OR ISZERO PUSH2 0x15A5 JUMPI PUSH2 0x15A5 PUSH2 0x1678 JUMP JUMPDEST PUSH1 0x40 MSTORE SWAP2 SWAP1 POP JUMP JUMPDEST PUSH1 0x0 DUP3 NOT DUP3 GT ISZERO PUSH2 0x15C0 JUMPI PUSH2 0x15C0 PUSH2 0x1636 JUMP JUMPDEST POP ADD SWAP1 JUMP JUMPDEST PUSH1 0x0 DUP2 PUSH1 0x0 NOT DIV DUP4 GT DUP3 ISZERO ISZERO AND ISZERO PUSH2 0x15DF JUMPI PUSH2 0x15DF PUSH2 0x1636 JUMP JUMPDEST POP MUL SWAP1 JUMP JUMPDEST PUSH1 0x0 JUMPDEST DUP4 DUP2 LT ISZERO PUSH2 0x15FF JUMPI DUP2 DUP2 ADD MLOAD DUP4 DUP3 ADD MSTORE PUSH1 0x20 ADD PUSH2 0x15E7 JUMP JUMPDEST DUP4 DUP2 GT ISZERO PUSH2 0x160E JUMPI PUSH1 0x0 DUP5 DUP5 ADD MSTORE JUMPDEST POP POP POP POP JUMP JUMPDEST PUSH1 0x0 DUP3 PUSH2 0x1631 JUMPI PUSH4 0x4E487B71 PUSH1 0xE0 SHL PUSH1 0x0 MSTORE PUSH1 0x12 PUSH1 0x4 MSTORE PUSH1 0x24 PUSH1 0x0 REVERT JUMPDEST POP MOD SWAP1 JUMP JUMPDEST PUSH4 0x4E487B71 PUSH1 0xE0 SHL PUSH1 0x0 MSTORE PUSH1 0x11 PUSH1 0x4 MSTORE PUSH1 0x24 PUSH1 0x0 REVERT JUMPDEST PUSH4 0x4E487B71 PUSH1 0xE0 SHL PUSH1 0x0 MSTORE PUSH1 0x21 PUSH1 0x4 MSTORE PUSH1 0x24 PUSH1 0x0 REVERT JUMPDEST PUSH4 0x4E487B71 PUSH1 0xE0 SHL PUSH1 0x0 MSTORE PUSH1 0x32 PUSH1 0x4 MSTORE PUSH1 0x24 PUSH1 0x0 REVERT JUMPDEST PUSH4 0x4E487B71 PUSH1 0xE0 SHL PUSH1 0x0 MSTORE PUSH1 0x41 PUSH1 0x4 MSTORE PUSH1 0x24 PUSH1 0x0 REVERT INVALID LOG2 PUSH5 0x6970667358 0x22 SLT KECCAK256 PC DUP5 ADDMOD MSTORE JUMPDEST 0x28 TIMESTAMP PUSH14 0xB7221185CA01EDD9398725CB0976 RETURN 0x4C SWAP8 SWAP4 0xCE 0xF 0xAE 0x4A 0xFC 0x4F PUSH5 0x736F6C6343 STOP ADDMOD SMOD STOP CALLER "},"methodIdentifiers":{"MIN_BET()":"6540742f","REVEAL_TIMEOUT()":"3d6ae3a7","acceptOwnership()":"79ba5097","bet()":"11610c25","getRequestStatus(uint256)":"d8a4676f","lastRequestId()":"fc2a88c3","moveHost()":"872175e5","owner()":"8da5cb5b","playBet(bytes32)":"12e505c9","randomWordsNum()":"9a8ff87c","rawFulfillRandomWords(uint256,uint256[])":"1fe543e3","requestIds(uint256)":"8796ba8c","requestRandomWords()":"e0c86289","reveal(string)":"4c261247","s_requests(uint256)":"a168fa89","transferOwnership(address)":"f2fde38b","withdraw(uint256)":"2e1a7d4d"}}}}}