{"contracts/Mock/Rps2Mock.sol":{"Rps2Mock":{"abi":[{"inputs":[{"internalType":"uint64","name":"subscriptionId","type":"uint64"},{"internalType":"address","name":"_coordomator","type":"address"},{"internalType":"bytes32","name":"_keyHash","type":"bytes32"}],"stateMutability":"payable","type":"constructor"},{"inputs":[{"internalType":"address","name":"have","type":"address"},{"internalType":"address","name":"want","type":"address"}],"name":"OnlyCoordinatorCanFulfill","type":"error"},{"anonymous":false,"inputs":[{"indexed":true,"internalType":"address","name":"player","type":"address"},{"indexed":false,"internalType":"enum Rps2.Moves","name":"playerMove","type":"uint8"},{"indexed":false,"internalType":"enum Rps2.Moves","name":"hostMove","type":"uint8"},{"indexed":false,"internalType":"uint256","name":"bet","type":"uint256"}],"name":"Draw","type":"event"},{"anonymous":false,"inputs":[{"indexed":true,"internalType":"address","name":"winner","type":"address"},{"indexed":false,"internalType":"uint256","name":"amount","type":"uint256"}],"name":"FomoPayment","type":"event"},{"anonymous":false,"inputs":[{"indexed":true,"internalType":"address","name":"winner","type":"address"},{"indexed":false,"internalType":"uint256","name":"endTime","type":"uint256"}],"name":"FomoTimerIncrease","type":"event"},{"anonymous":false,"inputs":[{"indexed":true,"internalType":"address","name":"winner","type":"address"},{"indexed":false,"internalType":"uint256","name":"endTime","type":"uint256"}],"name":"FomoTimerStart","type":"event"},{"anonymous":false,"inputs":[{"indexed":true,"internalType":"address","name":"player","type":"address"},{"indexed":false,"internalType":"enum Rps2.Moves","name":"playerMove","type":"uint8"},{"indexed":false,"internalType":"enum Rps2.Moves","name":"hostMove","type":"uint8"},{"indexed":false,"internalType":"uint256","name":"bet","type":"uint256"}],"name":"Lost","type":"event"},{"anonymous":false,"inputs":[{"indexed":true,"internalType":"address","name":"sender","type":"address"},{"indexed":false,"internalType":"uint256","name":"amount","type":"uint256"}],"name":"NewFomoDeposit","type":"event"},{"anonymous":false,"inputs":[{"indexed":true,"internalType":"address","name":"from","type":"address"},{"indexed":true,"internalType":"address","name":"to","type":"address"}],"name":"OwnershipTransferRequested","type":"event"},{"anonymous":false,"inputs":[{"indexed":true,"internalType":"address","name":"from","type":"address"},{"indexed":true,"internalType":"address","name":"to","type":"address"}],"name":"OwnershipTransferred","type":"event"},{"anonymous":false,"inputs":[{"indexed":false,"internalType":"uint256","name":"requestId","type":"uint256"},{"indexed":false,"internalType":"uint256[]","name":"randomWords","type":"uint256[]"}],"name":"RequestFulfilled","type":"event"},{"anonymous":false,"inputs":[{"indexed":false,"internalType":"uint256","name":"requestId","type":"uint256"},{"indexed":false,"internalType":"uint32","name":"numWords","type":"uint32"}],"name":"RequestSent","type":"event"},{"anonymous":false,"inputs":[{"indexed":true,"internalType":"address","name":"player","type":"address"},{"indexed":false,"internalType":"enum Rps2.Moves","name":"playerMove","type":"uint8"},{"indexed":false,"internalType":"enum Rps2.Moves","name":"hostMove","type":"uint8"},{"indexed":false,"internalType":"uint256","name":"bet","type":"uint256"}],"name":"Won","type":"event"},{"anonymous":false,"inputs":[{"indexed":false,"internalType":"enum Rps2.Moves","name":"hostMove","type":"uint8"}],"name":"hostCommitedMove","type":"event"},{"inputs":[],"name":"MIN_BET","outputs":[{"internalType":"uint256","name":"","type":"uint256"}],"stateMutability":"view","type":"function"},{"inputs":[],"name":"REVEAL_TIMEOUT","outputs":[{"internalType":"uint256","name":"","type":"uint256"}],"stateMutability":"view","type":"function"},{"inputs":[],"name":"acceptOwnership","outputs":[],"stateMutability":"nonpayable","type":"function"},{"inputs":[],"name":"bet","outputs":[{"internalType":"uint256","name":"","type":"uint256"}],"stateMutability":"view","type":"function"},{"inputs":[],"name":"fomoEndTime","outputs":[{"internalType":"uint256","name":"","type":"uint256"}],"stateMutability":"view","type":"function"},{"inputs":[],"name":"fomoPool","outputs":[{"internalType":"uint256","name":"","type":"uint256"}],"stateMutability":"view","type":"function"},{"inputs":[],"name":"fomoWinner","outputs":[{"internalType":"address","name":"","type":"address"}],"stateMutability":"view","type":"function"},{"inputs":[{"internalType":"uint256","name":"_requestId","type":"uint256"}],"name":"getRequestStatus","outputs":[{"internalType":"bool","name":"fulfilled","type":"bool"},{"internalType":"uint256[]","name":"randomWords","type":"uint256[]"}],"stateMutability":"view","type":"function"},{"inputs":[],"name":"lastRequestId","outputs":[{"internalType":"uint256","name":"","type":"uint256"}],"stateMutability":"view","type":"function"},{"inputs":[],"name":"moveHost","outputs":[{"internalType":"enum Rps2.Moves","name":"","type":"uint8"}],"stateMutability":"view","type":"function"},{"inputs":[],"name":"owner","outputs":[{"internalType":"address","name":"","type":"address"}],"stateMutability":"view","type":"function"},{"inputs":[{"internalType":"bytes32","name":"_encryptedMove","type":"bytes32"}],"name":"playBet","outputs":[],"stateMutability":"payable","type":"function"},{"inputs":[],"name":"processFomo","outputs":[],"stateMutability":"nonpayable","type":"function"},{"inputs":[],"name":"randomWordsNum","outputs":[{"internalType":"uint256","name":"","type":"uint256"}],"stateMutability":"view","type":"function"},{"inputs":[{"internalType":"uint256","name":"requestId","type":"uint256"},{"internalType":"uint256[]","name":"randomWords","type":"uint256[]"}],"name":"rawFulfillRandomWords","outputs":[],"stateMutability":"nonpayable","type":"function"},{"inputs":[{"internalType":"uint256","name":"","type":"uint256"}],"name":"requestIds","outputs":[{"internalType":"uint256","name":"","type":"uint256"}],"stateMutability":"view","type":"function"},{"inputs":[],"name":"requestRandomWords","outputs":[{"internalType":"uint256","name":"requestId","type":"uint256"}],"stateMutability":"nonpayable","type":"function"},{"inputs":[{"internalType":"string","name":"clearMove","type":"string"}],"name":"reveal","outputs":[{"internalType":"bool","name":"","type":"bool"}],"stateMutability":"nonpayable","type":"function"},{"inputs":[{"internalType":"uint256","name":"","type":"uint256"}],"name":"s_requests","outputs":[{"internalType":"bool","name":"fulfilled","type":"bool"},{"internalType":"bool","name":"exists","type":"bool"}],"stateMutability":"view","type":"function"},{"inputs":[{"internalType":"uint256","name":"num","type":"uint256"}],"name":"setRandomWordsNum","outputs":[],"stateMutability":"nonpayable","type":"function"},{"inputs":[{"internalType":"address","name":"to","type":"address"}],"name":"transferOwnership","outputs":[],"stateMutability":"nonpayable","type":"function"},{"inputs":[{"internalType":"uint256","name":"amount","type":"uint256"}],"name":"withdraw","outputs":[],"stateMutability":"nonpayable","type":"function"},{"stateMutability":"payable","type":"receive"}],"evm":{"bytecode":{"linkReferences":{},"object":"60c0604081905260006003819055600455600f80546001600160501b03191666010003000249f017905562001cb2388190039081908339810160408190526200004891620001de565b6001600160601b0319606083901b166080528282823380600081620000b45760405162461bcd60e51b815260206004820152601860248201527f43616e6e6f7420736574206f776e657220746f207a65726f000000000000000060448201526064015b60405180910390fd5b600080546001600160a01b0319166001600160a01b0384811691909117909155811615620000e757620000e78162000132565b5050600160025550600c80546001600160401b03909416600160a01b026001600160e01b03199094166001600160a01b039093169290921792909217905560a052506200023c915050565b6001600160a01b0381163314156200018d5760405162461bcd60e51b815260206004820152601760248201527f43616e6e6f74207472616e7366657220746f2073656c660000000000000000006044820152606401620000ab565b600180546001600160a01b0319166001600160a01b0383811691821790925560008054604051929316917fed8889f560326eb138920d842192f0eb3dd22b4f139c87a2c57538e05bae12789190a350565b600080600060608486031215620001f457600080fd5b83516001600160401b03811681146200020c57600080fd5b60208501519093506001600160a01b03811681146200022a57600080fd5b80925050604084015190509250925092565b60805160601c60a051611a466200026c6000396000610bd401526000818161065c015261069e0152611a466000f3fe6080604052600436106101395760003560e01c80638796ba8c116100ab578063a168fa891161006f578063a168fa891461033b578063b33d52591461038b578063d8a4676f146103a1578063e0c86289146103cf578063f2fde38b146103e4578063fc2a88c31461040457600080fd5b80638796ba8c1461029a5780638890d757146102ba5780638da5cb5b146102f25780639063def5146103105780639a8ff87c1461032557600080fd5b806341089bdf116100fd57806341089bdf146101d85780634c261247146101ee5780636540742f1461021e578063654177841461023957806379ba509714610259578063872175e51461026e57600080fd5b806311610c251461014557806312e505c91461016e5780631fe543e3146101835780632e1a7d4d146101a35780633d6ae3a7146101c357600080fd5b3661014057005b600080fd5b34801561015157600080fd5b5061015b60065481565b6040519081526020015b60405180910390f35b61018161017c36600461165f565b61041a565b005b34801561018f57600080fd5b5061018161019e366004611726565b610651565b3480156101af57600080fd5b506101816101be36600461165f565b6106d9565b3480156101cf57600080fd5b5061015b607881565b3480156101e457600080fd5b5061015b60045481565b3480156101fa57600080fd5b5061020e610209366004611691565b610750565b6040519015158152602001610165565b34801561022a57600080fd5b5061015b662386f26fc1000081565b34801561024557600080fd5b5061018161025436600461165f565b6109c8565b34801561026557600080fd5b506101816109d5565b34801561027a57600080fd5b50600a5461028d90610100900460ff1681565b604051610165919061187b565b3480156102a657600080fd5b5061015b6102b536600461165f565b610a7f565b3480156102c657600080fd5b506005546102da906001600160a01b031681565b6040516001600160a01b039091168152602001610165565b3480156102fe57600080fd5b506000546001600160a01b03166102da565b34801561031c57600080fd5b50610181610aa0565b34801561033157600080fd5b5061015b60105481565b34801561034757600080fd5b5061037461035636600461165f565b600b6020526000908152604090205460ff8082169161010090041682565b604080519215158352901515602083015201610165565b34801561039757600080fd5b5061015b60035481565b3480156103ad57600080fd5b506103c16103bc36600461165f565b610ac1565b604051610165929190611858565b3480156103db57600080fd5b5061015b610bb5565b3480156103f057600080fd5b506101816103ff36600461162f565b610da6565b34801561041057600080fd5b5061015b600e5481565b6007541580156104385750607860075461043491906118fc565b4211155b156104e8576008546001600160a01b0316156104925760405162461bcd60e51b81526020600482015260146024820152732090383630bcb2b91034b990383630bcb4b7339760611b60448201526064015b60405180910390fd5b600654156104db5760405162461bcd60e51b81526020600482015260166024820152752132ba1034b990383630b1b2b21030b63932b0b23c9760511b6044820152606401610489565b600954156104e857600080fd5b662386f26fc1000034101561053f5760405162461bcd60e51b815260206004820152601d60248201527f496e73756666696369656e742062616c61616e636520746f206265742e0000006044820152606401610489565b4761054b346002611928565b11156105995760405162461bcd60e51b815260206004820152601d60248201527f4265742065786365656465642062616c616e6365206f6620686f73742e0000006044820152606401610489565b6007541515806105b6575060786007546105b391906118fc565b42115b1561061b57600854600a546006546040516001600160a01b03909316927f4e975787ea7dc6679a1751654c0d39bb1f0b641921163fa3f4694d74b167caea9261060b9260009261010090920460ff1691611889565b60405180910390a261061b610db7565b610623610de3565b61062b610eb7565b600880546001600160a01b0319163317905534600655600981905561064e610f9f565b50565b336001600160a01b037f000000000000000000000000000000000000000000000000000000000000000016146106cb5760405163073e64fd60e21b81523360048201526001600160a01b037f0000000000000000000000000000000000000000000000000000000000000000166024820152604401610489565b6106d5828261101d565b5050565b6106e1611104565b804710156107235760405162461bcd60e51b815260206004820152600f60248201526e42616c616e636520746f6f206c6f7760881b6044820152606401610489565b604051339082156108fc029083906000818181858888f193505050501580156106d5573d6000803e3d6000fd5b6008546000906001600160a01b031633146107a65760405162461bcd60e51b81526020600482015260166024820152752cb7ba9030b932903cb7ba903a343290383630bcb2b960511b6044820152606401610489565b600954158015906107d357506000600a54610100900460ff1660038111156107d0576107d06119ce565b14155b61082f5760405162461bcd60e51b815260206004820152602760248201527f4e6f7420626f746820706c617965727320636f6d6d69747465642074686569726044820152661036b7bb32b99760c91b6064820152608401610489565b610837611157565b600060028360405160200161084c919061183c565b60408051601f19818403018152908290526108669161183c565b602060405180830381855afa158015610883573d6000803e3d6000fd5b5050506040513d601f19601f820116820180604052508101906108a69190611678565b905060006108b3846111af565b60038111156108c4576108c46119ce565b905060008160038111156108da576108da6119ce565b14156108eb576000925050506109b9565b81600954141561091e57600a805482919060ff19166001836003811115610914576109146119ce565b0217905550610929565b6000925050506109b9565b600a5460009060ff166003811115610943576109436119ce565b600a54909150600090610100900460ff166003811115610965576109656119ce565b905060006109738383611232565b60ff166003811115610987576109876119ce565b6008546006549192506109a7916001600160a01b039091169083906112a0565b6109af610db7565b6001955050505050505b6109c36001600255565b919050565b6109d0611104565b601055565b6001546001600160a01b03163314610a285760405162461bcd60e51b815260206004820152601660248201527526bab9ba10313290383937b837b9b2b21037bbb732b960511b6044820152606401610489565b60008054336001600160a01b0319808316821784556001805490911690556040516001600160a01b0390921692909183917f8be0079c531659141344cd1fd0a4f28419497f9722a3daafe3b4186f6b6457e091a350565b600d8181548110610a8f57600080fd5b600091825260209091200154905081565b6005546001600160a01b03163314610ab757600080fd5b610abf610de3565b565b6000818152600b6020526040812054606090610100900460ff16610b1b5760405162461bcd60e51b81526020600482015260116024820152701c995c5d595cdd081b9bdd08199bdd5b99607a1b6044820152606401610489565b6000838152600b602090815260408083208151606081018352815460ff8082161515835261010090910416151581850152600182018054845181870281018701865281815292959394860193830182828015610b9657602002820191906000526020600020905b815481526020019060010190808311610b82575b5050505050815250509050806000015181604001519250925050915091565b6000610bbf611104565b600c54600f546040516305d3b1d360e41b81527f00000000000000000000000000000000000000000000000000000000000000006004820152600160a01b830467ffffffffffffffff166024820152640100000000820461ffff16604482015263ffffffff8083166064830152660100000000000090920490911660848201526001600160a01b0390911690635d3b1d309060a401602060405180830381600087803b158015610c6e57600080fd5b505af1158015610c82573d6000803e3d6000fd5b505050506040513d601f19601f82011682018060405250810190610ca69190611678565b6040805160608101825260008082526001602080840182815285518481528083018752858701908152878552600b83529590932084518154945161ffff1990951690151561ff00191617610100941515949094029390931783559351805195965092949193610d1b93918501929101906115cf565b5050600d80546001810182556000919091527fd7b6990105719101dabeb77144f2a3385c8033acd3af97e9423a695e81ad1eb50182905550600e819055600f5460408051838152660100000000000090920463ffffffff1660208301527fcc58b13ad3eab50626c6a6300b1d139cd6ebb1688a7cced9461c2f7e762665ee910160405180910390a190565b610dae611104565b61064e81611487565b600060068190556007819055600880546001600160a01b0319169055600955600a805461ffff19169055565b6005546001600160a01b0316610df557565b426004541115610e0157565b6000600455600580546001600160a01b031981169091556003546001600160a01b0390911690610e2e5750565b6003805460009182905560405190916001600160a01b0384169183156108fc0291849190818181858888f19350505050158015610e6f573d6000803e3d6000fd5b50816001600160a01b03167f28a45baa754d821eb63cfb5c69d4e4394742c59fee22dab38cd5c02fb2af892182604051610eab91815260200190565b60405180910390a25050565b6005546001600160a01b0316610f2d57600580546001600160a01b03191633179055610ee542610e106118fc565b60048190556005546040519182526001600160a01b0316907fdfe6afd72ccc12e327008dfe046a3af52d0d4bad81ed2ba3ecd1057345bc7cd1906020015b60405180910390a2565b600a600354610f3c9190611914565b341015610f4557565b600454610f5490610e106118fc565b6004819055600580546001600160a01b03191633908117909155604051918252907f9d2782b57a253b4896f013de4390a302719b44805cc8978aea12e8ea976ae34390602001610f23565b610fa7611531565b600a805461ff001916610100836003811115610fc557610fc56119ce565b02179055507f50847ce5b6a91be6fb0a54f67c828ee9982f5e7b413cf5169c8352e7a0b0e070600a60019054906101000a900460ff16604051611008919061187b565b60405180910390a1600754610abf5742600755565b6000828152600b6020526040902054610100900460ff166110745760405162461bcd60e51b81526020600482015260116024820152701c995c5d595cdd081b9bdd08199bdd5b99607a1b6044820152606401610489565b6000828152600b60209081526040909120805460ff19166001908117825583516110a59392909101918401906115cf565b50806000815181106110b9576110b96119e4565b60200260200101516010819055507ffe2e2d779dba245964d4e3ef9b994be63856fd568bf7d3ca9e224755cb1bd54d82826040516110f89291906118b2565b60405180910390a15050565b6000546001600160a01b03163314610abf5760405162461bcd60e51b815260206004820152601660248201527527b7363c9031b0b63630b1363290313c9037bbb732b960511b6044820152606401610489565b6002805414156111a95760405162461bcd60e51b815260206004820152601f60248201527f5265656e7472616e637947756172643a207265656e7472616e742063616c6c006044820152606401610489565b60028055565b600080826000815181106111c5576111c56119e4565b01602001516001600160f81b0319169050603160f81b8114156111eb5750600192915050565b601960f91b6001600160f81b03198216141561120a5750600292915050565b603360f81b6001600160f81b0319821614156112295750600392915050565b50600092915050565b6000818314156112445750600361129a565b818311156112715781600114801561125c5750826003145b156112695750600261129a565b50600161129a565b82821115611229578260011480156112895750816003145b156112965750600161129a565b5060025b92915050565b60018260038111156112b4576112b46119ce565b141561138b5760006112c7826002611928565b9050600060646112d8836005611928565b6112e29190611914565b90506112ed8161156b565b6001600160a01b0385166108fc6113048385611947565b6040518115909202916000818181858888f1935050505015801561132c573d6000803e3d6000fd5b50600854600a546040516001600160a01b03909216917f2069c251d5aacd1cedfc522a09530aa3a904c4ebba85d66ee32970ae48b21ddc9161137c9160ff80831692610100900416908890611889565b60405180910390a25050505050565b600382600381111561139f5761139f6119ce565b1415611438576040516001600160a01b0384169082156108fc029083906000818181858888f193505050501580156113db573d6000803e3d6000fd5b50600854600a546040516001600160a01b03909216917f3f9f81baa21dbabd3a70aa2d5a1d157a5731197a2816e9be79228aaf56541d439161142b9160ff80831692610100900416908690611889565b60405180910390a2505050565b600854600a546040516001600160a01b03909216917f4e975787ea7dc6679a1751654c0d39bb1f0b641921163fa3f4694d74b167caea9161142b9160ff80831692610100900416908690611889565b6001600160a01b0381163314156114e05760405162461bcd60e51b815260206004820152601760248201527f43616e6e6f74207472616e7366657220746f2073656c660000000000000000006044820152606401610489565b600180546001600160a01b0319166001600160a01b0383811691821790925560008054604051929316917fed8889f560326eb138920d842192f0eb3dd22b4f139c87a2c57538e05bae12789190a350565b6000600361153d6115ba565b611547919061198e565b6115529060016118fc565b60ff166003811115611566576115666119ce565b905090565b806003600082825461157d91906118fc565b909155505060405181815233907f3bed7b1032d6facdb3ed736c642f18affa147a86c1e01f68180f740e08b980739060200160405180910390a250565b6000806115c5610bb5565b5050601054919050565b82805482825590600052602060002090810192821561160a579160200282015b8281111561160a5782518255916020019190600101906115ef565b5061161692915061161a565b5090565b5b80821115611616576000815560010161161b565b60006020828403121561164157600080fd5b81356001600160a01b038116811461165857600080fd5b9392505050565b60006020828403121561167157600080fd5b5035919050565b60006020828403121561168a57600080fd5b5051919050565b600060208083850312156116a457600080fd5b823567ffffffffffffffff808211156116bc57600080fd5b818501915085601f8301126116d057600080fd5b8135818111156116e2576116e26119fa565b6116f4601f8201601f191685016118cb565b9150808252868482850101111561170a57600080fd5b8084840185840137600090820190930192909252509392505050565b6000806040838503121561173957600080fd5b8235915060208084013567ffffffffffffffff8082111561175957600080fd5b818601915086601f83011261176d57600080fd5b81358181111561177f5761177f6119fa565b8060051b91506117908483016118cb565b8181528481019084860184860187018b10156117ab57600080fd5b600095505b838610156117ce5780358352600195909501949186019186016117b0565b508096505050505050509250929050565b600081518084526020808501945080840160005b8381101561180f578151875295820195908201906001016117f3565b509495945050505050565b6004811061183857634e487b7160e01b600052602160045260246000fd5b9052565b6000825161184e81846020870161195e565b9190910192915050565b821515815260406020820152600061187360408301846117df565b949350505050565b6020810161129a828461181a565b60608101611897828661181a565b6118a4602083018561181a565b826040830152949350505050565b82815260406020820152600061187360408301846117df565b604051601f8201601f1916810167ffffffffffffffff811182821017156118f4576118f46119fa565b604052919050565b6000821982111561190f5761190f6119a2565b500190565b600082611923576119236119b8565b500490565b6000816000190483118215151615611942576119426119a2565b500290565b600082821015611959576119596119a2565b500390565b60005b83811015611979578181015183820152602001611961565b83811115611988576000848401525b50505050565b60008261199d5761199d6119b8565b500690565b634e487b7160e01b600052601160045260246000fd5b634e487b7160e01b600052601260045260246000fd5b634e487b7160e01b600052602160045260246000fd5b634e487b7160e01b600052603260045260246000fd5b634e487b7160e01b600052604160045260246000fdfea2646970667358221220afd991a39411c0e3f98051c77773b26a169a8dd6e1c2056f1182d78743c7270064736f6c63430008070033","opcodes":"PUSH1 0xC0 PUSH1 0x40 DUP2 SWAP1 MSTORE PUSH1 0x0 PUSH1 0x3 DUP2 SWAP1 SSTORE PUSH1 0x4 SSTORE PUSH1 0xF DUP1 SLOAD PUSH1 0x1 PUSH1 0x1 PUSH1 0x50 SHL SUB NOT AND PUSH7 0x10003000249F0 OR SWAP1 SSTORE PUSH3 0x1CB2 CODESIZE DUP2 SWAP1 SUB SWAP1 DUP2 SWAP1 DUP4 CODECOPY DUP2 ADD PUSH1 0x40 DUP2 SWAP1 MSTORE PUSH3 0x48 SWAP2 PUSH3 0x1DE JUMP JUMPDEST PUSH1 0x1 PUSH1 0x1 PUSH1 0x60 SHL SUB NOT PUSH1 0x60 DUP4 SWAP1 SHL AND PUSH1 0x80 MSTORE DUP3 DUP3 DUP3 CALLER DUP1 PUSH1 0x0 DUP2 PUSH3 0xB4 JUMPI PUSH1 0x40 MLOAD PUSH3 0x461BCD PUSH1 0xE5 SHL DUP2 MSTORE PUSH1 0x20 PUSH1 0x4 DUP3 ADD MSTORE PUSH1 0x18 PUSH1 0x24 DUP3 ADD MSTORE PUSH32 0x43616E6E6F7420736574206F776E657220746F207A65726F0000000000000000 PUSH1 0x44 DUP3 ADD MSTORE PUSH1 0x64 ADD JUMPDEST PUSH1 0x40 MLOAD DUP1 SWAP2 SUB SWAP1 REVERT JUMPDEST PUSH1 0x0 DUP1 SLOAD PUSH1 0x1 PUSH1 0x1 PUSH1 0xA0 SHL SUB NOT AND PUSH1 0x1 PUSH1 0x1 PUSH1 0xA0 SHL SUB DUP5 DUP2 AND SWAP2 SWAP1 SWAP2 OR SWAP1 SWAP2 SSTORE DUP2 AND ISZERO PUSH3 0xE7 JUMPI PUSH3 0xE7 DUP2 PUSH3 0x132 JUMP JUMPDEST POP POP PUSH1 0x1 PUSH1 0x2 SSTORE POP PUSH1 0xC DUP1 SLOAD PUSH1 0x1 PUSH1 0x1 PUSH1 0x40 SHL SUB SWAP1 SWAP5 AND PUSH1 0x1 PUSH1 0xA0 SHL MUL PUSH1 0x1 PUSH1 0x1 PUSH1 0xE0 SHL SUB NOT SWAP1 SWAP5 AND PUSH1 0x1 PUSH1 0x1 PUSH1 0xA0 SHL SUB SWAP1 SWAP4 AND SWAP3 SWAP1 SWAP3 OR SWAP3 SWAP1 SWAP3 OR SWAP1 SSTORE PUSH1 0xA0 MSTORE POP PUSH3 0x23C SWAP2 POP POP JUMP JUMPDEST PUSH1 0x1 PUSH1 0x1 PUSH1 0xA0 SHL SUB DUP2 AND CALLER EQ ISZERO PUSH3 0x18D JUMPI PUSH1 0x40 MLOAD PUSH3 0x461BCD PUSH1 0xE5 SHL DUP2 MSTORE PUSH1 0x20 PUSH1 0x4 DUP3 ADD MSTORE PUSH1 0x17 PUSH1 0x24 DUP3 ADD MSTORE PUSH32 0x43616E6E6F74207472616E7366657220746F2073656C66000000000000000000 PUSH1 0x44 DUP3 ADD MSTORE PUSH1 0x64 ADD PUSH3 0xAB JUMP JUMPDEST PUSH1 0x1 DUP1 SLOAD PUSH1 0x1 PUSH1 0x1 PUSH1 0xA0 SHL SUB NOT AND PUSH1 0x1 PUSH1 0x1 PUSH1 0xA0 SHL SUB DUP4 DUP2 AND SWAP2 DUP3 OR SWAP1 SWAP3 SSTORE PUSH1 0x0 DUP1 SLOAD PUSH1 0x40 MLOAD SWAP3 SWAP4 AND SWAP2 PUSH32 0xED8889F560326EB138920D842192F0EB3DD22B4F139C87A2C57538E05BAE1278 SWAP2 SWAP1 LOG3 POP JUMP JUMPDEST PUSH1 0x0 DUP1 PUSH1 0x0 PUSH1 0x60 DUP5 DUP7 SUB SLT ISZERO PUSH3 0x1F4 JUMPI PUSH1 0x0 DUP1 REVERT JUMPDEST DUP4 MLOAD PUSH1 0x1 PUSH1 0x1 PUSH1 0x40 SHL SUB DUP2 AND DUP2 EQ PUSH3 0x20C JUMPI PUSH1 0x0 DUP1 REVERT JUMPDEST PUSH1 0x20 DUP6 ADD MLOAD SWAP1 SWAP4 POP PUSH1 0x1 PUSH1 0x1 PUSH1 0xA0 SHL SUB DUP2 AND DUP2 EQ PUSH3 0x22A JUMPI PUSH1 0x0 DUP1 REVERT JUMPDEST DUP1 SWAP3 POP POP PUSH1 0x40 DUP5 ADD MLOAD SWAP1 POP SWAP3 POP SWAP3 POP SWAP3 JUMP JUMPDEST PUSH1 0x80 MLOAD PUSH1 0x60 SHR PUSH1 0xA0 MLOAD PUSH2 0x1A46 PUSH3 0x26C PUSH1 0x0 CODECOPY PUSH1 0x0 PUSH2 0xBD4 ADD MSTORE PUSH1 0x0 DUP2 DUP2 PUSH2 0x65C ADD MSTORE PUSH2 0x69E ADD MSTORE PUSH2 0x1A46 PUSH1 0x0 RETURN INVALID PUSH1 0x80 PUSH1 0x40 MSTORE PUSH1 0x4 CALLDATASIZE LT PUSH2 0x139 JUMPI PUSH1 0x0 CALLDATALOAD PUSH1 0xE0 SHR DUP1 PUSH4 0x8796BA8C GT PUSH2 0xAB JUMPI DUP1 PUSH4 0xA168FA89 GT PUSH2 0x6F JUMPI DUP1 PUSH4 0xA168FA89 EQ PUSH2 0x33B JUMPI DUP1 PUSH4 0xB33D5259 EQ PUSH2 0x38B JUMPI DUP1 PUSH4 0xD8A4676F EQ PUSH2 0x3A1 JUMPI DUP1 PUSH4 0xE0C86289 EQ PUSH2 0x3CF JUMPI DUP1 PUSH4 0xF2FDE38B EQ PUSH2 0x3E4 JUMPI DUP1 PUSH4 0xFC2A88C3 EQ PUSH2 0x404 JUMPI PUSH1 0x0 DUP1 REVERT JUMPDEST DUP1 PUSH4 0x8796BA8C EQ PUSH2 0x29A JUMPI DUP1 PUSH4 0x8890D757 EQ PUSH2 0x2BA JUMPI DUP1 PUSH4 0x8DA5CB5B EQ PUSH2 0x2F2 JUMPI DUP1 PUSH4 0x9063DEF5 EQ PUSH2 0x310 JUMPI DUP1 PUSH4 0x9A8FF87C EQ PUSH2 0x325 JUMPI PUSH1 0x0 DUP1 REVERT JUMPDEST DUP1 PUSH4 0x41089BDF GT PUSH2 0xFD JUMPI DUP1 PUSH4 0x41089BDF EQ PUSH2 0x1D8 JUMPI DUP1 PUSH4 0x4C261247 EQ PUSH2 0x1EE JUMPI DUP1 PUSH4 0x6540742F EQ PUSH2 0x21E JUMPI DUP1 PUSH4 0x65417784 EQ PUSH2 0x239 JUMPI DUP1 PUSH4 0x79BA5097 EQ PUSH2 0x259 JUMPI DUP1 PUSH4 0x872175E5 EQ PUSH2 0x26E JUMPI PUSH1 0x0 DUP1 REVERT JUMPDEST DUP1 PUSH4 0x11610C25 EQ PUSH2 0x145 JUMPI DUP1 PUSH4 0x12E505C9 EQ PUSH2 0x16E JUMPI DUP1 PUSH4 0x1FE543E3 EQ PUSH2 0x183 JUMPI DUP1 PUSH4 0x2E1A7D4D EQ PUSH2 0x1A3 JUMPI DUP1 PUSH4 0x3D6AE3A7 EQ PUSH2 0x1C3 JUMPI PUSH1 0x0 DUP1 REVERT JUMPDEST CALLDATASIZE PUSH2 0x140 JUMPI STOP JUMPDEST PUSH1 0x0 DUP1 REVERT JUMPDEST CALLVALUE DUP1 ISZERO PUSH2 0x151 JUMPI PUSH1 0x0 DUP1 REVERT JUMPDEST POP PUSH2 0x15B PUSH1 0x6 SLOAD DUP2 JUMP JUMPDEST PUSH1 0x40 MLOAD SWAP1 DUP2 MSTORE PUSH1 0x20 ADD JUMPDEST PUSH1 0x40 MLOAD DUP1 SWAP2 SUB SWAP1 RETURN JUMPDEST PUSH2 0x181 PUSH2 0x17C CALLDATASIZE PUSH1 0x4 PUSH2 0x165F JUMP JUMPDEST PUSH2 0x41A JUMP JUMPDEST STOP JUMPDEST CALLVALUE DUP1 ISZERO PUSH2 0x18F JUMPI PUSH1 0x0 DUP1 REVERT JUMPDEST POP PUSH2 0x181 PUSH2 0x19E CALLDATASIZE PUSH1 0x4 PUSH2 0x1726 JUMP JUMPDEST PUSH2 0x651 JUMP JUMPDEST CALLVALUE DUP1 ISZERO PUSH2 0x1AF JUMPI PUSH1 0x0 DUP1 REVERT JUMPDEST POP PUSH2 0x181 PUSH2 0x1BE CALLDATASIZE PUSH1 0x4 PUSH2 0x165F JUMP JUMPDEST PUSH2 0x6D9 JUMP JUMPDEST CALLVALUE DUP1 ISZERO PUSH2 0x1CF JUMPI PUSH1 0x0 DUP1 REVERT JUMPDEST POP PUSH2 0x15B PUSH1 0x78 DUP2 JUMP JUMPDEST CALLVALUE DUP1 ISZERO PUSH2 0x1E4 JUMPI PUSH1 0x0 DUP1 REVERT JUMPDEST POP PUSH2 0x15B PUSH1 0x4 SLOAD DUP2 JUMP JUMPDEST CALLVALUE DUP1 ISZERO PUSH2 0x1FA JUMPI PUSH1 0x0 DUP1 REVERT JUMPDEST POP PUSH2 0x20E PUSH2 0x209 CALLDATASIZE PUSH1 0x4 PUSH2 0x1691 JUMP JUMPDEST PUSH2 0x750 JUMP JUMPDEST PUSH1 0x40 MLOAD SWAP1 ISZERO ISZERO DUP2 MSTORE PUSH1 0x20 ADD PUSH2 0x165 JUMP JUMPDEST CALLVALUE DUP1 ISZERO PUSH2 0x22A JUMPI PUSH1 0x0 DUP1 REVERT JUMPDEST POP PUSH2 0x15B PUSH7 0x2386F26FC10000 DUP2 JUMP JUMPDEST CALLVALUE DUP1 ISZERO PUSH2 0x245 JUMPI PUSH1 0x0 DUP1 REVERT JUMPDEST POP PUSH2 0x181 PUSH2 0x254 CALLDATASIZE PUSH1 0x4 PUSH2 0x165F JUMP JUMPDEST PUSH2 0x9C8 JUMP JUMPDEST CALLVALUE DUP1 ISZERO PUSH2 0x265 JUMPI PUSH1 0x0 DUP1 REVERT JUMPDEST POP PUSH2 0x181 PUSH2 0x9D5 JUMP JUMPDEST CALLVALUE DUP1 ISZERO PUSH2 0x27A JUMPI PUSH1 0x0 DUP1 REVERT JUMPDEST POP PUSH1 0xA SLOAD PUSH2 0x28D SWAP1 PUSH2 0x100 SWAP1 DIV PUSH1 0xFF AND DUP2 JUMP JUMPDEST PUSH1 0x40 MLOAD PUSH2 0x165 SWAP2 SWAP1 PUSH2 0x187B JUMP JUMPDEST CALLVALUE DUP1 ISZERO PUSH2 0x2A6 JUMPI PUSH1 0x0 DUP1 REVERT JUMPDEST POP PUSH2 0x15B PUSH2 0x2B5 CALLDATASIZE PUSH1 0x4 PUSH2 0x165F JUMP JUMPDEST PUSH2 0xA7F JUMP JUMPDEST CALLVALUE DUP1 ISZERO PUSH2 0x2C6 JUMPI PUSH1 0x0 DUP1 REVERT JUMPDEST POP PUSH1 0x5 SLOAD PUSH2 0x2DA SWAP1 PUSH1 0x1 PUSH1 0x1 PUSH1 0xA0 SHL SUB AND DUP2 JUMP JUMPDEST PUSH1 0x40 MLOAD PUSH1 0x1 PUSH1 0x1 PUSH1 0xA0 SHL SUB SWAP1 SWAP2 AND DUP2 MSTORE PUSH1 0x20 ADD PUSH2 0x165 JUMP JUMPDEST CALLVALUE DUP1 ISZERO PUSH2 0x2FE JUMPI PUSH1 0x0 DUP1 REVERT JUMPDEST POP PUSH1 0x0 SLOAD PUSH1 0x1 PUSH1 0x1 PUSH1 0xA0 SHL SUB AND PUSH2 0x2DA JUMP JUMPDEST CALLVALUE DUP1 ISZERO PUSH2 0x31C JUMPI PUSH1 0x0 DUP1 REVERT JUMPDEST POP PUSH2 0x181 PUSH2 0xAA0 JUMP JUMPDEST CALLVALUE DUP1 ISZERO PUSH2 0x331 JUMPI PUSH1 0x0 DUP1 REVERT JUMPDEST POP PUSH2 0x15B PUSH1 0x10 SLOAD DUP2 JUMP JUMPDEST CALLVALUE DUP1 ISZERO PUSH2 0x347 JUMPI PUSH1 0x0 DUP1 REVERT JUMPDEST POP PUSH2 0x374 PUSH2 0x356 CALLDATASIZE PUSH1 0x4 PUSH2 0x165F JUMP JUMPDEST PUSH1 0xB PUSH1 0x20 MSTORE PUSH1 0x0 SWAP1 DUP2 MSTORE PUSH1 0x40 SWAP1 KECCAK256 SLOAD PUSH1 0xFF DUP1 DUP3 AND SWAP2 PUSH2 0x100 SWAP1 DIV AND DUP3 JUMP JUMPDEST PUSH1 0x40 DUP1 MLOAD SWAP3 ISZERO ISZERO DUP4 MSTORE SWAP1 ISZERO ISZERO PUSH1 0x20 DUP4 ADD MSTORE ADD PUSH2 0x165 JUMP JUMPDEST CALLVALUE DUP1 ISZERO PUSH2 0x397 JUMPI PUSH1 0x0 DUP1 REVERT JUMPDEST POP PUSH2 0x15B PUSH1 0x3 SLOAD DUP2 JUMP JUMPDEST CALLVALUE DUP1 ISZERO PUSH2 0x3AD JUMPI PUSH1 0x0 DUP1 REVERT JUMPDEST POP PUSH2 0x3C1 PUSH2 0x3BC CALLDATASIZE PUSH1 0x4 PUSH2 0x165F JUMP JUMPDEST PUSH2 0xAC1 JUMP JUMPDEST PUSH1 0x40 MLOAD PUSH2 0x165 SWAP3 SWAP2 SWAP1 PUSH2 0x1858 JUMP JUMPDEST CALLVALUE DUP1 ISZERO PUSH2 0x3DB JUMPI PUSH1 0x0 DUP1 REVERT JUMPDEST POP PUSH2 0x15B PUSH2 0xBB5 JUMP JUMPDEST CALLVALUE DUP1 ISZERO PUSH2 0x3F0 JUMPI PUSH1 0x0 DUP1 REVERT JUMPDEST POP PUSH2 0x181 PUSH2 0x3FF CALLDATASIZE PUSH1 0x4 PUSH2 0x162F JUMP JUMPDEST PUSH2 0xDA6 JUMP JUMPDEST CALLVALUE DUP1 ISZERO PUSH2 0x410 JUMPI PUSH1 0x0 DUP1 REVERT JUMPDEST POP PUSH2 0x15B PUSH1 0xE SLOAD DUP2 JUMP JUMPDEST PUSH1 0x7 SLOAD ISZERO DUP1 ISZERO PUSH2 0x438 JUMPI POP PUSH1 0x78 PUSH1 0x7 SLOAD PUSH2 0x434 SWAP2 SWAP1 PUSH2 0x18FC JUMP JUMPDEST TIMESTAMP GT ISZERO JUMPDEST ISZERO PUSH2 0x4E8 JUMPI PUSH1 0x8 SLOAD PUSH1 0x1 PUSH1 0x1 PUSH1 0xA0 SHL SUB AND ISZERO PUSH2 0x492 JUMPI PUSH1 0x40 MLOAD PUSH3 0x461BCD PUSH1 0xE5 SHL DUP2 MSTORE PUSH1 0x20 PUSH1 0x4 DUP3 ADD MSTORE PUSH1 0x14 PUSH1 0x24 DUP3 ADD MSTORE PUSH20 0x2090383630BCB2B91034B990383630BCB4B73397 PUSH1 0x61 SHL PUSH1 0x44 DUP3 ADD MSTORE PUSH1 0x64 ADD JUMPDEST PUSH1 0x40 MLOAD DUP1 SWAP2 SUB SWAP1 REVERT JUMPDEST PUSH1 0x6 SLOAD ISZERO PUSH2 0x4DB JUMPI PUSH1 0x40 MLOAD PUSH3 0x461BCD PUSH1 0xE5 SHL DUP2 MSTORE PUSH1 0x20 PUSH1 0x4 DUP3 ADD MSTORE PUSH1 0x16 PUSH1 0x24 DUP3 ADD MSTORE PUSH22 0x2132BA1034B990383630B1B2B21030B63932B0B23C97 PUSH1 0x51 SHL PUSH1 0x44 DUP3 ADD MSTORE PUSH1 0x64 ADD PUSH2 0x489 JUMP JUMPDEST PUSH1 0x9 SLOAD ISZERO PUSH2 0x4E8 JUMPI PUSH1 0x0 DUP1 REVERT JUMPDEST PUSH7 0x2386F26FC10000 CALLVALUE LT ISZERO PUSH2 0x53F JUMPI PUSH1 0x40 MLOAD PUSH3 0x461BCD PUSH1 0xE5 SHL DUP2 MSTORE PUSH1 0x20 PUSH1 0x4 DUP3 ADD MSTORE PUSH1 0x1D PUSH1 0x24 DUP3 ADD MSTORE PUSH32 0x496E73756666696369656E742062616C61616E636520746F206265742E000000 PUSH1 0x44 DUP3 ADD MSTORE PUSH1 0x64 ADD PUSH2 0x489 JUMP JUMPDEST SELFBALANCE PUSH2 0x54B CALLVALUE PUSH1 0x2 PUSH2 0x1928 JUMP JUMPDEST GT ISZERO PUSH2 0x599 JUMPI PUSH1 0x40 MLOAD PUSH3 0x461BCD PUSH1 0xE5 SHL DUP2 MSTORE PUSH1 0x20 PUSH1 0x4 DUP3 ADD MSTORE PUSH1 0x1D PUSH1 0x24 DUP3 ADD MSTORE PUSH32 0x4265742065786365656465642062616C616E6365206F6620686F73742E000000 PUSH1 0x44 DUP3 ADD MSTORE PUSH1 0x64 ADD PUSH2 0x489 JUMP JUMPDEST PUSH1 0x7 SLOAD ISZERO ISZERO DUP1 PUSH2 0x5B6 JUMPI POP PUSH1 0x78 PUSH1 0x7 SLOAD PUSH2 0x5B3 SWAP2 SWAP1 PUSH2 0x18FC JUMP JUMPDEST TIMESTAMP GT JUMPDEST ISZERO PUSH2 0x61B JUMPI PUSH1 0x8 SLOAD PUSH1 0xA SLOAD PUSH1 0x6 SLOAD PUSH1 0x40 MLOAD PUSH1 0x1 PUSH1 0x1 PUSH1 0xA0 SHL SUB SWAP1 SWAP4 AND SWAP3 PUSH32 0x4E975787EA7DC6679A1751654C0D39BB1F0B641921163FA3F4694D74B167CAEA SWAP3 PUSH2 0x60B SWAP3 PUSH1 0x0 SWAP3 PUSH2 0x100 SWAP1 SWAP3 DIV PUSH1 0xFF AND SWAP2 PUSH2 0x1889 JUMP JUMPDEST PUSH1 0x40 MLOAD DUP1 SWAP2 SUB SWAP1 LOG2 PUSH2 0x61B PUSH2 0xDB7 JUMP JUMPDEST PUSH2 0x623 PUSH2 0xDE3 JUMP JUMPDEST PUSH2 0x62B PUSH2 0xEB7 JUMP JUMPDEST PUSH1 0x8 DUP1 SLOAD PUSH1 0x1 PUSH1 0x1 PUSH1 0xA0 SHL SUB NOT AND CALLER OR SWAP1 SSTORE CALLVALUE PUSH1 0x6 SSTORE PUSH1 0x9 DUP2 SWAP1 SSTORE PUSH2 0x64E PUSH2 0xF9F JUMP JUMPDEST POP JUMP JUMPDEST CALLER PUSH1 0x1 PUSH1 0x1 PUSH1 0xA0 SHL SUB PUSH32 0x0 AND EQ PUSH2 0x6CB JUMPI PUSH1 0x40 MLOAD PUSH4 0x73E64FD PUSH1 0xE2 SHL DUP2 MSTORE CALLER PUSH1 0x4 DUP3 ADD MSTORE PUSH1 0x1 PUSH1 0x1 PUSH1 0xA0 SHL SUB PUSH32 0x0 AND PUSH1 0x24 DUP3 ADD MSTORE PUSH1 0x44 ADD PUSH2 0x489 JUMP JUMPDEST PUSH2 0x6D5 DUP3 DUP3 PUSH2 0x101D JUMP JUMPDEST POP POP JUMP JUMPDEST PUSH2 0x6E1 PUSH2 0x1104 JUMP JUMPDEST DUP1 SELFBALANCE LT ISZERO PUSH2 0x723 JUMPI PUSH1 0x40 MLOAD PUSH3 0x461BCD PUSH1 0xE5 SHL DUP2 MSTORE PUSH1 0x20 PUSH1 0x4 DUP3 ADD MSTORE PUSH1 0xF PUSH1 0x24 DUP3 ADD MSTORE PUSH15 0x42616C616E636520746F6F206C6F77 PUSH1 0x88 SHL PUSH1 0x44 DUP3 ADD MSTORE PUSH1 0x64 ADD PUSH2 0x489 JUMP JUMPDEST PUSH1 0x40 MLOAD CALLER SWAP1 DUP3 ISZERO PUSH2 0x8FC MUL SWAP1 DUP4 SWAP1 PUSH1 0x0 DUP2 DUP2 DUP2 DUP6 DUP9 DUP9 CALL SWAP4 POP POP POP POP ISZERO DUP1 ISZERO PUSH2 0x6D5 JUMPI RETURNDATASIZE PUSH1 0x0 DUP1 RETURNDATACOPY RETURNDATASIZE PUSH1 0x0 REVERT JUMPDEST PUSH1 0x8 SLOAD PUSH1 0x0 SWAP1 PUSH1 0x1 PUSH1 0x1 PUSH1 0xA0 SHL SUB AND CALLER EQ PUSH2 0x7A6 JUMPI PUSH1 0x40 MLOAD PUSH3 0x461BCD PUSH1 0xE5 SHL DUP2 MSTORE PUSH1 0x20 PUSH1 0x4 DUP3 ADD MSTORE PUSH1 0x16 PUSH1 0x24 DUP3 ADD MSTORE PUSH22 0x2CB7BA9030B932903CB7BA903A343290383630BCB2B9 PUSH1 0x51 SHL PUSH1 0x44 DUP3 ADD MSTORE PUSH1 0x64 ADD PUSH2 0x489 JUMP JUMPDEST PUSH1 0x9 SLOAD ISZERO DUP1 ISZERO SWAP1 PUSH2 0x7D3 JUMPI POP PUSH1 0x0 PUSH1 0xA SLOAD PUSH2 0x100 SWAP1 DIV PUSH1 0xFF AND PUSH1 0x3 DUP2 GT ISZERO PUSH2 0x7D0 JUMPI PUSH2 0x7D0 PUSH2 0x19CE JUMP JUMPDEST EQ ISZERO JUMPDEST PUSH2 0x82F JUMPI PUSH1 0x40 MLOAD PUSH3 0x461BCD PUSH1 0xE5 SHL DUP2 MSTORE PUSH1 0x20 PUSH1 0x4 DUP3 ADD MSTORE PUSH1 0x27 PUSH1 0x24 DUP3 ADD MSTORE PUSH32 0x4E6F7420626F746820706C617965727320636F6D6D6974746564207468656972 PUSH1 0x44 DUP3 ADD MSTORE PUSH7 0x1036B7BB32B997 PUSH1 0xC9 SHL PUSH1 0x64 DUP3 ADD MSTORE PUSH1 0x84 ADD PUSH2 0x489 JUMP JUMPDEST PUSH2 0x837 PUSH2 0x1157 JUMP JUMPDEST PUSH1 0x0 PUSH1 0x2 DUP4 PUSH1 0x40 MLOAD PUSH1 0x20 ADD PUSH2 0x84C SWAP2 SWAP1 PUSH2 0x183C JUMP JUMPDEST PUSH1 0x40 DUP1 MLOAD PUSH1 0x1F NOT DUP2 DUP5 SUB ADD DUP2 MSTORE SWAP1 DUP3 SWAP1 MSTORE PUSH2 0x866 SWAP2 PUSH2 0x183C JUMP JUMPDEST PUSH1 0x20 PUSH1 0x40 MLOAD DUP1 DUP4 SUB DUP2 DUP6 GAS STATICCALL ISZERO DUP1 ISZERO PUSH2 0x883 JUMPI RETURNDATASIZE PUSH1 0x0 DUP1 RETURNDATACOPY RETURNDATASIZE PUSH1 0x0 REVERT JUMPDEST POP POP POP PUSH1 0x40 MLOAD RETURNDATASIZE PUSH1 0x1F NOT PUSH1 0x1F DUP3 ADD AND DUP3 ADD DUP1 PUSH1 0x40 MSTORE POP DUP2 ADD SWAP1 PUSH2 0x8A6 SWAP2 SWAP1 PUSH2 0x1678 JUMP JUMPDEST SWAP1 POP PUSH1 0x0 PUSH2 0x8B3 DUP5 PUSH2 0x11AF JUMP JUMPDEST PUSH1 0x3 DUP2 GT ISZERO PUSH2 0x8C4 JUMPI PUSH2 0x8C4 PUSH2 0x19CE JUMP JUMPDEST SWAP1 POP PUSH1 0x0 DUP2 PUSH1 0x3 DUP2 GT ISZERO PUSH2 0x8DA JUMPI PUSH2 0x8DA PUSH2 0x19CE JUMP JUMPDEST EQ ISZERO PUSH2 0x8EB JUMPI PUSH1 0x0 SWAP3 POP POP POP PUSH2 0x9B9 JUMP JUMPDEST DUP2 PUSH1 0x9 SLOAD EQ ISZERO PUSH2 0x91E JUMPI PUSH1 0xA DUP1 SLOAD DUP3 SWAP2 SWAP1 PUSH1 0xFF NOT AND PUSH1 0x1 DUP4 PUSH1 0x3 DUP2 GT ISZERO PUSH2 0x914 JUMPI PUSH2 0x914 PUSH2 0x19CE JUMP JUMPDEST MUL OR SWAP1 SSTORE POP PUSH2 0x929 JUMP JUMPDEST PUSH1 0x0 SWAP3 POP POP POP PUSH2 0x9B9 JUMP JUMPDEST PUSH1 0xA SLOAD PUSH1 0x0 SWAP1 PUSH1 0xFF AND PUSH1 0x3 DUP2 GT ISZERO PUSH2 0x943 JUMPI PUSH2 0x943 PUSH2 0x19CE JUMP JUMPDEST PUSH1 0xA SLOAD SWAP1 SWAP2 POP PUSH1 0x0 SWAP1 PUSH2 0x100 SWAP1 DIV PUSH1 0xFF AND PUSH1 0x3 DUP2 GT ISZERO PUSH2 0x965 JUMPI PUSH2 0x965 PUSH2 0x19CE JUMP JUMPDEST SWAP1 POP PUSH1 0x0 PUSH2 0x973 DUP4 DUP4 PUSH2 0x1232 JUMP JUMPDEST PUSH1 0xFF AND PUSH1 0x3 DUP2 GT ISZERO PUSH2 0x987 JUMPI PUSH2 0x987 PUSH2 0x19CE JUMP JUMPDEST PUSH1 0x8 SLOAD PUSH1 0x6 SLOAD SWAP2 SWAP3 POP PUSH2 0x9A7 SWAP2 PUSH1 0x1 PUSH1 0x1 PUSH1 0xA0 SHL SUB SWAP1 SWAP2 AND SWAP1 DUP4 SWAP1 PUSH2 0x12A0 JUMP JUMPDEST PUSH2 0x9AF PUSH2 0xDB7 JUMP JUMPDEST PUSH1 0x1 SWAP6 POP POP POP POP POP POP JUMPDEST PUSH2 0x9C3 PUSH1 0x1 PUSH1 0x2 SSTORE JUMP JUMPDEST SWAP2 SWAP1 POP JUMP JUMPDEST PUSH2 0x9D0 PUSH2 0x1104 JUMP JUMPDEST PUSH1 0x10 SSTORE JUMP JUMPDEST PUSH1 0x1 SLOAD PUSH1 0x1 PUSH1 0x1 PUSH1 0xA0 SHL SUB AND CALLER EQ PUSH2 0xA28 JUMPI PUSH1 0x40 MLOAD PUSH3 0x461BCD PUSH1 0xE5 SHL DUP2 MSTORE PUSH1 0x20 PUSH1 0x4 DUP3 ADD MSTORE PUSH1 0x16 PUSH1 0x24 DUP3 ADD MSTORE PUSH22 0x26BAB9BA10313290383937B837B9B2B21037BBB732B9 PUSH1 0x51 SHL PUSH1 0x44 DUP3 ADD MSTORE PUSH1 0x64 ADD PUSH2 0x489 JUMP JUMPDEST PUSH1 0x0 DUP1 SLOAD CALLER PUSH1 0x1 PUSH1 0x1 PUSH1 0xA0 SHL SUB NOT DUP1 DUP4 AND DUP3 OR DUP5 SSTORE PUSH1 0x1 DUP1 SLOAD SWAP1 SWAP2 AND SWAP1 SSTORE PUSH1 0x40 MLOAD PUSH1 0x1 PUSH1 0x1 PUSH1 0xA0 SHL SUB SWAP1 SWAP3 AND SWAP3 SWAP1 SWAP2 DUP4 SWAP2 PUSH32 0x8BE0079C531659141344CD1FD0A4F28419497F9722A3DAAFE3B4186F6B6457E0 SWAP2 LOG3 POP JUMP JUMPDEST PUSH1 0xD DUP2 DUP2 SLOAD DUP2 LT PUSH2 0xA8F JUMPI PUSH1 0x0 DUP1 REVERT JUMPDEST PUSH1 0x0 SWAP2 DUP3 MSTORE PUSH1 0x20 SWAP1 SWAP2 KECCAK256 ADD SLOAD SWAP1 POP DUP2 JUMP JUMPDEST PUSH1 0x5 SLOAD PUSH1 0x1 PUSH1 0x1 PUSH1 0xA0 SHL SUB AND CALLER EQ PUSH2 0xAB7 JUMPI PUSH1 0x0 DUP1 REVERT JUMPDEST PUSH2 0xABF PUSH2 0xDE3 JUMP JUMPDEST JUMP JUMPDEST PUSH1 0x0 DUP2 DUP2 MSTORE PUSH1 0xB PUSH1 0x20 MSTORE PUSH1 0x40 DUP2 KECCAK256 SLOAD PUSH1 0x60 SWAP1 PUSH2 0x100 SWAP1 DIV PUSH1 0xFF AND PUSH2 0xB1B JUMPI PUSH1 0x40 MLOAD PUSH3 0x461BCD PUSH1 0xE5 SHL DUP2 MSTORE PUSH1 0x20 PUSH1 0x4 DUP3 ADD MSTORE PUSH1 0x11 PUSH1 0x24 DUP3 ADD MSTORE PUSH17 0x1C995C5D595CDD081B9BDD08199BDD5B99 PUSH1 0x7A SHL PUSH1 0x44 DUP3 ADD MSTORE PUSH1 0x64 ADD PUSH2 0x489 JUMP JUMPDEST PUSH1 0x0 DUP4 DUP2 MSTORE PUSH1 0xB PUSH1 0x20 SWAP1 DUP2 MSTORE PUSH1 0x40 DUP1 DUP4 KECCAK256 DUP2 MLOAD PUSH1 0x60 DUP2 ADD DUP4 MSTORE DUP2 SLOAD PUSH1 0xFF DUP1 DUP3 AND ISZERO ISZERO DUP4 MSTORE PUSH2 0x100 SWAP1 SWAP2 DIV AND ISZERO ISZERO DUP2 DUP6 ADD MSTORE PUSH1 0x1 DUP3 ADD DUP1 SLOAD DUP5 MLOAD DUP2 DUP8 MUL DUP2 ADD DUP8 ADD DUP7 MSTORE DUP2 DUP2 MSTORE SWAP3 SWAP6 SWAP4 SWAP5 DUP7 ADD SWAP4 DUP4 ADD DUP3 DUP3 DUP1 ISZERO PUSH2 0xB96 JUMPI PUSH1 0x20 MUL DUP3 ADD SWAP2 SWAP1 PUSH1 0x0 MSTORE PUSH1 0x20 PUSH1 0x0 KECCAK256 SWAP1 JUMPDEST DUP2 SLOAD DUP2 MSTORE PUSH1 0x20 ADD SWAP1 PUSH1 0x1 ADD SWAP1 DUP1 DUP4 GT PUSH2 0xB82 JUMPI JUMPDEST POP POP POP POP POP DUP2 MSTORE POP POP SWAP1 POP DUP1 PUSH1 0x0 ADD MLOAD DUP2 PUSH1 0x40 ADD MLOAD SWAP3 POP SWAP3 POP POP SWAP2 POP SWAP2 JUMP JUMPDEST PUSH1 0x0 PUSH2 0xBBF PUSH2 0x1104 JUMP JUMPDEST PUSH1 0xC SLOAD PUSH1 0xF SLOAD PUSH1 0x40 MLOAD PUSH4 0x5D3B1D3 PUSH1 0xE4 SHL DUP2 MSTORE PUSH32 0x0 PUSH1 0x4 DUP3 ADD MSTORE PUSH1 0x1 PUSH1 0xA0 SHL DUP4 DIV PUSH8 0xFFFFFFFFFFFFFFFF AND PUSH1 0x24 DUP3 ADD MSTORE PUSH5 0x100000000 DUP3 DIV PUSH2 0xFFFF AND PUSH1 0x44 DUP3 ADD MSTORE PUSH4 0xFFFFFFFF DUP1 DUP4 AND PUSH1 0x64 DUP4 ADD MSTORE PUSH7 0x1000000000000 SWAP1 SWAP3 DIV SWAP1 SWAP2 AND PUSH1 0x84 DUP3 ADD MSTORE PUSH1 0x1 PUSH1 0x1 PUSH1 0xA0 SHL SUB SWAP1 SWAP2 AND SWAP1 PUSH4 0x5D3B1D30 SWAP1 PUSH1 0xA4 ADD PUSH1 0x20 PUSH1 0x40 MLOAD DUP1 DUP4 SUB DUP2 PUSH1 0x0 DUP8 DUP1 EXTCODESIZE ISZERO DUP1 ISZERO PUSH2 0xC6E JUMPI PUSH1 0x0 DUP1 REVERT JUMPDEST POP GAS CALL ISZERO DUP1 ISZERO PUSH2 0xC82 JUMPI RETURNDATASIZE PUSH1 0x0 DUP1 RETURNDATACOPY RETURNDATASIZE PUSH1 0x0 REVERT JUMPDEST POP POP POP POP PUSH1 0x40 MLOAD RETURNDATASIZE PUSH1 0x1F NOT PUSH1 0x1F DUP3 ADD AND DUP3 ADD DUP1 PUSH1 0x40 MSTORE POP DUP2 ADD SWAP1 PUSH2 0xCA6 SWAP2 SWAP1 PUSH2 0x1678 JUMP JUMPDEST PUSH1 0x40 DUP1 MLOAD PUSH1 0x60 DUP2 ADD DUP3 MSTORE PUSH1 0x0 DUP1 DUP3 MSTORE PUSH1 0x1 PUSH1 0x20 DUP1 DUP5 ADD DUP3 DUP2 MSTORE DUP6 MLOAD DUP5 DUP2 MSTORE DUP1 DUP4 ADD DUP8 MSTORE DUP6 DUP8 ADD SWAP1 DUP2 MSTORE DUP8 DUP6 MSTORE PUSH1 0xB DUP4 MSTORE SWAP6 SWAP1 SWAP4 KECCAK256 DUP5 MLOAD DUP2 SLOAD SWAP5 MLOAD PUSH2 0xFFFF NOT SWAP1 SWAP6 AND SWAP1 ISZERO ISZERO PUSH2 0xFF00 NOT AND OR PUSH2 0x100 SWAP5 ISZERO ISZERO SWAP5 SWAP1 SWAP5 MUL SWAP4 SWAP1 SWAP4 OR DUP4 SSTORE SWAP4 MLOAD DUP1 MLOAD SWAP6 SWAP7 POP SWAP3 SWAP5 SWAP2 SWAP4 PUSH2 0xD1B SWAP4 SWAP2 DUP6 ADD SWAP3 SWAP2 ADD SWAP1 PUSH2 0x15CF JUMP JUMPDEST POP POP PUSH1 0xD DUP1 SLOAD PUSH1 0x1 DUP2 ADD DUP3 SSTORE PUSH1 0x0 SWAP2 SWAP1 SWAP2 MSTORE PUSH32 0xD7B6990105719101DABEB77144F2A3385C8033ACD3AF97E9423A695E81AD1EB5 ADD DUP3 SWAP1 SSTORE POP PUSH1 0xE DUP2 SWAP1 SSTORE PUSH1 0xF SLOAD PUSH1 0x40 DUP1 MLOAD DUP4 DUP2 MSTORE PUSH7 0x1000000000000 SWAP1 SWAP3 DIV PUSH4 0xFFFFFFFF AND PUSH1 0x20 DUP4 ADD MSTORE PUSH32 0xCC58B13AD3EAB50626C6A6300B1D139CD6EBB1688A7CCED9461C2F7E762665EE SWAP2 ADD PUSH1 0x40 MLOAD DUP1 SWAP2 SUB SWAP1 LOG1 SWAP1 JUMP JUMPDEST PUSH2 0xDAE PUSH2 0x1104 JUMP JUMPDEST PUSH2 0x64E DUP2 PUSH2 0x1487 JUMP JUMPDEST PUSH1 0x0 PUSH1 0x6 DUP2 SWAP1 SSTORE PUSH1 0x7 DUP2 SWAP1 SSTORE PUSH1 0x8 DUP1 SLOAD PUSH1 0x1 PUSH1 0x1 PUSH1 0xA0 SHL SUB NOT AND SWAP1 SSTORE PUSH1 0x9 SSTORE PUSH1 0xA DUP1 SLOAD PUSH2 0xFFFF NOT AND SWAP1 SSTORE JUMP JUMPDEST PUSH1 0x5 SLOAD PUSH1 0x1 PUSH1 0x1 PUSH1 0xA0 SHL SUB AND PUSH2 0xDF5 JUMPI JUMP JUMPDEST TIMESTAMP PUSH1 0x4 SLOAD GT ISZERO PUSH2 0xE01 JUMPI JUMP JUMPDEST PUSH1 0x0 PUSH1 0x4 SSTORE PUSH1 0x5 DUP1 SLOAD PUSH1 0x1 PUSH1 0x1 PUSH1 0xA0 SHL SUB NOT DUP2 AND SWAP1 SWAP2 SSTORE PUSH1 0x3 SLOAD PUSH1 0x1 PUSH1 0x1 PUSH1 0xA0 SHL SUB SWAP1 SWAP2 AND SWAP1 PUSH2 0xE2E JUMPI POP JUMP JUMPDEST PUSH1 0x3 DUP1 SLOAD PUSH1 0x0 SWAP2 DUP3 SWAP1 SSTORE PUSH1 0x40 MLOAD SWAP1 SWAP2 PUSH1 0x1 PUSH1 0x1 PUSH1 0xA0 SHL SUB DUP5 AND SWAP2 DUP4 ISZERO PUSH2 0x8FC MUL SWAP2 DUP5 SWAP2 SWAP1 DUP2 DUP2 DUP2 DUP6 DUP9 DUP9 CALL SWAP4 POP POP POP POP ISZERO DUP1 ISZERO PUSH2 0xE6F JUMPI RETURNDATASIZE PUSH1 0x0 DUP1 RETURNDATACOPY RETURNDATASIZE PUSH1 0x0 REVERT JUMPDEST POP DUP2 PUSH1 0x1 PUSH1 0x1 PUSH1 0xA0 SHL SUB AND PUSH32 0x28A45BAA754D821EB63CFB5C69D4E4394742C59FEE22DAB38CD5C02FB2AF8921 DUP3 PUSH1 0x40 MLOAD PUSH2 0xEAB SWAP2 DUP2 MSTORE PUSH1 0x20 ADD SWAP1 JUMP JUMPDEST PUSH1 0x40 MLOAD DUP1 SWAP2 SUB SWAP1 LOG2 POP POP JUMP JUMPDEST PUSH1 0x5 SLOAD PUSH1 0x1 PUSH1 0x1 PUSH1 0xA0 SHL SUB AND PUSH2 0xF2D JUMPI PUSH1 0x5 DUP1 SLOAD PUSH1 0x1 PUSH1 0x1 PUSH1 0xA0 SHL SUB NOT AND CALLER OR SWAP1 SSTORE PUSH2 0xEE5 TIMESTAMP PUSH2 0xE10 PUSH2 0x18FC JUMP JUMPDEST PUSH1 0x4 DUP2 SWAP1 SSTORE PUSH1 0x5 SLOAD PUSH1 0x40 MLOAD SWAP2 DUP3 MSTORE PUSH1 0x1 PUSH1 0x1 PUSH1 0xA0 SHL SUB AND SWAP1 PUSH32 0xDFE6AFD72CCC12E327008DFE046A3AF52D0D4BAD81ED2BA3ECD1057345BC7CD1 SWAP1 PUSH1 0x20 ADD JUMPDEST PUSH1 0x40 MLOAD DUP1 SWAP2 SUB SWAP1 LOG2 JUMP JUMPDEST PUSH1 0xA PUSH1 0x3 SLOAD PUSH2 0xF3C SWAP2 SWAP1 PUSH2 0x1914 JUMP JUMPDEST CALLVALUE LT ISZERO PUSH2 0xF45 JUMPI JUMP JUMPDEST PUSH1 0x4 SLOAD PUSH2 0xF54 SWAP1 PUSH2 0xE10 PUSH2 0x18FC JUMP JUMPDEST PUSH1 0x4 DUP2 SWAP1 SSTORE PUSH1 0x5 DUP1 SLOAD PUSH1 0x1 PUSH1 0x1 PUSH1 0xA0 SHL SUB NOT AND CALLER SWAP1 DUP2 OR SWAP1 SWAP2 SSTORE PUSH1 0x40 MLOAD SWAP2 DUP3 MSTORE SWAP1 PUSH32 0x9D2782B57A253B4896F013DE4390A302719B44805CC8978AEA12E8EA976AE343 SWAP1 PUSH1 0x20 ADD PUSH2 0xF23 JUMP JUMPDEST PUSH2 0xFA7 PUSH2 0x1531 JUMP JUMPDEST PUSH1 0xA DUP1 SLOAD PUSH2 0xFF00 NOT AND PUSH2 0x100 DUP4 PUSH1 0x3 DUP2 GT ISZERO PUSH2 0xFC5 JUMPI PUSH2 0xFC5 PUSH2 0x19CE JUMP JUMPDEST MUL OR SWAP1 SSTORE POP PUSH32 0x50847CE5B6A91BE6FB0A54F67C828EE9982F5E7B413CF5169C8352E7A0B0E070 PUSH1 0xA PUSH1 0x1 SWAP1 SLOAD SWAP1 PUSH2 0x100 EXP SWAP1 DIV PUSH1 0xFF AND PUSH1 0x40 MLOAD PUSH2 0x1008 SWAP2 SWAP1 PUSH2 0x187B JUMP JUMPDEST PUSH1 0x40 MLOAD DUP1 SWAP2 SUB SWAP1 LOG1 PUSH1 0x7 SLOAD PUSH2 0xABF JUMPI TIMESTAMP PUSH1 0x7 SSTORE JUMP JUMPDEST PUSH1 0x0 DUP3 DUP2 MSTORE PUSH1 0xB PUSH1 0x20 MSTORE PUSH1 0x40 SWAP1 KECCAK256 SLOAD PUSH2 0x100 SWAP1 DIV PUSH1 0xFF AND PUSH2 0x1074 JUMPI PUSH1 0x40 MLOAD PUSH3 0x461BCD PUSH1 0xE5 SHL DUP2 MSTORE PUSH1 0x20 PUSH1 0x4 DUP3 ADD MSTORE PUSH1 0x11 PUSH1 0x24 DUP3 ADD MSTORE PUSH17 0x1C995C5D595CDD081B9BDD08199BDD5B99 PUSH1 0x7A SHL PUSH1 0x44 DUP3 ADD MSTORE PUSH1 0x64 ADD PUSH2 0x489 JUMP JUMPDEST PUSH1 0x0 DUP3 DUP2 MSTORE PUSH1 0xB PUSH1 0x20 SWAP1 DUP2 MSTORE PUSH1 0x40 SWAP1 SWAP2 KECCAK256 DUP1 SLOAD PUSH1 0xFF NOT AND PUSH1 0x1 SWAP1 DUP2 OR DUP3 SSTORE DUP4 MLOAD PUSH2 0x10A5 SWAP4 SWAP3 SWAP1 SWAP2 ADD SWAP2 DUP5 ADD SWAP1 PUSH2 0x15CF JUMP JUMPDEST POP DUP1 PUSH1 0x0 DUP2 MLOAD DUP2 LT PUSH2 0x10B9 JUMPI PUSH2 0x10B9 PUSH2 0x19E4 JUMP JUMPDEST PUSH1 0x20 MUL PUSH1 0x20 ADD ADD MLOAD PUSH1 0x10 DUP2 SWAP1 SSTORE POP PUSH32 0xFE2E2D779DBA245964D4E3EF9B994BE63856FD568BF7D3CA9E224755CB1BD54D DUP3 DUP3 PUSH1 0x40 MLOAD PUSH2 0x10F8 SWAP3 SWAP2 SWAP1 PUSH2 0x18B2 JUMP JUMPDEST PUSH1 0x40 MLOAD DUP1 SWAP2 SUB SWAP1 LOG1 POP POP JUMP JUMPDEST PUSH1 0x0 SLOAD PUSH1 0x1 PUSH1 0x1 PUSH1 0xA0 SHL SUB AND CALLER EQ PUSH2 0xABF JUMPI PUSH1 0x40 MLOAD PUSH3 0x461BCD PUSH1 0xE5 SHL DUP2 MSTORE PUSH1 0x20 PUSH1 0x4 DUP3 ADD MSTORE PUSH1 0x16 PUSH1 0x24 DUP3 ADD MSTORE PUSH22 0x27B7363C9031B0B63630B1363290313C9037BBB732B9 PUSH1 0x51 SHL PUSH1 0x44 DUP3 ADD MSTORE PUSH1 0x64 ADD PUSH2 0x489 JUMP JUMPDEST PUSH1 0x2 DUP1 SLOAD EQ ISZERO PUSH2 0x11A9 JUMPI PUSH1 0x40 MLOAD PUSH3 0x461BCD PUSH1 0xE5 SHL DUP2 MSTORE PUSH1 0x20 PUSH1 0x4 DUP3 ADD MSTORE PUSH1 0x1F PUSH1 0x24 DUP3 ADD MSTORE PUSH32 0x5265656E7472616E637947756172643A207265656E7472616E742063616C6C00 PUSH1 0x44 DUP3 ADD MSTORE PUSH1 0x64 ADD PUSH2 0x489 JUMP JUMPDEST PUSH1 0x2 DUP1 SSTORE JUMP JUMPDEST PUSH1 0x0 DUP1 DUP3 PUSH1 0x0 DUP2 MLOAD DUP2 LT PUSH2 0x11C5 JUMPI PUSH2 0x11C5 PUSH2 0x19E4 JUMP JUMPDEST ADD PUSH1 0x20 ADD MLOAD PUSH1 0x1 PUSH1 0x1 PUSH1 0xF8 SHL SUB NOT AND SWAP1 POP PUSH1 0x31 PUSH1 0xF8 SHL DUP2 EQ ISZERO PUSH2 0x11EB JUMPI POP PUSH1 0x1 SWAP3 SWAP2 POP POP JUMP JUMPDEST PUSH1 0x19 PUSH1 0xF9 SHL PUSH1 0x1 PUSH1 0x1 PUSH1 0xF8 SHL SUB NOT DUP3 AND EQ ISZERO PUSH2 0x120A JUMPI POP PUSH1 0x2 SWAP3 SWAP2 POP POP JUMP JUMPDEST PUSH1 0x33 PUSH1 0xF8 SHL PUSH1 0x1 PUSH1 0x1 PUSH1 0xF8 SHL SUB NOT DUP3 AND EQ ISZERO PUSH2 0x1229 JUMPI POP PUSH1 0x3 SWAP3 SWAP2 POP POP JUMP JUMPDEST POP PUSH1 0x0 SWAP3 SWAP2 POP POP JUMP JUMPDEST PUSH1 0x0 DUP2 DUP4 EQ ISZERO PUSH2 0x1244 JUMPI POP PUSH1 0x3 PUSH2 0x129A JUMP JUMPDEST DUP2 DUP4 GT ISZERO PUSH2 0x1271 JUMPI DUP2 PUSH1 0x1 EQ DUP1 ISZERO PUSH2 0x125C JUMPI POP DUP3 PUSH1 0x3 EQ JUMPDEST ISZERO PUSH2 0x1269 JUMPI POP PUSH1 0x2 PUSH2 0x129A JUMP JUMPDEST POP PUSH1 0x1 PUSH2 0x129A JUMP JUMPDEST DUP3 DUP3 GT ISZERO PUSH2 0x1229 JUMPI DUP3 PUSH1 0x1 EQ DUP1 ISZERO PUSH2 0x1289 JUMPI POP DUP2 PUSH1 0x3 EQ JUMPDEST ISZERO PUSH2 0x1296 JUMPI POP PUSH1 0x1 PUSH2 0x129A JUMP JUMPDEST POP PUSH1 0x2 JUMPDEST SWAP3 SWAP2 POP POP JUMP JUMPDEST PUSH1 0x1 DUP3 PUSH1 0x3 DUP2 GT ISZERO PUSH2 0x12B4 JUMPI PUSH2 0x12B4 PUSH2 0x19CE JUMP JUMPDEST EQ ISZERO PUSH2 0x138B JUMPI PUSH1 0x0 PUSH2 0x12C7 DUP3 PUSH1 0x2 PUSH2 0x1928 JUMP JUMPDEST SWAP1 POP PUSH1 0x0 PUSH1 0x64 PUSH2 0x12D8 DUP4 PUSH1 0x5 PUSH2 0x1928 JUMP JUMPDEST PUSH2 0x12E2 SWAP2 SWAP1 PUSH2 0x1914 JUMP JUMPDEST SWAP1 POP PUSH2 0x12ED DUP2 PUSH2 0x156B JUMP JUMPDEST PUSH1 0x1 PUSH1 0x1 PUSH1 0xA0 SHL SUB DUP6 AND PUSH2 0x8FC PUSH2 0x1304 DUP4 DUP6 PUSH2 0x1947 JUMP JUMPDEST PUSH1 0x40 MLOAD DUP2 ISZERO SWAP1 SWAP3 MUL SWAP2 PUSH1 0x0 DUP2 DUP2 DUP2 DUP6 DUP9 DUP9 CALL SWAP4 POP POP POP POP ISZERO DUP1 ISZERO PUSH2 0x132C JUMPI RETURNDATASIZE PUSH1 0x0 DUP1 RETURNDATACOPY RETURNDATASIZE PUSH1 0x0 REVERT JUMPDEST POP PUSH1 0x8 SLOAD PUSH1 0xA SLOAD PUSH1 0x40 MLOAD PUSH1 0x1 PUSH1 0x1 PUSH1 0xA0 SHL SUB SWAP1 SWAP3 AND SWAP2 PUSH32 0x2069C251D5AACD1CEDFC522A09530AA3A904C4EBBA85D66EE32970AE48B21DDC SWAP2 PUSH2 0x137C SWAP2 PUSH1 0xFF DUP1 DUP4 AND SWAP3 PUSH2 0x100 SWAP1 DIV AND SWAP1 DUP9 SWAP1 PUSH2 0x1889 JUMP JUMPDEST PUSH1 0x40 MLOAD DUP1 SWAP2 SUB SWAP1 LOG2 POP POP POP POP POP JUMP JUMPDEST PUSH1 0x3 DUP3 PUSH1 0x3 DUP2 GT ISZERO PUSH2 0x139F JUMPI PUSH2 0x139F PUSH2 0x19CE JUMP JUMPDEST EQ ISZERO PUSH2 0x1438 JUMPI PUSH1 0x40 MLOAD PUSH1 0x1 PUSH1 0x1 PUSH1 0xA0 SHL SUB DUP5 AND SWAP1 DUP3 ISZERO PUSH2 0x8FC MUL SWAP1 DUP4 SWAP1 PUSH1 0x0 DUP2 DUP2 DUP2 DUP6 DUP9 DUP9 CALL SWAP4 POP POP POP POP ISZERO DUP1 ISZERO PUSH2 0x13DB JUMPI RETURNDATASIZE PUSH1 0x0 DUP1 RETURNDATACOPY RETURNDATASIZE PUSH1 0x0 REVERT JUMPDEST POP PUSH1 0x8 SLOAD PUSH1 0xA SLOAD PUSH1 0x40 MLOAD PUSH1 0x1 PUSH1 0x1 PUSH1 0xA0 SHL SUB SWAP1 SWAP3 AND SWAP2 PUSH32 0x3F9F81BAA21DBABD3A70AA2D5A1D157A5731197A2816E9BE79228AAF56541D43 SWAP2 PUSH2 0x142B SWAP2 PUSH1 0xFF DUP1 DUP4 AND SWAP3 PUSH2 0x100 SWAP1 DIV AND SWAP1 DUP7 SWAP1 PUSH2 0x1889 JUMP JUMPDEST PUSH1 0x40 MLOAD DUP1 SWAP2 SUB SWAP1 LOG2 POP POP POP JUMP JUMPDEST PUSH1 0x8 SLOAD PUSH1 0xA SLOAD PUSH1 0x40 MLOAD PUSH1 0x1 PUSH1 0x1 PUSH1 0xA0 SHL SUB SWAP1 SWAP3 AND SWAP2 PUSH32 0x4E975787EA7DC6679A1751654C0D39BB1F0B641921163FA3F4694D74B167CAEA SWAP2 PUSH2 0x142B SWAP2 PUSH1 0xFF DUP1 DUP4 AND SWAP3 PUSH2 0x100 SWAP1 DIV AND SWAP1 DUP7 SWAP1 PUSH2 0x1889 JUMP JUMPDEST PUSH1 0x1 PUSH1 0x1 PUSH1 0xA0 SHL SUB DUP2 AND CALLER EQ ISZERO PUSH2 0x14E0 JUMPI PUSH1 0x40 MLOAD PUSH3 0x461BCD PUSH1 0xE5 SHL DUP2 MSTORE PUSH1 0x20 PUSH1 0x4 DUP3 ADD MSTORE PUSH1 0x17 PUSH1 0x24 DUP3 ADD MSTORE PUSH32 0x43616E6E6F74207472616E7366657220746F2073656C66000000000000000000 PUSH1 0x44 DUP3 ADD MSTORE PUSH1 0x64 ADD PUSH2 0x489 JUMP JUMPDEST PUSH1 0x1 DUP1 SLOAD PUSH1 0x1 PUSH1 0x1 PUSH1 0xA0 SHL SUB NOT AND PUSH1 0x1 PUSH1 0x1 PUSH1 0xA0 SHL SUB DUP4 DUP2 AND SWAP2 DUP3 OR SWAP1 SWAP3 SSTORE PUSH1 0x0 DUP1 SLOAD PUSH1 0x40 MLOAD SWAP3 SWAP4 AND SWAP2 PUSH32 0xED8889F560326EB138920D842192F0EB3DD22B4F139C87A2C57538E05BAE1278 SWAP2 SWAP1 LOG3 POP JUMP JUMPDEST PUSH1 0x0 PUSH1 0x3 PUSH2 0x153D PUSH2 0x15BA JUMP JUMPDEST PUSH2 0x1547 SWAP2 SWAP1 PUSH2 0x198E JUMP JUMPDEST PUSH2 0x1552 SWAP1 PUSH1 0x1 PUSH2 0x18FC JUMP JUMPDEST PUSH1 0xFF AND PUSH1 0x3 DUP2 GT ISZERO PUSH2 0x1566 JUMPI PUSH2 0x1566 PUSH2 0x19CE JUMP JUMPDEST SWAP1 POP SWAP1 JUMP JUMPDEST DUP1 PUSH1 0x3 PUSH1 0x0 DUP3 DUP3 SLOAD PUSH2 0x157D SWAP2 SWAP1 PUSH2 0x18FC JUMP JUMPDEST SWAP1 SWAP2 SSTORE POP POP PUSH1 0x40 MLOAD DUP2 DUP2 MSTORE CALLER SWAP1 PUSH32 0x3BED7B1032D6FACDB3ED736C642F18AFFA147A86C1E01F68180F740E08B98073 SWAP1 PUSH1 0x20 ADD PUSH1 0x40 MLOAD DUP1 SWAP2 SUB SWAP1 LOG2 POP JUMP JUMPDEST PUSH1 0x0 DUP1 PUSH2 0x15C5 PUSH2 0xBB5 JUMP JUMPDEST POP POP PUSH1 0x10 SLOAD SWAP2 SWAP1 POP JUMP JUMPDEST DUP3 DUP1 SLOAD DUP3 DUP3 SSTORE SWAP1 PUSH1 0x0 MSTORE PUSH1 0x20 PUSH1 0x0 KECCAK256 SWAP1 DUP2 ADD SWAP3 DUP3 ISZERO PUSH2 0x160A JUMPI SWAP2 PUSH1 0x20 MUL DUP3 ADD JUMPDEST DUP3 DUP2 GT ISZERO PUSH2 0x160A JUMPI DUP3 MLOAD DUP3 SSTORE SWAP2 PUSH1 0x20 ADD SWAP2 SWAP1 PUSH1 0x1 ADD SWAP1 PUSH2 0x15EF JUMP JUMPDEST POP PUSH2 0x1616 SWAP3 SWAP2 POP PUSH2 0x161A JUMP JUMPDEST POP SWAP1 JUMP JUMPDEST JUMPDEST DUP1 DUP3 GT ISZERO PUSH2 0x1616 JUMPI PUSH1 0x0 DUP2 SSTORE PUSH1 0x1 ADD PUSH2 0x161B JUMP JUMPDEST PUSH1 0x0 PUSH1 0x20 DUP3 DUP5 SUB SLT ISZERO PUSH2 0x1641 JUMPI PUSH1 0x0 DUP1 REVERT JUMPDEST DUP2 CALLDATALOAD PUSH1 0x1 PUSH1 0x1 PUSH1 0xA0 SHL SUB DUP2 AND DUP2 EQ PUSH2 0x1658 JUMPI PUSH1 0x0 DUP1 REVERT JUMPDEST SWAP4 SWAP3 POP POP POP JUMP JUMPDEST PUSH1 0x0 PUSH1 0x20 DUP3 DUP5 SUB SLT ISZERO PUSH2 0x1671 JUMPI PUSH1 0x0 DUP1 REVERT JUMPDEST POP CALLDATALOAD SWAP2 SWAP1 POP JUMP JUMPDEST PUSH1 0x0 PUSH1 0x20 DUP3 DUP5 SUB SLT ISZERO PUSH2 0x168A JUMPI PUSH1 0x0 DUP1 REVERT JUMPDEST POP MLOAD SWAP2 SWAP1 POP JUMP JUMPDEST PUSH1 0x0 PUSH1 0x20 DUP1 DUP4 DUP6 SUB SLT ISZERO PUSH2 0x16A4 JUMPI PUSH1 0x0 DUP1 REVERT JUMPDEST DUP3 CALLDATALOAD PUSH8 0xFFFFFFFFFFFFFFFF DUP1 DUP3 GT ISZERO PUSH2 0x16BC JUMPI PUSH1 0x0 DUP1 REVERT JUMPDEST DUP2 DUP6 ADD SWAP2 POP DUP6 PUSH1 0x1F DUP4 ADD SLT PUSH2 0x16D0 JUMPI PUSH1 0x0 DUP1 REVERT JUMPDEST DUP2 CALLDATALOAD DUP2 DUP2 GT ISZERO PUSH2 0x16E2 JUMPI PUSH2 0x16E2 PUSH2 0x19FA JUMP JUMPDEST PUSH2 0x16F4 PUSH1 0x1F DUP3 ADD PUSH1 0x1F NOT AND DUP6 ADD PUSH2 0x18CB JUMP JUMPDEST SWAP2 POP DUP1 DUP3 MSTORE DUP7 DUP5 DUP3 DUP6 ADD ADD GT ISZERO PUSH2 0x170A JUMPI PUSH1 0x0 DUP1 REVERT JUMPDEST DUP1 DUP5 DUP5 ADD DUP6 DUP5 ADD CALLDATACOPY PUSH1 0x0 SWAP1 DUP3 ADD SWAP1 SWAP4 ADD SWAP3 SWAP1 SWAP3 MSTORE POP SWAP4 SWAP3 POP POP POP JUMP JUMPDEST PUSH1 0x0 DUP1 PUSH1 0x40 DUP4 DUP6 SUB SLT ISZERO PUSH2 0x1739 JUMPI PUSH1 0x0 DUP1 REVERT JUMPDEST DUP3 CALLDATALOAD SWAP2 POP PUSH1 0x20 DUP1 DUP5 ADD CALLDATALOAD PUSH8 0xFFFFFFFFFFFFFFFF DUP1 DUP3 GT ISZERO PUSH2 0x1759 JUMPI PUSH1 0x0 DUP1 REVERT JUMPDEST DUP2 DUP7 ADD SWAP2 POP DUP7 PUSH1 0x1F DUP4 ADD SLT PUSH2 0x176D JUMPI PUSH1 0x0 DUP1 REVERT JUMPDEST DUP2 CALLDATALOAD DUP2 DUP2 GT ISZERO PUSH2 0x177F JUMPI PUSH2 0x177F PUSH2 0x19FA JUMP JUMPDEST DUP1 PUSH1 0x5 SHL SWAP2 POP PUSH2 0x1790 DUP5 DUP4 ADD PUSH2 0x18CB JUMP JUMPDEST DUP2 DUP2 MSTORE DUP5 DUP2 ADD SWAP1 DUP5 DUP7 ADD DUP5 DUP7 ADD DUP8 ADD DUP12 LT ISZERO PUSH2 0x17AB JUMPI PUSH1 0x0 DUP1 REVERT JUMPDEST PUSH1 0x0 SWAP6 POP JUMPDEST DUP4 DUP7 LT ISZERO PUSH2 0x17CE JUMPI DUP1 CALLDATALOAD DUP4 MSTORE PUSH1 0x1 SWAP6 SWAP1 SWAP6 ADD SWAP5 SWAP2 DUP7 ADD SWAP2 DUP7 ADD PUSH2 0x17B0 JUMP JUMPDEST POP DUP1 SWAP7 POP POP POP POP POP POP POP SWAP3 POP SWAP3 SWAP1 POP JUMP JUMPDEST PUSH1 0x0 DUP2 MLOAD DUP1 DUP5 MSTORE PUSH1 0x20 DUP1 DUP6 ADD SWAP5 POP DUP1 DUP5 ADD PUSH1 0x0 JUMPDEST DUP4 DUP2 LT ISZERO PUSH2 0x180F JUMPI DUP2 MLOAD DUP8 MSTORE SWAP6 DUP3 ADD SWAP6 SWAP1 DUP3 ADD SWAP1 PUSH1 0x1 ADD PUSH2 0x17F3 JUMP JUMPDEST POP SWAP5 SWAP6 SWAP5 POP POP POP POP POP JUMP JUMPDEST PUSH1 0x4 DUP2 LT PUSH2 0x1838 JUMPI PUSH4 0x4E487B71 PUSH1 0xE0 SHL PUSH1 0x0 MSTORE PUSH1 0x21 PUSH1 0x4 MSTORE PUSH1 0x24 PUSH1 0x0 REVERT JUMPDEST SWAP1 MSTORE JUMP JUMPDEST PUSH1 0x0 DUP3 MLOAD PUSH2 0x184E DUP2 DUP5 PUSH1 0x20 DUP8 ADD PUSH2 0x195E JUMP JUMPDEST SWAP2 SWAP1 SWAP2 ADD SWAP3 SWAP2 POP POP JUMP JUMPDEST DUP3 ISZERO ISZERO DUP2 MSTORE PUSH1 0x40 PUSH1 0x20 DUP3 ADD MSTORE PUSH1 0x0 PUSH2 0x1873 PUSH1 0x40 DUP4 ADD DUP5 PUSH2 0x17DF JUMP JUMPDEST SWAP5 SWAP4 POP POP POP POP JUMP JUMPDEST PUSH1 0x20 DUP2 ADD PUSH2 0x129A DUP3 DUP5 PUSH2 0x181A JUMP JUMPDEST PUSH1 0x60 DUP2 ADD PUSH2 0x1897 DUP3 DUP7 PUSH2 0x181A JUMP JUMPDEST PUSH2 0x18A4 PUSH1 0x20 DUP4 ADD DUP6 PUSH2 0x181A JUMP JUMPDEST DUP3 PUSH1 0x40 DUP4 ADD MSTORE SWAP5 SWAP4 POP POP POP POP JUMP JUMPDEST DUP3 DUP2 MSTORE PUSH1 0x40 PUSH1 0x20 DUP3 ADD MSTORE PUSH1 0x0 PUSH2 0x1873 PUSH1 0x40 DUP4 ADD DUP5 PUSH2 0x17DF JUMP JUMPDEST PUSH1 0x40 MLOAD PUSH1 0x1F DUP3 ADD PUSH1 0x1F NOT AND DUP2 ADD PUSH8 0xFFFFFFFFFFFFFFFF DUP2 GT DUP3 DUP3 LT OR ISZERO PUSH2 0x18F4 JUMPI PUSH2 0x18F4 PUSH2 0x19FA JUMP JUMPDEST PUSH1 0x40 MSTORE SWAP2 SWAP1 POP JUMP JUMPDEST PUSH1 0x0 DUP3 NOT DUP3 GT ISZERO PUSH2 0x190F JUMPI PUSH2 0x190F PUSH2 0x19A2 JUMP JUMPDEST POP ADD SWAP1 JUMP JUMPDEST PUSH1 0x0 DUP3 PUSH2 0x1923 JUMPI PUSH2 0x1923 PUSH2 0x19B8 JUMP JUMPDEST POP DIV SWAP1 JUMP JUMPDEST PUSH1 0x0 DUP2 PUSH1 0x0 NOT DIV DUP4 GT DUP3 ISZERO ISZERO AND ISZERO PUSH2 0x1942 JUMPI PUSH2 0x1942 PUSH2 0x19A2 JUMP JUMPDEST POP MUL SWAP1 JUMP JUMPDEST PUSH1 0x0 DUP3 DUP3 LT ISZERO PUSH2 0x1959 JUMPI PUSH2 0x1959 PUSH2 0x19A2 JUMP JUMPDEST POP SUB SWAP1 JUMP JUMPDEST PUSH1 0x0 JUMPDEST DUP4 DUP2 LT ISZERO PUSH2 0x1979 JUMPI DUP2 DUP2 ADD MLOAD DUP4 DUP3 ADD MSTORE PUSH1 0x20 ADD PUSH2 0x1961 JUMP JUMPDEST DUP4 DUP2 GT ISZERO PUSH2 0x1988 JUMPI PUSH1 0x0 DUP5 DUP5 ADD MSTORE JUMPDEST POP POP POP POP JUMP JUMPDEST PUSH1 0x0 DUP3 PUSH2 0x199D JUMPI PUSH2 0x199D PUSH2 0x19B8 JUMP JUMPDEST POP MOD SWAP1 JUMP JUMPDEST PUSH4 0x4E487B71 PUSH1 0xE0 SHL PUSH1 0x0 MSTORE PUSH1 0x11 PUSH1 0x4 MSTORE PUSH1 0x24 PUSH1 0x0 REVERT JUMPDEST PUSH4 0x4E487B71 PUSH1 0xE0 SHL PUSH1 0x0 MSTORE PUSH1 0x12 PUSH1 0x4 MSTORE PUSH1 0x24 PUSH1 0x0 REVERT JUMPDEST PUSH4 0x4E487B71 PUSH1 0xE0 SHL PUSH1 0x0 MSTORE PUSH1 0x21 PUSH1 0x4 MSTORE PUSH1 0x24 PUSH1 0x0 REVERT JUMPDEST PUSH4 0x4E487B71 PUSH1 0xE0 SHL PUSH1 0x0 MSTORE PUSH1 0x32 PUSH1 0x4 MSTORE PUSH1 0x24 PUSH1 0x0 REVERT JUMPDEST PUSH4 0x4E487B71 PUSH1 0xE0 SHL PUSH1 0x0 MSTORE PUSH1 0x41 PUSH1 0x4 MSTORE PUSH1 0x24 PUSH1 0x0 REVERT INVALID LOG2 PUSH5 0x6970667358 0x22 SLT KECCAK256 0xAF 0xD9 SWAP2 LOG3 SWAP5 GT 0xC0 0xE3 0xF9 DUP1 MLOAD 0xC7 PUSH24 0x73B26A169A8DD6E1C2056F1182D78743C7270064736F6C63 NUMBER STOP ADDMOD SMOD STOP CALLER "},"methodIdentifiers":{"MIN_BET()":"6540742f","REVEAL_TIMEOUT()":"3d6ae3a7","acceptOwnership()":"79ba5097","bet()":"11610c25","fomoEndTime()":"41089bdf","fomoPool()":"b33d5259","fomoWinner()":"8890d757","getRequestStatus(uint256)":"d8a4676f","lastRequestId()":"fc2a88c3","moveHost()":"872175e5","owner()":"8da5cb5b","playBet(bytes32)":"12e505c9","processFomo()":"9063def5","randomWordsNum()":"9a8ff87c","rawFulfillRandomWords(uint256,uint256[])":"1fe543e3","requestIds(uint256)":"8796ba8c","requestRandomWords()":"e0c86289","reveal(string)":"4c261247","s_requests(uint256)":"a168fa89","setRandomWordsNum(uint256)":"65417784","transferOwnership(address)":"f2fde38b","withdraw(uint256)":"2e1a7d4d"}}}}}