{"contracts/Rps2.sol":{"Rps2":{"abi":[{"inputs":[{"internalType":"uint64","name":"subscriptionId","type":"uint64"},{"internalType":"address","name":"_coordomator","type":"address"},{"internalType":"bytes32","name":"_keyHash","type":"bytes32"}],"stateMutability":"payable","type":"constructor"},{"inputs":[{"internalType":"address","name":"have","type":"address"},{"internalType":"address","name":"want","type":"address"}],"name":"OnlyCoordinatorCanFulfill","type":"error"},{"anonymous":false,"inputs":[{"indexed":true,"internalType":"address","name":"player","type":"address"},{"indexed":false,"internalType":"enum Rps2.Moves","name":"playerMove","type":"uint8"},{"indexed":false,"internalType":"enum Rps2.Moves","name":"hostMove","type":"uint8"},{"indexed":false,"internalType":"uint256","name":"bet","type":"uint256"}],"name":"Draw","type":"event"},{"anonymous":false,"inputs":[{"indexed":true,"internalType":"address","name":"winner","type":"address"},{"indexed":false,"internalType":"uint256","name":"amount","type":"uint256"}],"name":"FomoPayment","type":"event"},{"anonymous":false,"inputs":[{"indexed":true,"internalType":"address","name":"winner","type":"address"},{"indexed":false,"internalType":"uint256","name":"endTime","type":"uint256"}],"name":"FomoTimerIncrease","type":"event"},{"anonymous":false,"inputs":[{"indexed":true,"internalType":"address","name":"winner","type":"address"},{"indexed":false,"internalType":"uint256","name":"endTime","type":"uint256"}],"name":"FomoTimerStart","type":"event"},{"anonymous":false,"inputs":[{"indexed":true,"internalType":"address","name":"player","type":"address"},{"indexed":false,"internalType":"enum Rps2.Moves","name":"playerMove","type":"uint8"},{"indexed":false,"internalType":"enum Rps2.Moves","name":"hostMove","type":"uint8"},{"indexed":false,"internalType":"uint256","name":"bet","type":"uint256"}],"name":"Lost","type":"event"},{"anonymous":false,"inputs":[{"indexed":true,"internalType":"address","name":"sender","type":"address"},{"indexed":false,"internalType":"uint256","name":"amount","type":"uint256"}],"name":"NewFomoDeposit","type":"event"},{"anonymous":false,"inputs":[{"indexed":true,"internalType":"address","name":"from","type":"address"},{"indexed":true,"internalType":"address","name":"to","type":"address"}],"name":"OwnershipTransferRequested","type":"event"},{"anonymous":false,"inputs":[{"indexed":true,"internalType":"address","name":"from","type":"address"},{"indexed":true,"internalType":"address","name":"to","type":"address"}],"name":"OwnershipTransferred","type":"event"},{"anonymous":false,"inputs":[{"indexed":false,"internalType":"uint256","name":"requestId","type":"uint256"},{"indexed":false,"internalType":"uint256[]","name":"randomWords","type":"uint256[]"}],"name":"RequestFulfilled","type":"event"},{"anonymous":false,"inputs":[{"indexed":false,"internalType":"uint256","name":"requestId","type":"uint256"},{"indexed":false,"internalType":"uint32","name":"numWords","type":"uint32"}],"name":"RequestSent","type":"event"},{"anonymous":false,"inputs":[{"indexed":true,"internalType":"address","name":"player","type":"address"},{"indexed":false,"internalType":"enum Rps2.Moves","name":"playerMove","type":"uint8"},{"indexed":false,"internalType":"enum Rps2.Moves","name":"hostMove","type":"uint8"},{"indexed":false,"internalType":"uint256","name":"bet","type":"uint256"}],"name":"Won","type":"event"},{"anonymous":false,"inputs":[{"indexed":false,"internalType":"enum Rps2.Moves","name":"hostMove","type":"uint8"}],"name":"hostCommitedMove","type":"event"},{"inputs":[],"name":"MIN_BET","outputs":[{"internalType":"uint256","name":"","type":"uint256"}],"stateMutability":"view","type":"function"},{"inputs":[],"name":"REVEAL_TIMEOUT","outputs":[{"internalType":"uint256","name":"","type":"uint256"}],"stateMutability":"view","type":"function"},{"inputs":[],"name":"acceptOwnership","outputs":[],"stateMutability":"nonpayable","type":"function"},{"inputs":[],"name":"bet","outputs":[{"internalType":"uint256","name":"","type":"uint256"}],"stateMutability":"view","type":"function"},{"inputs":[],"name":"fomoEndTime","outputs":[{"internalType":"uint256","name":"","type":"uint256"}],"stateMutability":"view","type":"function"},{"inputs":[],"name":"fomoPool","outputs":[{"internalType":"uint256","name":"","type":"uint256"}],"stateMutability":"view","type":"function"},{"inputs":[],"name":"fomoWinner","outputs":[{"internalType":"address","name":"","type":"address"}],"stateMutability":"view","type":"function"},{"inputs":[{"internalType":"uint256","name":"_requestId","type":"uint256"}],"name":"getRequestStatus","outputs":[{"internalType":"bool","name":"fulfilled","type":"bool"},{"internalType":"uint256[]","name":"randomWords","type":"uint256[]"}],"stateMutability":"view","type":"function"},{"inputs":[],"name":"lastRequestId","outputs":[{"internalType":"uint256","name":"","type":"uint256"}],"stateMutability":"view","type":"function"},{"inputs":[],"name":"moveHost","outputs":[{"internalType":"enum Rps2.Moves","name":"","type":"uint8"}],"stateMutability":"view","type":"function"},{"inputs":[],"name":"owner","outputs":[{"internalType":"address","name":"","type":"address"}],"stateMutability":"view","type":"function"},{"inputs":[{"internalType":"bytes32","name":"_encryptedMove","type":"bytes32"}],"name":"playBet","outputs":[],"stateMutability":"payable","type":"function"},{"inputs":[],"name":"processFomo","outputs":[],"stateMutability":"nonpayable","type":"function"},{"inputs":[],"name":"randomWordsNum","outputs":[{"internalType":"uint256","name":"","type":"uint256"}],"stateMutability":"view","type":"function"},{"inputs":[{"internalType":"uint256","name":"requestId","type":"uint256"},{"internalType":"uint256[]","name":"randomWords","type":"uint256[]"}],"name":"rawFulfillRandomWords","outputs":[],"stateMutability":"nonpayable","type":"function"},{"inputs":[{"internalType":"uint256","name":"","type":"uint256"}],"name":"requestIds","outputs":[{"internalType":"uint256","name":"","type":"uint256"}],"stateMutability":"view","type":"function"},{"inputs":[],"name":"requestRandomWords","outputs":[{"internalType":"uint256","name":"requestId","type":"uint256"}],"stateMutability":"nonpayable","type":"function"},{"inputs":[{"internalType":"string","name":"clearMove","type":"string"}],"name":"reveal","outputs":[{"internalType":"bool","name":"","type":"bool"}],"stateMutability":"nonpayable","type":"function"},{"inputs":[{"internalType":"uint256","name":"","type":"uint256"}],"name":"s_requests","outputs":[{"internalType":"bool","name":"fulfilled","type":"bool"},{"internalType":"bool","name":"exists","type":"bool"}],"stateMutability":"view","type":"function"},{"inputs":[{"internalType":"address","name":"to","type":"address"}],"name":"transferOwnership","outputs":[],"stateMutability":"nonpayable","type":"function"},{"inputs":[{"internalType":"uint256","name":"amount","type":"uint256"}],"name":"withdraw","outputs":[],"stateMutability":"nonpayable","type":"function"},{"stateMutability":"payable","type":"receive"}],"evm":{"bytecode":{"linkReferences":{},"object":"60c0604081905260006002819055600355600e80546001600160501b03191666010003000249f017905562001c01388190039081908339810160408190526200004891620001d3565b6001600160601b0319606083901b166080523380600081620000b15760405162461bcd60e51b815260206004820152601860248201527f43616e6e6f7420736574206f776e657220746f207a65726f000000000000000060448201526064015b60405180910390fd5b600080546001600160a01b0319166001600160a01b0384811691909117909155811615620000e457620000e48162000127565b5050600b80546001600160401b03909516600160a01b026001600160e01b03199095166001600160a01b03909416939093179390931790915560a0525062000231565b6001600160a01b038116331415620001825760405162461bcd60e51b815260206004820152601760248201527f43616e6e6f74207472616e7366657220746f2073656c660000000000000000006044820152606401620000a8565b600180546001600160a01b0319166001600160a01b0383811691821790925560008054604051929316917fed8889f560326eb138920d842192f0eb3dd22b4f139c87a2c57538e05bae12789190a350565b600080600060608486031215620001e957600080fd5b83516001600160401b03811681146200020157600080fd5b60208501519093506001600160a01b03811681146200021f57600080fd5b80925050604084015190509250925092565b60805160601c60a0516119a0620002616000396000610b86015260008181610631015261067301526119a06000f3fe60806040526004361061012e5760003560e01c80638796ba8c116100ab578063a168fa891161006f578063a168fa8914610310578063b33d525914610360578063d8a4676f14610376578063e0c86289146103a4578063f2fde38b146103b9578063fc2a88c3146103d957600080fd5b80638796ba8c1461026f5780638890d7571461028f5780638da5cb5b146102c75780639063def5146102e55780639a8ff87c146102fa57600080fd5b806341089bdf116100f257806341089bdf146101cd5780634c261247146101e35780636540742f1461021357806379ba50971461022e578063872175e51461024357600080fd5b806311610c251461013a57806312e505c9146101635780631fe543e3146101785780632e1a7d4d146101985780633d6ae3a7146101b857600080fd5b3661013557005b600080fd5b34801561014657600080fd5b5061015060055481565b6040519081526020015b60405180910390f35b6101766101713660046115b9565b6103ef565b005b34801561018457600080fd5b50610176610193366004611680565b610626565b3480156101a457600080fd5b506101766101b33660046115b9565b6106ae565b3480156101c457600080fd5b50610150607881565b3480156101d957600080fd5b5061015060035481565b3480156101ef57600080fd5b506102036101fe3660046115eb565b610725565b604051901515815260200161015a565b34801561021f57600080fd5b50610150662386f26fc1000081565b34801561023a57600080fd5b50610176610987565b34801561024f57600080fd5b5060095461026290610100900460ff1681565b60405161015a91906117d5565b34801561027b57600080fd5b5061015061028a3660046115b9565b610a31565b34801561029b57600080fd5b506004546102af906001600160a01b031681565b6040516001600160a01b03909116815260200161015a565b3480156102d357600080fd5b506000546001600160a01b03166102af565b3480156102f157600080fd5b50610176610a52565b34801561030657600080fd5b50610150600f5481565b34801561031c57600080fd5b5061034961032b3660046115b9565b600a6020526000908152604090205460ff8082169161010090041682565b60408051921515835290151560208301520161015a565b34801561036c57600080fd5b5061015060025481565b34801561038257600080fd5b506103966103913660046115b9565b610a73565b60405161015a9291906117b2565b3480156103b057600080fd5b50610150610b67565b3480156103c557600080fd5b506101766103d4366004611589565b610d58565b3480156103e557600080fd5b50610150600d5481565b60065415801561040d575060786006546104099190611856565b4211155b156104bd576007546001600160a01b0316156104675760405162461bcd60e51b81526020600482015260146024820152732090383630bcb2b91034b990383630bcb4b7339760611b60448201526064015b60405180910390fd5b600554156104b05760405162461bcd60e51b81526020600482015260166024820152752132ba1034b990383630b1b2b21030b63932b0b23c9760511b604482015260640161045e565b600854156104bd57600080fd5b662386f26fc100003410156105145760405162461bcd60e51b815260206004820152601d60248201527f496e73756666696369656e742062616c61616e636520746f206265742e000000604482015260640161045e565b47610520346002611882565b111561056e5760405162461bcd60e51b815260206004820152601d60248201527f4265742065786365656465642062616c616e6365206f6620686f73742e000000604482015260640161045e565b60065415158061058b575060786006546105889190611856565b42115b156105f0576007546009546005546040516001600160a01b03909316927f4e975787ea7dc6679a1751654c0d39bb1f0b641921163fa3f4694d74b167caea926105e09260009261010090920460ff16916117e3565b60405180910390a26105f0610d69565b6105f8610d95565b610600610e69565b600780546001600160a01b03191633179055346005556008819055610623610f51565b50565b336001600160a01b037f000000000000000000000000000000000000000000000000000000000000000016146106a05760405163073e64fd60e21b81523360048201526001600160a01b037f000000000000000000000000000000000000000000000000000000000000000016602482015260440161045e565b6106aa8282610fcf565b5050565b6106b66110b6565b804710156106f85760405162461bcd60e51b815260206004820152600f60248201526e42616c616e636520746f6f206c6f7760881b604482015260640161045e565b604051339082156108fc029083906000818181858888f193505050501580156106aa573d6000803e3d6000fd5b6007546000906001600160a01b0316331461077b5760405162461bcd60e51b81526020600482015260166024820152752cb7ba9030b932903cb7ba903a343290383630bcb2b960511b604482015260640161045e565b600854158015906107a857506000600954610100900460ff1660038111156107a5576107a5611928565b14155b6108045760405162461bcd60e51b815260206004820152602760248201527f4e6f7420626f746820706c617965727320636f6d6d69747465642074686569726044820152661036b7bb32b99760c91b606482015260840161045e565b60006002836040516020016108199190611796565b60408051601f198184030181529082905261083391611796565b602060405180830381855afa158015610850573d6000803e3d6000fd5b5050506040513d601f19601f8201168201806040525081019061087391906115d2565b9050600061088084611109565b600381111561089157610891611928565b905060008160038111156108a7576108a7611928565b14156108b7575060009392505050565b8160085414156108ea576009805482919060ff191660018360038111156108e0576108e0611928565b02179055506108f4565b5060009392505050565b60095460009060ff16600381111561090e5761090e611928565b600954909150600090610100900460ff16600381111561093057610930611928565b9050600061093e838361118c565b60ff16600381111561095257610952611928565b600754600554919250610972916001600160a01b039091169083906111fa565b61097a610d69565b5060019695505050505050565b6001546001600160a01b031633146109da5760405162461bcd60e51b815260206004820152601660248201527526bab9ba10313290383937b837b9b2b21037bbb732b960511b604482015260640161045e565b60008054336001600160a01b0319808316821784556001805490911690556040516001600160a01b0390921692909183917f8be0079c531659141344cd1fd0a4f28419497f9722a3daafe3b4186f6b6457e091a350565b600c8181548110610a4157600080fd5b600091825260209091200154905081565b6004546001600160a01b03163314610a6957600080fd5b610a71610d95565b565b6000818152600a6020526040812054606090610100900460ff16610acd5760405162461bcd60e51b81526020600482015260116024820152701c995c5d595cdd081b9bdd08199bdd5b99607a1b604482015260640161045e565b6000838152600a602090815260408083208151606081018352815460ff8082161515835261010090910416151581850152600182018054845181870281018701865281815292959394860193830182828015610b4857602002820191906000526020600020905b815481526020019060010190808311610b34575b5050505050815250509050806000015181604001519250925050915091565b6000610b716110b6565b600b54600e546040516305d3b1d360e41b81527f00000000000000000000000000000000000000000000000000000000000000006004820152600160a01b830467ffffffffffffffff166024820152640100000000820461ffff16604482015263ffffffff8083166064830152660100000000000090920490911660848201526001600160a01b0390911690635d3b1d309060a401602060405180830381600087803b158015610c2057600080fd5b505af1158015610c34573d6000803e3d6000fd5b505050506040513d601f19601f82011682018060405250810190610c5891906115d2565b6040805160608101825260008082526001602080840182815285518481528083018752858701908152878552600a83529590932084518154945161ffff1990951690151561ff00191617610100941515949094029390931783559351805195965092949193610ccd9391850192910190611529565b5050600c80546001810182556000919091527fdf6966c971051c3d54ec59162606531493a51404a002842f56009d7e5cf4a8c70182905550600d819055600e5460408051838152660100000000000090920463ffffffff1660208301527fcc58b13ad3eab50626c6a6300b1d139cd6ebb1688a7cced9461c2f7e762665ee910160405180910390a190565b610d606110b6565b610623816113e1565b600060058190556006819055600780546001600160a01b03191690556008556009805461ffff19169055565b6004546001600160a01b0316610da757565b426003541115610db357565b6000600355600480546001600160a01b031981169091556002546001600160a01b0390911690610de05750565b6002805460009182905560405190916001600160a01b0384169183156108fc0291849190818181858888f19350505050158015610e21573d6000803e3d6000fd5b50816001600160a01b03167f28a45baa754d821eb63cfb5c69d4e4394742c59fee22dab38cd5c02fb2af892182604051610e5d91815260200190565b60405180910390a25050565b6004546001600160a01b0316610edf57600480546001600160a01b03191633179055610e9742610e10611856565b60038190556004546040519182526001600160a01b0316907fdfe6afd72ccc12e327008dfe046a3af52d0d4bad81ed2ba3ecd1057345bc7cd1906020015b60405180910390a2565b600a600254610eee919061186e565b341015610ef757565b600354610f0690610e10611856565b6003819055600480546001600160a01b03191633908117909155604051918252907f9d2782b57a253b4896f013de4390a302719b44805cc8978aea12e8ea976ae34390602001610ed5565b610f5961148b565b6009805461ff001916610100836003811115610f7757610f77611928565b02179055507f50847ce5b6a91be6fb0a54f67c828ee9982f5e7b413cf5169c8352e7a0b0e070600960019054906101000a900460ff16604051610fba91906117d5565b60405180910390a1600654610a715742600655565b6000828152600a6020526040902054610100900460ff166110265760405162461bcd60e51b81526020600482015260116024820152701c995c5d595cdd081b9bdd08199bdd5b99607a1b604482015260640161045e565b6000828152600a60209081526040909120805460ff1916600190811782558351611057939290910191840190611529565b508060008151811061106b5761106b61193e565b6020026020010151600f819055507ffe2e2d779dba245964d4e3ef9b994be63856fd568bf7d3ca9e224755cb1bd54d82826040516110aa92919061180c565b60405180910390a15050565b6000546001600160a01b03163314610a715760405162461bcd60e51b815260206004820152601660248201527527b7363c9031b0b63630b1363290313c9037bbb732b960511b604482015260640161045e565b6000808260008151811061111f5761111f61193e565b01602001516001600160f81b0319169050603160f81b8114156111455750600192915050565b601960f91b6001600160f81b0319821614156111645750600292915050565b603360f81b6001600160f81b0319821614156111835750600392915050565b50600092915050565b60008183141561119e575060036111f4565b818311156111cb578160011480156111b65750826003145b156111c3575060026111f4565b5060016111f4565b82821115611183578260011480156111e35750816003145b156111f0575060016111f4565b5060025b92915050565b600182600381111561120e5761120e611928565b14156112e5576000611221826002611882565b905060006064611232836005611882565b61123c919061186e565b9050611247816114c5565b6001600160a01b0385166108fc61125e83856118a1565b6040518115909202916000818181858888f19350505050158015611286573d6000803e3d6000fd5b506007546009546040516001600160a01b03909216917f2069c251d5aacd1cedfc522a09530aa3a904c4ebba85d66ee32970ae48b21ddc916112d69160ff808316926101009004169088906117e3565b60405180910390a25050505050565b60038260038111156112f9576112f9611928565b1415611392576040516001600160a01b0384169082156108fc029083906000818181858888f19350505050158015611335573d6000803e3d6000fd5b506007546009546040516001600160a01b03909216917f3f9f81baa21dbabd3a70aa2d5a1d157a5731197a2816e9be79228aaf56541d43916113859160ff808316926101009004169086906117e3565b60405180910390a2505050565b6007546009546040516001600160a01b03909216917f4e975787ea7dc6679a1751654c0d39bb1f0b641921163fa3f4694d74b167caea916113859160ff808316926101009004169086906117e3565b6001600160a01b03811633141561143a5760405162461bcd60e51b815260206004820152601760248201527f43616e6e6f74207472616e7366657220746f2073656c66000000000000000000604482015260640161045e565b600180546001600160a01b0319166001600160a01b0383811691821790925560008054604051929316917fed8889f560326eb138920d842192f0eb3dd22b4f139c87a2c57538e05bae12789190a350565b60006003611497611514565b6114a191906118e8565b6114ac906001611856565b60ff1660038111156114c0576114c0611928565b905090565b80600260008282546114d79190611856565b909155505060405181815233907f3bed7b1032d6facdb3ed736c642f18affa147a86c1e01f68180f740e08b980739060200160405180910390a250565b60008061151f610b67565b5050600f54919050565b828054828255906000526020600020908101928215611564579160200282015b82811115611564578251825591602001919060010190611549565b50611570929150611574565b5090565b5b808211156115705760008155600101611575565b60006020828403121561159b57600080fd5b81356001600160a01b03811681146115b257600080fd5b9392505050565b6000602082840312156115cb57600080fd5b5035919050565b6000602082840312156115e457600080fd5b5051919050565b600060208083850312156115fe57600080fd5b823567ffffffffffffffff8082111561161657600080fd5b818501915085601f83011261162a57600080fd5b81358181111561163c5761163c611954565b61164e601f8201601f19168501611825565b9150808252868482850101111561166457600080fd5b8084840185840137600090820190930192909252509392505050565b6000806040838503121561169357600080fd5b8235915060208084013567ffffffffffffffff808211156116b357600080fd5b818601915086601f8301126116c757600080fd5b8135818111156116d9576116d9611954565b8060051b91506116ea848301611825565b8181528481019084860184860187018b101561170557600080fd5b600095505b8386101561172857803583526001959095019491860191860161170a565b508096505050505050509250929050565b600081518084526020808501945080840160005b838110156117695781518752958201959082019060010161174d565b509495945050505050565b6004811061179257634e487b7160e01b600052602160045260246000fd5b9052565b600082516117a88184602087016118b8565b9190910192915050565b82151581526040602082015260006117cd6040830184611739565b949350505050565b602081016111f48284611774565b606081016117f18286611774565b6117fe6020830185611774565b826040830152949350505050565b8281526040602082015260006117cd6040830184611739565b604051601f8201601f1916810167ffffffffffffffff8111828210171561184e5761184e611954565b604052919050565b60008219821115611869576118696118fc565b500190565b60008261187d5761187d611912565b500490565b600081600019048311821515161561189c5761189c6118fc565b500290565b6000828210156118b3576118b36118fc565b500390565b60005b838110156118d35781810151838201526020016118bb565b838111156118e2576000848401525b50505050565b6000826118f7576118f7611912565b500690565b634e487b7160e01b600052601160045260246000fd5b634e487b7160e01b600052601260045260246000fd5b634e487b7160e01b600052602160045260246000fd5b634e487b7160e01b600052603260045260246000fd5b634e487b7160e01b600052604160045260246000fdfea26469706673582212201f25c1511d9d36a921917ca1e414581a18d131b33c731c440bcd63213daa04cf64736f6c63430008070033","opcodes":"PUSH1 0xC0 PUSH1 0x40 DUP2 SWAP1 MSTORE PUSH1 0x0 PUSH1 0x2 DUP2 SWAP1 SSTORE PUSH1 0x3 SSTORE PUSH1 0xE DUP1 SLOAD PUSH1 0x1 PUSH1 0x1 PUSH1 0x50 SHL SUB NOT AND PUSH7 0x10003000249F0 OR SWAP1 SSTORE PUSH3 0x1C01 CODESIZE DUP2 SWAP1 SUB SWAP1 DUP2 SWAP1 DUP4 CODECOPY DUP2 ADD PUSH1 0x40 DUP2 SWAP1 MSTORE PUSH3 0x48 SWAP2 PUSH3 0x1D3 JUMP JUMPDEST PUSH1 0x1 PUSH1 0x1 PUSH1 0x60 SHL SUB NOT PUSH1 0x60 DUP4 SWAP1 SHL AND PUSH1 0x80 MSTORE CALLER DUP1 PUSH1 0x0 DUP2 PUSH3 0xB1 JUMPI PUSH1 0x40 MLOAD PUSH3 0x461BCD PUSH1 0xE5 SHL DUP2 MSTORE PUSH1 0x20 PUSH1 0x4 DUP3 ADD MSTORE PUSH1 0x18 PUSH1 0x24 DUP3 ADD MSTORE PUSH32 0x43616E6E6F7420736574206F776E657220746F207A65726F0000000000000000 PUSH1 0x44 DUP3 ADD MSTORE PUSH1 0x64 ADD JUMPDEST PUSH1 0x40 MLOAD DUP1 SWAP2 SUB SWAP1 REVERT JUMPDEST PUSH1 0x0 DUP1 SLOAD PUSH1 0x1 PUSH1 0x1 PUSH1 0xA0 SHL SUB NOT AND PUSH1 0x1 PUSH1 0x1 PUSH1 0xA0 SHL SUB DUP5 DUP2 AND SWAP2 SWAP1 SWAP2 OR SWAP1 SWAP2 SSTORE DUP2 AND ISZERO PUSH3 0xE4 JUMPI PUSH3 0xE4 DUP2 PUSH3 0x127 JUMP JUMPDEST POP POP PUSH1 0xB DUP1 SLOAD PUSH1 0x1 PUSH1 0x1 PUSH1 0x40 SHL SUB SWAP1 SWAP6 AND PUSH1 0x1 PUSH1 0xA0 SHL MUL PUSH1 0x1 PUSH1 0x1 PUSH1 0xE0 SHL SUB NOT SWAP1 SWAP6 AND PUSH1 0x1 PUSH1 0x1 PUSH1 0xA0 SHL SUB SWAP1 SWAP5 AND SWAP4 SWAP1 SWAP4 OR SWAP4 SWAP1 SWAP4 OR SWAP1 SWAP2 SSTORE PUSH1 0xA0 MSTORE POP PUSH3 0x231 JUMP JUMPDEST PUSH1 0x1 PUSH1 0x1 PUSH1 0xA0 SHL SUB DUP2 AND CALLER EQ ISZERO PUSH3 0x182 JUMPI PUSH1 0x40 MLOAD PUSH3 0x461BCD PUSH1 0xE5 SHL DUP2 MSTORE PUSH1 0x20 PUSH1 0x4 DUP3 ADD MSTORE PUSH1 0x17 PUSH1 0x24 DUP3 ADD MSTORE PUSH32 0x43616E6E6F74207472616E7366657220746F2073656C66000000000000000000 PUSH1 0x44 DUP3 ADD MSTORE PUSH1 0x64 ADD PUSH3 0xA8 JUMP JUMPDEST PUSH1 0x1 DUP1 SLOAD PUSH1 0x1 PUSH1 0x1 PUSH1 0xA0 SHL SUB NOT AND PUSH1 0x1 PUSH1 0x1 PUSH1 0xA0 SHL SUB DUP4 DUP2 AND SWAP2 DUP3 OR SWAP1 SWAP3 SSTORE PUSH1 0x0 DUP1 SLOAD PUSH1 0x40 MLOAD SWAP3 SWAP4 AND SWAP2 PUSH32 0xED8889F560326EB138920D842192F0EB3DD22B4F139C87A2C57538E05BAE1278 SWAP2 SWAP1 LOG3 POP JUMP JUMPDEST PUSH1 0x0 DUP1 PUSH1 0x0 PUSH1 0x60 DUP5 DUP7 SUB SLT ISZERO PUSH3 0x1E9 JUMPI PUSH1 0x0 DUP1 REVERT JUMPDEST DUP4 MLOAD PUSH1 0x1 PUSH1 0x1 PUSH1 0x40 SHL SUB DUP2 AND DUP2 EQ PUSH3 0x201 JUMPI PUSH1 0x0 DUP1 REVERT JUMPDEST PUSH1 0x20 DUP6 ADD MLOAD SWAP1 SWAP4 POP PUSH1 0x1 PUSH1 0x1 PUSH1 0xA0 SHL SUB DUP2 AND DUP2 EQ PUSH3 0x21F JUMPI PUSH1 0x0 DUP1 REVERT JUMPDEST DUP1 SWAP3 POP POP PUSH1 0x40 DUP5 ADD MLOAD SWAP1 POP SWAP3 POP SWAP3 POP SWAP3 JUMP JUMPDEST PUSH1 0x80 MLOAD PUSH1 0x60 SHR PUSH1 0xA0 MLOAD PUSH2 0x19A0 PUSH3 0x261 PUSH1 0x0 CODECOPY PUSH1 0x0 PUSH2 0xB86 ADD MSTORE PUSH1 0x0 DUP2 DUP2 PUSH2 0x631 ADD MSTORE PUSH2 0x673 ADD MSTORE PUSH2 0x19A0 PUSH1 0x0 RETURN INVALID PUSH1 0x80 PUSH1 0x40 MSTORE PUSH1 0x4 CALLDATASIZE LT PUSH2 0x12E JUMPI PUSH1 0x0 CALLDATALOAD PUSH1 0xE0 SHR DUP1 PUSH4 0x8796BA8C GT PUSH2 0xAB JUMPI DUP1 PUSH4 0xA168FA89 GT PUSH2 0x6F JUMPI DUP1 PUSH4 0xA168FA89 EQ PUSH2 0x310 JUMPI DUP1 PUSH4 0xB33D5259 EQ PUSH2 0x360 JUMPI DUP1 PUSH4 0xD8A4676F EQ PUSH2 0x376 JUMPI DUP1 PUSH4 0xE0C86289 EQ PUSH2 0x3A4 JUMPI DUP1 PUSH4 0xF2FDE38B EQ PUSH2 0x3B9 JUMPI DUP1 PUSH4 0xFC2A88C3 EQ PUSH2 0x3D9 JUMPI PUSH1 0x0 DUP1 REVERT JUMPDEST DUP1 PUSH4 0x8796BA8C EQ PUSH2 0x26F JUMPI DUP1 PUSH4 0x8890D757 EQ PUSH2 0x28F JUMPI DUP1 PUSH4 0x8DA5CB5B EQ PUSH2 0x2C7 JUMPI DUP1 PUSH4 0x9063DEF5 EQ PUSH2 0x2E5 JUMPI DUP1 PUSH4 0x9A8FF87C EQ PUSH2 0x2FA JUMPI PUSH1 0x0 DUP1 REVERT JUMPDEST DUP1 PUSH4 0x41089BDF GT PUSH2 0xF2 JUMPI DUP1 PUSH4 0x41089BDF EQ PUSH2 0x1CD JUMPI DUP1 PUSH4 0x4C261247 EQ PUSH2 0x1E3 JUMPI DUP1 PUSH4 0x6540742F EQ PUSH2 0x213 JUMPI DUP1 PUSH4 0x79BA5097 EQ PUSH2 0x22E JUMPI DUP1 PUSH4 0x872175E5 EQ PUSH2 0x243 JUMPI PUSH1 0x0 DUP1 REVERT JUMPDEST DUP1 PUSH4 0x11610C25 EQ PUSH2 0x13A JUMPI DUP1 PUSH4 0x12E505C9 EQ PUSH2 0x163 JUMPI DUP1 PUSH4 0x1FE543E3 EQ PUSH2 0x178 JUMPI DUP1 PUSH4 0x2E1A7D4D EQ PUSH2 0x198 JUMPI DUP1 PUSH4 0x3D6AE3A7 EQ PUSH2 0x1B8 JUMPI PUSH1 0x0 DUP1 REVERT JUMPDEST CALLDATASIZE PUSH2 0x135 JUMPI STOP JUMPDEST PUSH1 0x0 DUP1 REVERT JUMPDEST CALLVALUE DUP1 ISZERO PUSH2 0x146 JUMPI PUSH1 0x0 DUP1 REVERT JUMPDEST POP PUSH2 0x150 PUSH1 0x5 SLOAD DUP2 JUMP JUMPDEST PUSH1 0x40 MLOAD SWAP1 DUP2 MSTORE PUSH1 0x20 ADD JUMPDEST PUSH1 0x40 MLOAD DUP1 SWAP2 SUB SWAP1 RETURN JUMPDEST PUSH2 0x176 PUSH2 0x171 CALLDATASIZE PUSH1 0x4 PUSH2 0x15B9 JUMP JUMPDEST PUSH2 0x3EF JUMP JUMPDEST STOP JUMPDEST CALLVALUE DUP1 ISZERO PUSH2 0x184 JUMPI PUSH1 0x0 DUP1 REVERT JUMPDEST POP PUSH2 0x176 PUSH2 0x193 CALLDATASIZE PUSH1 0x4 PUSH2 0x1680 JUMP JUMPDEST PUSH2 0x626 JUMP JUMPDEST CALLVALUE DUP1 ISZERO PUSH2 0x1A4 JUMPI PUSH1 0x0 DUP1 REVERT JUMPDEST POP PUSH2 0x176 PUSH2 0x1B3 CALLDATASIZE PUSH1 0x4 PUSH2 0x15B9 JUMP JUMPDEST PUSH2 0x6AE JUMP JUMPDEST CALLVALUE DUP1 ISZERO PUSH2 0x1C4 JUMPI PUSH1 0x0 DUP1 REVERT JUMPDEST POP PUSH2 0x150 PUSH1 0x78 DUP2 JUMP JUMPDEST CALLVALUE DUP1 ISZERO PUSH2 0x1D9 JUMPI PUSH1 0x0 DUP1 REVERT JUMPDEST POP PUSH2 0x150 PUSH1 0x3 SLOAD DUP2 JUMP JUMPDEST CALLVALUE DUP1 ISZERO PUSH2 0x1EF JUMPI PUSH1 0x0 DUP1 REVERT JUMPDEST POP PUSH2 0x203 PUSH2 0x1FE CALLDATASIZE PUSH1 0x4 PUSH2 0x15EB JUMP JUMPDEST PUSH2 0x725 JUMP JUMPDEST PUSH1 0x40 MLOAD SWAP1 ISZERO ISZERO DUP2 MSTORE PUSH1 0x20 ADD PUSH2 0x15A JUMP JUMPDEST CALLVALUE DUP1 ISZERO PUSH2 0x21F JUMPI PUSH1 0x0 DUP1 REVERT JUMPDEST POP PUSH2 0x150 PUSH7 0x2386F26FC10000 DUP2 JUMP JUMPDEST CALLVALUE DUP1 ISZERO PUSH2 0x23A JUMPI PUSH1 0x0 DUP1 REVERT JUMPDEST POP PUSH2 0x176 PUSH2 0x987 JUMP JUMPDEST CALLVALUE DUP1 ISZERO PUSH2 0x24F JUMPI PUSH1 0x0 DUP1 REVERT JUMPDEST POP PUSH1 0x9 SLOAD PUSH2 0x262 SWAP1 PUSH2 0x100 SWAP1 DIV PUSH1 0xFF AND DUP2 JUMP JUMPDEST PUSH1 0x40 MLOAD PUSH2 0x15A SWAP2 SWAP1 PUSH2 0x17D5 JUMP JUMPDEST CALLVALUE DUP1 ISZERO PUSH2 0x27B JUMPI PUSH1 0x0 DUP1 REVERT JUMPDEST POP PUSH2 0x150 PUSH2 0x28A CALLDATASIZE PUSH1 0x4 PUSH2 0x15B9 JUMP JUMPDEST PUSH2 0xA31 JUMP JUMPDEST CALLVALUE DUP1 ISZERO PUSH2 0x29B JUMPI PUSH1 0x0 DUP1 REVERT JUMPDEST POP PUSH1 0x4 SLOAD PUSH2 0x2AF SWAP1 PUSH1 0x1 PUSH1 0x1 PUSH1 0xA0 SHL SUB AND DUP2 JUMP JUMPDEST PUSH1 0x40 MLOAD PUSH1 0x1 PUSH1 0x1 PUSH1 0xA0 SHL SUB SWAP1 SWAP2 AND DUP2 MSTORE PUSH1 0x20 ADD PUSH2 0x15A JUMP JUMPDEST CALLVALUE DUP1 ISZERO PUSH2 0x2D3 JUMPI PUSH1 0x0 DUP1 REVERT JUMPDEST POP PUSH1 0x0 SLOAD PUSH1 0x1 PUSH1 0x1 PUSH1 0xA0 SHL SUB AND PUSH2 0x2AF JUMP JUMPDEST CALLVALUE DUP1 ISZERO PUSH2 0x2F1 JUMPI PUSH1 0x0 DUP1 REVERT JUMPDEST POP PUSH2 0x176 PUSH2 0xA52 JUMP JUMPDEST CALLVALUE DUP1 ISZERO PUSH2 0x306 JUMPI PUSH1 0x0 DUP1 REVERT JUMPDEST POP PUSH2 0x150 PUSH1 0xF SLOAD DUP2 JUMP JUMPDEST CALLVALUE DUP1 ISZERO PUSH2 0x31C JUMPI PUSH1 0x0 DUP1 REVERT JUMPDEST POP PUSH2 0x349 PUSH2 0x32B CALLDATASIZE PUSH1 0x4 PUSH2 0x15B9 JUMP JUMPDEST PUSH1 0xA PUSH1 0x20 MSTORE PUSH1 0x0 SWAP1 DUP2 MSTORE PUSH1 0x40 SWAP1 KECCAK256 SLOAD PUSH1 0xFF DUP1 DUP3 AND SWAP2 PUSH2 0x100 SWAP1 DIV AND DUP3 JUMP JUMPDEST PUSH1 0x40 DUP1 MLOAD SWAP3 ISZERO ISZERO DUP4 MSTORE SWAP1 ISZERO ISZERO PUSH1 0x20 DUP4 ADD MSTORE ADD PUSH2 0x15A JUMP JUMPDEST CALLVALUE DUP1 ISZERO PUSH2 0x36C JUMPI PUSH1 0x0 DUP1 REVERT JUMPDEST POP PUSH2 0x150 PUSH1 0x2 SLOAD DUP2 JUMP JUMPDEST CALLVALUE DUP1 ISZERO PUSH2 0x382 JUMPI PUSH1 0x0 DUP1 REVERT JUMPDEST POP PUSH2 0x396 PUSH2 0x391 CALLDATASIZE PUSH1 0x4 PUSH2 0x15B9 JUMP JUMPDEST PUSH2 0xA73 JUMP JUMPDEST PUSH1 0x40 MLOAD PUSH2 0x15A SWAP3 SWAP2 SWAP1 PUSH2 0x17B2 JUMP JUMPDEST CALLVALUE DUP1 ISZERO PUSH2 0x3B0 JUMPI PUSH1 0x0 DUP1 REVERT JUMPDEST POP PUSH2 0x150 PUSH2 0xB67 JUMP JUMPDEST CALLVALUE DUP1 ISZERO PUSH2 0x3C5 JUMPI PUSH1 0x0 DUP1 REVERT JUMPDEST POP PUSH2 0x176 PUSH2 0x3D4 CALLDATASIZE PUSH1 0x4 PUSH2 0x1589 JUMP JUMPDEST PUSH2 0xD58 JUMP JUMPDEST CALLVALUE DUP1 ISZERO PUSH2 0x3E5 JUMPI PUSH1 0x0 DUP1 REVERT JUMPDEST POP PUSH2 0x150 PUSH1 0xD SLOAD DUP2 JUMP JUMPDEST PUSH1 0x6 SLOAD ISZERO DUP1 ISZERO PUSH2 0x40D JUMPI POP PUSH1 0x78 PUSH1 0x6 SLOAD PUSH2 0x409 SWAP2 SWAP1 PUSH2 0x1856 JUMP JUMPDEST TIMESTAMP GT ISZERO JUMPDEST ISZERO PUSH2 0x4BD JUMPI PUSH1 0x7 SLOAD PUSH1 0x1 PUSH1 0x1 PUSH1 0xA0 SHL SUB AND ISZERO PUSH2 0x467 JUMPI PUSH1 0x40 MLOAD PUSH3 0x461BCD PUSH1 0xE5 SHL DUP2 MSTORE PUSH1 0x20 PUSH1 0x4 DUP3 ADD MSTORE PUSH1 0x14 PUSH1 0x24 DUP3 ADD MSTORE PUSH20 0x2090383630BCB2B91034B990383630BCB4B73397 PUSH1 0x61 SHL PUSH1 0x44 DUP3 ADD MSTORE PUSH1 0x64 ADD JUMPDEST PUSH1 0x40 MLOAD DUP1 SWAP2 SUB SWAP1 REVERT JUMPDEST PUSH1 0x5 SLOAD ISZERO PUSH2 0x4B0 JUMPI PUSH1 0x40 MLOAD PUSH3 0x461BCD PUSH1 0xE5 SHL DUP2 MSTORE PUSH1 0x20 PUSH1 0x4 DUP3 ADD MSTORE PUSH1 0x16 PUSH1 0x24 DUP3 ADD MSTORE PUSH22 0x2132BA1034B990383630B1B2B21030B63932B0B23C97 PUSH1 0x51 SHL PUSH1 0x44 DUP3 ADD MSTORE PUSH1 0x64 ADD PUSH2 0x45E JUMP JUMPDEST PUSH1 0x8 SLOAD ISZERO PUSH2 0x4BD JUMPI PUSH1 0x0 DUP1 REVERT JUMPDEST PUSH7 0x2386F26FC10000 CALLVALUE LT ISZERO PUSH2 0x514 JUMPI PUSH1 0x40 MLOAD PUSH3 0x461BCD PUSH1 0xE5 SHL DUP2 MSTORE PUSH1 0x20 PUSH1 0x4 DUP3 ADD MSTORE PUSH1 0x1D PUSH1 0x24 DUP3 ADD MSTORE PUSH32 0x496E73756666696369656E742062616C61616E636520746F206265742E000000 PUSH1 0x44 DUP3 ADD MSTORE PUSH1 0x64 ADD PUSH2 0x45E JUMP JUMPDEST SELFBALANCE PUSH2 0x520 CALLVALUE PUSH1 0x2 PUSH2 0x1882 JUMP JUMPDEST GT ISZERO PUSH2 0x56E JUMPI PUSH1 0x40 MLOAD PUSH3 0x461BCD PUSH1 0xE5 SHL DUP2 MSTORE PUSH1 0x20 PUSH1 0x4 DUP3 ADD MSTORE PUSH1 0x1D PUSH1 0x24 DUP3 ADD MSTORE PUSH32 0x4265742065786365656465642062616C616E6365206F6620686F73742E000000 PUSH1 0x44 DUP3 ADD MSTORE PUSH1 0x64 ADD PUSH2 0x45E JUMP JUMPDEST PUSH1 0x6 SLOAD ISZERO ISZERO DUP1 PUSH2 0x58B JUMPI POP PUSH1 0x78 PUSH1 0x6 SLOAD PUSH2 0x588 SWAP2 SWAP1 PUSH2 0x1856 JUMP JUMPDEST TIMESTAMP GT JUMPDEST ISZERO PUSH2 0x5F0 JUMPI PUSH1 0x7 SLOAD PUSH1 0x9 SLOAD PUSH1 0x5 SLOAD PUSH1 0x40 MLOAD PUSH1 0x1 PUSH1 0x1 PUSH1 0xA0 SHL SUB SWAP1 SWAP4 AND SWAP3 PUSH32 0x4E975787EA7DC6679A1751654C0D39BB1F0B641921163FA3F4694D74B167CAEA SWAP3 PUSH2 0x5E0 SWAP3 PUSH1 0x0 SWAP3 PUSH2 0x100 SWAP1 SWAP3 DIV PUSH1 0xFF AND SWAP2 PUSH2 0x17E3 JUMP JUMPDEST PUSH1 0x40 MLOAD DUP1 SWAP2 SUB SWAP1 LOG2 PUSH2 0x5F0 PUSH2 0xD69 JUMP JUMPDEST PUSH2 0x5F8 PUSH2 0xD95 JUMP JUMPDEST PUSH2 0x600 PUSH2 0xE69 JUMP JUMPDEST PUSH1 0x7 DUP1 SLOAD PUSH1 0x1 PUSH1 0x1 PUSH1 0xA0 SHL SUB NOT AND CALLER OR SWAP1 SSTORE CALLVALUE PUSH1 0x5 SSTORE PUSH1 0x8 DUP2 SWAP1 SSTORE PUSH2 0x623 PUSH2 0xF51 JUMP JUMPDEST POP JUMP JUMPDEST CALLER PUSH1 0x1 PUSH1 0x1 PUSH1 0xA0 SHL SUB PUSH32 0x0 AND EQ PUSH2 0x6A0 JUMPI PUSH1 0x40 MLOAD PUSH4 0x73E64FD PUSH1 0xE2 SHL DUP2 MSTORE CALLER PUSH1 0x4 DUP3 ADD MSTORE PUSH1 0x1 PUSH1 0x1 PUSH1 0xA0 SHL SUB PUSH32 0x0 AND PUSH1 0x24 DUP3 ADD MSTORE PUSH1 0x44 ADD PUSH2 0x45E JUMP JUMPDEST PUSH2 0x6AA DUP3 DUP3 PUSH2 0xFCF JUMP JUMPDEST POP POP JUMP JUMPDEST PUSH2 0x6B6 PUSH2 0x10B6 JUMP JUMPDEST DUP1 SELFBALANCE LT ISZERO PUSH2 0x6F8 JUMPI PUSH1 0x40 MLOAD PUSH3 0x461BCD PUSH1 0xE5 SHL DUP2 MSTORE PUSH1 0x20 PUSH1 0x4 DUP3 ADD MSTORE PUSH1 0xF PUSH1 0x24 DUP3 ADD MSTORE PUSH15 0x42616C616E636520746F6F206C6F77 PUSH1 0x88 SHL PUSH1 0x44 DUP3 ADD MSTORE PUSH1 0x64 ADD PUSH2 0x45E JUMP JUMPDEST PUSH1 0x40 MLOAD CALLER SWAP1 DUP3 ISZERO PUSH2 0x8FC MUL SWAP1 DUP4 SWAP1 PUSH1 0x0 DUP2 DUP2 DUP2 DUP6 DUP9 DUP9 CALL SWAP4 POP POP POP POP ISZERO DUP1 ISZERO PUSH2 0x6AA JUMPI RETURNDATASIZE PUSH1 0x0 DUP1 RETURNDATACOPY RETURNDATASIZE PUSH1 0x0 REVERT JUMPDEST PUSH1 0x7 SLOAD PUSH1 0x0 SWAP1 PUSH1 0x1 PUSH1 0x1 PUSH1 0xA0 SHL SUB AND CALLER EQ PUSH2 0x77B JUMPI PUSH1 0x40 MLOAD PUSH3 0x461BCD PUSH1 0xE5 SHL DUP2 MSTORE PUSH1 0x20 PUSH1 0x4 DUP3 ADD MSTORE PUSH1 0x16 PUSH1 0x24 DUP3 ADD MSTORE PUSH22 0x2CB7BA9030B932903CB7BA903A343290383630BCB2B9 PUSH1 0x51 SHL PUSH1 0x44 DUP3 ADD MSTORE PUSH1 0x64 ADD PUSH2 0x45E JUMP JUMPDEST PUSH1 0x8 SLOAD ISZERO DUP1 ISZERO SWAP1 PUSH2 0x7A8 JUMPI POP PUSH1 0x0 PUSH1 0x9 SLOAD PUSH2 0x100 SWAP1 DIV PUSH1 0xFF AND PUSH1 0x3 DUP2 GT ISZERO PUSH2 0x7A5 JUMPI PUSH2 0x7A5 PUSH2 0x1928 JUMP JUMPDEST EQ ISZERO JUMPDEST PUSH2 0x804 JUMPI PUSH1 0x40 MLOAD PUSH3 0x461BCD PUSH1 0xE5 SHL DUP2 MSTORE PUSH1 0x20 PUSH1 0x4 DUP3 ADD MSTORE PUSH1 0x27 PUSH1 0x24 DUP3 ADD MSTORE PUSH32 0x4E6F7420626F746820706C617965727320636F6D6D6974746564207468656972 PUSH1 0x44 DUP3 ADD MSTORE PUSH7 0x1036B7BB32B997 PUSH1 0xC9 SHL PUSH1 0x64 DUP3 ADD MSTORE PUSH1 0x84 ADD PUSH2 0x45E JUMP JUMPDEST PUSH1 0x0 PUSH1 0x2 DUP4 PUSH1 0x40 MLOAD PUSH1 0x20 ADD PUSH2 0x819 SWAP2 SWAP1 PUSH2 0x1796 JUMP JUMPDEST PUSH1 0x40 DUP1 MLOAD PUSH1 0x1F NOT DUP2 DUP5 SUB ADD DUP2 MSTORE SWAP1 DUP3 SWAP1 MSTORE PUSH2 0x833 SWAP2 PUSH2 0x1796 JUMP JUMPDEST PUSH1 0x20 PUSH1 0x40 MLOAD DUP1 DUP4 SUB DUP2 DUP6 GAS STATICCALL ISZERO DUP1 ISZERO PUSH2 0x850 JUMPI RETURNDATASIZE PUSH1 0x0 DUP1 RETURNDATACOPY RETURNDATASIZE PUSH1 0x0 REVERT JUMPDEST POP POP POP PUSH1 0x40 MLOAD RETURNDATASIZE PUSH1 0x1F NOT PUSH1 0x1F DUP3 ADD AND DUP3 ADD DUP1 PUSH1 0x40 MSTORE POP DUP2 ADD SWAP1 PUSH2 0x873 SWAP2 SWAP1 PUSH2 0x15D2 JUMP JUMPDEST SWAP1 POP PUSH1 0x0 PUSH2 0x880 DUP5 PUSH2 0x1109 JUMP JUMPDEST PUSH1 0x3 DUP2 GT ISZERO PUSH2 0x891 JUMPI PUSH2 0x891 PUSH2 0x1928 JUMP JUMPDEST SWAP1 POP PUSH1 0x0 DUP2 PUSH1 0x3 DUP2 GT ISZERO PUSH2 0x8A7 JUMPI PUSH2 0x8A7 PUSH2 0x1928 JUMP JUMPDEST EQ ISZERO PUSH2 0x8B7 JUMPI POP PUSH1 0x0 SWAP4 SWAP3 POP POP POP JUMP JUMPDEST DUP2 PUSH1 0x8 SLOAD EQ ISZERO PUSH2 0x8EA JUMPI PUSH1 0x9 DUP1 SLOAD DUP3 SWAP2 SWAP1 PUSH1 0xFF NOT AND PUSH1 0x1 DUP4 PUSH1 0x3 DUP2 GT ISZERO PUSH2 0x8E0 JUMPI PUSH2 0x8E0 PUSH2 0x1928 JUMP JUMPDEST MUL OR SWAP1 SSTORE POP PUSH2 0x8F4 JUMP JUMPDEST POP PUSH1 0x0 SWAP4 SWAP3 POP POP POP JUMP JUMPDEST PUSH1 0x9 SLOAD PUSH1 0x0 SWAP1 PUSH1 0xFF AND PUSH1 0x3 DUP2 GT ISZERO PUSH2 0x90E JUMPI PUSH2 0x90E PUSH2 0x1928 JUMP JUMPDEST PUSH1 0x9 SLOAD SWAP1 SWAP2 POP PUSH1 0x0 SWAP1 PUSH2 0x100 SWAP1 DIV PUSH1 0xFF AND PUSH1 0x3 DUP2 GT ISZERO PUSH2 0x930 JUMPI PUSH2 0x930 PUSH2 0x1928 JUMP JUMPDEST SWAP1 POP PUSH1 0x0 PUSH2 0x93E DUP4 DUP4 PUSH2 0x118C JUMP JUMPDEST PUSH1 0xFF AND PUSH1 0x3 DUP2 GT ISZERO PUSH2 0x952 JUMPI PUSH2 0x952 PUSH2 0x1928 JUMP JUMPDEST PUSH1 0x7 SLOAD PUSH1 0x5 SLOAD SWAP2 SWAP3 POP PUSH2 0x972 SWAP2 PUSH1 0x1 PUSH1 0x1 PUSH1 0xA0 SHL SUB SWAP1 SWAP2 AND SWAP1 DUP4 SWAP1 PUSH2 0x11FA JUMP JUMPDEST PUSH2 0x97A PUSH2 0xD69 JUMP JUMPDEST POP PUSH1 0x1 SWAP7 SWAP6 POP POP POP POP POP POP JUMP JUMPDEST PUSH1 0x1 SLOAD PUSH1 0x1 PUSH1 0x1 PUSH1 0xA0 SHL SUB AND CALLER EQ PUSH2 0x9DA JUMPI PUSH1 0x40 MLOAD PUSH3 0x461BCD PUSH1 0xE5 SHL DUP2 MSTORE PUSH1 0x20 PUSH1 0x4 DUP3 ADD MSTORE PUSH1 0x16 PUSH1 0x24 DUP3 ADD MSTORE PUSH22 0x26BAB9BA10313290383937B837B9B2B21037BBB732B9 PUSH1 0x51 SHL PUSH1 0x44 DUP3 ADD MSTORE PUSH1 0x64 ADD PUSH2 0x45E JUMP JUMPDEST PUSH1 0x0 DUP1 SLOAD CALLER PUSH1 0x1 PUSH1 0x1 PUSH1 0xA0 SHL SUB NOT DUP1 DUP4 AND DUP3 OR DUP5 SSTORE PUSH1 0x1 DUP1 SLOAD SWAP1 SWAP2 AND SWAP1 SSTORE PUSH1 0x40 MLOAD PUSH1 0x1 PUSH1 0x1 PUSH1 0xA0 SHL SUB SWAP1 SWAP3 AND SWAP3 SWAP1 SWAP2 DUP4 SWAP2 PUSH32 0x8BE0079C531659141344CD1FD0A4F28419497F9722A3DAAFE3B4186F6B6457E0 SWAP2 LOG3 POP JUMP JUMPDEST PUSH1 0xC DUP2 DUP2 SLOAD DUP2 LT PUSH2 0xA41 JUMPI PUSH1 0x0 DUP1 REVERT JUMPDEST PUSH1 0x0 SWAP2 DUP3 MSTORE PUSH1 0x20 SWAP1 SWAP2 KECCAK256 ADD SLOAD SWAP1 POP DUP2 JUMP JUMPDEST PUSH1 0x4 SLOAD PUSH1 0x1 PUSH1 0x1 PUSH1 0xA0 SHL SUB AND CALLER EQ PUSH2 0xA69 JUMPI PUSH1 0x0 DUP1 REVERT JUMPDEST PUSH2 0xA71 PUSH2 0xD95 JUMP JUMPDEST JUMP JUMPDEST PUSH1 0x0 DUP2 DUP2 MSTORE PUSH1 0xA PUSH1 0x20 MSTORE PUSH1 0x40 DUP2 KECCAK256 SLOAD PUSH1 0x60 SWAP1 PUSH2 0x100 SWAP1 DIV PUSH1 0xFF AND PUSH2 0xACD JUMPI PUSH1 0x40 MLOAD PUSH3 0x461BCD PUSH1 0xE5 SHL DUP2 MSTORE PUSH1 0x20 PUSH1 0x4 DUP3 ADD MSTORE PUSH1 0x11 PUSH1 0x24 DUP3 ADD MSTORE PUSH17 0x1C995C5D595CDD081B9BDD08199BDD5B99 PUSH1 0x7A SHL PUSH1 0x44 DUP3 ADD MSTORE PUSH1 0x64 ADD PUSH2 0x45E JUMP JUMPDEST PUSH1 0x0 DUP4 DUP2 MSTORE PUSH1 0xA PUSH1 0x20 SWAP1 DUP2 MSTORE PUSH1 0x40 DUP1 DUP4 KECCAK256 DUP2 MLOAD PUSH1 0x60 DUP2 ADD DUP4 MSTORE DUP2 SLOAD PUSH1 0xFF DUP1 DUP3 AND ISZERO ISZERO DUP4 MSTORE PUSH2 0x100 SWAP1 SWAP2 DIV AND ISZERO ISZERO DUP2 DUP6 ADD MSTORE PUSH1 0x1 DUP3 ADD DUP1 SLOAD DUP5 MLOAD DUP2 DUP8 MUL DUP2 ADD DUP8 ADD DUP7 MSTORE DUP2 DUP2 MSTORE SWAP3 SWAP6 SWAP4 SWAP5 DUP7 ADD SWAP4 DUP4 ADD DUP3 DUP3 DUP1 ISZERO PUSH2 0xB48 JUMPI PUSH1 0x20 MUL DUP3 ADD SWAP2 SWAP1 PUSH1 0x0 MSTORE PUSH1 0x20 PUSH1 0x0 KECCAK256 SWAP1 JUMPDEST DUP2 SLOAD DUP2 MSTORE PUSH1 0x20 ADD SWAP1 PUSH1 0x1 ADD SWAP1 DUP1 DUP4 GT PUSH2 0xB34 JUMPI JUMPDEST POP POP POP POP POP DUP2 MSTORE POP POP SWAP1 POP DUP1 PUSH1 0x0 ADD MLOAD DUP2 PUSH1 0x40 ADD MLOAD SWAP3 POP SWAP3 POP POP SWAP2 POP SWAP2 JUMP JUMPDEST PUSH1 0x0 PUSH2 0xB71 PUSH2 0x10B6 JUMP JUMPDEST PUSH1 0xB SLOAD PUSH1 0xE SLOAD PUSH1 0x40 MLOAD PUSH4 0x5D3B1D3 PUSH1 0xE4 SHL DUP2 MSTORE PUSH32 0x0 PUSH1 0x4 DUP3 ADD MSTORE PUSH1 0x1 PUSH1 0xA0 SHL DUP4 DIV PUSH8 0xFFFFFFFFFFFFFFFF AND PUSH1 0x24 DUP3 ADD MSTORE PUSH5 0x100000000 DUP3 DIV PUSH2 0xFFFF AND PUSH1 0x44 DUP3 ADD MSTORE PUSH4 0xFFFFFFFF DUP1 DUP4 AND PUSH1 0x64 DUP4 ADD MSTORE PUSH7 0x1000000000000 SWAP1 SWAP3 DIV SWAP1 SWAP2 AND PUSH1 0x84 DUP3 ADD MSTORE PUSH1 0x1 PUSH1 0x1 PUSH1 0xA0 SHL SUB SWAP1 SWAP2 AND SWAP1 PUSH4 0x5D3B1D30 SWAP1 PUSH1 0xA4 ADD PUSH1 0x20 PUSH1 0x40 MLOAD DUP1 DUP4 SUB DUP2 PUSH1 0x0 DUP8 DUP1 EXTCODESIZE ISZERO DUP1 ISZERO PUSH2 0xC20 JUMPI PUSH1 0x0 DUP1 REVERT JUMPDEST POP GAS CALL ISZERO DUP1 ISZERO PUSH2 0xC34 JUMPI RETURNDATASIZE PUSH1 0x0 DUP1 RETURNDATACOPY RETURNDATASIZE PUSH1 0x0 REVERT JUMPDEST POP POP POP POP PUSH1 0x40 MLOAD RETURNDATASIZE PUSH1 0x1F NOT PUSH1 0x1F DUP3 ADD AND DUP3 ADD DUP1 PUSH1 0x40 MSTORE POP DUP2 ADD SWAP1 PUSH2 0xC58 SWAP2 SWAP1 PUSH2 0x15D2 JUMP JUMPDEST PUSH1 0x40 DUP1 MLOAD PUSH1 0x60 DUP2 ADD DUP3 MSTORE PUSH1 0x0 DUP1 DUP3 MSTORE PUSH1 0x1 PUSH1 0x20 DUP1 DUP5 ADD DUP3 DUP2 MSTORE DUP6 MLOAD DUP5 DUP2 MSTORE DUP1 DUP4 ADD DUP8 MSTORE DUP6 DUP8 ADD SWAP1 DUP2 MSTORE DUP8 DUP6 MSTORE PUSH1 0xA DUP4 MSTORE SWAP6 SWAP1 SWAP4 KECCAK256 DUP5 MLOAD DUP2 SLOAD SWAP5 MLOAD PUSH2 0xFFFF NOT SWAP1 SWAP6 AND SWAP1 ISZERO ISZERO PUSH2 0xFF00 NOT AND OR PUSH2 0x100 SWAP5 ISZERO ISZERO SWAP5 SWAP1 SWAP5 MUL SWAP4 SWAP1 SWAP4 OR DUP4 SSTORE SWAP4 MLOAD DUP1 MLOAD SWAP6 SWAP7 POP SWAP3 SWAP5 SWAP2 SWAP4 PUSH2 0xCCD SWAP4 SWAP2 DUP6 ADD SWAP3 SWAP2 ADD SWAP1 PUSH2 0x1529 JUMP JUMPDEST POP POP PUSH1 0xC DUP1 SLOAD PUSH1 0x1 DUP2 ADD DUP3 SSTORE PUSH1 0x0 SWAP2 SWAP1 SWAP2 MSTORE PUSH32 0xDF6966C971051C3D54EC59162606531493A51404A002842F56009D7E5CF4A8C7 ADD DUP3 SWAP1 SSTORE POP PUSH1 0xD DUP2 SWAP1 SSTORE PUSH1 0xE SLOAD PUSH1 0x40 DUP1 MLOAD DUP4 DUP2 MSTORE PUSH7 0x1000000000000 SWAP1 SWAP3 DIV PUSH4 0xFFFFFFFF AND PUSH1 0x20 DUP4 ADD MSTORE PUSH32 0xCC58B13AD3EAB50626C6A6300B1D139CD6EBB1688A7CCED9461C2F7E762665EE SWAP2 ADD PUSH1 0x40 MLOAD DUP1 SWAP2 SUB SWAP1 LOG1 SWAP1 JUMP JUMPDEST PUSH2 0xD60 PUSH2 0x10B6 JUMP JUMPDEST PUSH2 0x623 DUP2 PUSH2 0x13E1 JUMP JUMPDEST PUSH1 0x0 PUSH1 0x5 DUP2 SWAP1 SSTORE PUSH1 0x6 DUP2 SWAP1 SSTORE PUSH1 0x7 DUP1 SLOAD PUSH1 0x1 PUSH1 0x1 PUSH1 0xA0 SHL SUB NOT AND SWAP1 SSTORE PUSH1 0x8 SSTORE PUSH1 0x9 DUP1 SLOAD PUSH2 0xFFFF NOT AND SWAP1 SSTORE JUMP JUMPDEST PUSH1 0x4 SLOAD PUSH1 0x1 PUSH1 0x1 PUSH1 0xA0 SHL SUB AND PUSH2 0xDA7 JUMPI JUMP JUMPDEST TIMESTAMP PUSH1 0x3 SLOAD GT ISZERO PUSH2 0xDB3 JUMPI JUMP JUMPDEST PUSH1 0x0 PUSH1 0x3 SSTORE PUSH1 0x4 DUP1 SLOAD PUSH1 0x1 PUSH1 0x1 PUSH1 0xA0 SHL SUB NOT DUP2 AND SWAP1 SWAP2 SSTORE PUSH1 0x2 SLOAD PUSH1 0x1 PUSH1 0x1 PUSH1 0xA0 SHL SUB SWAP1 SWAP2 AND SWAP1 PUSH2 0xDE0 JUMPI POP JUMP JUMPDEST PUSH1 0x2 DUP1 SLOAD PUSH1 0x0 SWAP2 DUP3 SWAP1 SSTORE PUSH1 0x40 MLOAD SWAP1 SWAP2 PUSH1 0x1 PUSH1 0x1 PUSH1 0xA0 SHL SUB DUP5 AND SWAP2 DUP4 ISZERO PUSH2 0x8FC MUL SWAP2 DUP5 SWAP2 SWAP1 DUP2 DUP2 DUP2 DUP6 DUP9 DUP9 CALL SWAP4 POP POP POP POP ISZERO DUP1 ISZERO PUSH2 0xE21 JUMPI RETURNDATASIZE PUSH1 0x0 DUP1 RETURNDATACOPY RETURNDATASIZE PUSH1 0x0 REVERT JUMPDEST POP DUP2 PUSH1 0x1 PUSH1 0x1 PUSH1 0xA0 SHL SUB AND PUSH32 0x28A45BAA754D821EB63CFB5C69D4E4394742C59FEE22DAB38CD5C02FB2AF8921 DUP3 PUSH1 0x40 MLOAD PUSH2 0xE5D SWAP2 DUP2 MSTORE PUSH1 0x20 ADD SWAP1 JUMP JUMPDEST PUSH1 0x40 MLOAD DUP1 SWAP2 SUB SWAP1 LOG2 POP POP JUMP JUMPDEST PUSH1 0x4 SLOAD PUSH1 0x1 PUSH1 0x1 PUSH1 0xA0 SHL SUB AND PUSH2 0xEDF JUMPI PUSH1 0x4 DUP1 SLOAD PUSH1 0x1 PUSH1 0x1 PUSH1 0xA0 SHL SUB NOT AND CALLER OR SWAP1 SSTORE PUSH2 0xE97 TIMESTAMP PUSH2 0xE10 PUSH2 0x1856 JUMP JUMPDEST PUSH1 0x3 DUP2 SWAP1 SSTORE PUSH1 0x4 SLOAD PUSH1 0x40 MLOAD SWAP2 DUP3 MSTORE PUSH1 0x1 PUSH1 0x1 PUSH1 0xA0 SHL SUB AND SWAP1 PUSH32 0xDFE6AFD72CCC12E327008DFE046A3AF52D0D4BAD81ED2BA3ECD1057345BC7CD1 SWAP1 PUSH1 0x20 ADD JUMPDEST PUSH1 0x40 MLOAD DUP1 SWAP2 SUB SWAP1 LOG2 JUMP JUMPDEST PUSH1 0xA PUSH1 0x2 SLOAD PUSH2 0xEEE SWAP2 SWAP1 PUSH2 0x186E JUMP JUMPDEST CALLVALUE LT ISZERO PUSH2 0xEF7 JUMPI JUMP JUMPDEST PUSH1 0x3 SLOAD PUSH2 0xF06 SWAP1 PUSH2 0xE10 PUSH2 0x1856 JUMP JUMPDEST PUSH1 0x3 DUP2 SWAP1 SSTORE PUSH1 0x4 DUP1 SLOAD PUSH1 0x1 PUSH1 0x1 PUSH1 0xA0 SHL SUB NOT AND CALLER SWAP1 DUP2 OR SWAP1 SWAP2 SSTORE PUSH1 0x40 MLOAD SWAP2 DUP3 MSTORE SWAP1 PUSH32 0x9D2782B57A253B4896F013DE4390A302719B44805CC8978AEA12E8EA976AE343 SWAP1 PUSH1 0x20 ADD PUSH2 0xED5 JUMP JUMPDEST PUSH2 0xF59 PUSH2 0x148B JUMP JUMPDEST PUSH1 0x9 DUP1 SLOAD PUSH2 0xFF00 NOT AND PUSH2 0x100 DUP4 PUSH1 0x3 DUP2 GT ISZERO PUSH2 0xF77 JUMPI PUSH2 0xF77 PUSH2 0x1928 JUMP JUMPDEST MUL OR SWAP1 SSTORE POP PUSH32 0x50847CE5B6A91BE6FB0A54F67C828EE9982F5E7B413CF5169C8352E7A0B0E070 PUSH1 0x9 PUSH1 0x1 SWAP1 SLOAD SWAP1 PUSH2 0x100 EXP SWAP1 DIV PUSH1 0xFF AND PUSH1 0x40 MLOAD PUSH2 0xFBA SWAP2 SWAP1 PUSH2 0x17D5 JUMP JUMPDEST PUSH1 0x40 MLOAD DUP1 SWAP2 SUB SWAP1 LOG1 PUSH1 0x6 SLOAD PUSH2 0xA71 JUMPI TIMESTAMP PUSH1 0x6 SSTORE JUMP JUMPDEST PUSH1 0x0 DUP3 DUP2 MSTORE PUSH1 0xA PUSH1 0x20 MSTORE PUSH1 0x40 SWAP1 KECCAK256 SLOAD PUSH2 0x100 SWAP1 DIV PUSH1 0xFF AND PUSH2 0x1026 JUMPI PUSH1 0x40 MLOAD PUSH3 0x461BCD PUSH1 0xE5 SHL DUP2 MSTORE PUSH1 0x20 PUSH1 0x4 DUP3 ADD MSTORE PUSH1 0x11 PUSH1 0x24 DUP3 ADD MSTORE PUSH17 0x1C995C5D595CDD081B9BDD08199BDD5B99 PUSH1 0x7A SHL PUSH1 0x44 DUP3 ADD MSTORE PUSH1 0x64 ADD PUSH2 0x45E JUMP JUMPDEST PUSH1 0x0 DUP3 DUP2 MSTORE PUSH1 0xA PUSH1 0x20 SWAP1 DUP2 MSTORE PUSH1 0x40 SWAP1 SWAP2 KECCAK256 DUP1 SLOAD PUSH1 0xFF NOT AND PUSH1 0x1 SWAP1 DUP2 OR DUP3 SSTORE DUP4 MLOAD PUSH2 0x1057 SWAP4 SWAP3 SWAP1 SWAP2 ADD SWAP2 DUP5 ADD SWAP1 PUSH2 0x1529 JUMP JUMPDEST POP DUP1 PUSH1 0x0 DUP2 MLOAD DUP2 LT PUSH2 0x106B JUMPI PUSH2 0x106B PUSH2 0x193E JUMP JUMPDEST PUSH1 0x20 MUL PUSH1 0x20 ADD ADD MLOAD PUSH1 0xF DUP2 SWAP1 SSTORE POP PUSH32 0xFE2E2D779DBA245964D4E3EF9B994BE63856FD568BF7D3CA9E224755CB1BD54D DUP3 DUP3 PUSH1 0x40 MLOAD PUSH2 0x10AA SWAP3 SWAP2 SWAP1 PUSH2 0x180C JUMP JUMPDEST PUSH1 0x40 MLOAD DUP1 SWAP2 SUB SWAP1 LOG1 POP POP JUMP JUMPDEST PUSH1 0x0 SLOAD PUSH1 0x1 PUSH1 0x1 PUSH1 0xA0 SHL SUB AND CALLER EQ PUSH2 0xA71 JUMPI PUSH1 0x40 MLOAD PUSH3 0x461BCD PUSH1 0xE5 SHL DUP2 MSTORE PUSH1 0x20 PUSH1 0x4 DUP3 ADD MSTORE PUSH1 0x16 PUSH1 0x24 DUP3 ADD MSTORE PUSH22 0x27B7363C9031B0B63630B1363290313C9037BBB732B9 PUSH1 0x51 SHL PUSH1 0x44 DUP3 ADD MSTORE PUSH1 0x64 ADD PUSH2 0x45E JUMP JUMPDEST PUSH1 0x0 DUP1 DUP3 PUSH1 0x0 DUP2 MLOAD DUP2 LT PUSH2 0x111F JUMPI PUSH2 0x111F PUSH2 0x193E JUMP JUMPDEST ADD PUSH1 0x20 ADD MLOAD PUSH1 0x1 PUSH1 0x1 PUSH1 0xF8 SHL SUB NOT AND SWAP1 POP PUSH1 0x31 PUSH1 0xF8 SHL DUP2 EQ ISZERO PUSH2 0x1145 JUMPI POP PUSH1 0x1 SWAP3 SWAP2 POP POP JUMP JUMPDEST PUSH1 0x19 PUSH1 0xF9 SHL PUSH1 0x1 PUSH1 0x1 PUSH1 0xF8 SHL SUB NOT DUP3 AND EQ ISZERO PUSH2 0x1164 JUMPI POP PUSH1 0x2 SWAP3 SWAP2 POP POP JUMP JUMPDEST PUSH1 0x33 PUSH1 0xF8 SHL PUSH1 0x1 PUSH1 0x1 PUSH1 0xF8 SHL SUB NOT DUP3 AND EQ ISZERO PUSH2 0x1183 JUMPI POP PUSH1 0x3 SWAP3 SWAP2 POP POP JUMP JUMPDEST POP PUSH1 0x0 SWAP3 SWAP2 POP POP JUMP JUMPDEST PUSH1 0x0 DUP2 DUP4 EQ ISZERO PUSH2 0x119E JUMPI POP PUSH1 0x3 PUSH2 0x11F4 JUMP JUMPDEST DUP2 DUP4 GT ISZERO PUSH2 0x11CB JUMPI DUP2 PUSH1 0x1 EQ DUP1 ISZERO PUSH2 0x11B6 JUMPI POP DUP3 PUSH1 0x3 EQ JUMPDEST ISZERO PUSH2 0x11C3 JUMPI POP PUSH1 0x2 PUSH2 0x11F4 JUMP JUMPDEST POP PUSH1 0x1 PUSH2 0x11F4 JUMP JUMPDEST DUP3 DUP3 GT ISZERO PUSH2 0x1183 JUMPI DUP3 PUSH1 0x1 EQ DUP1 ISZERO PUSH2 0x11E3 JUMPI POP DUP2 PUSH1 0x3 EQ JUMPDEST ISZERO PUSH2 0x11F0 JUMPI POP PUSH1 0x1 PUSH2 0x11F4 JUMP JUMPDEST POP PUSH1 0x2 JUMPDEST SWAP3 SWAP2 POP POP JUMP JUMPDEST PUSH1 0x1 DUP3 PUSH1 0x3 DUP2 GT ISZERO PUSH2 0x120E JUMPI PUSH2 0x120E PUSH2 0x1928 JUMP JUMPDEST EQ ISZERO PUSH2 0x12E5 JUMPI PUSH1 0x0 PUSH2 0x1221 DUP3 PUSH1 0x2 PUSH2 0x1882 JUMP JUMPDEST SWAP1 POP PUSH1 0x0 PUSH1 0x64 PUSH2 0x1232 DUP4 PUSH1 0x5 PUSH2 0x1882 JUMP JUMPDEST PUSH2 0x123C SWAP2 SWAP1 PUSH2 0x186E JUMP JUMPDEST SWAP1 POP PUSH2 0x1247 DUP2 PUSH2 0x14C5 JUMP JUMPDEST PUSH1 0x1 PUSH1 0x1 PUSH1 0xA0 SHL SUB DUP6 AND PUSH2 0x8FC PUSH2 0x125E DUP4 DUP6 PUSH2 0x18A1 JUMP JUMPDEST PUSH1 0x40 MLOAD DUP2 ISZERO SWAP1 SWAP3 MUL SWAP2 PUSH1 0x0 DUP2 DUP2 DUP2 DUP6 DUP9 DUP9 CALL SWAP4 POP POP POP POP ISZERO DUP1 ISZERO PUSH2 0x1286 JUMPI RETURNDATASIZE PUSH1 0x0 DUP1 RETURNDATACOPY RETURNDATASIZE PUSH1 0x0 REVERT JUMPDEST POP PUSH1 0x7 SLOAD PUSH1 0x9 SLOAD PUSH1 0x40 MLOAD PUSH1 0x1 PUSH1 0x1 PUSH1 0xA0 SHL SUB SWAP1 SWAP3 AND SWAP2 PUSH32 0x2069C251D5AACD1CEDFC522A09530AA3A904C4EBBA85D66EE32970AE48B21DDC SWAP2 PUSH2 0x12D6 SWAP2 PUSH1 0xFF DUP1 DUP4 AND SWAP3 PUSH2 0x100 SWAP1 DIV AND SWAP1 DUP9 SWAP1 PUSH2 0x17E3 JUMP JUMPDEST PUSH1 0x40 MLOAD DUP1 SWAP2 SUB SWAP1 LOG2 POP POP POP POP POP JUMP JUMPDEST PUSH1 0x3 DUP3 PUSH1 0x3 DUP2 GT ISZERO PUSH2 0x12F9 JUMPI PUSH2 0x12F9 PUSH2 0x1928 JUMP JUMPDEST EQ ISZERO PUSH2 0x1392 JUMPI PUSH1 0x40 MLOAD PUSH1 0x1 PUSH1 0x1 PUSH1 0xA0 SHL SUB DUP5 AND SWAP1 DUP3 ISZERO PUSH2 0x8FC MUL SWAP1 DUP4 SWAP1 PUSH1 0x0 DUP2 DUP2 DUP2 DUP6 DUP9 DUP9 CALL SWAP4 POP POP POP POP ISZERO DUP1 ISZERO PUSH2 0x1335 JUMPI RETURNDATASIZE PUSH1 0x0 DUP1 RETURNDATACOPY RETURNDATASIZE PUSH1 0x0 REVERT JUMPDEST POP PUSH1 0x7 SLOAD PUSH1 0x9 SLOAD PUSH1 0x40 MLOAD PUSH1 0x1 PUSH1 0x1 PUSH1 0xA0 SHL SUB SWAP1 SWAP3 AND SWAP2 PUSH32 0x3F9F81BAA21DBABD3A70AA2D5A1D157A5731197A2816E9BE79228AAF56541D43 SWAP2 PUSH2 0x1385 SWAP2 PUSH1 0xFF DUP1 DUP4 AND SWAP3 PUSH2 0x100 SWAP1 DIV AND SWAP1 DUP7 SWAP1 PUSH2 0x17E3 JUMP JUMPDEST PUSH1 0x40 MLOAD DUP1 SWAP2 SUB SWAP1 LOG2 POP POP POP JUMP JUMPDEST PUSH1 0x7 SLOAD PUSH1 0x9 SLOAD PUSH1 0x40 MLOAD PUSH1 0x1 PUSH1 0x1 PUSH1 0xA0 SHL SUB SWAP1 SWAP3 AND SWAP2 PUSH32 0x4E975787EA7DC6679A1751654C0D39BB1F0B641921163FA3F4694D74B167CAEA SWAP2 PUSH2 0x1385 SWAP2 PUSH1 0xFF DUP1 DUP4 AND SWAP3 PUSH2 0x100 SWAP1 DIV AND SWAP1 DUP7 SWAP1 PUSH2 0x17E3 JUMP JUMPDEST PUSH1 0x1 PUSH1 0x1 PUSH1 0xA0 SHL SUB DUP2 AND CALLER EQ ISZERO PUSH2 0x143A JUMPI PUSH1 0x40 MLOAD PUSH3 0x461BCD PUSH1 0xE5 SHL DUP2 MSTORE PUSH1 0x20 PUSH1 0x4 DUP3 ADD MSTORE PUSH1 0x17 PUSH1 0x24 DUP3 ADD MSTORE PUSH32 0x43616E6E6F74207472616E7366657220746F2073656C66000000000000000000 PUSH1 0x44 DUP3 ADD MSTORE PUSH1 0x64 ADD PUSH2 0x45E JUMP JUMPDEST PUSH1 0x1 DUP1 SLOAD PUSH1 0x1 PUSH1 0x1 PUSH1 0xA0 SHL SUB NOT AND PUSH1 0x1 PUSH1 0x1 PUSH1 0xA0 SHL SUB DUP4 DUP2 AND SWAP2 DUP3 OR SWAP1 SWAP3 SSTORE PUSH1 0x0 DUP1 SLOAD PUSH1 0x40 MLOAD SWAP3 SWAP4 AND SWAP2 PUSH32 0xED8889F560326EB138920D842192F0EB3DD22B4F139C87A2C57538E05BAE1278 SWAP2 SWAP1 LOG3 POP JUMP JUMPDEST PUSH1 0x0 PUSH1 0x3 PUSH2 0x1497 PUSH2 0x1514 JUMP JUMPDEST PUSH2 0x14A1 SWAP2 SWAP1 PUSH2 0x18E8 JUMP JUMPDEST PUSH2 0x14AC SWAP1 PUSH1 0x1 PUSH2 0x1856 JUMP JUMPDEST PUSH1 0xFF AND PUSH1 0x3 DUP2 GT ISZERO PUSH2 0x14C0 JUMPI PUSH2 0x14C0 PUSH2 0x1928 JUMP JUMPDEST SWAP1 POP SWAP1 JUMP JUMPDEST DUP1 PUSH1 0x2 PUSH1 0x0 DUP3 DUP3 SLOAD PUSH2 0x14D7 SWAP2 SWAP1 PUSH2 0x1856 JUMP JUMPDEST SWAP1 SWAP2 SSTORE POP POP PUSH1 0x40 MLOAD DUP2 DUP2 MSTORE CALLER SWAP1 PUSH32 0x3BED7B1032D6FACDB3ED736C642F18AFFA147A86C1E01F68180F740E08B98073 SWAP1 PUSH1 0x20 ADD PUSH1 0x40 MLOAD DUP1 SWAP2 SUB SWAP1 LOG2 POP JUMP JUMPDEST PUSH1 0x0 DUP1 PUSH2 0x151F PUSH2 0xB67 JUMP JUMPDEST POP POP PUSH1 0xF SLOAD SWAP2 SWAP1 POP JUMP JUMPDEST DUP3 DUP1 SLOAD DUP3 DUP3 SSTORE SWAP1 PUSH1 0x0 MSTORE PUSH1 0x20 PUSH1 0x0 KECCAK256 SWAP1 DUP2 ADD SWAP3 DUP3 ISZERO PUSH2 0x1564 JUMPI SWAP2 PUSH1 0x20 MUL DUP3 ADD JUMPDEST DUP3 DUP2 GT ISZERO PUSH2 0x1564 JUMPI DUP3 MLOAD DUP3 SSTORE SWAP2 PUSH1 0x20 ADD SWAP2 SWAP1 PUSH1 0x1 ADD SWAP1 PUSH2 0x1549 JUMP JUMPDEST POP PUSH2 0x1570 SWAP3 SWAP2 POP PUSH2 0x1574 JUMP JUMPDEST POP SWAP1 JUMP JUMPDEST JUMPDEST DUP1 DUP3 GT ISZERO PUSH2 0x1570 JUMPI PUSH1 0x0 DUP2 SSTORE PUSH1 0x1 ADD PUSH2 0x1575 JUMP JUMPDEST PUSH1 0x0 PUSH1 0x20 DUP3 DUP5 SUB SLT ISZERO PUSH2 0x159B JUMPI PUSH1 0x0 DUP1 REVERT JUMPDEST DUP2 CALLDATALOAD PUSH1 0x1 PUSH1 0x1 PUSH1 0xA0 SHL SUB DUP2 AND DUP2 EQ PUSH2 0x15B2 JUMPI PUSH1 0x0 DUP1 REVERT JUMPDEST SWAP4 SWAP3 POP POP POP JUMP JUMPDEST PUSH1 0x0 PUSH1 0x20 DUP3 DUP5 SUB SLT ISZERO PUSH2 0x15CB JUMPI PUSH1 0x0 DUP1 REVERT JUMPDEST POP CALLDATALOAD SWAP2 SWAP1 POP JUMP JUMPDEST PUSH1 0x0 PUSH1 0x20 DUP3 DUP5 SUB SLT ISZERO PUSH2 0x15E4 JUMPI PUSH1 0x0 DUP1 REVERT JUMPDEST POP MLOAD SWAP2 SWAP1 POP JUMP JUMPDEST PUSH1 0x0 PUSH1 0x20 DUP1 DUP4 DUP6 SUB SLT ISZERO PUSH2 0x15FE JUMPI PUSH1 0x0 DUP1 REVERT JUMPDEST DUP3 CALLDATALOAD PUSH8 0xFFFFFFFFFFFFFFFF DUP1 DUP3 GT ISZERO PUSH2 0x1616 JUMPI PUSH1 0x0 DUP1 REVERT JUMPDEST DUP2 DUP6 ADD SWAP2 POP DUP6 PUSH1 0x1F DUP4 ADD SLT PUSH2 0x162A JUMPI PUSH1 0x0 DUP1 REVERT JUMPDEST DUP2 CALLDATALOAD DUP2 DUP2 GT ISZERO PUSH2 0x163C JUMPI PUSH2 0x163C PUSH2 0x1954 JUMP JUMPDEST PUSH2 0x164E PUSH1 0x1F DUP3 ADD PUSH1 0x1F NOT AND DUP6 ADD PUSH2 0x1825 JUMP JUMPDEST SWAP2 POP DUP1 DUP3 MSTORE DUP7 DUP5 DUP3 DUP6 ADD ADD GT ISZERO PUSH2 0x1664 JUMPI PUSH1 0x0 DUP1 REVERT JUMPDEST DUP1 DUP5 DUP5 ADD DUP6 DUP5 ADD CALLDATACOPY PUSH1 0x0 SWAP1 DUP3 ADD SWAP1 SWAP4 ADD SWAP3 SWAP1 SWAP3 MSTORE POP SWAP4 SWAP3 POP POP POP JUMP JUMPDEST PUSH1 0x0 DUP1 PUSH1 0x40 DUP4 DUP6 SUB SLT ISZERO PUSH2 0x1693 JUMPI PUSH1 0x0 DUP1 REVERT JUMPDEST DUP3 CALLDATALOAD SWAP2 POP PUSH1 0x20 DUP1 DUP5 ADD CALLDATALOAD PUSH8 0xFFFFFFFFFFFFFFFF DUP1 DUP3 GT ISZERO PUSH2 0x16B3 JUMPI PUSH1 0x0 DUP1 REVERT JUMPDEST DUP2 DUP7 ADD SWAP2 POP DUP7 PUSH1 0x1F DUP4 ADD SLT PUSH2 0x16C7 JUMPI PUSH1 0x0 DUP1 REVERT JUMPDEST DUP2 CALLDATALOAD DUP2 DUP2 GT ISZERO PUSH2 0x16D9 JUMPI PUSH2 0x16D9 PUSH2 0x1954 JUMP JUMPDEST DUP1 PUSH1 0x5 SHL SWAP2 POP PUSH2 0x16EA DUP5 DUP4 ADD PUSH2 0x1825 JUMP JUMPDEST DUP2 DUP2 MSTORE DUP5 DUP2 ADD SWAP1 DUP5 DUP7 ADD DUP5 DUP7 ADD DUP8 ADD DUP12 LT ISZERO PUSH2 0x1705 JUMPI PUSH1 0x0 DUP1 REVERT JUMPDEST PUSH1 0x0 SWAP6 POP JUMPDEST DUP4 DUP7 LT ISZERO PUSH2 0x1728 JUMPI DUP1 CALLDATALOAD DUP4 MSTORE PUSH1 0x1 SWAP6 SWAP1 SWAP6 ADD SWAP5 SWAP2 DUP7 ADD SWAP2 DUP7 ADD PUSH2 0x170A JUMP JUMPDEST POP DUP1 SWAP7 POP POP POP POP POP POP POP SWAP3 POP SWAP3 SWAP1 POP JUMP JUMPDEST PUSH1 0x0 DUP2 MLOAD DUP1 DUP5 MSTORE PUSH1 0x20 DUP1 DUP6 ADD SWAP5 POP DUP1 DUP5 ADD PUSH1 0x0 JUMPDEST DUP4 DUP2 LT ISZERO PUSH2 0x1769 JUMPI DUP2 MLOAD DUP8 MSTORE SWAP6 DUP3 ADD SWAP6 SWAP1 DUP3 ADD SWAP1 PUSH1 0x1 ADD PUSH2 0x174D JUMP JUMPDEST POP SWAP5 SWAP6 SWAP5 POP POP POP POP POP JUMP JUMPDEST PUSH1 0x4 DUP2 LT PUSH2 0x1792 JUMPI PUSH4 0x4E487B71 PUSH1 0xE0 SHL PUSH1 0x0 MSTORE PUSH1 0x21 PUSH1 0x4 MSTORE PUSH1 0x24 PUSH1 0x0 REVERT JUMPDEST SWAP1 MSTORE JUMP JUMPDEST PUSH1 0x0 DUP3 MLOAD PUSH2 0x17A8 DUP2 DUP5 PUSH1 0x20 DUP8 ADD PUSH2 0x18B8 JUMP JUMPDEST SWAP2 SWAP1 SWAP2 ADD SWAP3 SWAP2 POP POP JUMP JUMPDEST DUP3 ISZERO ISZERO DUP2 MSTORE PUSH1 0x40 PUSH1 0x20 DUP3 ADD MSTORE PUSH1 0x0 PUSH2 0x17CD PUSH1 0x40 DUP4 ADD DUP5 PUSH2 0x1739 JUMP JUMPDEST SWAP5 SWAP4 POP POP POP POP JUMP JUMPDEST PUSH1 0x20 DUP2 ADD PUSH2 0x11F4 DUP3 DUP5 PUSH2 0x1774 JUMP JUMPDEST PUSH1 0x60 DUP2 ADD PUSH2 0x17F1 DUP3 DUP7 PUSH2 0x1774 JUMP JUMPDEST PUSH2 0x17FE PUSH1 0x20 DUP4 ADD DUP6 PUSH2 0x1774 JUMP JUMPDEST DUP3 PUSH1 0x40 DUP4 ADD MSTORE SWAP5 SWAP4 POP POP POP POP JUMP JUMPDEST DUP3 DUP2 MSTORE PUSH1 0x40 PUSH1 0x20 DUP3 ADD MSTORE PUSH1 0x0 PUSH2 0x17CD PUSH1 0x40 DUP4 ADD DUP5 PUSH2 0x1739 JUMP JUMPDEST PUSH1 0x40 MLOAD PUSH1 0x1F DUP3 ADD PUSH1 0x1F NOT AND DUP2 ADD PUSH8 0xFFFFFFFFFFFFFFFF DUP2 GT DUP3 DUP3 LT OR ISZERO PUSH2 0x184E JUMPI PUSH2 0x184E PUSH2 0x1954 JUMP JUMPDEST PUSH1 0x40 MSTORE SWAP2 SWAP1 POP JUMP JUMPDEST PUSH1 0x0 DUP3 NOT DUP3 GT ISZERO PUSH2 0x1869 JUMPI PUSH2 0x1869 PUSH2 0x18FC JUMP JUMPDEST POP ADD SWAP1 JUMP JUMPDEST PUSH1 0x0 DUP3 PUSH2 0x187D JUMPI PUSH2 0x187D PUSH2 0x1912 JUMP JUMPDEST POP DIV SWAP1 JUMP JUMPDEST PUSH1 0x0 DUP2 PUSH1 0x0 NOT DIV DUP4 GT DUP3 ISZERO ISZERO AND ISZERO PUSH2 0x189C JUMPI PUSH2 0x189C PUSH2 0x18FC JUMP JUMPDEST POP MUL SWAP1 JUMP JUMPDEST PUSH1 0x0 DUP3 DUP3 LT ISZERO PUSH2 0x18B3 JUMPI PUSH2 0x18B3 PUSH2 0x18FC JUMP JUMPDEST POP SUB SWAP1 JUMP JUMPDEST PUSH1 0x0 JUMPDEST DUP4 DUP2 LT ISZERO PUSH2 0x18D3 JUMPI DUP2 DUP2 ADD MLOAD DUP4 DUP3 ADD MSTORE PUSH1 0x20 ADD PUSH2 0x18BB JUMP JUMPDEST DUP4 DUP2 GT ISZERO PUSH2 0x18E2 JUMPI PUSH1 0x0 DUP5 DUP5 ADD MSTORE JUMPDEST POP POP POP POP JUMP JUMPDEST PUSH1 0x0 DUP3 PUSH2 0x18F7 JUMPI PUSH2 0x18F7 PUSH2 0x1912 JUMP JUMPDEST POP MOD SWAP1 JUMP JUMPDEST PUSH4 0x4E487B71 PUSH1 0xE0 SHL PUSH1 0x0 MSTORE PUSH1 0x11 PUSH1 0x4 MSTORE PUSH1 0x24 PUSH1 0x0 REVERT JUMPDEST PUSH4 0x4E487B71 PUSH1 0xE0 SHL PUSH1 0x0 MSTORE PUSH1 0x12 PUSH1 0x4 MSTORE PUSH1 0x24 PUSH1 0x0 REVERT JUMPDEST PUSH4 0x4E487B71 PUSH1 0xE0 SHL PUSH1 0x0 MSTORE PUSH1 0x21 PUSH1 0x4 MSTORE PUSH1 0x24 PUSH1 0x0 REVERT JUMPDEST PUSH4 0x4E487B71 PUSH1 0xE0 SHL PUSH1 0x0 MSTORE PUSH1 0x32 PUSH1 0x4 MSTORE PUSH1 0x24 PUSH1 0x0 REVERT JUMPDEST PUSH4 0x4E487B71 PUSH1 0xE0 SHL PUSH1 0x0 MSTORE PUSH1 0x41 PUSH1 0x4 MSTORE PUSH1 0x24 PUSH1 0x0 REVERT INVALID LOG2 PUSH5 0x6970667358 0x22 SLT KECCAK256 0x1F 0x25 0xC1 MLOAD SAR SWAP14 CALLDATASIZE 0xA9 0x21 SWAP2 PUSH29 0xA1E414581A18D131B33C731C440BCD63213DAA04CF64736F6C63430008 SMOD STOP CALLER "},"methodIdentifiers":{"MIN_BET()":"6540742f","REVEAL_TIMEOUT()":"3d6ae3a7","acceptOwnership()":"79ba5097","bet()":"11610c25","fomoEndTime()":"41089bdf","fomoPool()":"b33d5259","fomoWinner()":"8890d757","getRequestStatus(uint256)":"d8a4676f","lastRequestId()":"fc2a88c3","moveHost()":"872175e5","owner()":"8da5cb5b","playBet(bytes32)":"12e505c9","processFomo()":"9063def5","randomWordsNum()":"9a8ff87c","rawFulfillRandomWords(uint256,uint256[])":"1fe543e3","requestIds(uint256)":"8796ba8c","requestRandomWords()":"e0c86289","reveal(string)":"4c261247","s_requests(uint256)":"a168fa89","transferOwnership(address)":"f2fde38b","withdraw(uint256)":"2e1a7d4d"}}}}}