{
  "_format": "hh-sol-artifact-1",
  "contractName": "Rps2",
  "sourceName": "contracts/Rps2.sol",
  "abi": [
    {
      "inputs": [
        {
          "internalType": "uint64",
          "name": "subscriptionId",
          "type": "uint64"
        },
        {
          "internalType": "address",
          "name": "_coordomator",
          "type": "address"
        },
        {
          "internalType": "bytes32",
          "name": "_keyHash",
          "type": "bytes32"
        }
      ],
      "stateMutability": "payable",
      "type": "constructor"
    },
    {
      "inputs": [
        {
          "internalType": "address",
          "name": "have",
          "type": "address"
        },
        {
          "internalType": "address",
          "name": "want",
          "type": "address"
        }
      ],
      "name": "OnlyCoordinatorCanFulfill",
      "type": "error"
    },
    {
      "anonymous": false,
      "inputs": [
        {
          "indexed": true,
          "internalType": "address",
          "name": "player",
          "type": "address"
        },
        {
          "indexed": false,
          "internalType": "enum Rps2.Moves",
          "name": "playerMove",
          "type": "uint8"
        },
        {
          "indexed": false,
          "internalType": "enum Rps2.Moves",
          "name": "hostMove",
          "type": "uint8"
        },
        {
          "indexed": false,
          "internalType": "uint256",
          "name": "bet",
          "type": "uint256"
        }
      ],
      "name": "Draw",
      "type": "event"
    },
    {
      "anonymous": false,
      "inputs": [
        {
          "indexed": true,
          "internalType": "address",
          "name": "winner",
          "type": "address"
        },
        {
          "indexed": false,
          "internalType": "uint256",
          "name": "amount",
          "type": "uint256"
        }
      ],
      "name": "FomoPayment",
      "type": "event"
    },
    {
      "anonymous": false,
      "inputs": [
        {
          "indexed": true,
          "internalType": "address",
          "name": "winner",
          "type": "address"
        },
        {
          "indexed": false,
          "internalType": "uint256",
          "name": "endTime",
          "type": "uint256"
        }
      ],
      "name": "FomoTimerIncrease",
      "type": "event"
    },
    {
      "anonymous": false,
      "inputs": [
        {
          "indexed": true,
          "internalType": "address",
          "name": "winner",
          "type": "address"
        },
        {
          "indexed": false,
          "internalType": "uint256",
          "name": "endTime",
          "type": "uint256"
        }
      ],
      "name": "FomoTimerStart",
      "type": "event"
    },
    {
      "anonymous": false,
      "inputs": [
        {
          "indexed": true,
          "internalType": "address",
          "name": "player",
          "type": "address"
        },
        {
          "indexed": false,
          "internalType": "enum Rps2.Moves",
          "name": "playerMove",
          "type": "uint8"
        },
        {
          "indexed": false,
          "internalType": "enum Rps2.Moves",
          "name": "hostMove",
          "type": "uint8"
        },
        {
          "indexed": false,
          "internalType": "uint256",
          "name": "bet",
          "type": "uint256"
        }
      ],
      "name": "Lost",
      "type": "event"
    },
    {
      "anonymous": false,
      "inputs": [
        {
          "indexed": true,
          "internalType": "address",
          "name": "sender",
          "type": "address"
        },
        {
          "indexed": false,
          "internalType": "uint256",
          "name": "amount",
          "type": "uint256"
        }
      ],
      "name": "NewFomoDeposit",
      "type": "event"
    },
    {
      "anonymous": false,
      "inputs": [
        {
          "indexed": true,
          "internalType": "address",
          "name": "from",
          "type": "address"
        },
        {
          "indexed": true,
          "internalType": "address",
          "name": "to",
          "type": "address"
        }
      ],
      "name": "OwnershipTransferRequested",
      "type": "event"
    },
    {
      "anonymous": false,
      "inputs": [
        {
          "indexed": true,
          "internalType": "address",
          "name": "from",
          "type": "address"
        },
        {
          "indexed": true,
          "internalType": "address",
          "name": "to",
          "type": "address"
        }
      ],
      "name": "OwnershipTransferred",
      "type": "event"
    },
    {
      "anonymous": false,
      "inputs": [
        {
          "indexed": false,
          "internalType": "uint256",
          "name": "requestId",
          "type": "uint256"
        },
        {
          "indexed": false,
          "internalType": "uint256[]",
          "name": "randomWords",
          "type": "uint256[]"
        }
      ],
      "name": "RequestFulfilled",
      "type": "event"
    },
    {
      "anonymous": false,
      "inputs": [
        {
          "indexed": false,
          "internalType": "uint256",
          "name": "requestId",
          "type": "uint256"
        },
        {
          "indexed": false,
          "internalType": "uint32",
          "name": "numWords",
          "type": "uint32"
        }
      ],
      "name": "RequestSent",
      "type": "event"
    },
    {
      "anonymous": false,
      "inputs": [
        {
          "indexed": true,
          "internalType": "address",
          "name": "player",
          "type": "address"
        },
        {
          "indexed": false,
          "internalType": "enum Rps2.Moves",
          "name": "playerMove",
          "type": "uint8"
        },
        {
          "indexed": false,
          "internalType": "enum Rps2.Moves",
          "name": "hostMove",
          "type": "uint8"
        },
        {
          "indexed": false,
          "internalType": "uint256",
          "name": "bet",
          "type": "uint256"
        }
      ],
      "name": "Won",
      "type": "event"
    },
    {
      "anonymous": false,
      "inputs": [
        {
          "indexed": false,
          "internalType": "enum Rps2.Moves",
          "name": "hostMove",
          "type": "uint8"
        }
      ],
      "name": "hostCommitedMove",
      "type": "event"
    },
    {
      "inputs": [],
      "name": "MIN_BET",
      "outputs": [
        {
          "internalType": "uint256",
          "name": "",
          "type": "uint256"
        }
      ],
      "stateMutability": "view",
      "type": "function"
    },
    {
      "inputs": [],
      "name": "REVEAL_TIMEOUT",
      "outputs": [
        {
          "internalType": "uint256",
          "name": "",
          "type": "uint256"
        }
      ],
      "stateMutability": "view",
      "type": "function"
    },
    {
      "inputs": [],
      "name": "acceptOwnership",
      "outputs": [],
      "stateMutability": "nonpayable",
      "type": "function"
    },
    {
      "inputs": [],
      "name": "bet",
      "outputs": [
        {
          "internalType": "uint256",
          "name": "",
          "type": "uint256"
        }
      ],
      "stateMutability": "view",
      "type": "function"
    },
    {
      "inputs": [],
      "name": "fomoEndTime",
      "outputs": [
        {
          "internalType": "uint256",
          "name": "",
          "type": "uint256"
        }
      ],
      "stateMutability": "view",
      "type": "function"
    },
    {
      "inputs": [],
      "name": "fomoPool",
      "outputs": [
        {
          "internalType": "uint256",
          "name": "",
          "type": "uint256"
        }
      ],
      "stateMutability": "view",
      "type": "function"
    },
    {
      "inputs": [],
      "name": "fomoWinner",
      "outputs": [
        {
          "internalType": "address",
          "name": "",
          "type": "address"
        }
      ],
      "stateMutability": "view",
      "type": "function"
    },
    {
      "inputs": [
        {
          "internalType": "uint256",
          "name": "_requestId",
          "type": "uint256"
        }
      ],
      "name": "getRequestStatus",
      "outputs": [
        {
          "internalType": "bool",
          "name": "fulfilled",
          "type": "bool"
        },
        {
          "internalType": "uint256[]",
          "name": "randomWords",
          "type": "uint256[]"
        }
      ],
      "stateMutability": "view",
      "type": "function"
    },
    {
      "inputs": [],
      "name": "lastRequestId",
      "outputs": [
        {
          "internalType": "uint256",
          "name": "",
          "type": "uint256"
        }
      ],
      "stateMutability": "view",
      "type": "function"
    },
    {
      "inputs": [],
      "name": "moveHost",
      "outputs": [
        {
          "internalType": "enum Rps2.Moves",
          "name": "",
          "type": "uint8"
        }
      ],
      "stateMutability": "view",
      "type": "function"
    },
    {
      "inputs": [],
      "name": "owner",
      "outputs": [
        {
          "internalType": "address",
          "name": "",
          "type": "address"
        }
      ],
      "stateMutability": "view",
      "type": "function"
    },
    {
      "inputs": [
        {
          "internalType": "bytes32",
          "name": "_encryptedMove",
          "type": "bytes32"
        }
      ],
      "name": "playBet",
      "outputs": [],
      "stateMutability": "payable",
      "type": "function"
    },
    {
      "inputs": [],
      "name": "processFomo",
      "outputs": [],
      "stateMutability": "nonpayable",
      "type": "function"
    },
    {
      "inputs": [],
      "name": "randomWordsNum",
      "outputs": [
        {
          "internalType": "uint256",
          "name": "",
          "type": "uint256"
        }
      ],
      "stateMutability": "view",
      "type": "function"
    },
    {
      "inputs": [
        {
          "internalType": "uint256",
          "name": "requestId",
          "type": "uint256"
        },
        {
          "internalType": "uint256[]",
          "name": "randomWords",
          "type": "uint256[]"
        }
      ],
      "name": "rawFulfillRandomWords",
      "outputs": [],
      "stateMutability": "nonpayable",
      "type": "function"
    },
    {
      "inputs": [
        {
          "internalType": "uint256",
          "name": "",
          "type": "uint256"
        }
      ],
      "name": "requestIds",
      "outputs": [
        {
          "internalType": "uint256",
          "name": "",
          "type": "uint256"
        }
      ],
      "stateMutability": "view",
      "type": "function"
    },
    {
      "inputs": [],
      "name": "requestRandomWords",
      "outputs": [
        {
          "internalType": "uint256",
          "name": "requestId",
          "type": "uint256"
        }
      ],
      "stateMutability": "nonpayable",
      "type": "function"
    },
    {
      "inputs": [
        {
          "internalType": "string",
          "name": "clearMove",
          "type": "string"
        }
      ],
      "name": "reveal",
      "outputs": [
        {
          "internalType": "bool",
          "name": "",
          "type": "bool"
        }
      ],
      "stateMutability": "nonpayable",
      "type": "function"
    },
    {
      "inputs": [
        {
          "internalType": "uint256",
          "name": "",
          "type": "uint256"
        }
      ],
      "name": "s_requests",
      "outputs": [
        {
          "internalType": "bool",
          "name": "fulfilled",
          "type": "bool"
        },
        {
          "internalType": "bool",
          "name": "exists",
          "type": "bool"
        }
      ],
      "stateMutability": "view",
      "type": "function"
    },
    {
      "inputs": [
        {
          "internalType": "address",
          "name": "to",
          "type": "address"
        }
      ],
      "name": "transferOwnership",
      "outputs": [],
      "stateMutability": "nonpayable",
      "type": "function"
    },
    {
      "inputs": [
        {
          "internalType": "uint256",
          "name": "amount",
          "type": "uint256"
        }
      ],
      "name": "withdraw",
      "outputs": [],
      "stateMutability": "nonpayable",
      "type": "function"
    },
    {
      "stateMutability": "payable",
      "type": "receive"
    }
  ],
  "bytecode": "0x60c0604081905260006003819055600455600f80546001600160501b03191666010003000249f017905562001c73388190039081908339810160408190526200004891620001d7565b6001600160601b0319606083901b166080523380600081620000b15760405162461bcd60e51b815260206004820152601860248201527f43616e6e6f7420736574206f776e657220746f207a65726f000000000000000060448201526064015b60405180910390fd5b600080546001600160a01b0319166001600160a01b0384811691909117909155811615620000e457620000e4816200012b565b5050600160025550600c80546001600160401b03909416600160a01b026001600160e01b03199094166001600160a01b039093169290921792909217905560a05262000235565b6001600160a01b038116331415620001865760405162461bcd60e51b815260206004820152601760248201527f43616e6e6f74207472616e7366657220746f2073656c660000000000000000006044820152606401620000a8565b600180546001600160a01b0319166001600160a01b0383811691821790925560008054604051929316917fed8889f560326eb138920d842192f0eb3dd22b4f139c87a2c57538e05bae12789190a350565b600080600060608486031215620001ed57600080fd5b83516001600160401b03811681146200020557600080fd5b60208501519093506001600160a01b03811681146200022357600080fd5b80925050604084015190509250925092565b60805160601c60a051611a0e620002656000396000610b9c01526000818161063101526106730152611a0e6000f3fe60806040526004361061012e5760003560e01c80638796ba8c116100ab578063a168fa891161006f578063a168fa8914610310578063b33d525914610360578063d8a4676f14610376578063e0c86289146103a4578063f2fde38b146103b9578063fc2a88c3146103d957600080fd5b80638796ba8c1461026f5780638890d7571461028f5780638da5cb5b146102c75780639063def5146102e55780639a8ff87c146102fa57600080fd5b806341089bdf116100f257806341089bdf146101cd5780634c261247146101e35780636540742f1461021357806379ba50971461022e578063872175e51461024357600080fd5b806311610c251461013a57806312e505c9146101635780631fe543e3146101785780632e1a7d4d146101985780633d6ae3a7146101b857600080fd5b3661013557005b600080fd5b34801561014657600080fd5b5061015060065481565b6040519081526020015b60405180910390f35b610176610171366004611627565b6103ef565b005b34801561018457600080fd5b506101766101933660046116ee565b610626565b3480156101a457600080fd5b506101766101b3366004611627565b6106ae565b3480156101c457600080fd5b50610150607881565b3480156101d957600080fd5b5061015060045481565b3480156101ef57600080fd5b506102036101fe366004611659565b610725565b604051901515815260200161015a565b34801561021f57600080fd5b50610150662386f26fc1000081565b34801561023a57600080fd5b5061017661099d565b34801561024f57600080fd5b50600a5461026290610100900460ff1681565b60405161015a9190611843565b34801561027b57600080fd5b5061015061028a366004611627565b610a47565b34801561029b57600080fd5b506005546102af906001600160a01b031681565b6040516001600160a01b03909116815260200161015a565b3480156102d357600080fd5b506000546001600160a01b03166102af565b3480156102f157600080fd5b50610176610a68565b34801561030657600080fd5b5061015060105481565b34801561031c57600080fd5b5061034961032b366004611627565b600b6020526000908152604090205460ff8082169161010090041682565b60408051921515835290151560208301520161015a565b34801561036c57600080fd5b5061015060035481565b34801561038257600080fd5b50610396610391366004611627565b610a89565b60405161015a929190611820565b3480156103b057600080fd5b50610150610b7d565b3480156103c557600080fd5b506101766103d43660046115f7565b610d6e565b3480156103e557600080fd5b50610150600e5481565b60075415801561040d5750607860075461040991906118c4565b4211155b156104bd576008546001600160a01b0316156104675760405162461bcd60e51b81526020600482015260146024820152732090383630bcb2b91034b990383630bcb4b7339760611b60448201526064015b60405180910390fd5b600654156104b05760405162461bcd60e51b81526020600482015260166024820152752132ba1034b990383630b1b2b21030b63932b0b23c9760511b604482015260640161045e565b600954156104bd57600080fd5b662386f26fc100003410156105145760405162461bcd60e51b815260206004820152601d60248201527f496e73756666696369656e742062616c61616e636520746f206265742e000000604482015260640161045e565b476105203460026118f0565b111561056e5760405162461bcd60e51b815260206004820152601d60248201527f4265742065786365656465642062616c616e6365206f6620686f73742e000000604482015260640161045e565b60075415158061058b5750607860075461058891906118c4565b42115b156105f057600854600a546006546040516001600160a01b03909316927f4e975787ea7dc6679a1751654c0d39bb1f0b641921163fa3f4694d74b167caea926105e09260009261010090920460ff1691611851565b60405180910390a26105f0610d7f565b6105f8610dab565b610600610e7f565b600880546001600160a01b03191633179055346006556009819055610623610f67565b50565b336001600160a01b037f000000000000000000000000000000000000000000000000000000000000000016146106a05760405163073e64fd60e21b81523360048201526001600160a01b037f000000000000000000000000000000000000000000000000000000000000000016602482015260440161045e565b6106aa8282610fe5565b5050565b6106b66110cc565b804710156106f85760405162461bcd60e51b815260206004820152600f60248201526e42616c616e636520746f6f206c6f7760881b604482015260640161045e565b604051339082156108fc029083906000818181858888f193505050501580156106aa573d6000803e3d6000fd5b6008546000906001600160a01b0316331461077b5760405162461bcd60e51b81526020600482015260166024820152752cb7ba9030b932903cb7ba903a343290383630bcb2b960511b604482015260640161045e565b600954158015906107a857506000600a54610100900460ff1660038111156107a5576107a5611996565b14155b6108045760405162461bcd60e51b815260206004820152602760248201527f4e6f7420626f746820706c617965727320636f6d6d69747465642074686569726044820152661036b7bb32b99760c91b606482015260840161045e565b61080c61111f565b60006002836040516020016108219190611804565b60408051601f198184030181529082905261083b91611804565b602060405180830381855afa158015610858573d6000803e3d6000fd5b5050506040513d601f19601f8201168201806040525081019061087b9190611640565b9050600061088884611177565b600381111561089957610899611996565b905060008160038111156108af576108af611996565b14156108c05760009250505061098e565b8160095414156108f357600a805482919060ff191660018360038111156108e9576108e9611996565b02179055506108fe565b60009250505061098e565b600a5460009060ff16600381111561091857610918611996565b600a54909150600090610100900460ff16600381111561093a5761093a611996565b9050600061094883836111fa565b60ff16600381111561095c5761095c611996565b60085460065491925061097c916001600160a01b03909116908390611268565b610984610d7f565b6001955050505050505b6109986001600255565b919050565b6001546001600160a01b031633146109f05760405162461bcd60e51b815260206004820152601660248201527526bab9ba10313290383937b837b9b2b21037bbb732b960511b604482015260640161045e565b60008054336001600160a01b0319808316821784556001805490911690556040516001600160a01b0390921692909183917f8be0079c531659141344cd1fd0a4f28419497f9722a3daafe3b4186f6b6457e091a350565b600d8181548110610a5757600080fd5b600091825260209091200154905081565b6005546001600160a01b03163314610a7f57600080fd5b610a87610dab565b565b6000818152600b6020526040812054606090610100900460ff16610ae35760405162461bcd60e51b81526020600482015260116024820152701c995c5d595cdd081b9bdd08199bdd5b99607a1b604482015260640161045e565b6000838152600b602090815260408083208151606081018352815460ff8082161515835261010090910416151581850152600182018054845181870281018701865281815292959394860193830182828015610b5e57602002820191906000526020600020905b815481526020019060010190808311610b4a575b5050505050815250509050806000015181604001519250925050915091565b6000610b876110cc565b600c54600f546040516305d3b1d360e41b81527f00000000000000000000000000000000000000000000000000000000000000006004820152600160a01b830467ffffffffffffffff166024820152640100000000820461ffff16604482015263ffffffff8083166064830152660100000000000090920490911660848201526001600160a01b0390911690635d3b1d309060a401602060405180830381600087803b158015610c3657600080fd5b505af1158015610c4a573d6000803e3d6000fd5b505050506040513d601f19601f82011682018060405250810190610c6e9190611640565b6040805160608101825260008082526001602080840182815285518481528083018752858701908152878552600b83529590932084518154945161ffff1990951690151561ff00191617610100941515949094029390931783559351805195965092949193610ce39391850192910190611597565b5050600d80546001810182556000919091527fd7b6990105719101dabeb77144f2a3385c8033acd3af97e9423a695e81ad1eb50182905550600e819055600f5460408051838152660100000000000090920463ffffffff1660208301527fcc58b13ad3eab50626c6a6300b1d139cd6ebb1688a7cced9461c2f7e762665ee910160405180910390a190565b610d766110cc565b6106238161144f565b600060068190556007819055600880546001600160a01b0319169055600955600a805461ffff19169055565b6005546001600160a01b0316610dbd57565b426004541115610dc957565b6000600455600580546001600160a01b031981169091556003546001600160a01b0390911690610df65750565b6003805460009182905560405190916001600160a01b0384169183156108fc0291849190818181858888f19350505050158015610e37573d6000803e3d6000fd5b50816001600160a01b03167f28a45baa754d821eb63cfb5c69d4e4394742c59fee22dab38cd5c02fb2af892182604051610e7391815260200190565b60405180910390a25050565b6005546001600160a01b0316610ef557600580546001600160a01b03191633179055610ead42610e106118c4565b60048190556005546040519182526001600160a01b0316907fdfe6afd72ccc12e327008dfe046a3af52d0d4bad81ed2ba3ecd1057345bc7cd1906020015b60405180910390a2565b600a600354610f0491906118dc565b341015610f0d57565b600454610f1c90610e106118c4565b6004819055600580546001600160a01b03191633908117909155604051918252907f9d2782b57a253b4896f013de4390a302719b44805cc8978aea12e8ea976ae34390602001610eeb565b610f6f6114f9565b600a805461ff001916610100836003811115610f8d57610f8d611996565b02179055507f50847ce5b6a91be6fb0a54f67c828ee9982f5e7b413cf5169c8352e7a0b0e070600a60019054906101000a900460ff16604051610fd09190611843565b60405180910390a1600754610a875742600755565b6000828152600b6020526040902054610100900460ff1661103c5760405162461bcd60e51b81526020600482015260116024820152701c995c5d595cdd081b9bdd08199bdd5b99607a1b604482015260640161045e565b6000828152600b60209081526040909120805460ff191660019081178255835161106d939290910191840190611597565b5080600081518110611081576110816119ac565b60200260200101516010819055507ffe2e2d779dba245964d4e3ef9b994be63856fd568bf7d3ca9e224755cb1bd54d82826040516110c092919061187a565b60405180910390a15050565b6000546001600160a01b03163314610a875760405162461bcd60e51b815260206004820152601660248201527527b7363c9031b0b63630b1363290313c9037bbb732b960511b604482015260640161045e565b6002805414156111715760405162461bcd60e51b815260206004820152601f60248201527f5265656e7472616e637947756172643a207265656e7472616e742063616c6c00604482015260640161045e565b60028055565b6000808260008151811061118d5761118d6119ac565b01602001516001600160f81b0319169050603160f81b8114156111b35750600192915050565b601960f91b6001600160f81b0319821614156111d25750600292915050565b603360f81b6001600160f81b0319821614156111f15750600392915050565b50600092915050565b60008183141561120c57506003611262565b81831115611239578160011480156112245750826003145b1561123157506002611262565b506001611262565b828211156111f1578260011480156112515750816003145b1561125e57506001611262565b5060025b92915050565b600182600381111561127c5761127c611996565b141561135357600061128f8260026118f0565b9050600060646112a08360056118f0565b6112aa91906118dc565b90506112b581611533565b6001600160a01b0385166108fc6112cc838561190f565b6040518115909202916000818181858888f193505050501580156112f4573d6000803e3d6000fd5b50600854600a546040516001600160a01b03909216917f2069c251d5aacd1cedfc522a09530aa3a904c4ebba85d66ee32970ae48b21ddc916113449160ff80831692610100900416908890611851565b60405180910390a25050505050565b600382600381111561136757611367611996565b1415611400576040516001600160a01b0384169082156108fc029083906000818181858888f193505050501580156113a3573d6000803e3d6000fd5b50600854600a546040516001600160a01b03909216917f3f9f81baa21dbabd3a70aa2d5a1d157a5731197a2816e9be79228aaf56541d43916113f39160ff80831692610100900416908690611851565b60405180910390a2505050565b600854600a546040516001600160a01b03909216917f4e975787ea7dc6679a1751654c0d39bb1f0b641921163fa3f4694d74b167caea916113f39160ff80831692610100900416908690611851565b6001600160a01b0381163314156114a85760405162461bcd60e51b815260206004820152601760248201527f43616e6e6f74207472616e7366657220746f2073656c66000000000000000000604482015260640161045e565b600180546001600160a01b0319166001600160a01b0383811691821790925560008054604051929316917fed8889f560326eb138920d842192f0eb3dd22b4f139c87a2c57538e05bae12789190a350565b60006003611505611582565b61150f9190611956565b61151a9060016118c4565b60ff16600381111561152e5761152e611996565b905090565b806003600082825461154591906118c4565b909155505060405181815233907f3bed7b1032d6facdb3ed736c642f18affa147a86c1e01f68180f740e08b980739060200160405180910390a250565b60008061158d610b7d565b5050601054919050565b8280548282559060005260206000209081019282156115d2579160200282015b828111156115d25782518255916020019190600101906115b7565b506115de9291506115e2565b5090565b5b808211156115de57600081556001016115e3565b60006020828403121561160957600080fd5b81356001600160a01b038116811461162057600080fd5b9392505050565b60006020828403121561163957600080fd5b5035919050565b60006020828403121561165257600080fd5b5051919050565b6000602080838503121561166c57600080fd5b823567ffffffffffffffff8082111561168457600080fd5b818501915085601f83011261169857600080fd5b8135818111156116aa576116aa6119c2565b6116bc601f8201601f19168501611893565b915080825286848285010111156116d257600080fd5b8084840185840137600090820190930192909252509392505050565b6000806040838503121561170157600080fd5b8235915060208084013567ffffffffffffffff8082111561172157600080fd5b818601915086601f83011261173557600080fd5b813581811115611747576117476119c2565b8060051b9150611758848301611893565b8181528481019084860184860187018b101561177357600080fd5b600095505b83861015611796578035835260019590950194918601918601611778565b508096505050505050509250929050565b600081518084526020808501945080840160005b838110156117d7578151875295820195908201906001016117bb565b509495945050505050565b6004811061180057634e487b7160e01b600052602160045260246000fd5b9052565b60008251611816818460208701611926565b9190910192915050565b821515815260406020820152600061183b60408301846117a7565b949350505050565b6020810161126282846117e2565b6060810161185f82866117e2565b61186c60208301856117e2565b826040830152949350505050565b82815260406020820152600061183b60408301846117a7565b604051601f8201601f1916810167ffffffffffffffff811182821017156118bc576118bc6119c2565b604052919050565b600082198211156118d7576118d761196a565b500190565b6000826118eb576118eb611980565b500490565b600081600019048311821515161561190a5761190a61196a565b500290565b6000828210156119215761192161196a565b500390565b60005b83811015611941578181015183820152602001611929565b83811115611950576000848401525b50505050565b60008261196557611965611980565b500690565b634e487b7160e01b600052601160045260246000fd5b634e487b7160e01b600052601260045260246000fd5b634e487b7160e01b600052602160045260246000fd5b634e487b7160e01b600052603260045260246000fd5b634e487b7160e01b600052604160045260246000fdfea2646970667358221220f33913157844dc78c91957d80be69e787e859e18a1004143305964b838f8da6464736f6c63430008070033",
  "linkReferences": {},
  "deployedLinkReferences": {}
}