{
  "_format": "hh-sol-artifact-1",
  "contractName": "Rps2",
  "sourceName": "contracts/Rps2.sol",
  "abi": [
    {
      "inputs": [
        {
          "internalType": "uint64",
          "name": "subscriptionId",
          "type": "uint64"
        },
        {
          "internalType": "address",
          "name": "_coordomator",
          "type": "address"
        },
        {
          "internalType": "bytes32",
          "name": "_keyHash",
          "type": "bytes32"
        }
      ],
      "stateMutability": "payable",
      "type": "constructor"
    },
    {
      "inputs": [
        {
          "internalType": "address",
          "name": "have",
          "type": "address"
        },
        {
          "internalType": "address",
          "name": "want",
          "type": "address"
        }
      ],
      "name": "OnlyCoordinatorCanFulfill",
      "type": "error"
    },
    {
      "anonymous": false,
      "inputs": [
        {
          "indexed": true,
          "internalType": "address",
          "name": "player",
          "type": "address"
        },
        {
          "indexed": false,
          "internalType": "enum Rps2.Moves",
          "name": "playerMove",
          "type": "uint8"
        },
        {
          "indexed": false,
          "internalType": "enum Rps2.Moves",
          "name": "hostMove",
          "type": "uint8"
        },
        {
          "indexed": false,
          "internalType": "uint256",
          "name": "bet",
          "type": "uint256"
        }
      ],
      "name": "Draw",
      "type": "event"
    },
    {
      "anonymous": false,
      "inputs": [
        {
          "indexed": true,
          "internalType": "address",
          "name": "winner",
          "type": "address"
        },
        {
          "indexed": false,
          "internalType": "uint256",
          "name": "amount",
          "type": "uint256"
        }
      ],
      "name": "FomoPayment",
      "type": "event"
    },
    {
      "anonymous": false,
      "inputs": [
        {
          "indexed": true,
          "internalType": "address",
          "name": "winner",
          "type": "address"
        },
        {
          "indexed": false,
          "internalType": "uint256",
          "name": "endTime",
          "type": "uint256"
        }
      ],
      "name": "FomoTimerIncrease",
      "type": "event"
    },
    {
      "anonymous": false,
      "inputs": [
        {
          "indexed": true,
          "internalType": "address",
          "name": "winner",
          "type": "address"
        },
        {
          "indexed": false,
          "internalType": "uint256",
          "name": "endTime",
          "type": "uint256"
        }
      ],
      "name": "FomoTimerStart",
      "type": "event"
    },
    {
      "anonymous": false,
      "inputs": [
        {
          "indexed": true,
          "internalType": "address",
          "name": "player",
          "type": "address"
        },
        {
          "indexed": false,
          "internalType": "enum Rps2.Moves",
          "name": "playerMove",
          "type": "uint8"
        },
        {
          "indexed": false,
          "internalType": "enum Rps2.Moves",
          "name": "hostMove",
          "type": "uint8"
        },
        {
          "indexed": false,
          "internalType": "uint256",
          "name": "bet",
          "type": "uint256"
        }
      ],
      "name": "Lost",
      "type": "event"
    },
    {
      "anonymous": false,
      "inputs": [
        {
          "indexed": true,
          "internalType": "address",
          "name": "sender",
          "type": "address"
        },
        {
          "indexed": false,
          "internalType": "uint256",
          "name": "amount",
          "type": "uint256"
        }
      ],
      "name": "NewFomoDeposit",
      "type": "event"
    },
    {
      "anonymous": false,
      "inputs": [
        {
          "indexed": true,
          "internalType": "address",
          "name": "from",
          "type": "address"
        },
        {
          "indexed": true,
          "internalType": "address",
          "name": "to",
          "type": "address"
        }
      ],
      "name": "OwnershipTransferRequested",
      "type": "event"
    },
    {
      "anonymous": false,
      "inputs": [
        {
          "indexed": true,
          "internalType": "address",
          "name": "from",
          "type": "address"
        },
        {
          "indexed": true,
          "internalType": "address",
          "name": "to",
          "type": "address"
        }
      ],
      "name": "OwnershipTransferred",
      "type": "event"
    },
    {
      "anonymous": false,
      "inputs": [
        {
          "indexed": false,
          "internalType": "uint256",
          "name": "requestId",
          "type": "uint256"
        },
        {
          "indexed": false,
          "internalType": "uint256[]",
          "name": "randomWords",
          "type": "uint256[]"
        }
      ],
      "name": "RequestFulfilled",
      "type": "event"
    },
    {
      "anonymous": false,
      "inputs": [
        {
          "indexed": false,
          "internalType": "uint256",
          "name": "requestId",
          "type": "uint256"
        },
        {
          "indexed": false,
          "internalType": "uint32",
          "name": "numWords",
          "type": "uint32"
        }
      ],
      "name": "RequestSent",
      "type": "event"
    },
    {
      "anonymous": false,
      "inputs": [
        {
          "indexed": true,
          "internalType": "address",
          "name": "player",
          "type": "address"
        },
        {
          "indexed": false,
          "internalType": "enum Rps2.Moves",
          "name": "playerMove",
          "type": "uint8"
        },
        {
          "indexed": false,
          "internalType": "enum Rps2.Moves",
          "name": "hostMove",
          "type": "uint8"
        },
        {
          "indexed": false,
          "internalType": "uint256",
          "name": "bet",
          "type": "uint256"
        }
      ],
      "name": "Won",
      "type": "event"
    },
    {
      "anonymous": false,
      "inputs": [
        {
          "indexed": false,
          "internalType": "enum Rps2.Moves",
          "name": "hostMove",
          "type": "uint8"
        }
      ],
      "name": "hostCommitedMove",
      "type": "event"
    },
    {
      "inputs": [],
      "name": "MIN_BET",
      "outputs": [
        {
          "internalType": "uint256",
          "name": "",
          "type": "uint256"
        }
      ],
      "stateMutability": "view",
      "type": "function"
    },
    {
      "inputs": [],
      "name": "REVEAL_TIMEOUT",
      "outputs": [
        {
          "internalType": "uint256",
          "name": "",
          "type": "uint256"
        }
      ],
      "stateMutability": "view",
      "type": "function"
    },
    {
      "inputs": [],
      "name": "acceptOwnership",
      "outputs": [],
      "stateMutability": "nonpayable",
      "type": "function"
    },
    {
      "inputs": [],
      "name": "bet",
      "outputs": [
        {
          "internalType": "uint256",
          "name": "",
          "type": "uint256"
        }
      ],
      "stateMutability": "view",
      "type": "function"
    },
    {
      "inputs": [],
      "name": "fomoEndTime",
      "outputs": [
        {
          "internalType": "uint256",
          "name": "",
          "type": "uint256"
        }
      ],
      "stateMutability": "view",
      "type": "function"
    },
    {
      "inputs": [],
      "name": "fomoPool",
      "outputs": [
        {
          "internalType": "uint256",
          "name": "",
          "type": "uint256"
        }
      ],
      "stateMutability": "view",
      "type": "function"
    },
    {
      "inputs": [],
      "name": "fomoWinner",
      "outputs": [
        {
          "internalType": "address",
          "name": "",
          "type": "address"
        }
      ],
      "stateMutability": "view",
      "type": "function"
    },
    {
      "inputs": [
        {
          "internalType": "uint256",
          "name": "_requestId",
          "type": "uint256"
        }
      ],
      "name": "getRequestStatus",
      "outputs": [
        {
          "internalType": "bool",
          "name": "fulfilled",
          "type": "bool"
        },
        {
          "internalType": "uint256[]",
          "name": "randomWords",
          "type": "uint256[]"
        }
      ],
      "stateMutability": "view",
      "type": "function"
    },
    {
      "inputs": [],
      "name": "lastRequestId",
      "outputs": [
        {
          "internalType": "uint256",
          "name": "",
          "type": "uint256"
        }
      ],
      "stateMutability": "view",
      "type": "function"
    },
    {
      "inputs": [],
      "name": "moveHost",
      "outputs": [
        {
          "internalType": "enum Rps2.Moves",
          "name": "",
          "type": "uint8"
        }
      ],
      "stateMutability": "view",
      "type": "function"
    },
    {
      "inputs": [],
      "name": "movePlayer",
      "outputs": [
        {
          "internalType": "enum Rps2.Moves",
          "name": "",
          "type": "uint8"
        }
      ],
      "stateMutability": "view",
      "type": "function"
    },
    {
      "inputs": [],
      "name": "owner",
      "outputs": [
        {
          "internalType": "address",
          "name": "",
          "type": "address"
        }
      ],
      "stateMutability": "view",
      "type": "function"
    },
    {
      "inputs": [
        {
          "internalType": "bytes32",
          "name": "_encryptedMove",
          "type": "bytes32"
        }
      ],
      "name": "playBet",
      "outputs": [],
      "stateMutability": "payable",
      "type": "function"
    },
    {
      "inputs": [],
      "name": "processFomo",
      "outputs": [],
      "stateMutability": "nonpayable",
      "type": "function"
    },
    {
      "inputs": [],
      "name": "randomWordsNum",
      "outputs": [
        {
          "internalType": "uint256",
          "name": "",
          "type": "uint256"
        }
      ],
      "stateMutability": "view",
      "type": "function"
    },
    {
      "inputs": [
        {
          "internalType": "uint256",
          "name": "requestId",
          "type": "uint256"
        },
        {
          "internalType": "uint256[]",
          "name": "randomWords",
          "type": "uint256[]"
        }
      ],
      "name": "rawFulfillRandomWords",
      "outputs": [],
      "stateMutability": "nonpayable",
      "type": "function"
    },
    {
      "inputs": [
        {
          "internalType": "uint256",
          "name": "",
          "type": "uint256"
        }
      ],
      "name": "requestIds",
      "outputs": [
        {
          "internalType": "uint256",
          "name": "",
          "type": "uint256"
        }
      ],
      "stateMutability": "view",
      "type": "function"
    },
    {
      "inputs": [],
      "name": "requestRandomWords",
      "outputs": [
        {
          "internalType": "uint256",
          "name": "requestId",
          "type": "uint256"
        }
      ],
      "stateMutability": "nonpayable",
      "type": "function"
    },
    {
      "inputs": [
        {
          "internalType": "string",
          "name": "clearMove",
          "type": "string"
        }
      ],
      "name": "reveal",
      "outputs": [
        {
          "internalType": "bool",
          "name": "",
          "type": "bool"
        }
      ],
      "stateMutability": "nonpayable",
      "type": "function"
    },
    {
      "inputs": [
        {
          "internalType": "uint256",
          "name": "",
          "type": "uint256"
        }
      ],
      "name": "s_requests",
      "outputs": [
        {
          "internalType": "bool",
          "name": "fulfilled",
          "type": "bool"
        },
        {
          "internalType": "bool",
          "name": "exists",
          "type": "bool"
        }
      ],
      "stateMutability": "view",
      "type": "function"
    },
    {
      "inputs": [
        {
          "internalType": "address",
          "name": "to",
          "type": "address"
        }
      ],
      "name": "transferOwnership",
      "outputs": [],
      "stateMutability": "nonpayable",
      "type": "function"
    },
    {
      "inputs": [
        {
          "internalType": "uint256",
          "name": "amount",
          "type": "uint256"
        }
      ],
      "name": "withdraw",
      "outputs": [],
      "stateMutability": "nonpayable",
      "type": "function"
    },
    {
      "stateMutability": "payable",
      "type": "receive"
    }
  ],
  "bytecode": "0x60c0604081905260006003819055600455600f80546001600160501b03191666010003000249f017905562001c98388190039081908339810160408190526200004891620001d7565b6001600160601b0319606083901b166080523380600081620000b15760405162461bcd60e51b815260206004820152601860248201527f43616e6e6f7420736574206f776e657220746f207a65726f000000000000000060448201526064015b60405180910390fd5b600080546001600160a01b0319166001600160a01b0384811691909117909155811615620000e457620000e4816200012b565b5050600160025550600c80546001600160401b03909416600160a01b026001600160e01b03199094166001600160a01b039093169290921792909217905560a05262000235565b6001600160a01b038116331415620001865760405162461bcd60e51b815260206004820152601760248201527f43616e6e6f74207472616e7366657220746f2073656c660000000000000000006044820152606401620000a8565b600180546001600160a01b0319166001600160a01b0383811691821790925560008054604051929316917fed8889f560326eb138920d842192f0eb3dd22b4f139c87a2c57538e05bae12789190a350565b600080600060608486031215620001ed57600080fd5b83516001600160401b03811681146200020557600080fd5b60208501519093506001600160a01b03811681146200022357600080fd5b80925050604084015190509250925092565b60805160601c60a051611a33620002656000396000610bc101526000818161065601526106980152611a336000f3fe6080604052600436106101395760003560e01c80638796ba8c116100ab578063a168fa891161006f578063a168fa8914610335578063b33d525914610385578063d8a4676f1461039b578063e0c86289146103c9578063f2fde38b146103de578063fc2a88c3146103fe57600080fd5b80638796ba8c146102945780638890d757146102b45780638da5cb5b146102ec5780639063def51461030a5780639a8ff87c1461031f57600080fd5b806341089bdf116100fd57806341089bdf146101d85780634c261247146101ee5780635284b1f41461021e5780636540742f1461024557806379ba509714610260578063872175e51461027557600080fd5b806311610c251461014557806312e505c91461016e5780631fe543e3146101835780632e1a7d4d146101a35780633d6ae3a7146101c357600080fd5b3661014057005b600080fd5b34801561015157600080fd5b5061015b60065481565b6040519081526020015b60405180910390f35b61018161017c36600461164c565b610414565b005b34801561018f57600080fd5b5061018161019e366004611713565b61064b565b3480156101af57600080fd5b506101816101be36600461164c565b6106d3565b3480156101cf57600080fd5b5061015b607881565b3480156101e457600080fd5b5061015b60045481565b3480156101fa57600080fd5b5061020e61020936600461167e565b61074a565b6040519015158152602001610165565b34801561022a57600080fd5b50600a546102389060ff1681565b6040516101659190611868565b34801561025157600080fd5b5061015b662386f26fc1000081565b34801561026c57600080fd5b506101816109c2565b34801561028157600080fd5b50600a5461023890610100900460ff1681565b3480156102a057600080fd5b5061015b6102af36600461164c565b610a6c565b3480156102c057600080fd5b506005546102d4906001600160a01b031681565b6040516001600160a01b039091168152602001610165565b3480156102f857600080fd5b506000546001600160a01b03166102d4565b34801561031657600080fd5b50610181610a8d565b34801561032b57600080fd5b5061015b60105481565b34801561034157600080fd5b5061036e61035036600461164c565b600b6020526000908152604090205460ff8082169161010090041682565b604080519215158352901515602083015201610165565b34801561039157600080fd5b5061015b60035481565b3480156103a757600080fd5b506103bb6103b636600461164c565b610aae565b604051610165929190611845565b3480156103d557600080fd5b5061015b610ba2565b3480156103ea57600080fd5b506101816103f936600461161c565b610d93565b34801561040a57600080fd5b5061015b600e5481565b6007541580156104325750607860075461042e91906118e9565b4211155b156104e2576008546001600160a01b03161561048c5760405162461bcd60e51b81526020600482015260146024820152732090383630bcb2b91034b990383630bcb4b7339760611b60448201526064015b60405180910390fd5b600654156104d55760405162461bcd60e51b81526020600482015260166024820152752132ba1034b990383630b1b2b21030b63932b0b23c9760511b6044820152606401610483565b600954156104e257600080fd5b662386f26fc100003410156105395760405162461bcd60e51b815260206004820152601d60248201527f496e73756666696369656e742062616c61616e636520746f206265742e0000006044820152606401610483565b47610545346002611915565b11156105935760405162461bcd60e51b815260206004820152601d60248201527f4265742065786365656465642062616c616e6365206f6620686f73742e0000006044820152606401610483565b6007541515806105b0575060786007546105ad91906118e9565b42115b1561061557600854600a546006546040516001600160a01b03909316927f4e975787ea7dc6679a1751654c0d39bb1f0b641921163fa3f4694d74b167caea926106059260009261010090920460ff1691611876565b60405180910390a2610615610da4565b61061d610dd0565b610625610ea4565b600880546001600160a01b03191633179055346006556009819055610648610f8c565b50565b336001600160a01b037f000000000000000000000000000000000000000000000000000000000000000016146106c55760405163073e64fd60e21b81523360048201526001600160a01b037f0000000000000000000000000000000000000000000000000000000000000000166024820152604401610483565b6106cf828261100a565b5050565b6106db6110f1565b8047101561071d5760405162461bcd60e51b815260206004820152600f60248201526e42616c616e636520746f6f206c6f7760881b6044820152606401610483565b604051339082156108fc029083906000818181858888f193505050501580156106cf573d6000803e3d6000fd5b6008546000906001600160a01b031633146107a05760405162461bcd60e51b81526020600482015260166024820152752cb7ba9030b932903cb7ba903a343290383630bcb2b960511b6044820152606401610483565b600954158015906107cd57506000600a54610100900460ff1660038111156107ca576107ca6119bb565b14155b6108295760405162461bcd60e51b815260206004820152602760248201527f4e6f7420626f746820706c617965727320636f6d6d69747465642074686569726044820152661036b7bb32b99760c91b6064820152608401610483565b610831611144565b60006002836040516020016108469190611829565b60408051601f198184030181529082905261086091611829565b602060405180830381855afa15801561087d573d6000803e3d6000fd5b5050506040513d601f19601f820116820180604052508101906108a09190611665565b905060006108ad8461119c565b60038111156108be576108be6119bb565b905060008160038111156108d4576108d46119bb565b14156108e5576000925050506109b3565b81600954141561091857600a805482919060ff1916600183600381111561090e5761090e6119bb565b0217905550610923565b6000925050506109b3565b600a5460009060ff16600381111561093d5761093d6119bb565b600a54909150600090610100900460ff16600381111561095f5761095f6119bb565b9050600061096d838361121f565b60ff166003811115610981576109816119bb565b6008546006549192506109a1916001600160a01b0390911690839061128d565b6109a9610da4565b6001955050505050505b6109bd6001600255565b919050565b6001546001600160a01b03163314610a155760405162461bcd60e51b815260206004820152601660248201527526bab9ba10313290383937b837b9b2b21037bbb732b960511b6044820152606401610483565b60008054336001600160a01b0319808316821784556001805490911690556040516001600160a01b0390921692909183917f8be0079c531659141344cd1fd0a4f28419497f9722a3daafe3b4186f6b6457e091a350565b600d8181548110610a7c57600080fd5b600091825260209091200154905081565b6005546001600160a01b03163314610aa457600080fd5b610aac610dd0565b565b6000818152600b6020526040812054606090610100900460ff16610b085760405162461bcd60e51b81526020600482015260116024820152701c995c5d595cdd081b9bdd08199bdd5b99607a1b6044820152606401610483565b6000838152600b602090815260408083208151606081018352815460ff8082161515835261010090910416151581850152600182018054845181870281018701865281815292959394860193830182828015610b8357602002820191906000526020600020905b815481526020019060010190808311610b6f575b5050505050815250509050806000015181604001519250925050915091565b6000610bac6110f1565b600c54600f546040516305d3b1d360e41b81527f00000000000000000000000000000000000000000000000000000000000000006004820152600160a01b830467ffffffffffffffff166024820152640100000000820461ffff16604482015263ffffffff8083166064830152660100000000000090920490911660848201526001600160a01b0390911690635d3b1d309060a401602060405180830381600087803b158015610c5b57600080fd5b505af1158015610c6f573d6000803e3d6000fd5b505050506040513d601f19601f82011682018060405250810190610c939190611665565b6040805160608101825260008082526001602080840182815285518481528083018752858701908152878552600b83529590932084518154945161ffff1990951690151561ff00191617610100941515949094029390931783559351805195965092949193610d0893918501929101906115bc565b5050600d80546001810182556000919091527fd7b6990105719101dabeb77144f2a3385c8033acd3af97e9423a695e81ad1eb50182905550600e819055600f5460408051838152660100000000000090920463ffffffff1660208301527fcc58b13ad3eab50626c6a6300b1d139cd6ebb1688a7cced9461c2f7e762665ee910160405180910390a190565b610d9b6110f1565b61064881611474565b600060068190556007819055600880546001600160a01b0319169055600955600a805461ffff19169055565b6005546001600160a01b0316610de257565b426004541115610dee57565b6000600455600580546001600160a01b031981169091556003546001600160a01b0390911690610e1b5750565b6003805460009182905560405190916001600160a01b0384169183156108fc0291849190818181858888f19350505050158015610e5c573d6000803e3d6000fd5b50816001600160a01b03167f28a45baa754d821eb63cfb5c69d4e4394742c59fee22dab38cd5c02fb2af892182604051610e9891815260200190565b60405180910390a25050565b6005546001600160a01b0316610f1a57600580546001600160a01b03191633179055610ed242610e106118e9565b60048190556005546040519182526001600160a01b0316907fdfe6afd72ccc12e327008dfe046a3af52d0d4bad81ed2ba3ecd1057345bc7cd1906020015b60405180910390a2565b600a600354610f299190611901565b341015610f3257565b600454610f4190610e106118e9565b6004819055600580546001600160a01b03191633908117909155604051918252907f9d2782b57a253b4896f013de4390a302719b44805cc8978aea12e8ea976ae34390602001610f10565b610f9461151e565b600a805461ff001916610100836003811115610fb257610fb26119bb565b02179055507f50847ce5b6a91be6fb0a54f67c828ee9982f5e7b413cf5169c8352e7a0b0e070600a60019054906101000a900460ff16604051610ff59190611868565b60405180910390a1600754610aac5742600755565b6000828152600b6020526040902054610100900460ff166110615760405162461bcd60e51b81526020600482015260116024820152701c995c5d595cdd081b9bdd08199bdd5b99607a1b6044820152606401610483565b6000828152600b60209081526040909120805460ff19166001908117825583516110929392909101918401906115bc565b50806000815181106110a6576110a66119d1565b60200260200101516010819055507ffe2e2d779dba245964d4e3ef9b994be63856fd568bf7d3ca9e224755cb1bd54d82826040516110e592919061189f565b60405180910390a15050565b6000546001600160a01b03163314610aac5760405162461bcd60e51b815260206004820152601660248201527527b7363c9031b0b63630b1363290313c9037bbb732b960511b6044820152606401610483565b6002805414156111965760405162461bcd60e51b815260206004820152601f60248201527f5265656e7472616e637947756172643a207265656e7472616e742063616c6c006044820152606401610483565b60028055565b600080826000815181106111b2576111b26119d1565b01602001516001600160f81b0319169050603160f81b8114156111d85750600192915050565b601960f91b6001600160f81b0319821614156111f75750600292915050565b603360f81b6001600160f81b0319821614156112165750600392915050565b50600092915050565b60008183141561123157506003611287565b8183111561125e578160011480156112495750826003145b1561125657506002611287565b506001611287565b82821115611216578260011480156112765750816003145b1561128357506001611287565b5060025b92915050565b60018260038111156112a1576112a16119bb565b14156113785760006112b4826002611915565b9050600060646112c5836005611915565b6112cf9190611901565b90506112da81611558565b6001600160a01b0385166108fc6112f18385611934565b6040518115909202916000818181858888f19350505050158015611319573d6000803e3d6000fd5b50600854600a546040516001600160a01b03909216917f2069c251d5aacd1cedfc522a09530aa3a904c4ebba85d66ee32970ae48b21ddc916113699160ff80831692610100900416908890611876565b60405180910390a25050505050565b600382600381111561138c5761138c6119bb565b1415611425576040516001600160a01b0384169082156108fc029083906000818181858888f193505050501580156113c8573d6000803e3d6000fd5b50600854600a546040516001600160a01b03909216917f3f9f81baa21dbabd3a70aa2d5a1d157a5731197a2816e9be79228aaf56541d43916114189160ff80831692610100900416908690611876565b60405180910390a2505050565b600854600a546040516001600160a01b03909216917f4e975787ea7dc6679a1751654c0d39bb1f0b641921163fa3f4694d74b167caea916114189160ff80831692610100900416908690611876565b6001600160a01b0381163314156114cd5760405162461bcd60e51b815260206004820152601760248201527f43616e6e6f74207472616e7366657220746f2073656c660000000000000000006044820152606401610483565b600180546001600160a01b0319166001600160a01b0383811691821790925560008054604051929316917fed8889f560326eb138920d842192f0eb3dd22b4f139c87a2c57538e05bae12789190a350565b6000600361152a6115a7565b611534919061197b565b61153f9060016118e9565b60ff166003811115611553576115536119bb565b905090565b806003600082825461156a91906118e9565b909155505060405181815233907f3bed7b1032d6facdb3ed736c642f18affa147a86c1e01f68180f740e08b980739060200160405180910390a250565b6000806115b2610ba2565b5050601054919050565b8280548282559060005260206000209081019282156115f7579160200282015b828111156115f75782518255916020019190600101906115dc565b50611603929150611607565b5090565b5b808211156116035760008155600101611608565b60006020828403121561162e57600080fd5b81356001600160a01b038116811461164557600080fd5b9392505050565b60006020828403121561165e57600080fd5b5035919050565b60006020828403121561167757600080fd5b5051919050565b6000602080838503121561169157600080fd5b823567ffffffffffffffff808211156116a957600080fd5b818501915085601f8301126116bd57600080fd5b8135818111156116cf576116cf6119e7565b6116e1601f8201601f191685016118b8565b915080825286848285010111156116f757600080fd5b8084840185840137600090820190930192909252509392505050565b6000806040838503121561172657600080fd5b8235915060208084013567ffffffffffffffff8082111561174657600080fd5b818601915086601f83011261175a57600080fd5b81358181111561176c5761176c6119e7565b8060051b915061177d8483016118b8565b8181528481019084860184860187018b101561179857600080fd5b600095505b838610156117bb57803583526001959095019491860191860161179d565b508096505050505050509250929050565b600081518084526020808501945080840160005b838110156117fc578151875295820195908201906001016117e0565b509495945050505050565b6004811061182557634e487b7160e01b600052602160045260246000fd5b9052565b6000825161183b81846020870161194b565b9190910192915050565b821515815260406020820152600061186060408301846117cc565b949350505050565b602081016112878284611807565b606081016118848286611807565b6118916020830185611807565b826040830152949350505050565b82815260406020820152600061186060408301846117cc565b604051601f8201601f1916810167ffffffffffffffff811182821017156118e1576118e16119e7565b604052919050565b600082198211156118fc576118fc61198f565b500190565b600082611910576119106119a5565b500490565b600081600019048311821515161561192f5761192f61198f565b500290565b6000828210156119465761194661198f565b500390565b60005b8381101561196657818101518382015260200161194e565b83811115611975576000848401525b50505050565b60008261198a5761198a6119a5565b500690565b634e487b7160e01b600052601160045260246000fd5b634e487b7160e01b600052601260045260246000fd5b634e487b7160e01b600052602160045260246000fd5b634e487b7160e01b600052603260045260246000fd5b634e487b7160e01b600052604160045260246000fdfea26469706673582212200879ca0e8d8b9d166baaf01ae9fbbd56b9c52296b82c05c79377a1d325c2c74664736f6c63430008070033",
  "linkReferences": {},
  "deployedLinkReferences": {}
}