{
  "_format": "hh-sol-artifact-1",
  "contractName": "Rps2",
  "sourceName": "contracts/Rps2.sol",
  "abi": [
    {
      "inputs": [
        {
          "internalType": "uint64",
          "name": "subscriptionId",
          "type": "uint64"
        },
        {
          "internalType": "address",
          "name": "_coordomator",
          "type": "address"
        },
        {
          "internalType": "bytes32",
          "name": "_keyHash",
          "type": "bytes32"
        }
      ],
      "stateMutability": "payable",
      "type": "constructor"
    },
    {
      "inputs": [
        {
          "internalType": "address",
          "name": "have",
          "type": "address"
        },
        {
          "internalType": "address",
          "name": "want",
          "type": "address"
        }
      ],
      "name": "OnlyCoordinatorCanFulfill",
      "type": "error"
    },
    {
      "anonymous": false,
      "inputs": [
        {
          "indexed": true,
          "internalType": "address",
          "name": "player",
          "type": "address"
        },
        {
          "indexed": false,
          "internalType": "enum Rps2.Moves",
          "name": "playerMove",
          "type": "uint8"
        },
        {
          "indexed": false,
          "internalType": "enum Rps2.Moves",
          "name": "hostMove",
          "type": "uint8"
        },
        {
          "indexed": false,
          "internalType": "uint256",
          "name": "bet",
          "type": "uint256"
        }
      ],
      "name": "Draw",
      "type": "event"
    },
    {
      "anonymous": false,
      "inputs": [
        {
          "indexed": true,
          "internalType": "address",
          "name": "winner",
          "type": "address"
        },
        {
          "indexed": false,
          "internalType": "uint256",
          "name": "amount",
          "type": "uint256"
        }
      ],
      "name": "FomoPayment",
      "type": "event"
    },
    {
      "anonymous": false,
      "inputs": [
        {
          "indexed": true,
          "internalType": "address",
          "name": "winner",
          "type": "address"
        },
        {
          "indexed": false,
          "internalType": "uint256",
          "name": "endTime",
          "type": "uint256"
        }
      ],
      "name": "FomoTimerIncrease",
      "type": "event"
    },
    {
      "anonymous": false,
      "inputs": [
        {
          "indexed": true,
          "internalType": "address",
          "name": "winner",
          "type": "address"
        },
        {
          "indexed": false,
          "internalType": "uint256",
          "name": "endTime",
          "type": "uint256"
        }
      ],
      "name": "FomoTimerStart",
      "type": "event"
    },
    {
      "anonymous": false,
      "inputs": [
        {
          "indexed": true,
          "internalType": "address",
          "name": "player",
          "type": "address"
        },
        {
          "indexed": false,
          "internalType": "enum Rps2.Moves",
          "name": "playerMove",
          "type": "uint8"
        },
        {
          "indexed": false,
          "internalType": "enum Rps2.Moves",
          "name": "hostMove",
          "type": "uint8"
        },
        {
          "indexed": false,
          "internalType": "uint256",
          "name": "bet",
          "type": "uint256"
        }
      ],
      "name": "Lost",
      "type": "event"
    },
    {
      "anonymous": false,
      "inputs": [
        {
          "indexed": true,
          "internalType": "address",
          "name": "sender",
          "type": "address"
        },
        {
          "indexed": false,
          "internalType": "uint256",
          "name": "amount",
          "type": "uint256"
        }
      ],
      "name": "NewFomoDeposit",
      "type": "event"
    },
    {
      "anonymous": false,
      "inputs": [
        {
          "indexed": true,
          "internalType": "address",
          "name": "from",
          "type": "address"
        },
        {
          "indexed": true,
          "internalType": "address",
          "name": "to",
          "type": "address"
        }
      ],
      "name": "OwnershipTransferRequested",
      "type": "event"
    },
    {
      "anonymous": false,
      "inputs": [
        {
          "indexed": true,
          "internalType": "address",
          "name": "from",
          "type": "address"
        },
        {
          "indexed": true,
          "internalType": "address",
          "name": "to",
          "type": "address"
        }
      ],
      "name": "OwnershipTransferred",
      "type": "event"
    },
    {
      "anonymous": false,
      "inputs": [
        {
          "indexed": false,
          "internalType": "uint256",
          "name": "requestId",
          "type": "uint256"
        },
        {
          "indexed": false,
          "internalType": "uint256[]",
          "name": "randomWords",
          "type": "uint256[]"
        }
      ],
      "name": "RequestFulfilled",
      "type": "event"
    },
    {
      "anonymous": false,
      "inputs": [
        {
          "indexed": false,
          "internalType": "uint256",
          "name": "requestId",
          "type": "uint256"
        },
        {
          "indexed": false,
          "internalType": "uint32",
          "name": "numWords",
          "type": "uint32"
        }
      ],
      "name": "RequestSent",
      "type": "event"
    },
    {
      "anonymous": false,
      "inputs": [
        {
          "indexed": true,
          "internalType": "address",
          "name": "player",
          "type": "address"
        },
        {
          "indexed": false,
          "internalType": "enum Rps2.Moves",
          "name": "playerMove",
          "type": "uint8"
        },
        {
          "indexed": false,
          "internalType": "enum Rps2.Moves",
          "name": "hostMove",
          "type": "uint8"
        },
        {
          "indexed": false,
          "internalType": "uint256",
          "name": "bet",
          "type": "uint256"
        }
      ],
      "name": "Won",
      "type": "event"
    },
    {
      "anonymous": false,
      "inputs": [
        {
          "indexed": false,
          "internalType": "enum Rps2.Moves",
          "name": "hostMove",
          "type": "uint8"
        }
      ],
      "name": "hostCommitedMove",
      "type": "event"
    },
    {
      "inputs": [],
      "name": "MIN_BET",
      "outputs": [
        {
          "internalType": "uint256",
          "name": "",
          "type": "uint256"
        }
      ],
      "stateMutability": "view",
      "type": "function"
    },
    {
      "inputs": [],
      "name": "REVEAL_TIMEOUT",
      "outputs": [
        {
          "internalType": "uint256",
          "name": "",
          "type": "uint256"
        }
      ],
      "stateMutability": "view",
      "type": "function"
    },
    {
      "inputs": [],
      "name": "acceptOwnership",
      "outputs": [],
      "stateMutability": "nonpayable",
      "type": "function"
    },
    {
      "inputs": [],
      "name": "bet",
      "outputs": [
        {
          "internalType": "uint256",
          "name": "",
          "type": "uint256"
        }
      ],
      "stateMutability": "view",
      "type": "function"
    },
    {
      "inputs": [],
      "name": "fomoEndTime",
      "outputs": [
        {
          "internalType": "uint256",
          "name": "",
          "type": "uint256"
        }
      ],
      "stateMutability": "view",
      "type": "function"
    },
    {
      "inputs": [],
      "name": "fomoPool",
      "outputs": [
        {
          "internalType": "uint256",
          "name": "",
          "type": "uint256"
        }
      ],
      "stateMutability": "view",
      "type": "function"
    },
    {
      "inputs": [],
      "name": "fomoWinner",
      "outputs": [
        {
          "internalType": "address",
          "name": "",
          "type": "address"
        }
      ],
      "stateMutability": "view",
      "type": "function"
    },
    {
      "inputs": [
        {
          "internalType": "uint256",
          "name": "_requestId",
          "type": "uint256"
        }
      ],
      "name": "getRequestStatus",
      "outputs": [
        {
          "internalType": "bool",
          "name": "fulfilled",
          "type": "bool"
        },
        {
          "internalType": "uint256[]",
          "name": "randomWords",
          "type": "uint256[]"
        }
      ],
      "stateMutability": "view",
      "type": "function"
    },
    {
      "inputs": [],
      "name": "lastRequestId",
      "outputs": [
        {
          "internalType": "uint256",
          "name": "",
          "type": "uint256"
        }
      ],
      "stateMutability": "view",
      "type": "function"
    },
    {
      "inputs": [],
      "name": "moveHost",
      "outputs": [
        {
          "internalType": "enum Rps2.Moves",
          "name": "",
          "type": "uint8"
        }
      ],
      "stateMutability": "view",
      "type": "function"
    },
    {
      "inputs": [],
      "name": "owner",
      "outputs": [
        {
          "internalType": "address",
          "name": "",
          "type": "address"
        }
      ],
      "stateMutability": "view",
      "type": "function"
    },
    {
      "inputs": [
        {
          "internalType": "bytes32",
          "name": "_encryptedMove",
          "type": "bytes32"
        }
      ],
      "name": "playBet",
      "outputs": [],
      "stateMutability": "payable",
      "type": "function"
    },
    {
      "inputs": [],
      "name": "processFomo",
      "outputs": [],
      "stateMutability": "nonpayable",
      "type": "function"
    },
    {
      "inputs": [],
      "name": "randomWordsNum",
      "outputs": [
        {
          "internalType": "uint256",
          "name": "",
          "type": "uint256"
        }
      ],
      "stateMutability": "view",
      "type": "function"
    },
    {
      "inputs": [
        {
          "internalType": "uint256",
          "name": "requestId",
          "type": "uint256"
        },
        {
          "internalType": "uint256[]",
          "name": "randomWords",
          "type": "uint256[]"
        }
      ],
      "name": "rawFulfillRandomWords",
      "outputs": [],
      "stateMutability": "nonpayable",
      "type": "function"
    },
    {
      "inputs": [
        {
          "internalType": "uint256",
          "name": "",
          "type": "uint256"
        }
      ],
      "name": "requestIds",
      "outputs": [
        {
          "internalType": "uint256",
          "name": "",
          "type": "uint256"
        }
      ],
      "stateMutability": "view",
      "type": "function"
    },
    {
      "inputs": [],
      "name": "requestRandomWords",
      "outputs": [
        {
          "internalType": "uint256",
          "name": "requestId",
          "type": "uint256"
        }
      ],
      "stateMutability": "nonpayable",
      "type": "function"
    },
    {
      "inputs": [
        {
          "internalType": "string",
          "name": "clearMove",
          "type": "string"
        }
      ],
      "name": "reveal",
      "outputs": [
        {
          "internalType": "bool",
          "name": "",
          "type": "bool"
        }
      ],
      "stateMutability": "nonpayable",
      "type": "function"
    },
    {
      "inputs": [
        {
          "internalType": "uint256",
          "name": "",
          "type": "uint256"
        }
      ],
      "name": "s_requests",
      "outputs": [
        {
          "internalType": "bool",
          "name": "fulfilled",
          "type": "bool"
        },
        {
          "internalType": "bool",
          "name": "exists",
          "type": "bool"
        }
      ],
      "stateMutability": "view",
      "type": "function"
    },
    {
      "inputs": [
        {
          "internalType": "address",
          "name": "to",
          "type": "address"
        }
      ],
      "name": "transferOwnership",
      "outputs": [],
      "stateMutability": "nonpayable",
      "type": "function"
    },
    {
      "inputs": [
        {
          "internalType": "uint256",
          "name": "amount",
          "type": "uint256"
        }
      ],
      "name": "withdraw",
      "outputs": [],
      "stateMutability": "nonpayable",
      "type": "function"
    },
    {
      "stateMutability": "payable",
      "type": "receive"
    }
  ],
  "bytecode": "0x60c0604081905260006002819055600355600e80546001600160501b03191666010003000249f017905562001c01388190039081908339810160408190526200004891620001d3565b6001600160601b0319606083901b166080523380600081620000b15760405162461bcd60e51b815260206004820152601860248201527f43616e6e6f7420736574206f776e657220746f207a65726f000000000000000060448201526064015b60405180910390fd5b600080546001600160a01b0319166001600160a01b0384811691909117909155811615620000e457620000e48162000127565b5050600b80546001600160401b03909516600160a01b026001600160e01b03199095166001600160a01b03909416939093179390931790915560a0525062000231565b6001600160a01b038116331415620001825760405162461bcd60e51b815260206004820152601760248201527f43616e6e6f74207472616e7366657220746f2073656c660000000000000000006044820152606401620000a8565b600180546001600160a01b0319166001600160a01b0383811691821790925560008054604051929316917fed8889f560326eb138920d842192f0eb3dd22b4f139c87a2c57538e05bae12789190a350565b600080600060608486031215620001e957600080fd5b83516001600160401b03811681146200020157600080fd5b60208501519093506001600160a01b03811681146200021f57600080fd5b80925050604084015190509250925092565b60805160601c60a0516119a0620002616000396000610b86015260008181610631015261067301526119a06000f3fe60806040526004361061012e5760003560e01c80638796ba8c116100ab578063a168fa891161006f578063a168fa8914610310578063b33d525914610360578063d8a4676f14610376578063e0c86289146103a4578063f2fde38b146103b9578063fc2a88c3146103d957600080fd5b80638796ba8c1461026f5780638890d7571461028f5780638da5cb5b146102c75780639063def5146102e55780639a8ff87c146102fa57600080fd5b806341089bdf116100f257806341089bdf146101cd5780634c261247146101e35780636540742f1461021357806379ba50971461022e578063872175e51461024357600080fd5b806311610c251461013a57806312e505c9146101635780631fe543e3146101785780632e1a7d4d146101985780633d6ae3a7146101b857600080fd5b3661013557005b600080fd5b34801561014657600080fd5b5061015060055481565b6040519081526020015b60405180910390f35b6101766101713660046115b9565b6103ef565b005b34801561018457600080fd5b50610176610193366004611680565b610626565b3480156101a457600080fd5b506101766101b33660046115b9565b6106ae565b3480156101c457600080fd5b50610150607881565b3480156101d957600080fd5b5061015060035481565b3480156101ef57600080fd5b506102036101fe3660046115eb565b610725565b604051901515815260200161015a565b34801561021f57600080fd5b50610150662386f26fc1000081565b34801561023a57600080fd5b50610176610987565b34801561024f57600080fd5b5060095461026290610100900460ff1681565b60405161015a91906117d5565b34801561027b57600080fd5b5061015061028a3660046115b9565b610a31565b34801561029b57600080fd5b506004546102af906001600160a01b031681565b6040516001600160a01b03909116815260200161015a565b3480156102d357600080fd5b506000546001600160a01b03166102af565b3480156102f157600080fd5b50610176610a52565b34801561030657600080fd5b50610150600f5481565b34801561031c57600080fd5b5061034961032b3660046115b9565b600a6020526000908152604090205460ff8082169161010090041682565b60408051921515835290151560208301520161015a565b34801561036c57600080fd5b5061015060025481565b34801561038257600080fd5b506103966103913660046115b9565b610a73565b60405161015a9291906117b2565b3480156103b057600080fd5b50610150610b67565b3480156103c557600080fd5b506101766103d4366004611589565b610d58565b3480156103e557600080fd5b50610150600d5481565b60065415801561040d575060786006546104099190611856565b4211155b156104bd576007546001600160a01b0316156104675760405162461bcd60e51b81526020600482015260146024820152732090383630bcb2b91034b990383630bcb4b7339760611b60448201526064015b60405180910390fd5b600554156104b05760405162461bcd60e51b81526020600482015260166024820152752132ba1034b990383630b1b2b21030b63932b0b23c9760511b604482015260640161045e565b600854156104bd57600080fd5b662386f26fc100003410156105145760405162461bcd60e51b815260206004820152601d60248201527f496e73756666696369656e742062616c61616e636520746f206265742e000000604482015260640161045e565b47610520346002611882565b111561056e5760405162461bcd60e51b815260206004820152601d60248201527f4265742065786365656465642062616c616e6365206f6620686f73742e000000604482015260640161045e565b60065415158061058b575060786006546105889190611856565b42115b156105f0576007546009546005546040516001600160a01b03909316927f4e975787ea7dc6679a1751654c0d39bb1f0b641921163fa3f4694d74b167caea926105e09260009261010090920460ff16916117e3565b60405180910390a26105f0610d69565b6105f8610d95565b610600610e69565b600780546001600160a01b03191633179055346005556008819055610623610f51565b50565b336001600160a01b037f000000000000000000000000000000000000000000000000000000000000000016146106a05760405163073e64fd60e21b81523360048201526001600160a01b037f000000000000000000000000000000000000000000000000000000000000000016602482015260440161045e565b6106aa8282610fcf565b5050565b6106b66110b6565b804710156106f85760405162461bcd60e51b815260206004820152600f60248201526e42616c616e636520746f6f206c6f7760881b604482015260640161045e565b604051339082156108fc029083906000818181858888f193505050501580156106aa573d6000803e3d6000fd5b6007546000906001600160a01b0316331461077b5760405162461bcd60e51b81526020600482015260166024820152752cb7ba9030b932903cb7ba903a343290383630bcb2b960511b604482015260640161045e565b600854158015906107a857506000600954610100900460ff1660038111156107a5576107a5611928565b14155b6108045760405162461bcd60e51b815260206004820152602760248201527f4e6f7420626f746820706c617965727320636f6d6d69747465642074686569726044820152661036b7bb32b99760c91b606482015260840161045e565b60006002836040516020016108199190611796565b60408051601f198184030181529082905261083391611796565b602060405180830381855afa158015610850573d6000803e3d6000fd5b5050506040513d601f19601f8201168201806040525081019061087391906115d2565b9050600061088084611109565b600381111561089157610891611928565b905060008160038111156108a7576108a7611928565b14156108b7575060009392505050565b8160085414156108ea576009805482919060ff191660018360038111156108e0576108e0611928565b02179055506108f4565b5060009392505050565b60095460009060ff16600381111561090e5761090e611928565b600954909150600090610100900460ff16600381111561093057610930611928565b9050600061093e838361118c565b60ff16600381111561095257610952611928565b600754600554919250610972916001600160a01b039091169083906111fa565b61097a610d69565b5060019695505050505050565b6001546001600160a01b031633146109da5760405162461bcd60e51b815260206004820152601660248201527526bab9ba10313290383937b837b9b2b21037bbb732b960511b604482015260640161045e565b60008054336001600160a01b0319808316821784556001805490911690556040516001600160a01b0390921692909183917f8be0079c531659141344cd1fd0a4f28419497f9722a3daafe3b4186f6b6457e091a350565b600c8181548110610a4157600080fd5b600091825260209091200154905081565b6004546001600160a01b03163314610a6957600080fd5b610a71610d95565b565b6000818152600a6020526040812054606090610100900460ff16610acd5760405162461bcd60e51b81526020600482015260116024820152701c995c5d595cdd081b9bdd08199bdd5b99607a1b604482015260640161045e565b6000838152600a602090815260408083208151606081018352815460ff8082161515835261010090910416151581850152600182018054845181870281018701865281815292959394860193830182828015610b4857602002820191906000526020600020905b815481526020019060010190808311610b34575b5050505050815250509050806000015181604001519250925050915091565b6000610b716110b6565b600b54600e546040516305d3b1d360e41b81527f00000000000000000000000000000000000000000000000000000000000000006004820152600160a01b830467ffffffffffffffff166024820152640100000000820461ffff16604482015263ffffffff8083166064830152660100000000000090920490911660848201526001600160a01b0390911690635d3b1d309060a401602060405180830381600087803b158015610c2057600080fd5b505af1158015610c34573d6000803e3d6000fd5b505050506040513d601f19601f82011682018060405250810190610c5891906115d2565b6040805160608101825260008082526001602080840182815285518481528083018752858701908152878552600a83529590932084518154945161ffff1990951690151561ff00191617610100941515949094029390931783559351805195965092949193610ccd9391850192910190611529565b5050600c80546001810182556000919091527fdf6966c971051c3d54ec59162606531493a51404a002842f56009d7e5cf4a8c70182905550600d819055600e5460408051838152660100000000000090920463ffffffff1660208301527fcc58b13ad3eab50626c6a6300b1d139cd6ebb1688a7cced9461c2f7e762665ee910160405180910390a190565b610d606110b6565b610623816113e1565b600060058190556006819055600780546001600160a01b03191690556008556009805461ffff19169055565b6004546001600160a01b0316610da757565b426003541115610db357565b6000600355600480546001600160a01b031981169091556002546001600160a01b0390911690610de05750565b6002805460009182905560405190916001600160a01b0384169183156108fc0291849190818181858888f19350505050158015610e21573d6000803e3d6000fd5b50816001600160a01b03167f28a45baa754d821eb63cfb5c69d4e4394742c59fee22dab38cd5c02fb2af892182604051610e5d91815260200190565b60405180910390a25050565b6004546001600160a01b0316610edf57600480546001600160a01b03191633179055610e9742610e10611856565b60038190556004546040519182526001600160a01b0316907fdfe6afd72ccc12e327008dfe046a3af52d0d4bad81ed2ba3ecd1057345bc7cd1906020015b60405180910390a2565b600a600254610eee919061186e565b341015610ef757565b600354610f0690610e10611856565b6003819055600480546001600160a01b03191633908117909155604051918252907f9d2782b57a253b4896f013de4390a302719b44805cc8978aea12e8ea976ae34390602001610ed5565b610f5961148b565b6009805461ff001916610100836003811115610f7757610f77611928565b02179055507f50847ce5b6a91be6fb0a54f67c828ee9982f5e7b413cf5169c8352e7a0b0e070600960019054906101000a900460ff16604051610fba91906117d5565b60405180910390a1600654610a715742600655565b6000828152600a6020526040902054610100900460ff166110265760405162461bcd60e51b81526020600482015260116024820152701c995c5d595cdd081b9bdd08199bdd5b99607a1b604482015260640161045e565b6000828152600a60209081526040909120805460ff1916600190811782558351611057939290910191840190611529565b508060008151811061106b5761106b61193e565b6020026020010151600f819055507ffe2e2d779dba245964d4e3ef9b994be63856fd568bf7d3ca9e224755cb1bd54d82826040516110aa92919061180c565b60405180910390a15050565b6000546001600160a01b03163314610a715760405162461bcd60e51b815260206004820152601660248201527527b7363c9031b0b63630b1363290313c9037bbb732b960511b604482015260640161045e565b6000808260008151811061111f5761111f61193e565b01602001516001600160f81b0319169050603160f81b8114156111455750600192915050565b601960f91b6001600160f81b0319821614156111645750600292915050565b603360f81b6001600160f81b0319821614156111835750600392915050565b50600092915050565b60008183141561119e575060036111f4565b818311156111cb578160011480156111b65750826003145b156111c3575060026111f4565b5060016111f4565b82821115611183578260011480156111e35750816003145b156111f0575060016111f4565b5060025b92915050565b600182600381111561120e5761120e611928565b14156112e5576000611221826002611882565b905060006064611232836005611882565b61123c919061186e565b9050611247816114c5565b6001600160a01b0385166108fc61125e83856118a1565b6040518115909202916000818181858888f19350505050158015611286573d6000803e3d6000fd5b506007546009546040516001600160a01b03909216917f2069c251d5aacd1cedfc522a09530aa3a904c4ebba85d66ee32970ae48b21ddc916112d69160ff808316926101009004169088906117e3565b60405180910390a25050505050565b60038260038111156112f9576112f9611928565b1415611392576040516001600160a01b0384169082156108fc029083906000818181858888f19350505050158015611335573d6000803e3d6000fd5b506007546009546040516001600160a01b03909216917f3f9f81baa21dbabd3a70aa2d5a1d157a5731197a2816e9be79228aaf56541d43916113859160ff808316926101009004169086906117e3565b60405180910390a2505050565b6007546009546040516001600160a01b03909216917f4e975787ea7dc6679a1751654c0d39bb1f0b641921163fa3f4694d74b167caea916113859160ff808316926101009004169086906117e3565b6001600160a01b03811633141561143a5760405162461bcd60e51b815260206004820152601760248201527f43616e6e6f74207472616e7366657220746f2073656c66000000000000000000604482015260640161045e565b600180546001600160a01b0319166001600160a01b0383811691821790925560008054604051929316917fed8889f560326eb138920d842192f0eb3dd22b4f139c87a2c57538e05bae12789190a350565b60006003611497611514565b6114a191906118e8565b6114ac906001611856565b60ff1660038111156114c0576114c0611928565b905090565b80600260008282546114d79190611856565b909155505060405181815233907f3bed7b1032d6facdb3ed736c642f18affa147a86c1e01f68180f740e08b980739060200160405180910390a250565b60008061151f610b67565b5050600f54919050565b828054828255906000526020600020908101928215611564579160200282015b82811115611564578251825591602001919060010190611549565b50611570929150611574565b5090565b5b808211156115705760008155600101611575565b60006020828403121561159b57600080fd5b81356001600160a01b03811681146115b257600080fd5b9392505050565b6000602082840312156115cb57600080fd5b5035919050565b6000602082840312156115e457600080fd5b5051919050565b600060208083850312156115fe57600080fd5b823567ffffffffffffffff8082111561161657600080fd5b818501915085601f83011261162a57600080fd5b81358181111561163c5761163c611954565b61164e601f8201601f19168501611825565b9150808252868482850101111561166457600080fd5b8084840185840137600090820190930192909252509392505050565b6000806040838503121561169357600080fd5b8235915060208084013567ffffffffffffffff808211156116b357600080fd5b818601915086601f8301126116c757600080fd5b8135818111156116d9576116d9611954565b8060051b91506116ea848301611825565b8181528481019084860184860187018b101561170557600080fd5b600095505b8386101561172857803583526001959095019491860191860161170a565b508096505050505050509250929050565b600081518084526020808501945080840160005b838110156117695781518752958201959082019060010161174d565b509495945050505050565b6004811061179257634e487b7160e01b600052602160045260246000fd5b9052565b600082516117a88184602087016118b8565b9190910192915050565b82151581526040602082015260006117cd6040830184611739565b949350505050565b602081016111f48284611774565b606081016117f18286611774565b6117fe6020830185611774565b826040830152949350505050565b8281526040602082015260006117cd6040830184611739565b604051601f8201601f1916810167ffffffffffffffff8111828210171561184e5761184e611954565b604052919050565b60008219821115611869576118696118fc565b500190565b60008261187d5761187d611912565b500490565b600081600019048311821515161561189c5761189c6118fc565b500290565b6000828210156118b3576118b36118fc565b500390565b60005b838110156118d35781810151838201526020016118bb565b838111156118e2576000848401525b50505050565b6000826118f7576118f7611912565b500690565b634e487b7160e01b600052601160045260246000fd5b634e487b7160e01b600052601260045260246000fd5b634e487b7160e01b600052602160045260246000fd5b634e487b7160e01b600052603260045260246000fd5b634e487b7160e01b600052604160045260246000fdfea26469706673582212201f25c1511d9d36a921917ca1e414581a18d131b33c731c440bcd63213daa04cf64736f6c63430008070033",
  "linkReferences": {},
  "deployedLinkReferences": {}
}