{
  "_format": "hh-sol-artifact-1",
  "contractName": "Rps1",
  "sourceName": "contracts/Rps1.sol",
  "abi": [
    {
      "inputs": [
        {
          "internalType": "uint64",
          "name": "subscriptionId",
          "type": "uint64"
        },
        {
          "internalType": "address",
          "name": "_coordomator",
          "type": "address"
        },
        {
          "internalType": "bytes32",
          "name": "_keyHash",
          "type": "bytes32"
        }
      ],
      "stateMutability": "payable",
      "type": "constructor"
    },
    {
      "inputs": [
        {
          "internalType": "address",
          "name": "have",
          "type": "address"
        },
        {
          "internalType": "address",
          "name": "want",
          "type": "address"
        }
      ],
      "name": "OnlyCoordinatorCanFulfill",
      "type": "error"
    },
    {
      "anonymous": false,
      "inputs": [
        {
          "indexed": true,
          "internalType": "address",
          "name": "player",
          "type": "address"
        },
        {
          "indexed": false,
          "internalType": "enum Rps1.Moves",
          "name": "playerMove",
          "type": "uint8"
        },
        {
          "indexed": false,
          "internalType": "enum Rps1.Moves",
          "name": "hostMove",
          "type": "uint8"
        },
        {
          "indexed": false,
          "internalType": "uint256",
          "name": "bet",
          "type": "uint256"
        }
      ],
      "name": "Draw",
      "type": "event"
    },
    {
      "anonymous": false,
      "inputs": [
        {
          "indexed": true,
          "internalType": "address",
          "name": "player",
          "type": "address"
        },
        {
          "indexed": false,
          "internalType": "enum Rps1.Moves",
          "name": "playerMove",
          "type": "uint8"
        },
        {
          "indexed": false,
          "internalType": "enum Rps1.Moves",
          "name": "hostMove",
          "type": "uint8"
        },
        {
          "indexed": false,
          "internalType": "uint256",
          "name": "bet",
          "type": "uint256"
        }
      ],
      "name": "Lost",
      "type": "event"
    },
    {
      "anonymous": false,
      "inputs": [
        {
          "indexed": true,
          "internalType": "address",
          "name": "from",
          "type": "address"
        },
        {
          "indexed": true,
          "internalType": "address",
          "name": "to",
          "type": "address"
        }
      ],
      "name": "OwnershipTransferRequested",
      "type": "event"
    },
    {
      "anonymous": false,
      "inputs": [
        {
          "indexed": true,
          "internalType": "address",
          "name": "from",
          "type": "address"
        },
        {
          "indexed": true,
          "internalType": "address",
          "name": "to",
          "type": "address"
        }
      ],
      "name": "OwnershipTransferred",
      "type": "event"
    },
    {
      "anonymous": false,
      "inputs": [
        {
          "indexed": false,
          "internalType": "uint256",
          "name": "requestId",
          "type": "uint256"
        },
        {
          "indexed": false,
          "internalType": "uint256[]",
          "name": "randomWords",
          "type": "uint256[]"
        }
      ],
      "name": "RequestFulfilled",
      "type": "event"
    },
    {
      "anonymous": false,
      "inputs": [
        {
          "indexed": false,
          "internalType": "uint256",
          "name": "requestId",
          "type": "uint256"
        },
        {
          "indexed": false,
          "internalType": "uint32",
          "name": "numWords",
          "type": "uint32"
        }
      ],
      "name": "RequestSent",
      "type": "event"
    },
    {
      "anonymous": false,
      "inputs": [
        {
          "indexed": true,
          "internalType": "address",
          "name": "player",
          "type": "address"
        },
        {
          "indexed": false,
          "internalType": "enum Rps1.Moves",
          "name": "playerMove",
          "type": "uint8"
        },
        {
          "indexed": false,
          "internalType": "enum Rps1.Moves",
          "name": "hostMove",
          "type": "uint8"
        },
        {
          "indexed": false,
          "internalType": "uint256",
          "name": "bet",
          "type": "uint256"
        }
      ],
      "name": "Won",
      "type": "event"
    },
    {
      "anonymous": false,
      "inputs": [
        {
          "indexed": false,
          "internalType": "enum Rps1.Moves",
          "name": "hostMove",
          "type": "uint8"
        }
      ],
      "name": "hostCommitedMove",
      "type": "event"
    },
    {
      "inputs": [],
      "name": "MIN_BET",
      "outputs": [
        {
          "internalType": "uint256",
          "name": "",
          "type": "uint256"
        }
      ],
      "stateMutability": "view",
      "type": "function"
    },
    {
      "inputs": [],
      "name": "REVEAL_TIMEOUT",
      "outputs": [
        {
          "internalType": "uint256",
          "name": "",
          "type": "uint256"
        }
      ],
      "stateMutability": "view",
      "type": "function"
    },
    {
      "inputs": [],
      "name": "acceptOwnership",
      "outputs": [],
      "stateMutability": "nonpayable",
      "type": "function"
    },
    {
      "inputs": [],
      "name": "bet",
      "outputs": [
        {
          "internalType": "uint256",
          "name": "",
          "type": "uint256"
        }
      ],
      "stateMutability": "view",
      "type": "function"
    },
    {
      "inputs": [
        {
          "internalType": "uint256",
          "name": "_requestId",
          "type": "uint256"
        }
      ],
      "name": "getRequestStatus",
      "outputs": [
        {
          "internalType": "bool",
          "name": "fulfilled",
          "type": "bool"
        },
        {
          "internalType": "uint256[]",
          "name": "randomWords",
          "type": "uint256[]"
        }
      ],
      "stateMutability": "view",
      "type": "function"
    },
    {
      "inputs": [],
      "name": "lastRequestId",
      "outputs": [
        {
          "internalType": "uint256",
          "name": "",
          "type": "uint256"
        }
      ],
      "stateMutability": "view",
      "type": "function"
    },
    {
      "inputs": [],
      "name": "moveHost",
      "outputs": [
        {
          "internalType": "enum Rps1.Moves",
          "name": "",
          "type": "uint8"
        }
      ],
      "stateMutability": "view",
      "type": "function"
    },
    {
      "inputs": [],
      "name": "owner",
      "outputs": [
        {
          "internalType": "address",
          "name": "",
          "type": "address"
        }
      ],
      "stateMutability": "view",
      "type": "function"
    },
    {
      "inputs": [
        {
          "internalType": "bytes32",
          "name": "_encryptedMove",
          "type": "bytes32"
        }
      ],
      "name": "playBet",
      "outputs": [],
      "stateMutability": "payable",
      "type": "function"
    },
    {
      "inputs": [],
      "name": "randomWordsNum",
      "outputs": [
        {
          "internalType": "uint256",
          "name": "",
          "type": "uint256"
        }
      ],
      "stateMutability": "view",
      "type": "function"
    },
    {
      "inputs": [
        {
          "internalType": "uint256",
          "name": "requestId",
          "type": "uint256"
        },
        {
          "internalType": "uint256[]",
          "name": "randomWords",
          "type": "uint256[]"
        }
      ],
      "name": "rawFulfillRandomWords",
      "outputs": [],
      "stateMutability": "nonpayable",
      "type": "function"
    },
    {
      "inputs": [
        {
          "internalType": "uint256",
          "name": "",
          "type": "uint256"
        }
      ],
      "name": "requestIds",
      "outputs": [
        {
          "internalType": "uint256",
          "name": "",
          "type": "uint256"
        }
      ],
      "stateMutability": "view",
      "type": "function"
    },
    {
      "inputs": [],
      "name": "requestRandomWords",
      "outputs": [
        {
          "internalType": "uint256",
          "name": "requestId",
          "type": "uint256"
        }
      ],
      "stateMutability": "nonpayable",
      "type": "function"
    },
    {
      "inputs": [
        {
          "internalType": "string",
          "name": "clearMove",
          "type": "string"
        }
      ],
      "name": "reveal",
      "outputs": [
        {
          "internalType": "bool",
          "name": "",
          "type": "bool"
        }
      ],
      "stateMutability": "nonpayable",
      "type": "function"
    },
    {
      "inputs": [
        {
          "internalType": "uint256",
          "name": "",
          "type": "uint256"
        }
      ],
      "name": "s_requests",
      "outputs": [
        {
          "internalType": "bool",
          "name": "fulfilled",
          "type": "bool"
        },
        {
          "internalType": "bool",
          "name": "exists",
          "type": "bool"
        }
      ],
      "stateMutability": "view",
      "type": "function"
    },
    {
      "inputs": [
        {
          "internalType": "address",
          "name": "to",
          "type": "address"
        }
      ],
      "name": "transferOwnership",
      "outputs": [],
      "stateMutability": "nonpayable",
      "type": "function"
    },
    {
      "inputs": [
        {
          "internalType": "uint256",
          "name": "amount",
          "type": "uint256"
        }
      ],
      "name": "withdraw",
      "outputs": [],
      "stateMutability": "nonpayable",
      "type": "function"
    },
    {
      "stateMutability": "payable",
      "type": "receive"
    }
  ],
  "bytecode": "0x60c06040819052600c80546001600160501b03191666010003000249f01790556200191f388190039081908339810160408190526200003e91620001cd565b6001600160601b0319606083901b166080523380600081620000a75760405162461bcd60e51b815260206004820152601860248201527f43616e6e6f7420736574206f776e657220746f207a65726f000000000000000060448201526064015b60405180910390fd5b600080546001600160a01b0319166001600160a01b0384811691909117909155811615620000da57620000da8162000121565b5050600160025550600980546001600160401b03909416600160a01b026001600160e01b03199094166001600160a01b039093169290921792909217905560a0526200022b565b6001600160a01b0381163314156200017c5760405162461bcd60e51b815260206004820152601760248201527f43616e6e6f74207472616e7366657220746f2073656c6600000000000000000060448201526064016200009e565b600180546001600160a01b0319166001600160a01b0383811691821790925560008054604051929316917fed8889f560326eb138920d842192f0eb3dd22b4f139c87a2c57538e05bae12789190a350565b600080600060608486031215620001e357600080fd5b83516001600160401b0381168114620001fb57600080fd5b60208501519093506001600160a01b03811681146200021957600080fd5b80925050604084015190509250925092565b60805160601c60a0516116c46200025b6000396000610ad001526000818161058601526105c801526116c46000f3fe6080604052600436106101025760003560e01c8063872175e511610095578063a168fa8911610064578063a168fa891461028b578063d8a4676f146102db578063e0c8628914610309578063f2fde38b1461031e578063fc2a88c31461033e57600080fd5b8063872175e5146102015780638796ba8c1461022d5780638da5cb5b1461024d5780639a8ff87c1461027557600080fd5b80633d6ae3a7116100d15780633d6ae3a71461018c5780634c261247146101a15780636540742f146101d157806379ba5097146101ec57600080fd5b806311610c251461010e57806312e505c9146101375780631fe543e31461014c5780632e1a7d4d1461016c57600080fd5b3661010957005b600080fd5b34801561011a57600080fd5b5061012460035481565b6040519081526020015b60405180910390f35b61014a610145366004611310565b610354565b005b34801561015857600080fd5b5061014a6101673660046113d7565b61057b565b34801561017857600080fd5b5061014a610187366004611310565b610603565b34801561019857600080fd5b50610124607881565b3480156101ad57600080fd5b506101c16101bc366004611342565b61067a565b604051901515815260200161012e565b3480156101dd57600080fd5b50610124662386f26fc1000081565b3480156101f857600080fd5b5061014a6108f2565b34801561020d57600080fd5b5060075461022090610100900460ff1681565b60405161012e919061152c565b34801561023957600080fd5b50610124610248366004611310565b61099c565b34801561025957600080fd5b506000546040516001600160a01b03909116815260200161012e565b34801561028157600080fd5b50610124600d5481565b34801561029757600080fd5b506102c46102a6366004611310565b60086020526000908152604090205460ff8082169161010090041682565b60408051921515835290151560208301520161012e565b3480156102e757600080fd5b506102fb6102f6366004611310565b6109bd565b60405161012e929190611509565b34801561031557600080fd5b50610124610ab1565b34801561032a57600080fd5b5061014a6103393660046112e0565b610ca2565b34801561034a57600080fd5b50610124600b5481565b60045415806103715750607860045461036d91906115ad565b4211155b15610421576005546001600160a01b0316156103cb5760405162461bcd60e51b81526020600482015260146024820152732090383630bcb2b91034b990383630bcb4b7339760611b60448201526064015b60405180910390fd5b600354156104145760405162461bcd60e51b81526020600482015260166024820152752132ba1034b990383630b1b2b21030b63932b0b23c9760511b60448201526064016103c2565b6006541561042157600080fd5b662386f26fc100003410156104785760405162461bcd60e51b815260206004820152601d60248201527f496e73756666696369656e742062616c61616e636520746f206265742e00000060448201526064016103c2565b476104843460026115c5565b11156104d25760405162461bcd60e51b815260206004820152601d60248201527f4265742065786365656465642062616c616e6365206f6620686f73742e00000060448201526064016103c2565b600454158015906104f0575060786004546104ed91906115ad565b42115b15610555576005546007546003546040516001600160a01b03909316927f4e975787ea7dc6679a1751654c0d39bb1f0b641921163fa3f4694d74b167caea926105459260009261010090920460ff169161153a565b60405180910390a2610555610cb3565b600580546001600160a01b03191633179055346003556006819055610578610cdf565b50565b336001600160a01b037f000000000000000000000000000000000000000000000000000000000000000016146105f55760405163073e64fd60e21b81523360048201526001600160a01b037f00000000000000000000000000000000000000000000000000000000000000001660248201526044016103c2565b6105ff8282610d5e565b5050565b61060b610e45565b8047101561064d5760405162461bcd60e51b815260206004820152600f60248201526e42616c616e636520746f6f206c6f7760881b60448201526064016103c2565b604051339082156108fc029083906000818181858888f193505050501580156105ff573d6000803e3d6000fd5b6005546000906001600160a01b031633146106d05760405162461bcd60e51b81526020600482015260166024820152752cb7ba9030b932903cb7ba903a343290383630bcb2b960511b60448201526064016103c2565b600654158015906106fd57506000600754610100900460ff1660038111156106fa576106fa61164c565b14155b6107595760405162461bcd60e51b815260206004820152602760248201527f4e6f7420626f746820706c617965727320636f6d6d69747465642074686569726044820152661036b7bb32b99760c91b60648201526084016103c2565b610761610e98565b600060028360405160200161077691906114ed565b60408051601f1981840301815290829052610790916114ed565b602060405180830381855afa1580156107ad573d6000803e3d6000fd5b5050506040513d601f19601f820116820180604052508101906107d09190611329565b905060006107dd84610ef0565b60038111156107ee576107ee61164c565b905060008160038111156108045761080461164c565b1415610815576000925050506108e3565b816006541415610848576007805482919060ff1916600183600381111561083e5761083e61164c565b0217905550610853565b6000925050506108e3565b60075460009060ff16600381111561086d5761086d61164c565b600754909150600090610100900460ff16600381111561088f5761088f61164c565b9050600061089d8383610f73565b60ff1660038111156108b1576108b161164c565b6005546003549192506108d1916001600160a01b03909116908390610fe1565b6108d9610cb3565b6001955050505050505b6108ed6001600255565b919050565b6001546001600160a01b031633146109455760405162461bcd60e51b815260206004820152601660248201527526bab9ba10313290383937b837b9b2b21037bbb732b960511b60448201526064016103c2565b60008054336001600160a01b0319808316821784556001805490911690556040516001600160a01b0390921692909183917f8be0079c531659141344cd1fd0a4f28419497f9722a3daafe3b4186f6b6457e091a350565b600a81815481106109ac57600080fd5b600091825260209091200154905081565b600081815260086020526040812054606090610100900460ff16610a175760405162461bcd60e51b81526020600482015260116024820152701c995c5d595cdd081b9bdd08199bdd5b99607a1b60448201526064016103c2565b60008381526008602090815260408083208151606081018352815460ff8082161515835261010090910416151581850152600182018054845181870281018701865281815292959394860193830182828015610a9257602002820191906000526020600020905b815481526020019060010190808311610a7e575b5050505050815250509050806000015181604001519250925050915091565b6000610abb610e45565b600954600c546040516305d3b1d360e41b81527f00000000000000000000000000000000000000000000000000000000000000006004820152600160a01b830467ffffffffffffffff166024820152640100000000820461ffff16604482015263ffffffff8083166064830152660100000000000090920490911660848201526001600160a01b0390911690635d3b1d309060a401602060405180830381600087803b158015610b6a57600080fd5b505af1158015610b7e573d6000803e3d6000fd5b505050506040513d601f19601f82011682018060405250810190610ba29190611329565b6040805160608101825260008082526001602080840182815285518481528083018752858701908152878552600883529590932084518154945161ffff1990951690151561ff00191617610100941515949094029390931783559351805195965092949193610c179391850192910190611280565b5050600a80546001810182556000919091527fc65a7bb8d6351c1cf70c95a316cc6a92839c986682d98bc35f958f4883f9d2a80182905550600b819055600c5460408051838152660100000000000090920463ffffffff1660208301527fcc58b13ad3eab50626c6a6300b1d139cd6ebb1688a7cced9461c2f7e762665ee910160405180910390a190565b610caa610e45565b61057881611187565b600060038190556004819055600580546001600160a01b03191690556006556007805461ffff19169055565b610ce7611231565b6007805461ff001916610100836003811115610d0557610d0561164c565b02179055507f50847ce5b6a91be6fb0a54f67c828ee9982f5e7b413cf5169c8352e7a0b0e070600760019054906101000a900460ff16604051610d48919061152c565b60405180910390a1600454610d5c57426004555b565b600082815260086020526040902054610100900460ff16610db55760405162461bcd60e51b81526020600482015260116024820152701c995c5d595cdd081b9bdd08199bdd5b99607a1b60448201526064016103c2565b6000828152600860209081526040909120805460ff1916600190811782558351610de6939290910191840190611280565b5080600081518110610dfa57610dfa611662565b6020026020010151600d819055507ffe2e2d779dba245964d4e3ef9b994be63856fd568bf7d3ca9e224755cb1bd54d8282604051610e39929190611563565b60405180910390a15050565b6000546001600160a01b03163314610d5c5760405162461bcd60e51b815260206004820152601660248201527527b7363c9031b0b63630b1363290313c9037bbb732b960511b60448201526064016103c2565b600280541415610eea5760405162461bcd60e51b815260206004820152601f60248201527f5265656e7472616e637947756172643a207265656e7472616e742063616c6c0060448201526064016103c2565b60028055565b60008082600081518110610f0657610f06611662565b01602001516001600160f81b0319169050603160f81b811415610f2c5750600192915050565b601960f91b6001600160f81b031982161415610f4b5750600292915050565b603360f81b6001600160f81b031982161415610f6a5750600392915050565b50600092915050565b600081831415610f8557506003610fdb565b81831115610fb257816001148015610f9d5750826003145b15610faa57506002610fdb565b506001610fdb565b82821115610f6a57826001148015610fca5750816003145b15610fd757506001610fdb565b5060025b92915050565b6001826003811115610ff557610ff561164c565b1415611098576001600160a01b0383166108fc6110138360026115c5565b6040518115909202916000818181858888f1935050505015801561103b573d6000803e3d6000fd5b506005546007546040516001600160a01b03909216917f2069c251d5aacd1cedfc522a09530aa3a904c4ebba85d66ee32970ae48b21ddc9161108b9160ff8083169261010090041690869061153a565b60405180910390a2505050565b60038260038111156110ac576110ac61164c565b1415611138576040516001600160a01b0384169082156108fc029083906000818181858888f193505050501580156110e8573d6000803e3d6000fd5b506005546007546040516001600160a01b03909216917f3f9f81baa21dbabd3a70aa2d5a1d157a5731197a2816e9be79228aaf56541d439161108b9160ff8083169261010090041690869061153a565b6005546007546040516001600160a01b03909216917f4e975787ea7dc6679a1751654c0d39bb1f0b641921163fa3f4694d74b167caea9161108b9160ff8083169261010090041690869061153a565b6001600160a01b0381163314156111e05760405162461bcd60e51b815260206004820152601760248201527f43616e6e6f74207472616e7366657220746f2073656c6600000000000000000060448201526064016103c2565b600180546001600160a01b0319166001600160a01b0383811691821790925560008054604051929316917fed8889f560326eb138920d842192f0eb3dd22b4f139c87a2c57538e05bae12789190a350565b6000600361123d61126b565b6112479190611614565b6112529060016115ad565b60ff1660038111156112665761126661164c565b905090565b600080611276610ab1565b5050600d54919050565b8280548282559060005260206000209081019282156112bb579160200282015b828111156112bb5782518255916020019190600101906112a0565b506112c79291506112cb565b5090565b5b808211156112c757600081556001016112cc565b6000602082840312156112f257600080fd5b81356001600160a01b038116811461130957600080fd5b9392505050565b60006020828403121561132257600080fd5b5035919050565b60006020828403121561133b57600080fd5b5051919050565b6000602080838503121561135557600080fd5b823567ffffffffffffffff8082111561136d57600080fd5b818501915085601f83011261138157600080fd5b81358181111561139357611393611678565b6113a5601f8201601f1916850161157c565b915080825286848285010111156113bb57600080fd5b8084840185840137600090820190930192909252509392505050565b600080604083850312156113ea57600080fd5b8235915060208084013567ffffffffffffffff8082111561140a57600080fd5b818601915086601f83011261141e57600080fd5b81358181111561143057611430611678565b8060051b915061144184830161157c565b8181528481019084860184860187018b101561145c57600080fd5b600095505b8386101561147f578035835260019590950194918601918601611461565b508096505050505050509250929050565b600081518084526020808501945080840160005b838110156114c0578151875295820195908201906001016114a4565b509495945050505050565b600481106114e957634e487b7160e01b600052602160045260246000fd5b9052565b600082516114ff8184602087016115e4565b9190910192915050565b82151581526040602082015260006115246040830184611490565b949350505050565b60208101610fdb82846114cb565b6060810161154882866114cb565b61155560208301856114cb565b826040830152949350505050565b8281526040602082015260006115246040830184611490565b604051601f8201601f1916810167ffffffffffffffff811182821017156115a5576115a5611678565b604052919050565b600082198211156115c0576115c0611636565b500190565b60008160001904831182151516156115df576115df611636565b500290565b60005b838110156115ff5781810151838201526020016115e7565b8381111561160e576000848401525b50505050565b60008261163157634e487b7160e01b600052601260045260246000fd5b500690565b634e487b7160e01b600052601160045260246000fd5b634e487b7160e01b600052602160045260246000fd5b634e487b7160e01b600052603260045260246000fd5b634e487b7160e01b600052604160045260246000fdfea2646970667358221220588408525b28426db7221185ca01edd9398725cb0976f34c9793ce0fae4afc4f64736f6c63430008070033",
  "linkReferences": {},
  "deployedLinkReferences": {}
}