{
  "_format": "hh-sol-artifact-1",
  "contractName": "Rps1",
  "sourceName": "contracts/Rps1.sol",
  "abi": [
    {
      "inputs": [
        {
          "internalType": "uint64",
          "name": "subscriptionId",
          "type": "uint64"
        },
        {
          "internalType": "address",
          "name": "_coordomator",
          "type": "address"
        },
        {
          "internalType": "bytes32",
          "name": "_keyHash",
          "type": "bytes32"
        }
      ],
      "stateMutability": "payable",
      "type": "constructor"
    },
    {
      "inputs": [
        {
          "internalType": "address",
          "name": "have",
          "type": "address"
        },
        {
          "internalType": "address",
          "name": "want",
          "type": "address"
        }
      ],
      "name": "OnlyCoordinatorCanFulfill",
      "type": "error"
    },
    {
      "anonymous": false,
      "inputs": [
        {
          "indexed": true,
          "internalType": "address",
          "name": "player",
          "type": "address"
        },
        {
          "indexed": false,
          "internalType": "enum Rps1.Moves",
          "name": "playerMove",
          "type": "uint8"
        },
        {
          "indexed": false,
          "internalType": "enum Rps1.Moves",
          "name": "hostMove",
          "type": "uint8"
        },
        {
          "indexed": false,
          "internalType": "uint256",
          "name": "bet",
          "type": "uint256"
        }
      ],
      "name": "Draw",
      "type": "event"
    },
    {
      "anonymous": false,
      "inputs": [
        {
          "indexed": true,
          "internalType": "address",
          "name": "player",
          "type": "address"
        },
        {
          "indexed": false,
          "internalType": "enum Rps1.Moves",
          "name": "playerMove",
          "type": "uint8"
        },
        {
          "indexed": false,
          "internalType": "enum Rps1.Moves",
          "name": "hostMove",
          "type": "uint8"
        },
        {
          "indexed": false,
          "internalType": "uint256",
          "name": "bet",
          "type": "uint256"
        }
      ],
      "name": "Lost",
      "type": "event"
    },
    {
      "anonymous": false,
      "inputs": [
        {
          "indexed": true,
          "internalType": "address",
          "name": "from",
          "type": "address"
        },
        {
          "indexed": true,
          "internalType": "address",
          "name": "to",
          "type": "address"
        }
      ],
      "name": "OwnershipTransferRequested",
      "type": "event"
    },
    {
      "anonymous": false,
      "inputs": [
        {
          "indexed": true,
          "internalType": "address",
          "name": "from",
          "type": "address"
        },
        {
          "indexed": true,
          "internalType": "address",
          "name": "to",
          "type": "address"
        }
      ],
      "name": "OwnershipTransferred",
      "type": "event"
    },
    {
      "anonymous": false,
      "inputs": [
        {
          "indexed": false,
          "internalType": "uint256",
          "name": "requestId",
          "type": "uint256"
        },
        {
          "indexed": false,
          "internalType": "uint256[]",
          "name": "randomWords",
          "type": "uint256[]"
        }
      ],
      "name": "RequestFulfilled",
      "type": "event"
    },
    {
      "anonymous": false,
      "inputs": [
        {
          "indexed": false,
          "internalType": "uint256",
          "name": "requestId",
          "type": "uint256"
        },
        {
          "indexed": false,
          "internalType": "uint32",
          "name": "numWords",
          "type": "uint32"
        }
      ],
      "name": "RequestSent",
      "type": "event"
    },
    {
      "anonymous": false,
      "inputs": [
        {
          "indexed": true,
          "internalType": "address",
          "name": "player",
          "type": "address"
        },
        {
          "indexed": false,
          "internalType": "enum Rps1.Moves",
          "name": "playerMove",
          "type": "uint8"
        },
        {
          "indexed": false,
          "internalType": "enum Rps1.Moves",
          "name": "hostMove",
          "type": "uint8"
        },
        {
          "indexed": false,
          "internalType": "uint256",
          "name": "bet",
          "type": "uint256"
        }
      ],
      "name": "Won",
      "type": "event"
    },
    {
      "anonymous": false,
      "inputs": [
        {
          "indexed": false,
          "internalType": "enum Rps1.Moves",
          "name": "hostMove",
          "type": "uint8"
        }
      ],
      "name": "hostCommitedMove",
      "type": "event"
    },
    {
      "inputs": [],
      "name": "MIN_BET",
      "outputs": [
        {
          "internalType": "uint256",
          "name": "",
          "type": "uint256"
        }
      ],
      "stateMutability": "view",
      "type": "function"
    },
    {
      "inputs": [],
      "name": "REVEAL_TIMEOUT",
      "outputs": [
        {
          "internalType": "uint256",
          "name": "",
          "type": "uint256"
        }
      ],
      "stateMutability": "view",
      "type": "function"
    },
    {
      "inputs": [],
      "name": "acceptOwnership",
      "outputs": [],
      "stateMutability": "nonpayable",
      "type": "function"
    },
    {
      "inputs": [],
      "name": "bet",
      "outputs": [
        {
          "internalType": "uint256",
          "name": "",
          "type": "uint256"
        }
      ],
      "stateMutability": "view",
      "type": "function"
    },
    {
      "inputs": [
        {
          "internalType": "uint256",
          "name": "_requestId",
          "type": "uint256"
        }
      ],
      "name": "getRequestStatus",
      "outputs": [
        {
          "internalType": "bool",
          "name": "fulfilled",
          "type": "bool"
        },
        {
          "internalType": "uint256[]",
          "name": "randomWords",
          "type": "uint256[]"
        }
      ],
      "stateMutability": "view",
      "type": "function"
    },
    {
      "inputs": [],
      "name": "lastRequestId",
      "outputs": [
        {
          "internalType": "uint256",
          "name": "",
          "type": "uint256"
        }
      ],
      "stateMutability": "view",
      "type": "function"
    },
    {
      "inputs": [],
      "name": "moveHost",
      "outputs": [
        {
          "internalType": "enum Rps1.Moves",
          "name": "",
          "type": "uint8"
        }
      ],
      "stateMutability": "view",
      "type": "function"
    },
    {
      "inputs": [],
      "name": "movePlayer",
      "outputs": [
        {
          "internalType": "enum Rps1.Moves",
          "name": "",
          "type": "uint8"
        }
      ],
      "stateMutability": "view",
      "type": "function"
    },
    {
      "inputs": [],
      "name": "owner",
      "outputs": [
        {
          "internalType": "address",
          "name": "",
          "type": "address"
        }
      ],
      "stateMutability": "view",
      "type": "function"
    },
    {
      "inputs": [
        {
          "internalType": "bytes32",
          "name": "_encryptedMove",
          "type": "bytes32"
        }
      ],
      "name": "playBet",
      "outputs": [],
      "stateMutability": "payable",
      "type": "function"
    },
    {
      "inputs": [],
      "name": "randomWordsNum",
      "outputs": [
        {
          "internalType": "uint256",
          "name": "",
          "type": "uint256"
        }
      ],
      "stateMutability": "view",
      "type": "function"
    },
    {
      "inputs": [
        {
          "internalType": "uint256",
          "name": "requestId",
          "type": "uint256"
        },
        {
          "internalType": "uint256[]",
          "name": "randomWords",
          "type": "uint256[]"
        }
      ],
      "name": "rawFulfillRandomWords",
      "outputs": [],
      "stateMutability": "nonpayable",
      "type": "function"
    },
    {
      "inputs": [
        {
          "internalType": "uint256",
          "name": "",
          "type": "uint256"
        }
      ],
      "name": "requestIds",
      "outputs": [
        {
          "internalType": "uint256",
          "name": "",
          "type": "uint256"
        }
      ],
      "stateMutability": "view",
      "type": "function"
    },
    {
      "inputs": [],
      "name": "requestRandomWords",
      "outputs": [
        {
          "internalType": "uint256",
          "name": "requestId",
          "type": "uint256"
        }
      ],
      "stateMutability": "nonpayable",
      "type": "function"
    },
    {
      "inputs": [
        {
          "internalType": "string",
          "name": "clearMove",
          "type": "string"
        }
      ],
      "name": "reveal",
      "outputs": [
        {
          "internalType": "bool",
          "name": "",
          "type": "bool"
        }
      ],
      "stateMutability": "nonpayable",
      "type": "function"
    },
    {
      "inputs": [
        {
          "internalType": "uint256",
          "name": "",
          "type": "uint256"
        }
      ],
      "name": "s_requests",
      "outputs": [
        {
          "internalType": "bool",
          "name": "fulfilled",
          "type": "bool"
        },
        {
          "internalType": "bool",
          "name": "exists",
          "type": "bool"
        }
      ],
      "stateMutability": "view",
      "type": "function"
    },
    {
      "inputs": [
        {
          "internalType": "address",
          "name": "to",
          "type": "address"
        }
      ],
      "name": "transferOwnership",
      "outputs": [],
      "stateMutability": "nonpayable",
      "type": "function"
    },
    {
      "inputs": [
        {
          "internalType": "uint256",
          "name": "amount",
          "type": "uint256"
        }
      ],
      "name": "withdraw",
      "outputs": [],
      "stateMutability": "nonpayable",
      "type": "function"
    },
    {
      "stateMutability": "payable",
      "type": "receive"
    }
  ],
  "bytecode": "0x60c06040819052600c80546001600160501b03191666010003000249f017905562001944388190039081908339810160408190526200003e91620001cd565b6001600160601b0319606083901b166080523380600081620000a75760405162461bcd60e51b815260206004820152601860248201527f43616e6e6f7420736574206f776e657220746f207a65726f000000000000000060448201526064015b60405180910390fd5b600080546001600160a01b0319166001600160a01b0384811691909117909155811615620000da57620000da8162000121565b5050600160025550600980546001600160401b03909416600160a01b026001600160e01b03199094166001600160a01b039093169290921792909217905560a0526200022b565b6001600160a01b0381163314156200017c5760405162461bcd60e51b815260206004820152601760248201527f43616e6e6f74207472616e7366657220746f2073656c6600000000000000000060448201526064016200009e565b600180546001600160a01b0319166001600160a01b0383811691821790925560008054604051929316917fed8889f560326eb138920d842192f0eb3dd22b4f139c87a2c57538e05bae12789190a350565b600080600060608486031215620001e357600080fd5b83516001600160401b0381168114620001fb57600080fd5b60208501519093506001600160a01b03811681146200021957600080fd5b80925050604084015190509250925092565b60805160601c60a0516116e96200025b6000396000610af50152600081816105ab01526105ed01526116e96000f3fe60806040526004361061010d5760003560e01c8063872175e511610095578063a168fa8911610064578063a168fa89146102b0578063d8a4676f14610300578063e0c862891461032e578063f2fde38b14610343578063fc2a88c31461036357600080fd5b8063872175e5146102335780638796ba8c146102525780638da5cb5b146102725780639a8ff87c1461029a57600080fd5b80633d6ae3a7116100dc5780633d6ae3a7146101975780634c261247146101ac5780635284b1f4146101dc5780636540742f1461020357806379ba50971461021e57600080fd5b806311610c251461011957806312e505c9146101425780631fe543e3146101575780632e1a7d4d1461017757600080fd5b3661011457005b600080fd5b34801561012557600080fd5b5061012f60035481565b6040519081526020015b60405180910390f35b610155610150366004611335565b610379565b005b34801561016357600080fd5b506101556101723660046113fc565b6105a0565b34801561018357600080fd5b50610155610192366004611335565b610628565b3480156101a357600080fd5b5061012f607881565b3480156101b857600080fd5b506101cc6101c7366004611367565b61069f565b6040519015158152602001610139565b3480156101e857600080fd5b506007546101f69060ff1681565b6040516101399190611551565b34801561020f57600080fd5b5061012f662386f26fc1000081565b34801561022a57600080fd5b50610155610917565b34801561023f57600080fd5b506007546101f690610100900460ff1681565b34801561025e57600080fd5b5061012f61026d366004611335565b6109c1565b34801561027e57600080fd5b506000546040516001600160a01b039091168152602001610139565b3480156102a657600080fd5b5061012f600d5481565b3480156102bc57600080fd5b506102e96102cb366004611335565b60086020526000908152604090205460ff8082169161010090041682565b604080519215158352901515602083015201610139565b34801561030c57600080fd5b5061032061031b366004611335565b6109e2565b60405161013992919061152e565b34801561033a57600080fd5b5061012f610ad6565b34801561034f57600080fd5b5061015561035e366004611305565b610cc7565b34801561036f57600080fd5b5061012f600b5481565b60045415806103965750607860045461039291906115d2565b4211155b15610446576005546001600160a01b0316156103f05760405162461bcd60e51b81526020600482015260146024820152732090383630bcb2b91034b990383630bcb4b7339760611b60448201526064015b60405180910390fd5b600354156104395760405162461bcd60e51b81526020600482015260166024820152752132ba1034b990383630b1b2b21030b63932b0b23c9760511b60448201526064016103e7565b6006541561044657600080fd5b662386f26fc1000034101561049d5760405162461bcd60e51b815260206004820152601d60248201527f496e73756666696369656e742062616c61616e636520746f206265742e00000060448201526064016103e7565b476104a93460026115ea565b11156104f75760405162461bcd60e51b815260206004820152601d60248201527f4265742065786365656465642062616c616e6365206f6620686f73742e00000060448201526064016103e7565b600454158015906105155750607860045461051291906115d2565b42115b1561057a576005546007546003546040516001600160a01b03909316927f4e975787ea7dc6679a1751654c0d39bb1f0b641921163fa3f4694d74b167caea9261056a9260009261010090920460ff169161155f565b60405180910390a261057a610cd8565b600580546001600160a01b0319163317905534600355600681905561059d610d04565b50565b336001600160a01b037f0000000000000000000000000000000000000000000000000000000000000000161461061a5760405163073e64fd60e21b81523360048201526001600160a01b037f00000000000000000000000000000000000000000000000000000000000000001660248201526044016103e7565b6106248282610d83565b5050565b610630610e6a565b804710156106725760405162461bcd60e51b815260206004820152600f60248201526e42616c616e636520746f6f206c6f7760881b60448201526064016103e7565b604051339082156108fc029083906000818181858888f19350505050158015610624573d6000803e3d6000fd5b6005546000906001600160a01b031633146106f55760405162461bcd60e51b81526020600482015260166024820152752cb7ba9030b932903cb7ba903a343290383630bcb2b960511b60448201526064016103e7565b6006541580159061072257506000600754610100900460ff16600381111561071f5761071f611671565b14155b61077e5760405162461bcd60e51b815260206004820152602760248201527f4e6f7420626f746820706c617965727320636f6d6d69747465642074686569726044820152661036b7bb32b99760c91b60648201526084016103e7565b610786610ebd565b600060028360405160200161079b9190611512565b60408051601f19818403018152908290526107b591611512565b602060405180830381855afa1580156107d2573d6000803e3d6000fd5b5050506040513d601f19601f820116820180604052508101906107f5919061134e565b9050600061080284610f15565b600381111561081357610813611671565b9050600081600381111561082957610829611671565b141561083a57600092505050610908565b81600654141561086d576007805482919060ff1916600183600381111561086357610863611671565b0217905550610878565b600092505050610908565b60075460009060ff16600381111561089257610892611671565b600754909150600090610100900460ff1660038111156108b4576108b4611671565b905060006108c28383610f98565b60ff1660038111156108d6576108d6611671565b6005546003549192506108f6916001600160a01b03909116908390611006565b6108fe610cd8565b6001955050505050505b6109126001600255565b919050565b6001546001600160a01b0316331461096a5760405162461bcd60e51b815260206004820152601660248201527526bab9ba10313290383937b837b9b2b21037bbb732b960511b60448201526064016103e7565b60008054336001600160a01b0319808316821784556001805490911690556040516001600160a01b0390921692909183917f8be0079c531659141344cd1fd0a4f28419497f9722a3daafe3b4186f6b6457e091a350565b600a81815481106109d157600080fd5b600091825260209091200154905081565b600081815260086020526040812054606090610100900460ff16610a3c5760405162461bcd60e51b81526020600482015260116024820152701c995c5d595cdd081b9bdd08199bdd5b99607a1b60448201526064016103e7565b60008381526008602090815260408083208151606081018352815460ff8082161515835261010090910416151581850152600182018054845181870281018701865281815292959394860193830182828015610ab757602002820191906000526020600020905b815481526020019060010190808311610aa3575b5050505050815250509050806000015181604001519250925050915091565b6000610ae0610e6a565b600954600c546040516305d3b1d360e41b81527f00000000000000000000000000000000000000000000000000000000000000006004820152600160a01b830467ffffffffffffffff166024820152640100000000820461ffff16604482015263ffffffff8083166064830152660100000000000090920490911660848201526001600160a01b0390911690635d3b1d309060a401602060405180830381600087803b158015610b8f57600080fd5b505af1158015610ba3573d6000803e3d6000fd5b505050506040513d601f19601f82011682018060405250810190610bc7919061134e565b6040805160608101825260008082526001602080840182815285518481528083018752858701908152878552600883529590932084518154945161ffff1990951690151561ff00191617610100941515949094029390931783559351805195965092949193610c3c93918501929101906112a5565b5050600a80546001810182556000919091527fc65a7bb8d6351c1cf70c95a316cc6a92839c986682d98bc35f958f4883f9d2a80182905550600b819055600c5460408051838152660100000000000090920463ffffffff1660208301527fcc58b13ad3eab50626c6a6300b1d139cd6ebb1688a7cced9461c2f7e762665ee910160405180910390a190565b610ccf610e6a565b61059d816111ac565b600060038190556004819055600580546001600160a01b03191690556006556007805461ffff19169055565b610d0c611256565b6007805461ff001916610100836003811115610d2a57610d2a611671565b02179055507f50847ce5b6a91be6fb0a54f67c828ee9982f5e7b413cf5169c8352e7a0b0e070600760019054906101000a900460ff16604051610d6d9190611551565b60405180910390a1600454610d8157426004555b565b600082815260086020526040902054610100900460ff16610dda5760405162461bcd60e51b81526020600482015260116024820152701c995c5d595cdd081b9bdd08199bdd5b99607a1b60448201526064016103e7565b6000828152600860209081526040909120805460ff1916600190811782558351610e0b9392909101918401906112a5565b5080600081518110610e1f57610e1f611687565b6020026020010151600d819055507ffe2e2d779dba245964d4e3ef9b994be63856fd568bf7d3ca9e224755cb1bd54d8282604051610e5e929190611588565b60405180910390a15050565b6000546001600160a01b03163314610d815760405162461bcd60e51b815260206004820152601660248201527527b7363c9031b0b63630b1363290313c9037bbb732b960511b60448201526064016103e7565b600280541415610f0f5760405162461bcd60e51b815260206004820152601f60248201527f5265656e7472616e637947756172643a207265656e7472616e742063616c6c0060448201526064016103e7565b60028055565b60008082600081518110610f2b57610f2b611687565b01602001516001600160f81b0319169050603160f81b811415610f515750600192915050565b601960f91b6001600160f81b031982161415610f705750600292915050565b603360f81b6001600160f81b031982161415610f8f5750600392915050565b50600092915050565b600081831415610faa57506003611000565b81831115610fd757816001148015610fc25750826003145b15610fcf57506002611000565b506001611000565b82821115610f8f57826001148015610fef5750816003145b15610ffc57506001611000565b5060025b92915050565b600182600381111561101a5761101a611671565b14156110bd576001600160a01b0383166108fc6110388360026115ea565b6040518115909202916000818181858888f19350505050158015611060573d6000803e3d6000fd5b506005546007546040516001600160a01b03909216917f2069c251d5aacd1cedfc522a09530aa3a904c4ebba85d66ee32970ae48b21ddc916110b09160ff8083169261010090041690869061155f565b60405180910390a2505050565b60038260038111156110d1576110d1611671565b141561115d576040516001600160a01b0384169082156108fc029083906000818181858888f1935050505015801561110d573d6000803e3d6000fd5b506005546007546040516001600160a01b03909216917f3f9f81baa21dbabd3a70aa2d5a1d157a5731197a2816e9be79228aaf56541d43916110b09160ff8083169261010090041690869061155f565b6005546007546040516001600160a01b03909216917f4e975787ea7dc6679a1751654c0d39bb1f0b641921163fa3f4694d74b167caea916110b09160ff8083169261010090041690869061155f565b6001600160a01b0381163314156112055760405162461bcd60e51b815260206004820152601760248201527f43616e6e6f74207472616e7366657220746f2073656c6600000000000000000060448201526064016103e7565b600180546001600160a01b0319166001600160a01b0383811691821790925560008054604051929316917fed8889f560326eb138920d842192f0eb3dd22b4f139c87a2c57538e05bae12789190a350565b60006003611262611290565b61126c9190611639565b6112779060016115d2565b60ff16600381111561128b5761128b611671565b905090565b60008061129b610ad6565b5050600d54919050565b8280548282559060005260206000209081019282156112e0579160200282015b828111156112e05782518255916020019190600101906112c5565b506112ec9291506112f0565b5090565b5b808211156112ec57600081556001016112f1565b60006020828403121561131757600080fd5b81356001600160a01b038116811461132e57600080fd5b9392505050565b60006020828403121561134757600080fd5b5035919050565b60006020828403121561136057600080fd5b5051919050565b6000602080838503121561137a57600080fd5b823567ffffffffffffffff8082111561139257600080fd5b818501915085601f8301126113a657600080fd5b8135818111156113b8576113b861169d565b6113ca601f8201601f191685016115a1565b915080825286848285010111156113e057600080fd5b8084840185840137600090820190930192909252509392505050565b6000806040838503121561140f57600080fd5b8235915060208084013567ffffffffffffffff8082111561142f57600080fd5b818601915086601f83011261144357600080fd5b8135818111156114555761145561169d565b8060051b91506114668483016115a1565b8181528481019084860184860187018b101561148157600080fd5b600095505b838610156114a4578035835260019590950194918601918601611486565b508096505050505050509250929050565b600081518084526020808501945080840160005b838110156114e5578151875295820195908201906001016114c9565b509495945050505050565b6004811061150e57634e487b7160e01b600052602160045260246000fd5b9052565b60008251611524818460208701611609565b9190910192915050565b821515815260406020820152600061154960408301846114b5565b949350505050565b6020810161100082846114f0565b6060810161156d82866114f0565b61157a60208301856114f0565b826040830152949350505050565b82815260406020820152600061154960408301846114b5565b604051601f8201601f1916810167ffffffffffffffff811182821017156115ca576115ca61169d565b604052919050565b600082198211156115e5576115e561165b565b500190565b60008160001904831182151516156116045761160461165b565b500290565b60005b8381101561162457818101518382015260200161160c565b83811115611633576000848401525b50505050565b60008261165657634e487b7160e01b600052601260045260246000fd5b500690565b634e487b7160e01b600052601160045260246000fd5b634e487b7160e01b600052602160045260246000fd5b634e487b7160e01b600052603260045260246000fd5b634e487b7160e01b600052604160045260246000fdfea264697066735822122094ed27b0d19ee5cbd40c1de8da40faf59050839393c8f5e9c2e6102d718cd1f364736f6c63430008070033",
  "linkReferences": {},
  "deployedLinkReferences": {}
}