{
  "_format": "hh-sol-artifact-1",
  "contractName": "Rps1",
  "sourceName": "contracts/Rps1.sol",
  "abi": [
    {
      "inputs": [
        {
          "internalType": "uint64",
          "name": "subscriptionId",
          "type": "uint64"
        },
        {
          "internalType": "address",
          "name": "_coordomator",
          "type": "address"
        },
        {
          "internalType": "bytes32",
          "name": "_keyHash",
          "type": "bytes32"
        }
      ],
      "stateMutability": "payable",
      "type": "constructor"
    },
    {
      "inputs": [
        {
          "internalType": "address",
          "name": "have",
          "type": "address"
        },
        {
          "internalType": "address",
          "name": "want",
          "type": "address"
        }
      ],
      "name": "OnlyCoordinatorCanFulfill",
      "type": "error"
    },
    {
      "anonymous": false,
      "inputs": [
        {
          "indexed": true,
          "internalType": "address",
          "name": "player",
          "type": "address"
        },
        {
          "indexed": false,
          "internalType": "enum Rps1.Moves",
          "name": "playerMove",
          "type": "uint8"
        },
        {
          "indexed": false,
          "internalType": "enum Rps1.Moves",
          "name": "hostMove",
          "type": "uint8"
        },
        {
          "indexed": false,
          "internalType": "uint256",
          "name": "bet",
          "type": "uint256"
        }
      ],
      "name": "Draw",
      "type": "event"
    },
    {
      "anonymous": false,
      "inputs": [
        {
          "indexed": true,
          "internalType": "address",
          "name": "player",
          "type": "address"
        },
        {
          "indexed": false,
          "internalType": "enum Rps1.Moves",
          "name": "playerMove",
          "type": "uint8"
        },
        {
          "indexed": false,
          "internalType": "enum Rps1.Moves",
          "name": "hostMove",
          "type": "uint8"
        },
        {
          "indexed": false,
          "internalType": "uint256",
          "name": "bet",
          "type": "uint256"
        }
      ],
      "name": "Lost",
      "type": "event"
    },
    {
      "anonymous": false,
      "inputs": [
        {
          "indexed": true,
          "internalType": "address",
          "name": "from",
          "type": "address"
        },
        {
          "indexed": true,
          "internalType": "address",
          "name": "to",
          "type": "address"
        }
      ],
      "name": "OwnershipTransferRequested",
      "type": "event"
    },
    {
      "anonymous": false,
      "inputs": [
        {
          "indexed": true,
          "internalType": "address",
          "name": "from",
          "type": "address"
        },
        {
          "indexed": true,
          "internalType": "address",
          "name": "to",
          "type": "address"
        }
      ],
      "name": "OwnershipTransferred",
      "type": "event"
    },
    {
      "anonymous": false,
      "inputs": [
        {
          "indexed": false,
          "internalType": "uint256",
          "name": "requestId",
          "type": "uint256"
        },
        {
          "indexed": false,
          "internalType": "uint256[]",
          "name": "randomWords",
          "type": "uint256[]"
        }
      ],
      "name": "RequestFulfilled",
      "type": "event"
    },
    {
      "anonymous": false,
      "inputs": [
        {
          "indexed": false,
          "internalType": "uint256",
          "name": "requestId",
          "type": "uint256"
        },
        {
          "indexed": false,
          "internalType": "uint32",
          "name": "numWords",
          "type": "uint32"
        }
      ],
      "name": "RequestSent",
      "type": "event"
    },
    {
      "anonymous": false,
      "inputs": [
        {
          "indexed": true,
          "internalType": "address",
          "name": "player",
          "type": "address"
        },
        {
          "indexed": false,
          "internalType": "enum Rps1.Moves",
          "name": "playerMove",
          "type": "uint8"
        },
        {
          "indexed": false,
          "internalType": "enum Rps1.Moves",
          "name": "hostMove",
          "type": "uint8"
        },
        {
          "indexed": false,
          "internalType": "uint256",
          "name": "bet",
          "type": "uint256"
        }
      ],
      "name": "Won",
      "type": "event"
    },
    {
      "anonymous": false,
      "inputs": [
        {
          "indexed": false,
          "internalType": "enum Rps1.Moves",
          "name": "hostMove",
          "type": "uint8"
        }
      ],
      "name": "hostCommitedMove",
      "type": "event"
    },
    {
      "inputs": [],
      "name": "MIN_BET",
      "outputs": [
        {
          "internalType": "uint256",
          "name": "",
          "type": "uint256"
        }
      ],
      "stateMutability": "view",
      "type": "function"
    },
    {
      "inputs": [],
      "name": "REVEAL_TIMEOUT",
      "outputs": [
        {
          "internalType": "uint256",
          "name": "",
          "type": "uint256"
        }
      ],
      "stateMutability": "view",
      "type": "function"
    },
    {
      "inputs": [],
      "name": "acceptOwnership",
      "outputs": [],
      "stateMutability": "nonpayable",
      "type": "function"
    },
    {
      "inputs": [],
      "name": "bet",
      "outputs": [
        {
          "internalType": "uint256",
          "name": "",
          "type": "uint256"
        }
      ],
      "stateMutability": "view",
      "type": "function"
    },
    {
      "inputs": [
        {
          "internalType": "uint256",
          "name": "_requestId",
          "type": "uint256"
        }
      ],
      "name": "getRequestStatus",
      "outputs": [
        {
          "internalType": "bool",
          "name": "fulfilled",
          "type": "bool"
        },
        {
          "internalType": "uint256[]",
          "name": "randomWords",
          "type": "uint256[]"
        }
      ],
      "stateMutability": "view",
      "type": "function"
    },
    {
      "inputs": [],
      "name": "lastRequestId",
      "outputs": [
        {
          "internalType": "uint256",
          "name": "",
          "type": "uint256"
        }
      ],
      "stateMutability": "view",
      "type": "function"
    },
    {
      "inputs": [],
      "name": "moveHost",
      "outputs": [
        {
          "internalType": "enum Rps1.Moves",
          "name": "",
          "type": "uint8"
        }
      ],
      "stateMutability": "view",
      "type": "function"
    },
    {
      "inputs": [],
      "name": "owner",
      "outputs": [
        {
          "internalType": "address",
          "name": "",
          "type": "address"
        }
      ],
      "stateMutability": "view",
      "type": "function"
    },
    {
      "inputs": [
        {
          "internalType": "bytes32",
          "name": "_encryptedMove",
          "type": "bytes32"
        }
      ],
      "name": "playBet",
      "outputs": [],
      "stateMutability": "payable",
      "type": "function"
    },
    {
      "inputs": [],
      "name": "randomWordsNum",
      "outputs": [
        {
          "internalType": "uint256",
          "name": "",
          "type": "uint256"
        }
      ],
      "stateMutability": "view",
      "type": "function"
    },
    {
      "inputs": [
        {
          "internalType": "uint256",
          "name": "requestId",
          "type": "uint256"
        },
        {
          "internalType": "uint256[]",
          "name": "randomWords",
          "type": "uint256[]"
        }
      ],
      "name": "rawFulfillRandomWords",
      "outputs": [],
      "stateMutability": "nonpayable",
      "type": "function"
    },
    {
      "inputs": [
        {
          "internalType": "uint256",
          "name": "",
          "type": "uint256"
        }
      ],
      "name": "requestIds",
      "outputs": [
        {
          "internalType": "uint256",
          "name": "",
          "type": "uint256"
        }
      ],
      "stateMutability": "view",
      "type": "function"
    },
    {
      "inputs": [],
      "name": "requestRandomWords",
      "outputs": [
        {
          "internalType": "uint256",
          "name": "requestId",
          "type": "uint256"
        }
      ],
      "stateMutability": "nonpayable",
      "type": "function"
    },
    {
      "inputs": [
        {
          "internalType": "string",
          "name": "clearMove",
          "type": "string"
        }
      ],
      "name": "reveal",
      "outputs": [
        {
          "internalType": "bool",
          "name": "",
          "type": "bool"
        }
      ],
      "stateMutability": "nonpayable",
      "type": "function"
    },
    {
      "inputs": [
        {
          "internalType": "uint256",
          "name": "",
          "type": "uint256"
        }
      ],
      "name": "s_requests",
      "outputs": [
        {
          "internalType": "bool",
          "name": "fulfilled",
          "type": "bool"
        },
        {
          "internalType": "bool",
          "name": "exists",
          "type": "bool"
        }
      ],
      "stateMutability": "view",
      "type": "function"
    },
    {
      "inputs": [
        {
          "internalType": "address",
          "name": "to",
          "type": "address"
        }
      ],
      "name": "transferOwnership",
      "outputs": [],
      "stateMutability": "nonpayable",
      "type": "function"
    },
    {
      "inputs": [
        {
          "internalType": "uint256",
          "name": "amount",
          "type": "uint256"
        }
      ],
      "name": "withdraw",
      "outputs": [],
      "stateMutability": "nonpayable",
      "type": "function"
    },
    {
      "stateMutability": "payable",
      "type": "receive"
    }
  ],
  "bytecode": "0x60c06040819052600b80546001600160501b03191666010003000249f0179055620018ad388190039081908339810160408190526200003e91620001c9565b6001600160601b0319606083901b166080523380600081620000a75760405162461bcd60e51b815260206004820152601860248201527f43616e6e6f7420736574206f776e657220746f207a65726f000000000000000060448201526064015b60405180910390fd5b600080546001600160a01b0319166001600160a01b0384811691909117909155811615620000da57620000da816200011d565b5050600880546001600160401b03909516600160a01b026001600160e01b03199095166001600160a01b03909416939093179390931790915560a0525062000227565b6001600160a01b038116331415620001785760405162461bcd60e51b815260206004820152601760248201527f43616e6e6f74207472616e7366657220746f2073656c6600000000000000000060448201526064016200009e565b600180546001600160a01b0319166001600160a01b0383811691821790925560008054604051929316917fed8889f560326eb138920d842192f0eb3dd22b4f139c87a2c57538e05bae12789190a350565b600080600060608486031215620001df57600080fd5b83516001600160401b0381168114620001f757600080fd5b60208501519093506001600160a01b03811681146200021557600080fd5b80925050604084015190509250925092565b60805160601c60a051611656620002576000396000610aba01526000818161058601526105c801526116566000f3fe6080604052600436106101025760003560e01c8063872175e511610095578063a168fa8911610064578063a168fa891461028b578063d8a4676f146102db578063e0c8628914610309578063f2fde38b1461031e578063fc2a88c31461033e57600080fd5b8063872175e5146102015780638796ba8c1461022d5780638da5cb5b1461024d5780639a8ff87c1461027557600080fd5b80633d6ae3a7116100d15780633d6ae3a71461018c5780634c261247146101a15780636540742f146101d157806379ba5097146101ec57600080fd5b806311610c251461010e57806312e505c9146101375780631fe543e31461014c5780632e1a7d4d1461016c57600080fd5b3661010957005b600080fd5b34801561011a57600080fd5b5061012460025481565b6040519081526020015b60405180910390f35b61014a6101453660046112a2565b610354565b005b34801561015857600080fd5b5061014a610167366004611369565b61057b565b34801561017857600080fd5b5061014a6101873660046112a2565b610603565b34801561019857600080fd5b50610124607881565b3480156101ad57600080fd5b506101c16101bc3660046112d4565b61067a565b604051901515815260200161012e565b3480156101dd57600080fd5b50610124662386f26fc1000081565b3480156101f857600080fd5b5061014a6108dc565b34801561020d57600080fd5b5060065461022090610100900460ff1681565b60405161012e91906114be565b34801561023957600080fd5b506101246102483660046112a2565b610986565b34801561025957600080fd5b506000546040516001600160a01b03909116815260200161012e565b34801561028157600080fd5b50610124600c5481565b34801561029757600080fd5b506102c46102a63660046112a2565b60076020526000908152604090205460ff8082169161010090041682565b60408051921515835290151560208301520161012e565b3480156102e757600080fd5b506102fb6102f63660046112a2565b6109a7565b60405161012e92919061149b565b34801561031557600080fd5b50610124610a9b565b34801561032a57600080fd5b5061014a610339366004611272565b610c8c565b34801561034a57600080fd5b50610124600a5481565b60035415806103715750607860035461036d919061153f565b4211155b15610421576004546001600160a01b0316156103cb5760405162461bcd60e51b81526020600482015260146024820152732090383630bcb2b91034b990383630bcb4b7339760611b60448201526064015b60405180910390fd5b600254156104145760405162461bcd60e51b81526020600482015260166024820152752132ba1034b990383630b1b2b21030b63932b0b23c9760511b60448201526064016103c2565b6005541561042157600080fd5b662386f26fc100003410156104785760405162461bcd60e51b815260206004820152601d60248201527f496e73756666696369656e742062616c61616e636520746f206265742e00000060448201526064016103c2565b47610484346002611557565b11156104d25760405162461bcd60e51b815260206004820152601d60248201527f4265742065786365656465642062616c616e6365206f6620686f73742e00000060448201526064016103c2565b600354158015906104f0575060786003546104ed919061153f565b42115b15610555576004546006546002546040516001600160a01b03909316927f4e975787ea7dc6679a1751654c0d39bb1f0b641921163fa3f4694d74b167caea926105459260009261010090920460ff16916114cc565b60405180910390a2610555610c9d565b600480546001600160a01b03191633179055346002556005819055610578610cc9565b50565b336001600160a01b037f000000000000000000000000000000000000000000000000000000000000000016146105f55760405163073e64fd60e21b81523360048201526001600160a01b037f00000000000000000000000000000000000000000000000000000000000000001660248201526044016103c2565b6105ff8282610d48565b5050565b61060b610e2f565b8047101561064d5760405162461bcd60e51b815260206004820152600f60248201526e42616c616e636520746f6f206c6f7760881b60448201526064016103c2565b604051339082156108fc029083906000818181858888f193505050501580156105ff573d6000803e3d6000fd5b6004546000906001600160a01b031633146106d05760405162461bcd60e51b81526020600482015260166024820152752cb7ba9030b932903cb7ba903a343290383630bcb2b960511b60448201526064016103c2565b600554158015906106fd57506000600654610100900460ff1660038111156106fa576106fa6115de565b14155b6107595760405162461bcd60e51b815260206004820152602760248201527f4e6f7420626f746820706c617965727320636f6d6d69747465642074686569726044820152661036b7bb32b99760c91b60648201526084016103c2565b600060028360405160200161076e919061147f565b60408051601f19818403018152908290526107889161147f565b602060405180830381855afa1580156107a5573d6000803e3d6000fd5b5050506040513d601f19601f820116820180604052508101906107c891906112bb565b905060006107d584610e82565b60038111156107e6576107e66115de565b905060008160038111156107fc576107fc6115de565b141561080c575060009392505050565b81600554141561083f576006805482919060ff19166001836003811115610835576108356115de565b0217905550610849565b5060009392505050565b60065460009060ff166003811115610863576108636115de565b600654909150600090610100900460ff166003811115610885576108856115de565b905060006108938383610f05565b60ff1660038111156108a7576108a76115de565b6004546002549192506108c7916001600160a01b03909116908390610f73565b6108cf610c9d565b5060019695505050505050565b6001546001600160a01b0316331461092f5760405162461bcd60e51b815260206004820152601660248201527526bab9ba10313290383937b837b9b2b21037bbb732b960511b60448201526064016103c2565b60008054336001600160a01b0319808316821784556001805490911690556040516001600160a01b0390921692909183917f8be0079c531659141344cd1fd0a4f28419497f9722a3daafe3b4186f6b6457e091a350565b6009818154811061099657600080fd5b600091825260209091200154905081565b600081815260076020526040812054606090610100900460ff16610a015760405162461bcd60e51b81526020600482015260116024820152701c995c5d595cdd081b9bdd08199bdd5b99607a1b60448201526064016103c2565b60008381526007602090815260408083208151606081018352815460ff8082161515835261010090910416151581850152600182018054845181870281018701865281815292959394860193830182828015610a7c57602002820191906000526020600020905b815481526020019060010190808311610a68575b5050505050815250509050806000015181604001519250925050915091565b6000610aa5610e2f565b600854600b546040516305d3b1d360e41b81527f00000000000000000000000000000000000000000000000000000000000000006004820152600160a01b830467ffffffffffffffff166024820152640100000000820461ffff16604482015263ffffffff8083166064830152660100000000000090920490911660848201526001600160a01b0390911690635d3b1d309060a401602060405180830381600087803b158015610b5457600080fd5b505af1158015610b68573d6000803e3d6000fd5b505050506040513d601f19601f82011682018060405250810190610b8c91906112bb565b6040805160608101825260008082526001602080840182815285518481528083018752858701908152878552600783529590932084518154945161ffff1990951690151561ff00191617610100941515949094029390931783559351805195965092949193610c019391850192910190611212565b5050600980546001810182556000919091527f6e1540171b6c0c960b71a7020d9f60077f6af931a8bbf590da0223dacf75c7af0182905550600a819055600b5460408051838152660100000000000090920463ffffffff1660208301527fcc58b13ad3eab50626c6a6300b1d139cd6ebb1688a7cced9461c2f7e762665ee910160405180910390a190565b610c94610e2f565b61057881611119565b600060028190556003819055600480546001600160a01b03191690556005556006805461ffff19169055565b610cd16111c3565b6006805461ff001916610100836003811115610cef57610cef6115de565b02179055507f50847ce5b6a91be6fb0a54f67c828ee9982f5e7b413cf5169c8352e7a0b0e070600660019054906101000a900460ff16604051610d3291906114be565b60405180910390a1600354610d4657426003555b565b600082815260076020526040902054610100900460ff16610d9f5760405162461bcd60e51b81526020600482015260116024820152701c995c5d595cdd081b9bdd08199bdd5b99607a1b60448201526064016103c2565b6000828152600760209081526040909120805460ff1916600190811782558351610dd0939290910191840190611212565b5080600081518110610de457610de46115f4565b6020026020010151600c819055507ffe2e2d779dba245964d4e3ef9b994be63856fd568bf7d3ca9e224755cb1bd54d8282604051610e239291906114f5565b60405180910390a15050565b6000546001600160a01b03163314610d465760405162461bcd60e51b815260206004820152601660248201527527b7363c9031b0b63630b1363290313c9037bbb732b960511b60448201526064016103c2565b60008082600081518110610e9857610e986115f4565b01602001516001600160f81b0319169050603160f81b811415610ebe5750600192915050565b601960f91b6001600160f81b031982161415610edd5750600292915050565b603360f81b6001600160f81b031982161415610efc5750600392915050565b50600092915050565b600081831415610f1757506003610f6d565b81831115610f4457816001148015610f2f5750826003145b15610f3c57506002610f6d565b506001610f6d565b82821115610efc57826001148015610f5c5750816003145b15610f6957506001610f6d565b5060025b92915050565b6001826003811115610f8757610f876115de565b141561102a576001600160a01b0383166108fc610fa5836002611557565b6040518115909202916000818181858888f19350505050158015610fcd573d6000803e3d6000fd5b506004546006546040516001600160a01b03909216917f2069c251d5aacd1cedfc522a09530aa3a904c4ebba85d66ee32970ae48b21ddc9161101d9160ff808316926101009004169086906114cc565b60405180910390a2505050565b600382600381111561103e5761103e6115de565b14156110ca576040516001600160a01b0384169082156108fc029083906000818181858888f1935050505015801561107a573d6000803e3d6000fd5b506004546006546040516001600160a01b03909216917f3f9f81baa21dbabd3a70aa2d5a1d157a5731197a2816e9be79228aaf56541d439161101d9160ff808316926101009004169086906114cc565b6004546006546040516001600160a01b03909216917f4e975787ea7dc6679a1751654c0d39bb1f0b641921163fa3f4694d74b167caea9161101d9160ff808316926101009004169086906114cc565b6001600160a01b0381163314156111725760405162461bcd60e51b815260206004820152601760248201527f43616e6e6f74207472616e7366657220746f2073656c6600000000000000000060448201526064016103c2565b600180546001600160a01b0319166001600160a01b0383811691821790925560008054604051929316917fed8889f560326eb138920d842192f0eb3dd22b4f139c87a2c57538e05bae12789190a350565b600060036111cf6111fd565b6111d991906115a6565b6111e490600161153f565b60ff1660038111156111f8576111f86115de565b905090565b600080611208610a9b565b5050600c54919050565b82805482825590600052602060002090810192821561124d579160200282015b8281111561124d578251825591602001919060010190611232565b5061125992915061125d565b5090565b5b80821115611259576000815560010161125e565b60006020828403121561128457600080fd5b81356001600160a01b038116811461129b57600080fd5b9392505050565b6000602082840312156112b457600080fd5b5035919050565b6000602082840312156112cd57600080fd5b5051919050565b600060208083850312156112e757600080fd5b823567ffffffffffffffff808211156112ff57600080fd5b818501915085601f83011261131357600080fd5b8135818111156113255761132561160a565b611337601f8201601f1916850161150e565b9150808252868482850101111561134d57600080fd5b8084840185840137600090820190930192909252509392505050565b6000806040838503121561137c57600080fd5b8235915060208084013567ffffffffffffffff8082111561139c57600080fd5b818601915086601f8301126113b057600080fd5b8135818111156113c2576113c261160a565b8060051b91506113d384830161150e565b8181528481019084860184860187018b10156113ee57600080fd5b600095505b838610156114115780358352600195909501949186019186016113f3565b508096505050505050509250929050565b600081518084526020808501945080840160005b8381101561145257815187529582019590820190600101611436565b509495945050505050565b6004811061147b57634e487b7160e01b600052602160045260246000fd5b9052565b60008251611491818460208701611576565b9190910192915050565b82151581526040602082015260006114b66040830184611422565b949350505050565b60208101610f6d828461145d565b606081016114da828661145d565b6114e7602083018561145d565b826040830152949350505050565b8281526040602082015260006114b66040830184611422565b604051601f8201601f1916810167ffffffffffffffff811182821017156115375761153761160a565b604052919050565b60008219821115611552576115526115c8565b500190565b6000816000190483118215151615611571576115716115c8565b500290565b60005b83811015611591578181015183820152602001611579565b838111156115a0576000848401525b50505050565b6000826115c357634e487b7160e01b600052601260045260246000fd5b500690565b634e487b7160e01b600052601160045260246000fd5b634e487b7160e01b600052602160045260246000fd5b634e487b7160e01b600052603260045260246000fd5b634e487b7160e01b600052604160045260246000fdfea2646970667358221220e08f2a06e5d023144bb3974b10c82b6c19c47b5343d0bfcf2a9f1d4f9f2cf5e264736f6c63430008070033",
  "linkReferences": {},
  "deployedLinkReferences": {}
}