{
  "_format": "hh-sol-artifact-1",
  "contractName": "Rps1Mock",
  "sourceName": "contracts/Mock/Rps1Mock.sol",
  "abi": [
    {
      "inputs": [
        {
          "internalType": "uint64",
          "name": "subscriptionId",
          "type": "uint64"
        },
        {
          "internalType": "address",
          "name": "_coordomator",
          "type": "address"
        },
        {
          "internalType": "bytes32",
          "name": "_keyHash",
          "type": "bytes32"
        }
      ],
      "stateMutability": "payable",
      "type": "constructor"
    },
    {
      "inputs": [
        {
          "internalType": "address",
          "name": "have",
          "type": "address"
        },
        {
          "internalType": "address",
          "name": "want",
          "type": "address"
        }
      ],
      "name": "OnlyCoordinatorCanFulfill",
      "type": "error"
    },
    {
      "anonymous": false,
      "inputs": [
        {
          "indexed": true,
          "internalType": "address",
          "name": "player",
          "type": "address"
        },
        {
          "indexed": false,
          "internalType": "enum Rps1.Moves",
          "name": "playerMove",
          "type": "uint8"
        },
        {
          "indexed": false,
          "internalType": "enum Rps1.Moves",
          "name": "hostMove",
          "type": "uint8"
        },
        {
          "indexed": false,
          "internalType": "uint256",
          "name": "bet",
          "type": "uint256"
        }
      ],
      "name": "Draw",
      "type": "event"
    },
    {
      "anonymous": false,
      "inputs": [
        {
          "indexed": true,
          "internalType": "address",
          "name": "player",
          "type": "address"
        },
        {
          "indexed": false,
          "internalType": "enum Rps1.Moves",
          "name": "playerMove",
          "type": "uint8"
        },
        {
          "indexed": false,
          "internalType": "enum Rps1.Moves",
          "name": "hostMove",
          "type": "uint8"
        },
        {
          "indexed": false,
          "internalType": "uint256",
          "name": "bet",
          "type": "uint256"
        }
      ],
      "name": "Lost",
      "type": "event"
    },
    {
      "anonymous": false,
      "inputs": [
        {
          "indexed": true,
          "internalType": "address",
          "name": "from",
          "type": "address"
        },
        {
          "indexed": true,
          "internalType": "address",
          "name": "to",
          "type": "address"
        }
      ],
      "name": "OwnershipTransferRequested",
      "type": "event"
    },
    {
      "anonymous": false,
      "inputs": [
        {
          "indexed": true,
          "internalType": "address",
          "name": "from",
          "type": "address"
        },
        {
          "indexed": true,
          "internalType": "address",
          "name": "to",
          "type": "address"
        }
      ],
      "name": "OwnershipTransferred",
      "type": "event"
    },
    {
      "anonymous": false,
      "inputs": [
        {
          "indexed": false,
          "internalType": "uint256",
          "name": "requestId",
          "type": "uint256"
        },
        {
          "indexed": false,
          "internalType": "uint256[]",
          "name": "randomWords",
          "type": "uint256[]"
        }
      ],
      "name": "RequestFulfilled",
      "type": "event"
    },
    {
      "anonymous": false,
      "inputs": [
        {
          "indexed": false,
          "internalType": "uint256",
          "name": "requestId",
          "type": "uint256"
        },
        {
          "indexed": false,
          "internalType": "uint32",
          "name": "numWords",
          "type": "uint32"
        }
      ],
      "name": "RequestSent",
      "type": "event"
    },
    {
      "anonymous": false,
      "inputs": [
        {
          "indexed": true,
          "internalType": "address",
          "name": "player",
          "type": "address"
        },
        {
          "indexed": false,
          "internalType": "enum Rps1.Moves",
          "name": "playerMove",
          "type": "uint8"
        },
        {
          "indexed": false,
          "internalType": "enum Rps1.Moves",
          "name": "hostMove",
          "type": "uint8"
        },
        {
          "indexed": false,
          "internalType": "uint256",
          "name": "bet",
          "type": "uint256"
        }
      ],
      "name": "Won",
      "type": "event"
    },
    {
      "anonymous": false,
      "inputs": [
        {
          "indexed": false,
          "internalType": "enum Rps1.Moves",
          "name": "hostMove",
          "type": "uint8"
        }
      ],
      "name": "hostCommitedMove",
      "type": "event"
    },
    {
      "inputs": [],
      "name": "MIN_BET",
      "outputs": [
        {
          "internalType": "uint256",
          "name": "",
          "type": "uint256"
        }
      ],
      "stateMutability": "view",
      "type": "function"
    },
    {
      "inputs": [],
      "name": "REVEAL_TIMEOUT",
      "outputs": [
        {
          "internalType": "uint256",
          "name": "",
          "type": "uint256"
        }
      ],
      "stateMutability": "view",
      "type": "function"
    },
    {
      "inputs": [],
      "name": "acceptOwnership",
      "outputs": [],
      "stateMutability": "nonpayable",
      "type": "function"
    },
    {
      "inputs": [],
      "name": "bet",
      "outputs": [
        {
          "internalType": "uint256",
          "name": "",
          "type": "uint256"
        }
      ],
      "stateMutability": "view",
      "type": "function"
    },
    {
      "inputs": [
        {
          "internalType": "uint256",
          "name": "_requestId",
          "type": "uint256"
        }
      ],
      "name": "getRequestStatus",
      "outputs": [
        {
          "internalType": "bool",
          "name": "fulfilled",
          "type": "bool"
        },
        {
          "internalType": "uint256[]",
          "name": "randomWords",
          "type": "uint256[]"
        }
      ],
      "stateMutability": "view",
      "type": "function"
    },
    {
      "inputs": [],
      "name": "lastRequestId",
      "outputs": [
        {
          "internalType": "uint256",
          "name": "",
          "type": "uint256"
        }
      ],
      "stateMutability": "view",
      "type": "function"
    },
    {
      "inputs": [],
      "name": "moveHost",
      "outputs": [
        {
          "internalType": "enum Rps1.Moves",
          "name": "",
          "type": "uint8"
        }
      ],
      "stateMutability": "view",
      "type": "function"
    },
    {
      "inputs": [],
      "name": "movePlayer",
      "outputs": [
        {
          "internalType": "enum Rps1.Moves",
          "name": "",
          "type": "uint8"
        }
      ],
      "stateMutability": "view",
      "type": "function"
    },
    {
      "inputs": [],
      "name": "owner",
      "outputs": [
        {
          "internalType": "address",
          "name": "",
          "type": "address"
        }
      ],
      "stateMutability": "view",
      "type": "function"
    },
    {
      "inputs": [
        {
          "internalType": "bytes32",
          "name": "_encryptedMove",
          "type": "bytes32"
        }
      ],
      "name": "playBet",
      "outputs": [],
      "stateMutability": "payable",
      "type": "function"
    },
    {
      "inputs": [],
      "name": "randomWordsNum",
      "outputs": [
        {
          "internalType": "uint256",
          "name": "",
          "type": "uint256"
        }
      ],
      "stateMutability": "view",
      "type": "function"
    },
    {
      "inputs": [
        {
          "internalType": "uint256",
          "name": "requestId",
          "type": "uint256"
        },
        {
          "internalType": "uint256[]",
          "name": "randomWords",
          "type": "uint256[]"
        }
      ],
      "name": "rawFulfillRandomWords",
      "outputs": [],
      "stateMutability": "nonpayable",
      "type": "function"
    },
    {
      "inputs": [
        {
          "internalType": "uint256",
          "name": "",
          "type": "uint256"
        }
      ],
      "name": "requestIds",
      "outputs": [
        {
          "internalType": "uint256",
          "name": "",
          "type": "uint256"
        }
      ],
      "stateMutability": "view",
      "type": "function"
    },
    {
      "inputs": [],
      "name": "requestRandomWords",
      "outputs": [
        {
          "internalType": "uint256",
          "name": "requestId",
          "type": "uint256"
        }
      ],
      "stateMutability": "nonpayable",
      "type": "function"
    },
    {
      "inputs": [
        {
          "internalType": "string",
          "name": "clearMove",
          "type": "string"
        }
      ],
      "name": "reveal",
      "outputs": [
        {
          "internalType": "bool",
          "name": "",
          "type": "bool"
        }
      ],
      "stateMutability": "nonpayable",
      "type": "function"
    },
    {
      "inputs": [
        {
          "internalType": "uint256",
          "name": "",
          "type": "uint256"
        }
      ],
      "name": "s_requests",
      "outputs": [
        {
          "internalType": "bool",
          "name": "fulfilled",
          "type": "bool"
        },
        {
          "internalType": "bool",
          "name": "exists",
          "type": "bool"
        }
      ],
      "stateMutability": "view",
      "type": "function"
    },
    {
      "inputs": [
        {
          "internalType": "uint256",
          "name": "num",
          "type": "uint256"
        }
      ],
      "name": "setRandomWordsNum",
      "outputs": [],
      "stateMutability": "nonpayable",
      "type": "function"
    },
    {
      "inputs": [
        {
          "internalType": "address",
          "name": "to",
          "type": "address"
        }
      ],
      "name": "transferOwnership",
      "outputs": [],
      "stateMutability": "nonpayable",
      "type": "function"
    },
    {
      "inputs": [
        {
          "internalType": "uint256",
          "name": "amount",
          "type": "uint256"
        }
      ],
      "name": "withdraw",
      "outputs": [],
      "stateMutability": "nonpayable",
      "type": "function"
    },
    {
      "stateMutability": "payable",
      "type": "receive"
    }
  ],
  "bytecode": "0x60c06040819052600c80546001600160501b03191666010003000249f017905562001983388190039081908339810160408190526200003e91620001d4565b6001600160601b0319606083901b166080528282823380600081620000aa5760405162461bcd60e51b815260206004820152601860248201527f43616e6e6f7420736574206f776e657220746f207a65726f000000000000000060448201526064015b60405180910390fd5b600080546001600160a01b0319166001600160a01b0384811691909117909155811615620000dd57620000dd8162000128565b5050600160025550600980546001600160401b03909416600160a01b026001600160e01b03199094166001600160a01b039093169290921792909217905560a0525062000232915050565b6001600160a01b038116331415620001835760405162461bcd60e51b815260206004820152601760248201527f43616e6e6f74207472616e7366657220746f2073656c660000000000000000006044820152606401620000a1565b600180546001600160a01b0319166001600160a01b0383811691821790925560008054604051929316917fed8889f560326eb138920d842192f0eb3dd22b4f139c87a2c57538e05bae12789190a350565b600080600060608486031215620001ea57600080fd5b83516001600160401b03811681146200020257600080fd5b60208501519093506001600160a01b03811681146200022057600080fd5b80925050604084015190509250925092565b60805160601c60a051611721620002626000396000610b2d0152600081816105d6015261061801526117216000f3fe6080604052600436106101185760003560e01c806379ba5097116100a0578063a168fa8911610064578063a168fa89146102db578063d8a4676f1461032b578063e0c8628914610359578063f2fde38b1461036e578063fc2a88c31461038e57600080fd5b806379ba509714610249578063872175e51461025e5780638796ba8c1461027d5780638da5cb5b1461029d5780639a8ff87c146102c557600080fd5b80633d6ae3a7116100e75780633d6ae3a7146101a25780634c261247146101b75780635284b1f4146101e75780636540742f1461020e578063654177841461022957600080fd5b806311610c251461012457806312e505c91461014d5780631fe543e3146101625780632e1a7d4d1461018257600080fd5b3661011f57005b600080fd5b34801561013057600080fd5b5061013a60035481565b6040519081526020015b60405180910390f35b61016061015b36600461136d565b6103a4565b005b34801561016e57600080fd5b5061016061017d366004611434565b6105cb565b34801561018e57600080fd5b5061016061019d36600461136d565b610653565b3480156101ae57600080fd5b5061013a607881565b3480156101c357600080fd5b506101d76101d236600461139f565b6106ca565b6040519015158152602001610144565b3480156101f357600080fd5b506007546102019060ff1681565b6040516101449190611589565b34801561021a57600080fd5b5061013a662386f26fc1000081565b34801561023557600080fd5b5061016061024436600461136d565b610942565b34801561025557600080fd5b5061016061094f565b34801561026a57600080fd5b5060075461020190610100900460ff1681565b34801561028957600080fd5b5061013a61029836600461136d565b6109f9565b3480156102a957600080fd5b506000546040516001600160a01b039091168152602001610144565b3480156102d157600080fd5b5061013a600d5481565b3480156102e757600080fd5b506103146102f636600461136d565b60086020526000908152604090205460ff8082169161010090041682565b604080519215158352901515602083015201610144565b34801561033757600080fd5b5061034b61034636600461136d565b610a1a565b604051610144929190611566565b34801561036557600080fd5b5061013a610b0e565b34801561037a57600080fd5b5061016061038936600461133d565b610cff565b34801561039a57600080fd5b5061013a600b5481565b60045415806103c1575060786004546103bd919061160a565b4211155b15610471576005546001600160a01b03161561041b5760405162461bcd60e51b81526020600482015260146024820152732090383630bcb2b91034b990383630bcb4b7339760611b60448201526064015b60405180910390fd5b600354156104645760405162461bcd60e51b81526020600482015260166024820152752132ba1034b990383630b1b2b21030b63932b0b23c9760511b6044820152606401610412565b6006541561047157600080fd5b662386f26fc100003410156104c85760405162461bcd60e51b815260206004820152601d60248201527f496e73756666696369656e742062616c61616e636520746f206265742e0000006044820152606401610412565b476104d4346002611622565b11156105225760405162461bcd60e51b815260206004820152601d60248201527f4265742065786365656465642062616c616e6365206f6620686f73742e0000006044820152606401610412565b600454158015906105405750607860045461053d919061160a565b42115b156105a5576005546007546003546040516001600160a01b03909316927f4e975787ea7dc6679a1751654c0d39bb1f0b641921163fa3f4694d74b167caea926105959260009261010090920460ff1691611597565b60405180910390a26105a5610d10565b600580546001600160a01b031916331790553460035560068190556105c8610d3c565b50565b336001600160a01b037f000000000000000000000000000000000000000000000000000000000000000016146106455760405163073e64fd60e21b81523360048201526001600160a01b037f0000000000000000000000000000000000000000000000000000000000000000166024820152604401610412565b61064f8282610dbb565b5050565b61065b610ea2565b8047101561069d5760405162461bcd60e51b815260206004820152600f60248201526e42616c616e636520746f6f206c6f7760881b6044820152606401610412565b604051339082156108fc029083906000818181858888f1935050505015801561064f573d6000803e3d6000fd5b6005546000906001600160a01b031633146107205760405162461bcd60e51b81526020600482015260166024820152752cb7ba9030b932903cb7ba903a343290383630bcb2b960511b6044820152606401610412565b6006541580159061074d57506000600754610100900460ff16600381111561074a5761074a6116a9565b14155b6107a95760405162461bcd60e51b815260206004820152602760248201527f4e6f7420626f746820706c617965727320636f6d6d69747465642074686569726044820152661036b7bb32b99760c91b6064820152608401610412565b6107b1610ef5565b60006002836040516020016107c6919061154a565b60408051601f19818403018152908290526107e09161154a565b602060405180830381855afa1580156107fd573d6000803e3d6000fd5b5050506040513d601f19601f820116820180604052508101906108209190611386565b9050600061082d84610f4d565b600381111561083e5761083e6116a9565b90506000816003811115610854576108546116a9565b141561086557600092505050610933565b816006541415610898576007805482919060ff1916600183600381111561088e5761088e6116a9565b02179055506108a3565b600092505050610933565b60075460009060ff1660038111156108bd576108bd6116a9565b600754909150600090610100900460ff1660038111156108df576108df6116a9565b905060006108ed8383610fd0565b60ff166003811115610901576109016116a9565b600554600354919250610921916001600160a01b0390911690839061103e565b610929610d10565b6001955050505050505b61093d6001600255565b919050565b61094a610ea2565b600d55565b6001546001600160a01b031633146109a25760405162461bcd60e51b815260206004820152601660248201527526bab9ba10313290383937b837b9b2b21037bbb732b960511b6044820152606401610412565b60008054336001600160a01b0319808316821784556001805490911690556040516001600160a01b0390921692909183917f8be0079c531659141344cd1fd0a4f28419497f9722a3daafe3b4186f6b6457e091a350565b600a8181548110610a0957600080fd5b600091825260209091200154905081565b600081815260086020526040812054606090610100900460ff16610a745760405162461bcd60e51b81526020600482015260116024820152701c995c5d595cdd081b9bdd08199bdd5b99607a1b6044820152606401610412565b60008381526008602090815260408083208151606081018352815460ff8082161515835261010090910416151581850152600182018054845181870281018701865281815292959394860193830182828015610aef57602002820191906000526020600020905b815481526020019060010190808311610adb575b5050505050815250509050806000015181604001519250925050915091565b6000610b18610ea2565b600954600c546040516305d3b1d360e41b81527f00000000000000000000000000000000000000000000000000000000000000006004820152600160a01b830467ffffffffffffffff166024820152640100000000820461ffff16604482015263ffffffff8083166064830152660100000000000090920490911660848201526001600160a01b0390911690635d3b1d309060a401602060405180830381600087803b158015610bc757600080fd5b505af1158015610bdb573d6000803e3d6000fd5b505050506040513d601f19601f82011682018060405250810190610bff9190611386565b6040805160608101825260008082526001602080840182815285518481528083018752858701908152878552600883529590932084518154945161ffff1990951690151561ff00191617610100941515949094029390931783559351805195965092949193610c7493918501929101906112dd565b5050600a80546001810182556000919091527fc65a7bb8d6351c1cf70c95a316cc6a92839c986682d98bc35f958f4883f9d2a80182905550600b819055600c5460408051838152660100000000000090920463ffffffff1660208301527fcc58b13ad3eab50626c6a6300b1d139cd6ebb1688a7cced9461c2f7e762665ee910160405180910390a190565b610d07610ea2565b6105c8816111e4565b600060038190556004819055600580546001600160a01b03191690556006556007805461ffff19169055565b610d4461128e565b6007805461ff001916610100836003811115610d6257610d626116a9565b02179055507f50847ce5b6a91be6fb0a54f67c828ee9982f5e7b413cf5169c8352e7a0b0e070600760019054906101000a900460ff16604051610da59190611589565b60405180910390a1600454610db957426004555b565b600082815260086020526040902054610100900460ff16610e125760405162461bcd60e51b81526020600482015260116024820152701c995c5d595cdd081b9bdd08199bdd5b99607a1b6044820152606401610412565b6000828152600860209081526040909120805460ff1916600190811782558351610e439392909101918401906112dd565b5080600081518110610e5757610e576116bf565b6020026020010151600d819055507ffe2e2d779dba245964d4e3ef9b994be63856fd568bf7d3ca9e224755cb1bd54d8282604051610e969291906115c0565b60405180910390a15050565b6000546001600160a01b03163314610db95760405162461bcd60e51b815260206004820152601660248201527527b7363c9031b0b63630b1363290313c9037bbb732b960511b6044820152606401610412565b600280541415610f475760405162461bcd60e51b815260206004820152601f60248201527f5265656e7472616e637947756172643a207265656e7472616e742063616c6c006044820152606401610412565b60028055565b60008082600081518110610f6357610f636116bf565b01602001516001600160f81b0319169050603160f81b811415610f895750600192915050565b601960f91b6001600160f81b031982161415610fa85750600292915050565b603360f81b6001600160f81b031982161415610fc75750600392915050565b50600092915050565b600081831415610fe257506003611038565b8183111561100f57816001148015610ffa5750826003145b1561100757506002611038565b506001611038565b82821115610fc7578260011480156110275750816003145b1561103457506001611038565b5060025b92915050565b6001826003811115611052576110526116a9565b14156110f5576001600160a01b0383166108fc611070836002611622565b6040518115909202916000818181858888f19350505050158015611098573d6000803e3d6000fd5b506005546007546040516001600160a01b03909216917f2069c251d5aacd1cedfc522a09530aa3a904c4ebba85d66ee32970ae48b21ddc916110e89160ff80831692610100900416908690611597565b60405180910390a2505050565b6003826003811115611109576111096116a9565b1415611195576040516001600160a01b0384169082156108fc029083906000818181858888f19350505050158015611145573d6000803e3d6000fd5b506005546007546040516001600160a01b03909216917f3f9f81baa21dbabd3a70aa2d5a1d157a5731197a2816e9be79228aaf56541d43916110e89160ff80831692610100900416908690611597565b6005546007546040516001600160a01b03909216917f4e975787ea7dc6679a1751654c0d39bb1f0b641921163fa3f4694d74b167caea916110e89160ff80831692610100900416908690611597565b6001600160a01b03811633141561123d5760405162461bcd60e51b815260206004820152601760248201527f43616e6e6f74207472616e7366657220746f2073656c660000000000000000006044820152606401610412565b600180546001600160a01b0319166001600160a01b0383811691821790925560008054604051929316917fed8889f560326eb138920d842192f0eb3dd22b4f139c87a2c57538e05bae12789190a350565b6000600361129a6112c8565b6112a49190611671565b6112af90600161160a565b60ff1660038111156112c3576112c36116a9565b905090565b6000806112d3610b0e565b5050600d54919050565b828054828255906000526020600020908101928215611318579160200282015b828111156113185782518255916020019190600101906112fd565b50611324929150611328565b5090565b5b808211156113245760008155600101611329565b60006020828403121561134f57600080fd5b81356001600160a01b038116811461136657600080fd5b9392505050565b60006020828403121561137f57600080fd5b5035919050565b60006020828403121561139857600080fd5b5051919050565b600060208083850312156113b257600080fd5b823567ffffffffffffffff808211156113ca57600080fd5b818501915085601f8301126113de57600080fd5b8135818111156113f0576113f06116d5565b611402601f8201601f191685016115d9565b9150808252868482850101111561141857600080fd5b8084840185840137600090820190930192909252509392505050565b6000806040838503121561144757600080fd5b8235915060208084013567ffffffffffffffff8082111561146757600080fd5b818601915086601f83011261147b57600080fd5b81358181111561148d5761148d6116d5565b8060051b915061149e8483016115d9565b8181528481019084860184860187018b10156114b957600080fd5b600095505b838610156114dc5780358352600195909501949186019186016114be565b508096505050505050509250929050565b600081518084526020808501945080840160005b8381101561151d57815187529582019590820190600101611501565b509495945050505050565b6004811061154657634e487b7160e01b600052602160045260246000fd5b9052565b6000825161155c818460208701611641565b9190910192915050565b821515815260406020820152600061158160408301846114ed565b949350505050565b602081016110388284611528565b606081016115a58286611528565b6115b26020830185611528565b826040830152949350505050565b82815260406020820152600061158160408301846114ed565b604051601f8201601f1916810167ffffffffffffffff81118282101715611602576116026116d5565b604052919050565b6000821982111561161d5761161d611693565b500190565b600081600019048311821515161561163c5761163c611693565b500290565b60005b8381101561165c578181015183820152602001611644565b8381111561166b576000848401525b50505050565b60008261168e57634e487b7160e01b600052601260045260246000fd5b500690565b634e487b7160e01b600052601160045260246000fd5b634e487b7160e01b600052602160045260246000fd5b634e487b7160e01b600052603260045260246000fd5b634e487b7160e01b600052604160045260246000fdfea2646970667358221220600eb36aa909ef0c283347fd7896e35d2839802505d5b9c0e4bf8ff2f657d4a264736f6c63430008070033",
  "linkReferences": {},
  "deployedLinkReferences": {}
}